:040000006F10801CE1
:1000040000000000000000006F0080086F00202541
:1000140000000000000000000000000000000000DC
:1000240000000000000000000000000000000000CC
:100034006F004006000000006F00E00500000000B3
:100044006F0080056F0060056F0040056F0020059C
:100054006F0000056F00E0046F00C00400000000A2
:100064006F0060046F0040046F0020046F00000400
:100074006F00A0266F00C003000000006F00600343
:100084006F0040036F0020036F0000036F00E00265
:1000940001A001A001A001A001A001A001A001A054
:1000A40001A001A001A001A001A001A001A001A044
:1000B40001A001A001A001A001A001A0B717004068
:1000C400130770052380E704130780FA2380E704ED
:1000D4000F1000002396A70223800704371700405F
:1000E40083472705898BEDDF8357070537170040C2
:1000F40083472705898BEDFF371700408347270582
:10010400898BEDDF035507058280B71700409306FE
:1001140070052380D704130780FA2380E7040F10A7
:10012400000003C6B7041376F60DA385C704238025
:100134000704137605023DCA03C6A700118A1DE20F
:100144002380D7042380E7040F10000003C7A7000F
:10015400136747002385E7009307004B0100010064
:10016400FD17EDFFB7170040930670052380D704F1
:10017400130780FA2380E7040F1000007D8923947D
:10018400A70001000100010001002380070423806F
:10019400D7042380E7040F1000003727004093069C
:1001A4001005A303D78023800704828013760504F7
:1001B4006DDE03C6A700418A1DE22380D704238095
:1001C400E7040F10000003C7A70013670701238586
:1001D400E7009307007D01000100FD17EDFFB7174D
:1001E4000040930670052380D704130780FA238008
:1001F400E7040F1000007D89136505042394A7000C
:100204000100010001000100238007042380D704BA
:100214002380E7040F1000003727004093063005C1
:1002240049B74111814601468145114506C651220F
:10023400B7170040130770052380E704130780FAFB
:100244002380E7040F10000003C767041367170037
:100254002383E70423800704B2404101828081465E
:10026400014681451145B122B71700409306700538
:100274002380D704130780FA2380E7040F100000BB
:100284007D562396C7022380D7042380E7040F10EA
:10029400000003C76704136717002383E704238060
:1002A400070401A0BD473305F50201007D1575FD66
:1002B4008280411122C426C206C6AA84014463175F
:1002C4009400B24022449244410182800504130503
:1002D400803E4204C13F4180DDB7B7170040130799
:1002E40000032388E702854723A6F18E730020309C
:1002F400411106C69929FDBF2303048095472303B2
:10030400F4802302A480828083076480E3CE07FE06
:1003140023030480828083076480E3CE07FE0345C1
:100324004480828083076480E3CE07FE2302A48096
:100334008280411126C44AC24EC006C61377F50B0B
:10034400AD47AA892E8995446306F70019456D3790
:10035400653F8D444E854D37FD59FD146398340136
:10036400B240A244124982494101828013550901D5
:100374001375F50F453F2209CDB7011126CC06CEE2
:10038400B704080051371545853F713769372AC6C8
:10039400A53F32459377150089EB13651500137556
:1003A400F50FF240E24405618280FD14E9FC014549
:1003B400CDBF397126DC4ADA4ED852D656D45AD239
:1003C4005ED062CEB7E700E006DE66CC6ACA41477B
:1003D40083AB070422C6B8C37D5703AB070083AAC7
:1003E400470023A0E71823A2E718B7170040130714
:1003F40070052380E704130780FA2380E70483C78A
:100404004704130C75FFB684E207137CFC0F854682
:100414002A8A2E89B28937240040E187015763FA7A
:1004240086016308D5008946130700026313D500CB
:100434000157D98F93F7F70F371D00402302FD04AE
:1004440011472303E4801305F00F7D35894C6D3D7E
:1004540063EB8C11B70707003E993787070079557E
:10046400637EE902B3079900636AF702A947631C34
:10047400FA0689E48144493D26850DA0CA850945CB
:100484004D3D850903C5F9FFFD140509613D81C48E
:100494009377F90FFDF7D53569FD7D55B717004002
:1004A400130770052380E704130780FA2380E70409
:1004B40003C74704418B2382E704B7E700E023A086
:1004C4007705F25023A0671123A25711E254324456
:1004D4005259C259325AA25A125B825B724CE24C94
:1004E400524D21618280A5476314FA0685699307FA
:1004F400F00FB3869700B374F900B69493C7F7FF6F
:10050400FD8C33F92701416A056C9387F9FFB3F732
:10051400270199E363FC340193D94900C147E3E619
:1005240037FF89BF8567C169FD17E1B71305800DE2
:1005340063884901130500026384890113051008C7
:10054400CA85C53B1D3D31D94E99B3843441D9B7D1
:10055400CA852D45F93BCE94E38E99F08509653B18
:10056400A38FA9FED5BF9307FAFF93F7F70F63ECA8
:10057400FC0803475D04B70708001377070219E373
:10058400B78707007955E37BF9F033079900E3E770
:10059400E7F089476310FA048980554AE38C04EC38
:1005A400CA8509457933910903A7C9FF91472320D7
:1005B400E48003076480E34E07FE23034481FD17B0
:1005C400EDFBFD14110981C49377F90FE9FF75332D
:1005D40071F5E1B58547E307FAF4CA852D45913BEA
:1005E4001389F4FFE38804E83D339377390091EBF2
:1005F4008326048003A7090093874900E39DE6E668
:10060400BE89CA84F1BFB5476316FA001305900B7F
:10061400E5318DB5B1471305B00AE30BFAFE9947EE
:10062400631EFA02CA852D45293381440D4C214AA3
:10063400DD31639684018327048023A0F9008504B7
:10064400E39844FF832704801317290163550700A7
:100654002392F90005B523A2F90029BD9D4763192A
:10066400FA0281451305B004E931BD4423A0090011
:1006740023A209007D59453193F77400CE9703C72F
:100684000700FD14398D2380A700E39624FFDDB312
:10069400A1476312FA04D5318144630D09008D47E3
:1006A4009304C0036308F9009304000563049901EB
:1006B400930440041375C507E30E95DA19452D39E3
:1006C400A131054515392685B1390945A139753159
:1006D400E31205DAD9B391476319FA0013056006EA
:1006E40021391D311305900925B7E3050AD8F154C2
:1006F40059B309CDB7170040130770052380E704E9
:10070400130780FA2380E7042396A702828019C185
:10071400814799E982803387F500834607003307D0
:10072400F50085072300D700E397C7FEE5B719C195
:10073400FD5781E98280910503A7C5FF1105232E8A
:10074400E5FE7D16E319F6FEF5B7797122D4173468
:100754000000130464A91C4006D626D24AD04ECE0B
:1007640091C782979737000023A007A85C4089CBE4
:1007740003D5818FBD3F5C40829703D5A18F953F00
:100784001C40639907189737000083C7F7B7858B18
:1007940095C797370000A38907B6173700000347AA
:1007A400D7B6914763FCE700792B9737000083C7DE
:1007B400D7B5F9178A07A2979C4382979737000009
:1007C40083C747B9918B89C7971001E0E780A0AA36
:1007D4001C4491C382979387418F98431736000036
:1007E4000346569E3E89973400009384A49D973710
:1007F400000083C7279D93961700BA9683D60600F8
:10080400638006109737000083C7C79B63F2C7084D
:1008140086073E97835507002310070003D5818F71
:100824002EC623900190F1359387C1909C431735D0
:1008340000000345259913172500BA979C43B24538
:100844008297AA8903D5A18F6D359737000083C796
:100854006797139717008327090003D50190134561
:10086400F5FFBA9703D7070033753501598D2390E7
:10087400A70083C70400850793F7F70F1737000015
:100884002302F794173700000347D79363E6E70082
:1008940097370000238807921C40ADEF938741905F
:1008A40098433E8425CB9737000083C757A691CB46
:1008B4009737000083C777A589E7970001E0E780B1
:1008C400404C1C4082972A8431C59C48AA9717370C
:1008D40000002321F790938781909C4385CF03D513
:1008E400818F013D228597F0FFDFE780A01222541B
:1008F400B25092540259F24903D5A18F4561D5BB38
:10090400850793F7F70F97360000238DF68AE3E007
:10091400C7EECDBDB250225492540259F2494561FA
:1009240082809167B7C600409387373023A6F620AC
:100934000F100000973700009387C788884F93876C
:10094400419F9C43316713073730F053B7071000BA
:10095400FD17918F99833A0523A6E6205D8D828049
:100964004111B7170040985F3AC6945F3247E39C41
:10097400E6FE324541018280411106C6D5379736DD
:10098400000083C6A681858AB1C693073033330736
:10099400F502B337F5023983CA07D98F1737000038
:1009A40013074782584B01456303F7023385E74039
:1009B400636BF70037653D0889C637856F081305F3
:1009C4000590198D3E95173700002327F780B24014
:1009D40041018280E5473307F502B337F5022583E9
:1009E400DE0765BF0327C50F8346B50097370000B0
:1009F400938747919C4F5843938616029582904360
:100A0400FD1693F6F60F10C3D04350C3904710C79A
:100A1400D04750C7904B10CBD04B50CB904F10CFFA
:100A2400D04F50CF91C61307070293870702C1BF67
:100A340082808347E50193F7E70FF1EF2A870345A7
:100A4400F50171E9034607018346870009CA834516
:100A5400A7029727000083C7777463E7F50093F72D
:100A64000601C5CF814709CA834787150346771511
:100A7400C18AA207D18F81CA8346B7150347C71518
:100A84002207558FBA97D1CB173700001307079366
:100A94003847411122C406C67D548326070863F3F0
:100AA40086003684184375FB172700000347076F39
:100AB40093168701E18663D906029387C71395834A
:100AC400172700000347276EBA9763D006041D8CCE
:100AD400938701919C4382973335A400B24022440A
:100AE4001345150041018280058B9387C71209CBFA
:100AF4008A079387F7031305D007B3D7A702C9B7AB
:100B04008607FD071305D003CDBFE372F4FC370558
:100B1400C0A82A946DBF014582808280411122C4FD
:100B24001384419E18404AC006C61C5F26C213891E
:100B3400019E9983858BC1C31C5F97240000938415
:100B4400647C93F7F7F91CDF9727000083C7877B42
:100B540093F707048DC3938701919C43829797274A
:100B6400000023A9A77A83C7040093F7F70B17277C
:100B740000002309F778854717270000A306F778B4
:100B840083C7440093F7070481EF9387419F9C43F5
:100B9400D844B8D3930700FC172700002306F77640
:100BA4008387640063D90700832709009C431727C0
:100BB4000000230CF77418401C5F8583858BC9CB18
:100BC400F5571CDF010001000100010001000100D4
:100BD4000100010001000100010001000100010009
:100BE40001000100010001000100010001000100F9
:100BF40001000100010001000100010001000100E9
:100C040001000100010001000100010001000100D8
:100C140001000100010001000100010001000100C8
:100C240001000100010001000100010001000100B8
:100C340001000100010001000100010001000100A8
:100C4400010001009387419F9C4313075004B8CBD4
:100C540018401C5F9183858B89CFBD571CDF938718
:100C6400419F9C4323A80704854717270000230DB1
:100C7400F76883270900D8430583058B19C7D84330
:100C8400759BD8C3D843799BD8C3B24022449244BD
:100C9400024941018280397106DE16DC1ADA1ED857
:100CA4002AD62ED432D236D03ACE3ECC42CA46C808
:100CB40072C676C47AC27EC09535F250E25252535F
:100CC400C2533255A255125682567247E2475248D1
:100CD400C248324EA24E124F824F2161730020301F
:100CE4009387419F9443172700001307A761BC52C1
:100CF40089CF83472700858B89EB83473700858B12
:100D0400FDD79727000023810760828037C7004002
:100D14001306C00393062003972500009385855E80
:100D240083278720C18393F7F7036369F60083273A
:100D34008720C18393F7F70363E6F60083C7450072
:100D4400858BF9DF82809387419F944317270000A6
:100D54001307475BBC5289CB83470700858B91CB34
:100D6400972700002382075A97270000A38E07586D
:100D7400828083471700858BF1DFDDB79387419F1E
:100D8400904337C70040C145E54683278720C18388
:100D940093F7F70363FBF50083278720C18393F759
:100DA400F70363E4F6003C52EDF382801387419E1F
:100DB4001843AA87185F1583058B25EF0345150093
:100DC40015051377C51F19C6B386E70083C6260029
:100DD4002300D60095C59726000083C6065393F6D4
:100DE40006040945A1CAB386E70083C63600054652
:100DF40093F5F6066390C504E206E18663CC060229
:100E04003385E7008347150003470500A20793F7DE
:100E14000770D98F1397070141839376074099C6CA
:100E2400136707802396E19E014582802396F19EF5
:100E3400E5BF054582809386419F8C42368597267F
:100E440000009386264C984593170701C1831378B5
:100E540017203E86630408041377072079C303C769
:100E640026001367170017280000230EE84813070D
:100E74000019B8D1130700F8972500002386E54828
:100E84001387419E0C4337080010D855719B136794
:100E94002700D8D598413367070198C113772610E6
:100EA40005C31376061059CE03C70600136717004F
:100EB400172600002308E6441727000023180744D8
:100EC40083C6460093C7F7FFC207E206E186C183E3
:100ED400184163D106029396170163DE0606305368
:100EE4008D4663E9C600854617260000230ED640CA
:100EF4003453FDFE97260000938606298386460117
:100F040063DD060093960701C18663DC0604705313
:100F1400894663E4C6007453FDFE1447F58F1CC76D
:100F2400828003C716001367170097250000A38B60
:100F3400E53C172700002309073C17270000231767
:100F4400073CA9BF03C73600136717001726000024
:100F5400A30BE63A95B78546172600002306D63A32
:100F640051BF54471396060163510602B706100099
:100F7400FD1674D3972600009386C624944E8506E6
:100F840017260000232CD62449BFA166D58F71B73C
:100F9400397106DE16DC1ADA1ED82AD62ED432D2DD
:100FA40036D03ACE3ECC42CA46C872C676C47AC25D
:100FB4007EC05135F250E2525253C2533255A255BB
:100FC400125682567247E2475248C248324EA24EE7
:100FD400124F824F2161730020301727000013073E
:100FE40027348346B7019727000083C7B736B697DF
:100FF40093F7F70FFD4663EAF6044C4B972600007F
:10100400A380F6329727000083C79731054733172B
:10101400F70097260000A38FF6326D8F1DEF9726F9
:10102400000083C67633B3F6D70213050002814766
:1010340033D6F500058A13F8F70F09CE6399E60055
:1010440097270000A38E072D828081177DB705079F
:101054001377F70F8507E39DA7FC8280938701A090
:101064009843B75702009387279F8326070913964F
:1010740056006358060083260709139666006344E6
:101084000600FD17FDF3828051C9AA870145C9C92D
:101094008D07C207C183F19BC207C18313074003B5
:1010A400636BF702138701A90843138781A81443CC
:1010B4006396A602172700001307070D185B014566
:1010C40025C34111C20706C60545DD8D0297B2400E
:1010D4000145410182801387C1A8F9B70357650010
:1010E40005EF035745006369F702B306F74021464D
:1010F4006370D6021041938687001D8FAA966117EC
:1011040090C22392E6002393060014C12312F50033
:101114002313B50021058280084159BF014582800F
:10112400828001CD938701A903A80700938781A832
:101134008C430147C28763E3B70082809443636FA3
:10114400F50663EDA60613868700E368C5FE03D59E
:101154006700216605066317C50003C6419A0506A4
:101164002382C19A23930700638407031386C1A8CB
:101174001042630FF6000356670019EA83D747004D
:1011840014C383564700B697A1072312F700BA8702
:101194009843E304B7FA9386C1A89442E30FD7F8BF
:1011A40083566700D9FA83D647000356470018438D
:1011B400A106B2962392D70098C382803E87B68751
:0411C4009DBF0000CB
:1011C800974100209381814C17710020130101E39E
:1011D80013054000972500209385456217360020A7
:1011E8001306067E63FAC5008322050023A0550076
:1011F80011059105E3EAC5FE17D501001305C5BA27
:10120800973500209385C57B1386818963FAC500CD
:101218008322050023A0550011059105E3EAC5FEC8
:1012280013858189976500209385C5A36377B500E9
:10123800232005001105E36DB5FE9302800873A015
:101248000230972200209382625B93E2120073902F
:10125800523097220000938282AC7390123473004C
:1012680020303D432A876373C3029377F700BDEFAD
:10127800ADE5937606FF3D8ABA960CC34CC30CC7FE
:101288004CC74107E36BD7FE11E28280B306C34027
:101298008A069702000096966780A6002307B70083
:1012A800A306B7002306B700A305B7002305B700B8
:1012B800A304B7002304B700A303B7002303B700B0
:1012C800A302B7002302B700A301B7002301B700A8
:1012D800A300B7002300B700828093F5F50F93961B
:1012E8008500D58D93960501D58D61B79396270016
:1012F8009702000096968682E78086FA9680C11744
:101308001D8F3E96E374C3F8A5B7B717004003C70F
:1013180077051377E70FA38BE704130700F8A38D6E
:10132800E7043D47238CE70413075003A38CE70425
:101338008280B717004003D587005D715ED64205ED
:10134800418186C6A2C4A6C2CAC04EDE52DC56DAA5
:101358005AD862D466D26AD06ECE9377050C13073A
:101368000008814B638EE718130700046392E716A1
:10137800B7240D8F7D8993840480B3D4A402916728
:10138800938707E8BE94A167938707D0B3D4F40284
:10139800EFA0B10097C701009387C7159043D443C6
:1013A800EFA06134EFA0F1412A8B939C040103D98B
:1013B800818993DC0C01631509000569130909800B
:1013C800B7170040130770052380E704130780FA56
:1013D8002380E7040F1000000547371A0040939D4B
:1013E8000401096C85662389E704D14A814E814549
:1013F800130D0A0413087005130680FA894893DD53
:101408000D01130C0C712943FD1623000D01230057
:10141800CD000F10000023162A0323000D00834778
:101428002A05898BEDDF83570A0583472A05898BAF
:10143800EDFF83472A05898BEDDF83570A05239C37
:101448002189C207C183338597419319050193D92F
:101458000941638609163387B9026350070E850E62
:10146800C20E93DE0E0163EAD80D63DB050A33056D
:10147800B04093150501C185C204C18063D9350BFD
:10148800B7170040130770052380E704130780FA95
:101498002380E7040F1000000965130505713385E3
:1014A800A502239677032380070433459502420556
:1014B8004181B640264496440649F259625AD25AA6
:1014C800425BB25B225C925C025DF24D616182809C
:1014D800B1E3B77489097D8993840480B3C4A402F5
:1014E8009167938707E8BE94A167938707D0B3C431
:1014F800F402EFA0816A97C701009387270079BD9E
:1015080097C70100938787FE856403AB0700938420
:10151800843861BD130B0000954441BD3A89F5B587
:10152800B387FC409399070193D90941B1B709657D
:10153800130505713385A9028DBF3385B74163E46F
:10154800FC003385FD40330585033344B50363450B
:10155800830013150401A9BF4E8536C642C432C2A2
:10156800EFA0D119DA85EFA0416AEFA01113931EFD
:10157800050193DE0E41B307D941C207C183056E49
:101588003E871246224889482943B24663E3C70189
:10159800368742074183631A2701130719006344FA
:1015A80030011307F9FF42074183FD1A93FAFA0F36
:1015B800CA8BCE85E3940AF6239CE18859BF01457E
:1015C800CDBDB717004003D587005D7186C64205BB
:1015D8004181A2C4A6C2CAC04EDE52DC56DA5AD82D
:1015E8005ED662D466D26AD06ECE02C69377050CF8
:1015F80013070008638FE714130700046393E712C7
:10160800B7240D8F7D8993840480B3D4A402916795
:10161800938707E8BE94A167938707D0B3D4F402F1
:10162800EFA0A15797C701009387C7EC9043D44315
:10163800EFA0610BEFA0F1182A89939A040103DB4C
:10164800A18993DA0A0163150B00056B130B0B8054
:10165800B7170040130770052380E704130780FAC3
:101668002380E7040F1000000547939B0401896954
:10167800056A2389E704D14D014D814C93DB0B01A9
:10168800938909717D1A5A8597200020E780C02226
:10169800330C5541420C135C0C41239D6189630353
:1016A8000C16B3079C0363D3070E050D420D135D9B
:1016B8000D01894763ECA70D63DD0C0A33059041E2
:1016C800931C050193DC0C41C204C18063DA8C0BC6
:1016D800B7170040130770052380E704130780FA43
:1016E8002380E7040F100000096513050571338591
:1016F800AC0232472396E70223800704334595025C
:1017080042054181B640264496440649F259625A38
:10171800D25A425BB25B225C925C025DF24D61611F
:101728008280B1E3B77489097D8993840480B3C446
:10173800A4029167938707E8BE94A167938707D0AF
:10174800B3C4F402EFA0614597C70100938707DB94
:10175800F1BD97C70100938767D9856403A907007E
:1017680093848438D9BD130900009544F9B53E8B9C
:1017780019BF3385AA40131C0501135C0C41A9B796
:101788000965130505713305AC028DBF63FEAA0018
:101798003305754133053503A9473344750363C8D9
:1017A800870013150401B1BF3385AB40E5B76285E7
:1017B800EFA0C174CA85EFA04145EFA0016E131DCB
:1017C8000501135D0D413307AB4142074183856530
:1017D800BA876363B700D287C207C183639A670178
:1017E80093071B00634480019307FBFFC207C18373
:1017F800FD1D93FDFD0F5AC6E28CE39A0DF6239D5D
:10180800F18845B70145FDBD41112A83014E930E6C
:10181800407E130F0019930F400663ED6E0A93087C
:10182800001913034006B3781503854E0D4FA14FD9
:10183800337365020D891335150063E7BE0C130871
:10184800F6FF794672984208135808013307C70211
:1018580013D61700BE0732976146B3F6C6021306C1
:101868008070B386C6023697A166F58F42075D8FF2
:10187800B717004083C6F70293F60608A307D100FE
:101888000346F10083C6F70293F60608E394C6FE02
:101898008346F10093F6F60FF1DE93067005238078
:1018A800D704930680FA2380D7040F10000023AAD8
:1018B800070383C6170393E60608A388D702D8DB75
:1018C80003C7170313670704A388E70223800704E5
:1018D800410182807D133368E3039308E016630EA9
:1018E80008003368F3039308D01663080800937858
:1018F800330093B818009388D81633081E01131EB6
:101908000801135E0E0111BF6393E5030548638662
:1019180008000148630303002A8871087298FD15BE
:10192800131E0801C205135E0E01C18139B713F8F1
:10193800150063F4BF007908D5B713381800E5BF60
:10194800914763EEB70217C701001307A7BB8A05C3
:10195800BA959C41BA978287B717004003A7470BEF
:101968001345F5FF698F23AAE70A03A7070B698FB9
:1019780023A8E70A03A7070A798D23A0A70A82806C
:10198800B717004083A6470B1347F5FFF98E23AA24
:10199800D70A83A6070B558D23A8A70A83A6070A8B
:1019A800758F23A0E70A8280B717004003A7470B6B
:1019B800498F23AAE70A03A7070B1345F5FF45BF7D
:1019C800B717004083A6470B1347F5FF758F23AA67
:1019D800E70A03A7070A598D4DB7B717004003A7B1
:1019E800470B498FEDB7B717004003D5870042056D
:1019F80041819377050491EB9377F5013755E80119
:101A0800130505803345F50282809377050C13078B
:101A180000046397E7009377F50137459C1CCDB721
:101A28002165130505D08280B7F700E0C8439C47BD
:101A38008280814737370040A14663C4C70032859A
:101A480082800345B740E38EA6FE3385F500034543
:101A5800050085072304A740CDB797370020938753
:101A6800E7429C43175700201307C71F3E95636E34
:101A7800E50017670020130767386368A700173762
:101A880000202325A7403E858280FD57EDBF4111E8
:101A980022C406C62A84813F2947B307E502B2401B
:101AA8008D83B3D7870222449507B3D7E702373728
:101AB8000040C207C1832316F74041018280716547
:101AC80041111305052006C6D937B737004013075B
:101AD80070F82381E7400D47A381E740130700040E
:101AE800A380E74005472387E740B2404101828051
:101AF8009387818A9C43411106C691C38297938735
:101B0800C18A9C4391C3829703D7618093070019C8
:101B180063F7E70403D581809306F01863E4A6040D
:101B28009386418A03A3060063070300B2401305A6
:101B38000019410102830507098F3385A740E5474E
:101B48003305F5024207418309839307F7FF3E9562
:101B58003345E5021375F50FB24041018280130544
:101B68004006DDBF0145CDBF03A84500411126C28F
:101B780006C622C48347180003480800A944A207E0
:101B8800B3E70701C2070D68C18713082890639659
:101B9800070385473284EF50103BAA8419ED9387D9
:101BA800018A9C4399CB034514000347040022058E
:101BB800598D1335150005058297B24022442685B4
:101BC8009244410182802D453DE7D841411122C40C
:101BD80026C206C68347170003470700B684A20734
:101BE800D98F0D67930697A132846396D702093778
:101BF80083C741806374F5002382A18085472390C1
:101C0800F40083C741802300F4000145B240224418
:101C1800924441018280130787902945E398E7FEA3
:101C2800CC4589472390F400094622859720002057
:101C3800E780A02DD9BF828083474500858BADC73B
:101C4800011122CC2A84035525009385C1AA06CE0A
:101C5800EF50302A058929C50355240001478146DC
:101C68000546ED45EF5020632AC61DC99737002069
:101C7800938707D583D7A70201462C002314F100C8
:101C880085472315F10083C741802300F5000355DC
:101C98002400EF60F00109C5ED452800EF5080777A
:101CA800F2406244056182808280416541119385DA
:101CB800C1AA7D1506C6EF70C070B24097360020E5
:101CC800938606D54146954517350020130545CF1F
:101CD80041016F70406323A0A18A8280411122C410
:101CE80006C6854709446311F50283470600014487
:101CF800238EF18803C741806378F7001705000039
:101D08001305C5F3EF90501F2285B24022444101CC
:101D1800828085476301F50209C909476302E50224
:101D28000D476306E5020945828083C74180238009
:101D3800F500014582809387C18983C70700C5BF25
:101D48009737002083D767C82390F500DDB713873E
:101D5800C180035707002392E500173700201307B7
:101D680027C68356A7020357A7032383F5002390AA
:101D7800D5002391E50075BF411106C6953B83C781
:101D88004180637AF5002382A180170500001305BE
:101D9800E5EAEF907016B240014541018280416743
:101DA8007917630CE502411122C406C685472A84C7
:101DB800639AF50022852244B2409385C1AA410165
:101DC8006F70206089476396F5008545EF90500D48
:101DD80075D1B2402244410182808280CC414111B8
:101DE80006C6328503C6150083C5050022064D8E3A
:101DF80042068D654186138875A2630C060F6348F9
:101E0800C804138845A26306060B634AC800938575
:101E180035A26309B60623900600294679A01388DF
:101E280055A26308060B938565A2E316B6FEC14565
:101E38001D4663ECE5064546198E63F3C7003E86EA
:101E48002390C60097B501009385056E89A813886D
:101E580095A26300060F634E060B1388A5A2630ABA
:101E6800060F938505A5E318B6FA99451D4663EE56
:101E7800E502198E63F3C7003E862390C60093855A
:101E8800418131A89D451D4663E1E5022146198E31
:101E980063F3C7003E862390C6009385018BBA95ED
:101EA80097200020E78060060146B2403285410154
:101EB8008280AD451D46E3EAE5FE3146198E63F39F
:101EC800C7003E862390C60097B5010093858569B3
:101ED800F9B7B1451D46E3EAE5FC3546198E63F3CB
:101EE800C7003E862390C60097B501009385856894
:101EF8007DB7C1451D46E3EAE5FA4546198E63F309
:101F0800C7003E862390C60097B5010093850563F8
:101F180079B7C1451D46E3EAE5F84546198E63F3EE
:101F2800C7003E862390C60097B501009385856556
:101F3800BDB7C1451D46E3EAE5F64546198E63F38C
:101F4800C7003E862390C60097B50100938545607B
:101F5800B9B7B5451D46E3EAE5F43946198E63F38A
:101F6800C7003E862390C60097B501009385C55AE1
:101F78003DB797360020938666BD4146CD45173557
:101F880000201305A5A96F7000384165411193859C
:101F9800C1AB7D1506C622C426C24AC097340020AC
:101FA800938484BBEF70E041973600209386C6CCBB
:101FB8004146C9452685EF700035CC4C2A8909452C
:101FC800893B9387C18283D707001384C1AC1387E9
:101FD80001832312F40083D7A40C035707009385C9
:101FE800C1AD2310F40083D7A40D2316E40003D752
:101FF800A4102311F4000D4585472303F40023148E
:10200800E4002307F400231504002133A2850D45BD
:102018009D2EB24022444A85924402494101828061
:102028008D679387D7A40145631FF6008D4729451F
:10203800639BF500854735456397F600834707009E
:102048000145238DF18A82808D679387D7A4631E0B
:10205800F6008D47639BF50083C7A18B2300F7002B
:1020680085472390F6000145828023900600E5BF4E
:1020780082809387418D9C4303C7818C83C63182BC
:1020880001E781473E85828003D607006316A600D4
:1020980003C66700E308D6FE7D171377F70FA1077D
:1020A800C5B7B2862E86AA8517B501001305C55097
:1020B8006FA0811A2A86B305B04017B50100130531
:1020C800E5516FA061190111930500030D4506CE76
:1020D800EF30800F930500051145EF30E00E9305B2
:1020E800C0030545EF30400E85471306F1008545CE
:1020F80013055030A307F100EF70A128F2400561E5
:1021080082808547631AF5001166130686A98945FA
:1021180003C5918C6F10001F89476317F500894527
:1021280003C5918C6F10A034828085476398F500B1
:1021380019E22380B18C238CC18C82800947639873
:10214800E50011E62380F18C03D5E18B2DA3828075
:102158009387C18C9C43011122CC06CE2E8481CB5F
:102168009C4791C78297F2406244056182806C0067
:1021780013057040EF501135324681452285EF50E6
:10218800B175D5B741119397050122C406C6C18719
:102198002E8463DF070003C5918CEF00904519C1B9
:1021A800EF00903E2165218DB2402244410182809A
:1021B80093F7150091CF173600201306A6AC938528
:1021C800418303C5918CEF60B16F13451400E9BFDB
:1021D80093F725000145E9DB45361166130686A904
:1021E800894503C5918CEF10E011134524006DBF9C
:1021F800797126D24ECE06D622D44AD052CC9147F7
:10220800AA84AE896314F50483D7A5001306E100F8
:10221800854513055030239FF18A23070100238049
:10222800018CEF7001169387C18C9C4391C7DC47E2
:1022380081C7CE8526858297B250225423A2918CDD
:1022480002599254F249624A456182801387418C4F
:102258001843E31AF7FC854503D5E18B8936854594
:1022680003D5E18BBD21C16703DAE18BF917631B45
:10227800FA0205449305E100130550412380018CBF
:10228800A381818223070100EF50D1238347E10016
:10229800B1E303C7818D9147E317F7F82D35238CF8
:1022A800018C51B79387418D03A9070003C4818C22
:1022B80069D00355290011C99305E100EF50D027D3
:1022C80009C54C455285EF70C00F7D141374F40F87
:1022D8002109F9BF9387018D9C4383C74700898BE8
:1022E800CDDB9305000A0D45EF20106E9305000A1B
:1022F8001145EF20706D81450545EF20F06C130600
:10230800E10085451305503023078100EF70610710
:1023180049B7011117050000130505E706CE22CCC1
:10232800EF1060381384918C85471306F1008545BA
:102338002300A40013054041A307F100EF60410109
:102348007D55EF40B03E7D55EF7080041D31EFF0B4
:10235800DF95CD2C170500001305E5DAEFF0BF97E0
:1023680017050000130505D12126034504008545FE
:10237800EF00F066F24062440561828023A6B18CCA
:1023880023A8A18C828023AAB18C2384A18C82806B
:10239800C841011122CC06CE3284034615000345FC
:1023A80005002206498E19CB0D681308B8A42D45DF
:1023B80063090607F2406244056182800D651308CF
:1023C800D5A463000603130825A2630C06017578DB
:1023D8001308E85C3298420813580801854863EEF0
:1023E800080303D5A50036C632C46131B24615C10B
:1023F8009387C18C9C4322468345550003A307005D
:10240800A2876244F2400345450036878546056148
:10241800028323900600014571BF1308B5A4631712
:10242800060303D681821D45E376C7F8198E63D368
:10243800C7003E86CC452390C60042064182BA9525
:10244800228597200020E78040ACF1B79307A5A428
:102458006318F60091472390F6001146CC45CDB796
:10246800930785906317F60089472390F60009467D
:10247800F5B79307E5A4631AF600DC452390160127
:1024880083C707002300F40079B713057590E31498
:10249800A6F8D9BF011122CC06CE26CA4AC82317EE
:1024A800D1002D4429EBDC412E89B28403C41700E6
:1024B80083C7070022045D8C8D679386D7A46306C3
:1024C800D400938627A3631FD4020355A900553669
:1024D80019E101440DA09387C18C9C4383455500A5
:1024E8000345450003A807002286A6871307E100D5
:1024F800814602982A842285F2406244D2444249A5
:10250800056182809386C7A46314D4028357E100CF
:1025180005473544E391E7FE034506001304000828
:10252800E3EBA7FC9387C18C9C43DC43829755B7A8
:1025380093862790631AD4028356E1008547EF50AB
:1025480080202A844DF99387418D8356A9009C43A6
:1025580003C7818C3DDF03D627006302D6047D17AD
:102568001377F70FA107FDB79387E7A4E313F4F6F2
:102578008357E10005473544E39FE7F60345060026
:1025880013040008E3E9A7F6DC452380A700938736
:10259800C18C9C433335A0000905DC4341BF138738
:1025A800C18C184303C5470083C5570083C714006F
:1025B8000328070003C70400A2078946D98FC2076A
:1025C800C18705476383E7008D460D66A687130715
:1025D800E10013062690029839BF0145828025E361
:1025E80003A84500AE888347180003480800A207DF
:1025F800B3E707010D68930EF8A4639AD7039147D0
:102608003548639FF60203A5C8004111B2851146FB
:1026180006C697200020E780408F9387418E9C4311
:1026280005458297B240014842854101828093085E
:10263800289029486396170185476F50C0102D4888
:102648004285828041654111938541AE7D1506C65C
:10265800EF603057B240972600209386666941465E
:102668009945172500201305A56241016F60B049FF
:1026780023A2A18E82800111938541AE22CC06CE81
:102688002A84EF500007058929C10147814605467C
:10269800ED452285EF4030402AC605C9972700201E
:1026A8009387075F83D7A70501462C002314F10001
:1026B80085472315F100230005002285EF50505F60
:1026C80009C5ED452800EF40F054F2406244056129
:1026D800828041677917630CE502411122C406C65E
:1026E80085472A84639AF50022852244B24093855F
:1026F80041AE41016F60F04C89476396F50085450E
:10270800EF80107A75D1B2402244410182808280E4
:10271800411106C6EFE0FFC1BD4763F4A700EFE033
:102728005FC1EFE01FEABD4763F4A700EFE07FE970
:10273800B24083D5A18903D5818941016F00906496
:10274800411193962500AA852D4506C697100020AD
:10275800E780E045B240014541018280411126C22F
:102768009394250022C44AC02A843289A686AA8561
:102778000146254506C697100020E7804043A686F7
:102788004A86A285294597100020E7804042B2403A
:10279800224492440249014541018280011122CC20
:1027A80006CE3714004026CA4AC84EC652C48344CF
:1027B8007405034AB4058349840503499405EFE089
:1027C800DFB48347A40593F4F40F137AFA0F93E761
:1027D8001700230DF40493F9F90F1379F90FB717BC
:1027E800004003C7A705058B6DFF03D5C705A38D5B
:1027F8004705238C3705A38C2705A38B9704F24044
:102808006244D2444249B249224A05618280411158
:102818009397050122C406C6C1872E8463DB07008F
:10282800C92B11C195232165218DB2402244410154
:10283800828093F7150013C51500E5FB93972501D2
:1028480063D00702EF109175E13537F602001306E1
:1028580006E0896503C5818EEF00D02A0965E9B7CE
:10286800939715010145E3D207FC17B5010013053D
:10287800E5DCEF90113013060064916503C5818E85
:10288800EF00502811654DB71D71494697B50100F5
:10289800938545D617B501001305C50186CEEF000F
:1028A800300E01E917B50100130505D6EF90712C1C
:1028B80001A037F700E0F9575CC7FD571CCB8566C8
:1028C800B7E700E023A0D7101306701010C3B84371
:1028D8004146B0C323A0D718B8C30F100000130691
:1028E800C00381454808EF0090039737002093877D
:1028F80027893ECA896793870780231CF100ED4723
:10290800A301F1029307A0102312F102D147230378
:10291800F102A167938707E03ECE970700009387EF
:1029280067E2BEC497070000938787E3BEC6854762
:102938002304F102B5472308F10297F7FFFF9387B5
:10294800E70E3EDAB7F5070097070000938747E5DB
:102958003EDE8146970700009387C7DB7000E105DC
:102968001945BEC097100020E780602458088147A9
:10297800994670003E960346060085070507A30A98
:10298800C700E398D7FED24791C7035781018567EF
:102998006373F70001A04808EF007054AA8501C9C5
:1029A80017B50100130585C7EF90110B01A0F6407C
:1029B80025618280411117050000130585E506C6CB
:1029C80022C4EF00504E1384818E2300A4002928CE
:1029D800034504002244B24037F60200130606E01D
:1029E800896541016F001012411122C406C63714CF
:1029F8000040930670052300D404130780FA2300CF
:102A0800E4040F1000008347F40293F7A70FA3070D
:102A1800F4022300D4042300E4040F1000008347C9
:102A2800F40293E72700A307F402DD311305407E83
:102A38002300040481470147814605468545EFE0A8
:102A4800BFDC2244B240014541016F0070768280AC
:102A58007D15954763E8A71017B70100130747BE10
:102A68000A053A951C41797122D406D626D24AD055
:102A78004ECEBA972E8482872C0013054030EF6023
:102A880091022C000545EF30D04817B50100130519
:102A9800E5BEEF90110E4DA017B50100130505BF57
:102AA800CDBF83C5350017B50100130525BF9304B5
:102AB8004400EF90617A1309A40097B90100938943
:102AC800E9BF83C504004E858504EF90E178E39A59
:102AD80024FF8357A4000D6613060620914503C5FD
:102AE80021852398F184EF00F00117B50100130543
:102AF80065BD45B717B501001305C5BD59BF83C7E7
:102B08002500114717B50100130545BE6384E70486
:102B18001947639AE70283C5650017B501001305D5
:102B2800A5BEEF9061738547300085451305503089
:102B38002304F100EF60F104B25022549254025978
:102B4800F249456182801547E39FE7FC17B501000C
:102B5800130545BDEF90F101F9B717B5010013054D
:102B6800E5BD05BF82803A883E8789E6834608002E
:102B78006FF00FCB85476395F600C2866FF0CFCC18
:102B88008947639FF60041111306401F894503C515
:102B9800218506C6EF000077B240014541018280D9
:102BA80001458280411117B501001305E5AA22C429
:102BB80006C62E84EF90416A93170401C18763DD2E
:102BC800070003C52185352411C17D2A2165218D82
:102BD800B2402244410182809377140013451400C7
:102BE800E5FB9377440099CF83C721851307401FDE
:102BF80081462146A14503D50185EF60C1451345AE
:102C08004400F9B79377240013452400F1F3937730
:102C180084000145D5DF03D50185EF60111D13063A
:102C2800803EA14503C52185F12D134584004DB78C
:102C3800011117050000130525F706CE22CC26CA78
:102C4800EF0070269384218505442380A40070003A
:102C580085451305503023068100EF608172138685
:102C680001849D4513056030EF60A171172600208F
:102C78001306C609F14513057030EF60817017B669
:102C880001001306269ED5450145EF40401C8D479F
:102C980070009145130570402305F100230481005D
:102CA800A305810002C6A3040100EF50616A300049
:102CB800854513050040EF50A1691306910085452D
:102CC80013051040EF50C1681306A1008545130590
:102CD8002040EF50E1671306B100854513055040C9
:102CE800EF50016799477000854505452306F100B7
:102CF800EFE0DFFEEFF06FA9972500209385050030
:102D080013858184EFF08FE703C50400A145C1292D
:102D1800F2406244D2440561828041111305800467
:102D280006C697100020E78000BE371700408327AB
:102D3800870A8D451305002093E707202324F70A07
:102D4800EFE01FC0EFE0BFD717B50100130585B648
:102D5800EF902162153EB939EF607109EFF06FDB32
:102D6800C13D97100020E78060D823AC05FE1C41C8
:102D780091E7010001000CC18280BA8703A787FF91
:102D88006DFF23ACB7FE82801DC18346E5FF1307A4
:102D9800F00F9147639EE600411106C69720002078
:102DA800E780E0B7B24081473E8541018280954780
:102DB8003E85828001E9014582800145B240224476
:102DC80041018280411122C42A84210542059305CC
:102DD800D004418106C697200020E780A0AA71DDB3
:102DE800FD5723200500231285002303F500210544
:102DF800F1B71387018F1C43411122C426C24AC070
:102E080006C601440149BA8489E7A1658D250DC428
:102E180001A803C7E7FF6318A7021DC8A165C1265B
:102E28009840832784FF6317E40223A8F18EFD5797
:102E3800232C04FE230FF4FE2285B2402244924440
:102E480002494101828011E03E8983A787FF6DBF57
:102E58003E84E5BF232CF9FED9BFA9C9411122C47C
:102E680006C62A849747002083C757B52E8563680E
:102E7800F400193F0D45B24022444101828083A7E6
:102E880085FF99E703C7E5FF9307F00F6305F70090
:102E9800E53D1545CDB7238F85FE1385018FF135A7
:102EA80022852244B240A165410115AE15458280B4
:102EB80023A8018E8280938781909C4399E33E8565
:102EC800828003D727006316B70003C70700E3080B
:102ED800A7FEDC47E5B74111939705014AC006C62E
:102EE80022C426C2C1872E8963DE0700193711C1A3
:102EF800613D21653345A900B2402244924402490C
:102F080041018280AA860145E5D901443D47B3576E
:102F18008940858B95CB9387C18F8443BD4791E2C8
:102F28008147A2978E070545BE9433158500131473
:102F380005019C40C8404180829723A0040023A239
:102F48000400334524014DBF0504E312E4FC0144A9
:102F5800CDBF974700209387A7A29C53411122C455
:102F680006C61384418595C7829723AAA184084081
:102F7800B74703009387D73F3305F502B7A7260065
:102F8800938737ECB24022443E9523AAA18441019D
:102F9800828097470020938767A218409C4BBA9776
:102FA80023AAF184E9B79387418F9043974600207D
:102FB80083C6D6A0814713F7F70F6360D70A174770
:102FC8000020034717B4914763E0E70A97470020BA
:102FD80083C7C7B7918BC9EB0111680006CE22CC15
:102FE80026CAEFC02041FD56630FD50C32479747DC
:102FF800002083C7179A63F3E70C174700201307CD
:10300800E79B4047174700200347C7986305D40646
:10301800058B21CF51473304E40263F1870A9710E7
:103028000020E780A013B2476373F400A287174714
:10303800002003471796998F3E959747002093875E
:1030480027948387470163CD0702B707C0A8636940
:10305800F502B70740573E9525A085071397170037
:1030680032970357E7FF21DB82801307900233046E
:10307800E40205805DB762076187635707001D8D0D
:1030880019E93705C0A801A8E37BF5FE3707C0A8F2
:10309800B307F7403E95974700209387678EDC5328
:1030A800829709ED97470020938747A59C4F99C7BA
:1030B800EF106124EF107102EF104118F2406244E2
:1030C800D24405618280974700209387278FDC4789
:1030D800E386A7FE174700201307878A8346470120
:1030E800BA84858A9DC65144338487029747002055
:1030F80083C7378AE3F487FC97100020E78000062F
:103108009747002083C7F7881D8C22958387440141
:103118001DBF13049002338487020580C1BF2A961D
:1031280009E582800505A30FB5FEE31DC5FED5BFE1
:1031380081473307F5000307070019E33E858280BE
:103148008507C5BF01112E8626CAAA841315060154
:103158009305F004418122CC06CE32C69710002098
:10316800E78040722A8419C53246A6859710002048
:10317800E780A0D92285F2406244D244056182806A
:1031880081476314F600054582803307F5008507FB
:10319800B386F5000347070083C6F6FFE383E6FE20
:1031A800014582809307F6FFBE952A966313C500F2
:1031B8008280FD1583C715000505A30FF5FEFDB731
:1031C800814711E9014582803307F500034707006D
:1031D800E31AB7FE8507E319F6FE0545828097379F
:1031E800002083C7B77D637FF5001387418F93174E
:1031F800150008433E9583570500DD8D2310B50063
:10320800014582800D458280FD5701111737002046
:10321800232CF77A9387819022CC80434EC6973926
:1032280000209389E97526CA4AC852C456C206CEF8
:103238005AC02A8981444E8A973A0020938A0A788C
:10324800184481476374E900B307274103A749027B
:103258001CC409CB03A7CA0063F6E7001737002090
:103268002324F776A1E7835524009DE95C44A1E86F
:1032780023A4F190032BC400228597100020E78037
:10328800006A5A8455FC83274A0285CF6244F2407B
:10329800D2444249B249224A924A024B056121B3BB
:1032A800034504002D3F5C4081CB1CC48357240098
:1032B800D5DFA2844044F9B71C44CDDBC5BFDCC4CC
:1032C80055BFF2406244D2444249B249224A924A26
:1032D800024B056182809737002083C7376E637180
:1032E800F5021387418F93171500084393C5F5FF1F
:1032F8003E9583570500FD8D2310B500014582805A
:103308000D4582809737002083C7576B6364F500AB
:1033180001458280411122C426C24AC006C62A84B9
:103328002E89B284493E01C504C505452DA0936583
:1033380004F0C205C181414597100020E780805400
:103348000DE1973700209387A7639C5B81C7A2850F
:10335800114582970145B2402244924402494101F5
:103368008280938781909C438DE323A4A190854715
:103378002326050004C52311250123008500A30089
:10338800F5002322050055B7BA87D84775FFC8C787
:10339800F9BF45C539715AD0138BC18F22DC26DAA3
:1033A8004AD84ED652D45ECE66CA6AC86EC606DE03
:1033B80056D262CC3689328AAE89AA8401445A8DA3
:1033C800B94D854BF94C03270B00131C3400937A35
:1033D800F40F62971C43A9EF13B5FA0013451500C3
:1033E800B3978B0063F65D01930714FFB397FB0057
:1033F80093950701C181528631371DC983270D0076
:103408000145E29784C323A237016304090023001E
:103418005901F2506254D2544259B259225A925A1E
:10342800025BF24B624CD24C424DB24D216182801C
:103438000504E31A94F92145E9BF09458280411141
:1034480022C426C24AC006C6AA842E8932845D3D9B
:10345800CA852685EFF03FA609C940C10145B2409B
:10346800224492440249410182802145CDBF411145
:1034780022C426C24AC006C6AA842E89EFF0BFA37A
:103488002A8419C1231105009737002083C70753E1
:103498006394970023902191CA8526852D3D014587
:1034A80011E01945B2402244924402494101828008
:1034B8007547636BA7041387C18F1443411126C254
:1034C80093143500A696944222C406C6AA873A8465
:1034D800094595C613B5F7003947134515006373B9
:1034E800F700C5178545B395F500C205C181413779
:1034F8001C400145A69723A0070023A20700B2405D
:10350800224492444101828009458280411106C6C5
:10351800EFF07F9A09C50845B24041018280014514
:10352800E5BFF54763EDA7049387C18F9C43131745
:103538003500BA979843894721C7011126CA06CE94
:103548009334F50022CCB94793C4140063F3A70061
:10355800451505443314A400420441802EC626852F
:10356800A2856D378947324609C5A2852685593B0C
:103578008147F2406244D2443E8505618280894792
:103588003E858280239CA18E239DB18E828041112D
:1035980006C623A2A1900295B2409737002023A91E
:1035A800A742014541018280994763E9B7008A052E
:1035B800973700209387C742BE9588C18280411102
:1035C80006C6EF60C109714681451735002013050D
:1035D8002541B136130640028145173500201305F1
:1035E800E53DEFF0DFB323A4019023A201909737C4
:1035F800002083C7A73A13D527008D8B3E958D47AA
:103608003305F5029305101035051375F50F973737
:1036180000202386A73A99473305F5021305050FBD
:1036280097100020E780002623AEA18E35C9994760
:10363800173600200346A6383306F60281451306DE
:10364800060FEFF0DFAD9387C18F9C439387070F79
:1036580023A6F19017370020034767360A07BA9761
:1036680023AAF18EEFF0DF8455269387C190984303
:103678009737002083C7973493962700BA96170682
:1036880000001306868590C293862700850793F766
:10369800F70F8A0797350020A382D532BA9790C3CF
:1036A800B240410182809737002083C737311737EE
:1036B80000200347C73063F1E7021387C19018431E
:1036C8009386170017360020A30AD62E9396270054
:1036D800369708C33E8582809307F00FE5BF1C41EB
:1036E8006381071A41777D8FB70600208947631BDE
:1036F800D7180357450063070718411122C4194614
:103708002A849305F00F590506C6EFF07FAB0547ED
:103718008D476303E5161C4481CB58589947630DC0
:103728000714185C630A07141306C003814517358C
:1037380000201305E524EFF09F9E1306C003A28521
:10374800173500201305C52397000020E780E07B8C
:103758009737002083D78723973600209386462201
:1037680099E793070010173700202311F72297379E
:10377800002083C7C72191E7854717370020230812
:10378800F7209737002083C7972091E7ED47173731
:103798000020A30EF71E9737002083C7671F91E705
:1037A8009547173700202305F71E9737002083C752
:1037B800371E91E7854717370020A30BF71C97376B
:1037C800002083C7371D99E783C7060117370020F4
:1037D800A302F71C9737002083C7A71B91E7D1479F
:1037E800173700202307F71A9737002083C7271BAE
:1037F80095E7173700200347E719131687016186F5
:103808009307C002634806009377170093B7170021
:103818009387D702173700202303F718973700201C
:1038280083C7371795E7173700200347A7161316DE
:10383800870161869307C0026348060093771700E3
:1038480093B717009387D70217370020A303F714FD
:103858008347D40191E7894717370020A300F7145D
:103868009C5691C7829797370020239CA714813BC9
:10387800FD57A38AF1A68147B24022443E85410103
:10388800828089473E858280011122CC06CE2A8417
:103898002EC6EFF00FECB245F240818D33A5A5029C
:1038A800229562441375F50F05618280011122CCBF
:1038B80006CE2A842EC6EFF0CFE9B245F240818DBC
:1038C80033A5A502229562444205418105618280A3
:1038D800011122CC06CE2A842EC6EFF08FE7B2451E
:1038E800F240818D33B5A50222956244056182803C
:1038F800973700209387C708985725C3411122C4DA
:1039080026C206C6BE840297173700200357670BE6
:103918002A8441C7BA876373A700AA87C207C183ED
:10392800BA866373E400A286C206C182958F5147A6
:103938006355F706DC5491C38297854717370020F3
:103948002302F71CEF00916597370020239B870619
:10395800B24022449244410182809737002083C7B5
:10396800671A9DE7973700209387471983C7970001
:10397800850793F7F70F17370020A305F718A18BD2
:103988009DC7854717370020231EF7166F00F1667D
:1039980097370020A3880716D5BF9737002083C71D
:1039A8006716DDD72244B24092444101C5B78280F0
:1039B800973700209387C7FCD857011122CC06CE31
:1039C8003E8401C72AC60297324509CD23A8A19093
:1039D800170500201305057A5D3EF2406244014553
:1039E800056182808307440163DD07009737002063
:1039F80023A207FE970700209387677223A8F190F8
:103A0800C1BF9707002093876775CDBF011122CCEE
:103A1800173400201304C4F6084406CE26CA4AC840
:103A280001E90545F2406244D24442490561828079
:103A38005C58E5DB185C75D770008545829718449B
:103A4800B247E300F7FE9305E0041735002003555D
:103A5800E5F397100020E780E0E217370020232DD8
:103A6800A7F661D117360020035646F29305F00FEA
:103A7800EFF0EFEA814417390020130929F497374A
:103A8800002083C7C7F00326C90163C1F402328549
:103A980097100020E780A0E801459737002023AD64
:103AA80007F29737002023AB07F2ADBF9735002008
:103AB80083D5C5EDB38795020844185C89818504D0
:103AC8003E9508C2029765BF411122C417340020F1
:103AD800130404EB1C4426C206C64AC097340020CF
:103AE8009384C4ED91EBC84C35E9B240224492442A
:103AF80002490145410182801C5CF5D7DC4C99EFF5
:103B08009305E00417350020035545E89710002079
:103B1800E78040D79737002023A0A7ECC84C61D591
:103B280017360020035686E69305F00FEFF02FDFD7
:103B380001499737002083C787E5D04CE355F9FA48
:103B48009735002083D585E4338525031C44898176
:103B580005093E951C5C08C28297E1BF97100020BA
:103B6800E780E0DB9737002023A807E69737002097
:103B780023A607E69DBF011156C2973A0020938AF3
:103B88002AE083A78A0022CC4AC84EC606CE26CA97
:103B980052C45AC0AA892E8432896385072203A792
:103BA8004A03630707147D476366A7149734002008
:103BB8009384C4E003AAC40163170A0A9565938530
:103BC80015E017350020035565DC97100020E780C5
:103BD80060CB9737002023A1A7E02A86630A051047
:103BE80083A74A0303A58A009735002083D505DA01
:103BF8008981829783A78A0003AAC4011737002006
:103C0800232EF7DC8947639CF908C1476312F40E39
:103C18009735002083D585D7938505FC9147B3C593
:103C2800F5028A05D29503C705009307A005631D11
:103C3800F70A83C715006399370B4A8522869105D1
:103C480097000020E780602CDC4C52856393471571
:103C58000145F2406244D2444249B249224A924A5A
:103C6800024B056182809850E38EE7F8956593854D
:103C780025E017350020035565D197100020E7800F
:103C880060C02A8A35C52A8683A74A0303A58A0005
:103C98009735002083D585CF89818297A5B78D4731
:103CA800639DF900C1476315F4049735002083D557
:103CB800E5CD938545FDF199B5B79147639AF9002C
:103CC800631834039735002083D545CCA115E5B793
:103CD800C147639FF900A14763EC8700973500202F
:103CE80083D5C5CAC115C1BFDC4C52856397470D42
:103CF800294585B71307F006568B6361A70A130A8F
:103D080005FE1947334AEA0217370020035707C848
:103D1800973A0020938A8ACA330AEA023E9A83A70E
:103D28000A026395470183A4CA019DE49305E00450
:103D380017350020035585C597100020E78080B40B
:103D4800AA845DD583274B039735002083D505C406
:103D58002A8689815285829791451307A005898112
:103D680093972500A69783C607006393E60483C646
:103D78001700639C360385058A052286A6954A8521
:103D880097000020E780601883A7CA01E38297ECB8
:103D9800268597100020E78080B85DBD1307E007EF
:103DA800E368A7F4130A05F985B783D5270045BF4B
:103DB80083A7CA01E38E97F2268597100020E78033
:103DC80000B63DB797370020938747BFCC4F8DD1BA
:103DD80091479306A0058983139727002E970346DA
:103DE8000700E317D6F003461700631C3601850762
:103DF8008A072286BE954A8597000020E780E01052
:103E080081BD83572700C1BF97370020938747B7E5
:103E1800984739C79C5FA9C705476313E504411153
:103E280022C417340020130464B9504C06C60DC6CA
:103E380008509735002083D565B589818297484C0D
:103E480097100020E780A0AD9737002023A607B879
:103E58009737002023A407B8B2402244410182804A
:103E68008280011117370020130787B14EC68329B6
:103E7800870022CC26CA4AC806CE52C456C2AA8493
:103E88002E843289638A09201C5FBA8A99EB2945F6
:103E9800F2406244D2444249B249224A924A0561F8
:103EA80082805C5BEDD7FD4763E9A70E9739002058
:103EB8009389C9B083A7C901B1CB03A58A0083A799
:103EC80009026395A70689476393F408C147E3107D
:103ED800F4FC17350020035565AB9147130505FC25
:103EE8003345F5029317250003A5C9012286CA8523
:103EF8003E959307A0052300F500A3009500110542
:103F080097000020E7806000014559B79305E00459
:103F180017350020035585A797100020E780809665
:103F28009737002023AAA7AA49F995B783A74A0378
:103F380003A6C9019735002083D545A589818297B5
:103F480083A78A0017370020232AF7A8ADBF8D471B
:103F5800639EF400C147E31CF4F2173500200355B3
:103F6800E5A2130545FD9377C5FFBDBF9147639A49
:103F7800F400E31E94F017350020035525A1211500
:103F8800DDB7C147E395F4F0A147E3E287F01735C1
:103F980000200355A59F4115F9B79307F00663EA7A
:103FA800A706930705FE1947B3C7E702173700208E
:103FB8000357C79D173A0020130A4AA0B387E702A0
:103FC800BE998327CA01A9CF83270A02639A3707B4
:103FD8000325CA0191461308A005FD5593D726006D
:103FE800C207C183139727002A9703460700631D5A
:103FF8000607834817000356270063959806B306FB
:10400800D64063CF860485078A072286CA853E95EF
:10401800C5BD9307E007E3ECA7E6930705F979B771
:104028009305E004173500200355459697100020A6
:10403800E78040859737002023A0A79A51F581BDD6
:1040480083A74A030326CA019735002083D5059420
:1040580089814E8582979737002023A137998DBF94
:10406800A300B700B2869DBFB3858600173600202F
:104078000356C6919105130606FCE3FAC5E013063C
:1040880034001376C60F1106B29623000701A30069
:1040980097002311D70085BF973700209387079291
:1040A800D44FBE89A1C203A5C90191461308A00532
:1040B800FD5593D72600C207C183139727002A9777
:1040C80003460700631606058348170003562700B2
:1040D80063989800B306D640E3D786F2A300B700EA
:1040E800B286C1BF8357C700173500200345258A0C
:1040F8009305E0043305F50242054181970000204D
:10410800E78040789737002023A8A78C49FD41B362
:1041180017360020035686879735002083C52587E4
:10412800B385C502338686001106E3E2C5D681BF92
:1041380001458280011106CE2EC6EF70A04501C947
:10414800B245F2400355250005616FA06074F24046
:10415800494505618280A38E0192238E019223A294
:10416800019223A4019223A6019223A8019223A0DD
:10417800019223AE0190973700209387278837074D
:10418800B40098C33747A000D8C337071000930678
:10419800070A94C7B7065000C106D4C79306070597
:1041A8004107D8CB3707D007410798CF3707840393
:1041B80098D337C70700130707B8D8D3416794CBFC
:1041C80093060701130717F8D8D7370781FF98DB3D
:1041D8007D5723AE070094D7239AE7028280011106
:1041E80026CAAA84214522CC06CE2E8432C636C4DD
:1041F8003AC2EFE03FBC1DC9A246124732469307B8
:1042080000FD2300F5009947A30095002301F50060
:104218002303D500A303E5002312C500AA85228540
:104228006244F240D24405616FE03FC3F240624409
:10423800D2440561828023A2A192828023A4A19204
:10424800828023A6A192828023A8A1928280011154
:1042580022CC4AC806CE26CA2A890144B30489005A
:104268006368B400F2406244D244424905618280E6
:104278002EC6EFE01FCE93170501C183A183B24577
:104288002380F4009307140093F7F70F850463F96C
:10429800B700CA9709042380A7001374F40F7DBFE1
:1042A8003E847DBFC1671725002003550579FD179A
:1042B8006302F502411103C6819C9385419306C6AA
:1042C800EF70800EB240FD57172700202317F776AE
:1042D80041018280828009C925151375F50F1335B0
:1042E800850E1345150082800145828023800500D4
:1042F800F94763E2C708797122D426D24ECE56CA4E
:104308005AC806D64AD052CC5EC63684B289AE8A1E
:104318002A8B814463FF3405B307940003CA07005E
:10432800138914001379F90F63050A04B3072A01E6
:1043380063C1F904B307240183CB07005E85613F9D
:104348000DC99307FAFF2380FA0063906B031305E6
:1043580019002295B250225492540259F249624AE5
:10436800D24A424BB24B45618280D29493F4F40F07
:1043780055B70145C5B701458280411126C2AE84B3
:1043880022C49727002023A1C76C9727002023ABBE
:10439800B76A9727002023A5A76A2A844146930570
:1043A800F00F26854AC006C60549EFE07FE1631E87
:1043B8002503972700209387E767884BC145413D30
:1043C80041469305F00F2285EFE09FDF8544631691
:1043D80095022244972700209387C765B2409244EC
:1043E8000249C847C14541019DB5414681452685D9
:1043F800EFE01FDDE31625FD6DBF414681452285AF
:10440800EFE01FDCE30795FCB240224492440249E6
:1044180041018280411122C426C22E84AA84130637
:1044280000028145172500201305C56006C6EFE088
:104438001FCF97270020A3809760A385819CEFA0BA
:10444800A046854719C181474945B24022441727EC
:1044580000202301F75E924441018280814781CD8B
:1044680019C98547631BF50083C7550093E707FC07
:10447800A382F50085473E85828089476317F5004A
:1044880083C7550093F7F703E5B70D478547E3144E
:10449800E5FE03C755001377F70313670704A382E4
:1044A800E500D1BF81478DC105C103C755009306FB
:1044B800000C85471377070C6308D70093060004A0
:1044C8008D476303D70089473E858280411122C406
:1044D800005D06C626C21DC8AA84085009C59700F3
:1044E8000020E780C043485009C597000020E780B6
:1044F8000043085409C597000020E7804042228500
:1045080097000020E780A04123AC0402B240224477
:1045180092444101828009ED9727002083C7A75163
:10452800172500201305855281CB13854191828080
:104538001725002013058551828017250020034583
:10454800854F8280972700209387C74EC84782806F
:10455800972700209387074E884B82809727002053
:104568009387474DDC4B88438280972700209387A9
:10457800674CD84B1C4385071CC3172500200345EF
:10458800954B9307F00F6305F50091656FE03FC504
:104598008280011122CC06CE2E8432C6EF70C00E66
:1045A8009147B245631FF500938701939C438DC3E0
:1045B80003A30700630E030022856244F2400561ED
:1045C8000283938781929C4381C703A34700DDB789
:1045D800F2406244054505618280011122CC2A849B
:1045E8000355450006CE26CA4AC84EC6EF60B06AD3
:1045F80035C52A89834405008349C500C13D4A85DC
:10460800EF70106203554400EF70800383C7C193B5
:10461800B1CB6399970483C5D1932685EFF09FB1F9
:1046280019E1238E019203554400EF70E00591478C
:10463800631FF500035744009727002083D7E73FFF
:104648006317F700FD57172700202318F73EF2409D
:104658006244D2444249B249056182808149930447
:10466800F00F6DB79307F00FE38FF4FA83466400F9
:1046780003564400034524004E87A685EFF03FB655
:104688005DB779715EC6AA8B2E8552CC56CA5AC8B8
:1046980006D622D426D24AD04ECEAE8A328B368A5D
:1046A800EF60705F6DC1045D2A89F1CC9C50614553
:1046B80099C3130540039C5481C7510542054181A4
:1046C80063050A00710542054181DC5081C759051F
:1046D80042054181EFE00FEE2A8455C561468145C8
:1046E800EFE0FFA39729002083C9493463940900A8
:1046F80083490900930700FD2300F400A947A3009C
:1047080074012301F400230364018C502312540123
:104718001305840191C908C47146930A440397F0AC
:10472800FF1FE780807E56858C5491C948C4514646
:10473800930A450197F0FF1FE780207D5685630C9B
:104748000A0008C87146D285930AC50197F0FF1F71
:10475800E780A07B5685CC5099C548C8594697F044
:10476800FF1FE780807AA2854E85EFE00FEF225485
:10477800B2509254F249624AD24A424BB24B4A85ED
:1047880002594561A1B3B250225492540259F249D8
:10479800624AD24A424BB24B4561828001114EC6F1
:1047A800AA892E854AC806CE22CC26CA2E89EF6051
:1047B800904E31C59724002083C4442799E0834450
:1047C80005001945EFE00FDF2A8415C98145194610
:1047D800EFE0FF94930700FD2300F400B947A3001E
:1047E80034012301F40023122401A2856244F2401B
:1047F8004249B2492685D24405616FE00FE6F2408E
:104808006244D2444249B2490561828039715ECE20
:10481800AA8B2E8526DA4ED652D456D25AD006DE28
:1048280022DC4AD8AE84328BB68A3A8ABE8942C61E
:10483800EF60704631C92A894145EFE0AFD72A8435
:1048480021C541468145EFE09F8D1725002003458E
:10485800E51D19E103450900930700FD2300F40055
:10486800BD472301F400B247A3007401231294004A
:1048780023046401A304540123054401A30534015E
:104888005CC4A285EFE06FDDF2506254D254425905
:10489800B259225A925A025BF24B21618280797195
:1048A80026D2AA8439454AD04ECE06D622D42EC660
:1048B800B2893689EFE00FD021C1B2459307000DC8
:1048C8002310F500B1472A842312B5002301F5000F
:1048D800CE851905194697F0FF1FE7800063230668
:1048E8002401A2852254B2500259F24913F5F40F5B
:1048F800925445616FE06FD6B250225492540259D7
:10490800F24945618280172700200347D712930791
:10491800F00F630DF706411126C2AA84394522C457
:1049280006C64AC0EFE00FC92A8439C9930700FDBB
:104938002300F500A300950023010500972500201A
:104948009385C5100D05194697F0FF1FE780E05BBA
:10495800172900201309090E83578900A2851725F6
:1049680000200345550D2315F4008347190023063D
:10497800F4002244B2409244024941016FE0EFCD75
:10498800B24022449244024941018280828001114E
:1049980056C2AA8A314526CA4AC84EC652C406CE4D
:1049A80022CCAE84328AB6893A89EFE0AFC029C9F1
:1049B8002A842685EF60302E1DCD03450500930718
:1049C80000FD2300F4009D47A30054012301F400D7
:1049D80023129400231344012314340123152401C2
:1049E800A2856244F240D2444249B249224A924ADC
:1049F80005616FE08FC6172500200345D503C1B7B1
:104A0800F2406244D2444249B249224A924A05617C
:104A18008280397162CC2A8C594526DA4AD84ED61A
:104A280052D456D25AD05ECE06DE22DCAE8432C6CE
:104A380036C4BA8B3E8BC28A468A8359010403491D
:104A48004104EFE02FB735C53246930700FDA24673
:104A58002300F5009547A301C500A30085012301A4
:104A6800F5002A8419461105A9C2B68597F0FF1FDB
:104A7800E780A04923066401230A24012315740151
:104A8800231754012318440123193401A2856254C1
:104A9800F2504259B259225A925A025BF24B624C76
:104AA8002685D25421616FE04FBB8145EFE02FE7A7
:104AB800D1B7F2506254D2544259B259225A925A3A
:104AC800025BF24B624C216182809727002083C7EA
:104AD80087F68DCB4111AA8519461385419106C6E3
:104AE80097F0FF1FE78060429385419117250020CA
:104AF800034565F4EFF09F96B2401385419141015B
:104B08006F90505B01458280172700200347B7F25A
:104B18009307F00F6305F708411126C2AA842945B7
:104B280022C406C6EFE00FA92A8429C1930700FD15
:104B38002300F500A1472301F500A300950097275E
:104B48000020938727EF83C727009385419111059C
:104B5800A30FF5FE194697F0FF1FE780003BA285DB
:104B680017250020034535EDEFE02FAF172700206C
:104B7800034767EC8D47631FF7009387C1929C43F7
:104B880091CB03A38700630703002244B2409244F9
:104B980041010283B2402244924441018280172796
:104BA8000020034747E98D47631AF7009387C192AE
:104BB8009C4389C703A38700E31D03FC82807971A6
:104BC80022D406D626D24AD04ECE52CC094445C964
:104BD8002A89035505002E8A5144EF60D00BAA8418
:104BE80059CD83C7B19CFD1793F7F70F0547494483
:104BF8006377F7080347C500A1476314F7006310FC
:104C08000A089C5C4544A5EF916593854571130599
:104C1800C00297000020E780E0C688DCAA894D44DE
:104C280039CD1306C0028145EFE06FCF83570900E5
:104C38009386490036852391F9007146930549000A
:104C480036C697F0FF1FE780402C89472380F9007C
:104C580003C5C400B24603560900611583C5819C8B
:104C680013351500EF90E0192A8463060A00D285EF
:104C78002685EF70102601C42685EFF03F85228532
:104C8800B250225492540259F249624A45618280D4
:104C980083C7B19CFD1793F7F70F05476378F708AB
:104CA800894751C6011122CC26CA4AC84EC652C4E9
:104CB80006CEAA89368AB2842E89EF60C07D2A84FE
:104CC800D14729C9485509C597000020E78020C564
:104CD800F1452685EFE00FC748D4CD4705CD83467B
:104CE800C40021478147639FE600630D0A0003471C
:104CF800A5010356050193062501AA854E85EF7087
:104D08002015AA8703474400630F0900136767004B
:104D18002302E400F2406244D2444249B249224AA2
:104D28003E850561828013674700DDB7C9473E8528
:104D38008280E54763EBA70097270020938707CC7D
:104D480006053E9503550500828041657D158280E4
:104D5800011122CC2A842E8526CA06CEAE84EF60A5
:104D680080730DCDB7470F009387F723094563E29A
:104D7800870281450A854146EFE06FBAA685231070
:104D880081000A85418023018100A3010100EF8091
:104D9800B069F2406244D244056182804945D5BF7A
:104DA800A384A19C82806F80907E797152CC2A8ADC
:104DB800328522D426D24AD04ECE56CA5AC85EC6AA
:104DC80006D662C4AE8BB28A368BBA843E89C28953
:104DD8004684EF60406C15C92A8C63140A02137765
:104DE8004B008347450015CF93E727012302FC00BA
:104DF8008DEC631C0902639A090205E8ED9B230206
:104E0800FC00832B8C03639F0B06B25022549254F0
:104E18000259F249624AD24A424BB24B224C45618E
:104E28008280F59B93E70701D1B793E747002302F8
:104E3800FC0001CC1C484146A2852324FC02130532
:104E48008C0197F0FF1FE780400C63910B02D5D8C7
:104E58000325CC0209C597000020E78040ACF14546
:104E68002685EFE02FAE2326AC0261BFE30B09F8DD
:104E78000325CC0209C597000020E78040AAF14528
:104E88004A85C5B79DC483A70B0299EB91659385A5
:104E98003571714597000020E780C09E23A0AB02C2
:104EA80003A50B0219C57146A68597F0FF1FE78079
:104EB800C0056388090283A74B0299EB9165938526
:104EC8002571594597000020E780C09B23A2AB02BB
:104ED80003A54B0219C55946CE8597F0FF1FE780F9
:104EE800C0021DC483A78B0299EB91659385157148
:104EF800514597000020E780E09823A4AB0203A562
:104F08008B0219C55146A28597F0FF1FE780E0FF85
:104F18002254B2509254F249B24B224CCA865A8655
:104F28000259424BD6855285D24A624A45616FF092
:104F38004FF5011126CA52C406CE22CC4AC84EC625
:104F48002A8AAE84EF60205525C5AA893945EFD055
:104F58007FE62A8431CD17290020034929AD63143F
:104F6800090003C909009307000D2310F400AD4799
:104F78002301F4009385690013053400194697F05E
:104F8800FF1FE78080F893F7140085808588230643
:104F9800F400A306940023154401A2856244F2405C
:104FA800D244B249224A4A85424905616FD0FFEA94
:104FB800F2406244D2444249B249224A05618280A1
:104FC8009387C191884301CD411106C697000020FF
:104FD800E780E094B24023AE019041018280828054
:104FE800011106CE22CC26CA4AC82EC6EF60A04AB6
:104FF80039CDB24517290020034949A3AA840CD505
:1050080063140900034905004145EFD0BFDA2A843B
:105018001DCD9307000D2310F500A5472301F500CA
:1050280083C75400938564001105A30FF5FE194644
:1050380097F0FF1FE78060ED9C54A285F2405CC4A6
:105048006244D2444A85424905616FD01FE1F2406B
:105058006244D244424905618280797122D406D6DD
:105068002A842EC6EF6020430DCD8346C500114724
:10507800AA8749456393E6029C5FB24599C383C5F5
:1050880067010808EF70E06D97860000938666F662
:10509800100889452285EF607060B250225445613E
:1050A80082805145DDBF83C7B19CFD1793F7F70F89
:1050B8000547637AF704894721CA411122C426C2E9
:1050C8004AC006C6B2842E89EF60E03C2A84D147E4
:1050D80005C5630809008347450093E727002302B5
:1050E800F5004146A6851305840197F0FF1FE78068
:1050F800C0E19C481CD48147B240224492440249F2
:105108003E8541018280C9473E858280797122D4DB
:1051180006D62A842EC6EF60003801CDB245228516
:10512800230EB1006C08EF704057B250225445610D
:1051380082805145DDBF6F60E04AC1671387E7FF92
:105148006394E502938781929C4391EB4945828061
:105158004945B2402244924402494101828003A356
:105168000700E30503FE0283411122C426C24AC098
:1051780006C6FD172A892E84B2846395F5029387A3
:1051880081929C4391CB9C4381CB829711E5238EDE
:105198002193A38E919275BFA6854A85EFE09FF96A
:1051A8004DF9F5B72E85EF60002F5DD183470500D7
:1051B8000D45E39027FB22852244B2400249A6858B
:1051C800924441016F90C06C65476362A704411126
:1051D800416722C406C626C27D172A84094563830F
:1051E800E502C547AE846315F4002E85EF90007282
:1051F800931714001724002013044480A2972390C7
:1052080097000145B24022449244410182800945F9
:105218008280011106CE2AC6EFE0FFF3EF1080036B
:10522800EF00E075EF30F17D324597270020938736
:105238006780130700F02391E700238207007D575A
:105248009387819CA380E7002380A700F2409545BF
:1052580005616F4010401D7193970501CAC886CE3D
:10526800A2CCA6CACEC6D2C4D6C2DAC05EDE62DC82
:1052780066DA6AD8C1872E8963D0074C03C5819C3A
:10528800EFD03FB78964416A856A797B2A84938B1A
:10529800D4007D1AA50A691B15E021653345A900CC
:1052A800F6406644D6444649B649264A964A064BCD
:1052B800F25B625CD25C425D2561828083470400B8
:1052C8001307200A639DE70003552400171C0020DC
:1052D800034C7C762286D285EFF0AFAB3DAA13074C
:1052E800100903CC919C6397E71683471400154770
:1052F800639EE7002285EFF04FAE2285EFD0DFA84E
:1053080003C5819CEFD0FFAE2A8479B739476399EA
:10531800E71603554400631B55050C4483C9050073
:10532800639D0900850591C91946171500201305C5
:10533800E57197F0FF1FE78040BD1717002003476E
:10534800676F85476318F710638A0900971700206D
:105358002382076E4E85EFF00FDB45B78947171795
:1053680000202309F76CEF90A05441BF93872400D5
:10537800631AF50683298400638E090C83C7090024
:105388008DE383C7290003C71900A207D98F171710
:1053980000202315F76A83C7390017170020A30BCD
:1053A800F768171700200347E76889476314F70A67
:1053B80083C7090081CB97170020238D076603C593
:1053C800090051BF8D479715002083C5B56617158D
:1053D80000200355A56617170020230DF764EF403A
:1053E800502AF1BF938754006318F5001C4403C585
:1053F8000700EFF06FF111B7B3076501C207C1836A
:105408001147636FF7009387C1929C43E38707EEC8
:105418009C43E38407EE22858297E31005EE1DA8DE
:105428009387B400631FF500938741929C43E386FA
:1054380007EC9C43E38307ECA2851385B4008297AD
:10544800E9BF9387C4006310F5021C4483C70700B3
:10545800E38507EA9307F00FE301FCEAA28562857A
:10546800EFD0BF9F71BD9387E400E315F5FE9387E6
:1054780081929C43E38307E8DC43A285E9F3B5BD49
:105488003D476397E70403554400E30275FF93879C
:105498009401E30EF5FC93873401E31DF5FA9717A1
:1054A800002083D78759639E4701938781929C4345
:1054B800E38507E4DC43E38207E4A285138534012E
:1054C800BDBF938701939C43E38907E29C43E5B7FB
:1054D8001307E003E390E7F8834724000547639642
:1054E800E70E83476400138DC191F1E383270D0014
:1054F800D5CB03CC0700A14903457400930C840065
:10550800E685EFE03FFA83474401A303A4008358EC
:1055180004010358E400035744002A860345340075
:105528003EC283572401E686E2853EC0CE87EFF06F
:105538004FCE8347340095E7DD478358040103586D
:10554800E40083467400835544003EC28357240117
:10555800668705463EC06285CE87EF606028A30156
:10556800A40083270D0081C71145EFF07FA503C56F
:10557800C193E30405D883C5D193EFE0BFBBE30E25
:1055880005D68346340093071003638AF600035652
:1055980044004E8783C5C1933685EFE05FC4238EF0
:1055A8000192A1BB171C0020034CFC48A9B79387A4
:1055B800C1929C43171C0020034CFC4791498DDF86
:1055C800DC439DDB0145829705BF29476390E70CC3
:1055D80083476400938CC191C1E783A70C00A5CFD2
:1055E80003CC0700A1490345740093068400937710
:1055F8002500C9C713761500130D4401834704021B
:105608008358C4010358A4010357440003453400D8
:105618003EC28357E401E2853EC0CE87EFF06FBFFC
:105628008347340095E7DD478358C4010358A40134
:1056380083467400835544003EC28357E4016A8759
:1056480005463EC06285CE87EF608019A301A4009D
:1056580083A70C0009BF171C0020034CDC3D59B779
:105668009387C1929C43171C0020034CDC3C914952
:10567800BDDBDC43ADDB01458297B5B7B68536CED9
:10568800EFE05FE2F2462A86368D8DBF0947639DBB
:10569800E700938741929C43E38107C6DC43E38E8E
:1056A80007C42285829791B92D476399E7009387AC
:1056B80041929C43E38307C49C47D5B70D47639742
:1056C800E70022868D450355440039B11947E39315
:1056D800E7D89305610213051031EF30D13C2C1047
:1056E80013052031EF30313C0356640083578102A3
:1056F8000355440063E8C7008356840003576102DA
:1057080063F7E60093050002EF90401FFDB663744F
:10571800E6002313E40063F4D7002314F4000357CE
:10572800C4008356A40003568400835564000148CE
:105738008147EF90601CD1B693F7150081CF93870E
:1057480041929C4389C7DC4399C30145829713451D
:105758001900B9B693F7250081CF9387C1929C436E
:1057680089C7DC4399C305458297134529000DBEB7
:1057780093F745000145E38507B2938701929C435F
:1057880091CF8547171700202308F72A9387C192DE
:105798009C4389C7DC4399C3054582979717002026
:1057A80093874729C8472C10EF8020312810EFF045
:1057B800CFB19717002083D7872691CB13060064B3
:1057C8003386C702914503C5819CEFD0BFB313450B
:1057D8004900F9B4411122C42A84554506C6EFF0A0
:1057E8004FD5B335A00022852244B24041016F90C5
:1057F800A00D797122D406D68D472E84631FF5003B
:1058080003D7A50083D6850003D665000345340079
:1058180083D54500EFF0AF9709A889671387D700AC
:105828006310E50403C5250019E58547B2502254E5
:105838003E85456182809387C1919443FDD603C616
:10584800360083C50600814802C202C0014881476C
:1058580001479106EFF0EF9B0545EFF06FF6F1B7C2
:105868001387E700E303E5FC13873701631AE500B4
:1058780003C525005DD9014781460146814559BFC9
:10588800E507E304F5FA41677D178147E310E5FA78
:1058980003C75500C947E31AF7F883D6E50003D6CE
:1058A800C5000355840083D5A500EF90A00641C923
:1058B8005D45EFF00FC83335A000231CA1008345D8
:1058C8004400035524003008EF50702F835781019E
:1058D800A9FF6C0813051031EF30F11C9305E101A5
:1058E80013052031EF30311C8357C1010357840061
:1058F8006374F7002314F4008357E1010357A400ED
:1059080063F4E7002315F400835784000357A400C9
:105918006374F7002315F40003552400EFB0C02981
:105928000357E4008356C4000356A400835584003B
:105938000355240001488147EF80107AFDB585475B
:10594800231CF100ADBFC1671387E7FF639DE50026
:105958009387C1919C4395C383C707000D47639CF8
:10596800A7006F80B076FD1749476396F5009387C7
:10597800C1919C43FDF73A8582804947EDBF238456
:10598800019423A8019423A60194971700209387D4
:10599800670C170700001307874798C3170700000D
:1059A8001307A74AD8C3170700001307075B98C750
:1059B8009387019417070000130727F998C317075F
:1059C8000000130747E3D8C38280797122D406D632
:1059D80026D24AD04ECE52CC56CA5AC803470500E2
:1059E80085472A84630AF7040346850093069500D1
:1059F8009305F1000545EFE07F8F814719C1834783
:105A080005008346040011476380E6041387C194A8
:105A180018438D46034717006308D70295C70DC77B
:105A280019ED0145B250225492540259F249624A82
:105A3800D24A424B4561828081470145D9B78546A4
:105A48006318D7028D8BF1DF03451400130A240075
:105A5800D285EFE03FA5A300A40013890195832711
:105A68000900AA8A81499304F00F99EB05455DBFA7
:105A78008946E318D7FA858BF9B7850993F9F90FA1
:105A880083C7819463FBF90203250900139B49002E
:105A98005A9583470500E38297FE83471500E39EE6
:105AA80057FD1946D2850905EFD08FED79D58324A6
:105AB800090003470400DA9485EC83460400914703
:105AC800E381F6F683270900A9DF03C6819401471D
