:040000006F10804DB0
:1000040000000000000000006F0080086F00205412
:1000140000000000000000000000000000000000DC
:1000240000000000000000000000000000000000CC
:100034006F004006000000006F00E00500000000B3
:100044006F0080056F0060056F0040056F0020059C
:100054006F0000056F00E0046F00C00400000000A2
:100064006F0060046F0040046F0020046F00000400
:100074006F00A0556F00C003000000006F00600314
:100084006F0040036F0020036F0000036F00E00265
:1000940001A001A001A001A001A001A001A001A054
:1000A40001A001A001A001A001A001A001A001A044
:1000B40001A001A001A001A001A001A0B717004068
:1000C400130770052380E704130780FA2380E704ED
:1000D4000F1000002396A70223800704371700405F
:1000E40083472705898BEDDF8357070537170040C2
:1000F40083472705898BEDFF371700408347270582
:10010400898BEDDF03550705828041118146014645
:100114008145114506C67D23B72700401147238337
:10012400E780B7F700E003A707D16D9B23A8E7D0CA
:1001340003A707D15D9B23A8E7D0730050100100EB
:100144000100B2404101828041118146814501464E
:10015400114506C6852BB727004011472383E78046
:10016400B717004003C7E70283C5E70483D78703B3
:1001740091661377F70F93E5350063E5D700719B1C
:1001840013671700B7170040130670052380C704D0
:10019400930680FA2380D7040F10000023820702FD
:1001A4002380C7042380D7040F1000002387E702AD
:1001B4002387B7042380C7042380D7040F100000CB
:1001C40003C7B70413670702A385E7042380070462
:1001D40037F700E0832507D193E545002328B7D0FE
:1001E400832507D1DD992328B7D07300501001006F
:1001F40001002380C7042380D7040F10000003C725
:10020400B7041377F70DA385E70423800704B240EE
:1002140041018280411122C4814681452A840146DC
:10022400114506C64521B727004011472383E780BF
:10023400B717004003C7E70283C5E70483D78703E2
:1002440091661377F70F93E5350063E5D700719B4B
:1002540013671700B7170040130670052380C704FF
:10026400930680FA2380D7040F100000238207022C
:100274002380C7042380D7040F1000002387E702DC
:100284002387B7042380070437F700E0832507D1C9
:1002940093E545002328B7D02380C7042380D704DF
:1002A4000F10000083C5F70093E50504A387B7008A
:1002B4002380C7042380D7040F10000083C5B7042C
:1002C40093E50502A385B7042380C7042380D704DC
:1002D4000F100000E57591054D8C42044180239078
:1002E4008702832507D1DD992328B7D073005010E6
:1002F400010001002380C7042380D7040F100000ED
:1003040003C7B704130560041377F70DA385E70447
:10031400238007042244B2404101ADAC01114EC612
:1003240081460146AA898145114506CE22CC26CABA
:100334004AC8492EB727004011472383E780B716E0
:10034400004083C7E60203C7E60483D6860311662A
:1003540093F7F70F1367370063E5C600F19B93E744
:100364001700371400401309700523002405930473
:1003740080FA230094040F100000230204022300D7
:100384002405230094040F1000002307F40223071C
:10039400E40423000404130550028520B7F700E0A9
:1003A40003A707D11367470023A8E7D02300240538
:1003B400230094040F1000000347F400136707049C
:1003C400A307E40023002405230094040F10000075
:1003D4002567B3E9E9002310340303A707D15D9B24
:1003E40023A8E7D07300501001000100F2406244DA
:1003F400D2444249B24905618280B717004093064E
:1004040070052380D704130780FA2380E7040F10B4
:10041400000003C6B7041376F60DA385C704238032
:100424000704137605023DCA03C6A700118A1DE21C
:100434002380D7042380E7040F10000003C7A7001C
:10044400136747002385E7009307004B0100010071
:10045400FD17EDFFB7170040930670052380D704FE
:10046400130780FA2380E7040F1000007D8923948A
:10047400A70001000100010001002380070423807C
:10048400D7042380E7040F100000372700409306A9
:100494001005A303D7802380070482801376050404
:1004A4006DDE03C6A700418A1DE22380D7042380A2
:1004B400E7040F10000003C7A70013670701238593
:1004C400E7009307007D01000100FD17EDFFB7175A
:1004D4000040930670052380D704130780FA238015
:1004E400E7040F1000007D89136505042394A70019
:1004F4000100010001000100238007042380D704C8
:100504002380E7040F1000003727004093063005CE
:1005140049B74111814601468145114506C65D2210
:10052400B7170040130770052380E704130780FA08
:100534002380E7040F10000003C767041367170044
:100544002383E70423800704B2404101828081466B
:10055400014681451145BD22B71700409306700539
:100564002380D704130780FA2380E7040F100000C8
:100574007D562396C7022380D7042380E7040F10F7
:10058400000003C76704136717002383E70423806D
:10059400070401A0BD473305F50201007D1575FD73
:1005A4008280411122C426C206C6AA84014463176C
:1005B4009400B24022449244410182800504130510
:1005C400803E4204C13F4180DDB7B71700401307A6
:1005D40000032388E702854723AAF19073002030A3
:1005E400411106C6970000E0E780603E971000E0E6
:1005F400E780808A9717000093874745884397F0E0
:10060400FFDFE780E0489929FDBF23030480954775
:100614002303F4802302A480828083076480E3CED2
:1006240007FE23030480828083076480E3CE07FEF1
:1006340003454480828083076480E3CE07FE23025F
:10064400A4808280411126C44AC24EC006C61377D4
:10065400F50BAD47AA892E8995446306F700194521
:100664006D37653F8D444E854D37FD59FD146398B4
:100674003401B240A2441249824941018280135597
:1006840009011375F50F453F2209CDB7011126CC99
:1006940006CEB704080051371545853F71376937D1
:1006A4002AC6A53F32459377150089EB13651500DB
:1006B4001375F50FF240E24405618280FD14E9FCF4
:1006C4000145CDBF397126DC4ADA4ED852D656D40C
:1006D4005AD25ED062CEB7E700E006DE66CC6ACAC4
:1006E400414783AB070422C6B8C37D5703AB070059
:1006F40083AA470023A0E71823A2E718B7170040EE
:10070400130770052380E704130780FA2380E704A6
:1007140083C74704130C75FFB684E207137CFC0FF0
:1007240085462A8A2E89B28937240040E1870157F9
:1007340063FA86016308D500894613070002631330
:10074400D5000157D98F93F7F70F371D00402302C7
:10075400FD0411472303E4801305F00F7D35894C14
:100764006D3D63EB8C11B70707003E99378707008F
:100774007955637EE902B3079900636AF702A947D2
:10078400631CFA0689E48144493D26850DA0CA8587
:1007940009454D3D850903C5F9FFFD140509613D72
:1007A40081C49377F90FFDF7D53569FD7D55B717EA
:1007B4000040130770052380E704130780FA2380A1
:1007C400E70403C74704418B2382E704B7E700E04B
:1007D40023A07705F25023A0671123A25711E254F6
:1007E40032445259C259325AA25A125B825B724C39
:1007F400E24C524D21618280A5476314FA06856953
:100804009307F00FB3869700B374F900B69493C7B7
:10081400F7FFFD8C33F92701416A056C9387F9FFD3
:10082400B3F7270199E363FC340193D94900C14725
:10083400E3E637FF89BF8567C169FD17E1B7130593
:10084400800D63884901130500026384890113053F
:100854001008CA85C53B1D3D31D94E99B384344136
:10086400D9B7CA852D45F93BCE94E38E99F0850915
:10087400653BA38FA9FED5BF9307FAFF93F7F70F44
:1008840063ECFC0803475D04B7070800137707020D
:1008940019E3B78707007955E37BF9F0330799002B
:1008A400E3E7E7F089476310FA048980554AE38C4B
:1008B40004ECCA8509457933910903A7C9FF914717
:1008C4002320E48003076480E34E07FE230344816E
:1008D400FD17EDFBFD14110981C49377F90FE9FFAE
:1008E400753371F5E1B58547E307FAF4CA852D45FB
:1008F400913B1389F4FFE38804E83D33937739008F
:1009040091EB8326048003A7090093874900E39DA4
:10091400E6E6BE89CA84F1BFB5476316FA0013053B
:10092400900BE5318DB5B1471305B00AE30BFAFE20
:100934009947631EFA02CA852D45293381440D4C1B
:10094400214ADD31639684018327048023A0F900C2
:100954008504E39844FF8327048013172901635512
:1009640007002392F90005B523A2F90029BD9D478C
:100974006319FA0281451305B004E931BD4423A08B
:10098400090023A209007D59453193F77400CE97DD
:1009940003C70700FD14398D2380A700E39624FFC5
:1009A400DDB3A1476312FA04D5318144630D090014
:1009B4008D479304C0036308F9009304000563049E
:1009C4009901930440041375C507E30E95DA19459C
:1009D4002D39A131054515392685B1390945A13986
:1009E4007531E31205DAD9B391476319FA00130597
:1009F400600621391D311305900925B7E3050AD88E
:100A0400F15459B309CDB71700401307700523807B
:100A1400E704130780FA2380E7042396A702828061
:100A240019C1814799E982803387F500834607001D
:100A34003307F50085072300D700E397C7FEE5B722
:100A440019C1FD5781E98280910503A7C5FF1105EE
:100A5400232EE5FE7D16E319F6FEF5B7797122D44F
:100A640017340000130484B91C4006D626D24AD099
:100A74004ECE91C782979737000023A107B85C40F8
:100A840089CB03D5C193BD3F5C40829703D5E193E5
:100A9400953F1C40639907189737000083C717C810
:100AA400858B95C797370000A38A07C617370000C0
:100AB4000347F7C6914763FCE700792B973700009B
:100AC40083C7F7C5F9178A07A2979C43829797377C
:100AD400000083C767C9918B89C7972001E0E7802D
:100AE40020101C4491C382979387819398431736AF
:100AF4000000034676AE3E89973400009384C4AD6B
:100B04009737000083C747AD93961700BA9683D6EC
:100B14000600638006109737000083C7E7AB63F2D3
:100B2400C70886073E97835507002310070003D59F
:100B3400C1932EC623920194F135938701959C436A
:100B440017350000034545A913172500BA979C43A0
:100B5400B2458297AA8903D5E1936D359737000092
:100B640083C787A7139717008327090003D54194E8
:100B74001345F5FFBA9703D7070033753501598D2F
:100B84002390A70083C70400850793F7F70F17374F
:100B940000002303F7A4173700000347F7A363E615
:100BA400E70097370000238907A21C40ADEF938725
:100BB400819498433E8425CB9737000083C777B64A
:100BC40091CB9737000083C797B589E7972001E059
:100BD400E780C0B11C4082972A8431C59C48AA97FB
:100BE400173700002322F7A09387C1949C4385CF35
:100BF40003D5C193013D2285970000E0E780A076EC
:100C04002254B25092540259F24903D5E1934561FA
:100C1400D5BB850793F7F70F97360000238EF69A16
:100C2400E3E0C7EECDBDB250225492540259F249CA
:100C3400456182809167B7C600409387373023A609
:100C4400F6200F100000973700009387E798884F2D
:100C5400938781A39C43316713073730F053B70759
:100C64001000FD17918F99833A0523A6E6205D8D28
:100C740082804111B7170040985F3AC6945F3247AB
:100C8400E39CE6FE324541018280411106C6D53718
:100C94009736000083C6C691858AB1C69307303360
:100CA4003307F502B337F5023983CA07D98F1737EB
:100CB400000013076792584B01456303F70233851D
:100CC400E740636BF70037653D0889C637856F08D1
:100CD40013050590198D3E95173700002328F790CA
:100CE400B24041018280E5473307F502B337F5028C
:100CF4002583DE0765BF0327C50F8346B5009737F5
:100D04000000938767A19C4F5843938616029582EF
:100D14009043FD1693F6F60F10C3D04350C390478B
:100D240010C7D04750C7904B10CBD04B50CB904FEF
:100D340010CFD04F50CF91C61307070293870702F5
:100D4400C1BF82808347E50193F7E70FF1EF2A875C
:100D54000345F50171E9034607018346870009CA83
:100D64008345A7029737000083C7978463E7F5009C
:100D740093F70601C5CF814709CA83478715034600
:100D84007715C18AA207D18F81CA8346B715034755
:100D9400C7152207558FBA97D1CB17370000130711
:100DA40027A33847411122C406C67D548326070869
:100DB40063F386003684184375FB17270000034746
:100DC400277F93168701E18663D906029387C713A9
:100DD4009583172700000347477EBA9763D006041C
:100DE4001D8C938741959C4382973335A400B24070
:100DF40022441345150041018280058B9387C71255
:100E040009CB8A079387F7031305D007B3D7A70243
:100E1400C9B78607FD071305D003CDBFE372F4FC01
:100E24003705C0A82A946DBF014582808280411194
:100E340022C4138481A218404AC006C61C5F26C27D
:100E4400138941A29983858BC1C31C5F9734000029
:100E54009384848C93F7F7F91CDF9737000083C7DA
:100E6400A78B93F707048DC3938741959C4382977F
:100E74009737000023AAA78A83C7040093F7F70BC8
:100E840017370000230AF788854717370000A307A0
:100E9400F78883C7440093F7070481EF938781A3FE
:100EA4009C43D844B8D3930700FC173700002307AA
:100EB400F7868387640063D90700832709009C436E
:100EC40017370000230DF78418401C5F8583858B3A
:100ED400C9CBF5571CDF010001000100010001002E
:100EE40001000100010001000100010001000100F6
:100EF40001000100010001000100010001000100E6
:100F040001000100010001000100010001000100D5
:100F140001000100010001000100010001000100C5
:100F240001000100010001000100010001000100B5
:100F340001000100010001000100010001000100A5
:100F44000100010001000100010001000100010095
:100F5400010001000100938781A39C4313075004FF
:100F6400B8CB18401C5F9183858B89CFBD571CDF9C
:100F7400938781A39C4323A8070485471727000070
:100F8400230EF77883270900D8430583058B19C7F7
:100F9400D843759BD8C3D843799BD8C3B240224465
:100FA4009244024941018280397106DE16DC1ADA64
:100FB4001ED82AD62ED432D236D03ACE3ECC42CA0D
:100FC40046C872C676C47AC27EC09535F250E252E3
:100FD4005253C2533255A255125682567247E247B3
:100FE4005248C248324EA24E124F824F21617300C2
:100FF4002030938781A39443172700001307C771F8
:10100400BC5289CF83472700858B89EB8347370000
:10101400858BFDD79727000023820770828037C70E
:1010240000401306C0039306200397250000938510
:10103400A56E83278720C18393F7F7036369F600BE
:1010440083278720C18393F7F70363E6F60083C7FA
:101054004500858BF9DF8280938781A3944317270A
:1010640000001307676BBC5289CB83470700858B4D
:1010740091CB972700002383076A97270000A38F4B
:101084000768828083471700858BF1DFDDB793877C
:1010940081A3904337C70040C145E5468327872095
:1010A400C18393F7F70363FBF50083278720C1838C
:1010B40093F7F70363E4F6003C52EDF38280138761
:1010C40081A21843AA87185F1583058B25EF034572
:1010D400150015051377C51F19C6B386E70083C627
:1010E40026002300D60095C59726000083C62663F4
:1010F40093F606040945A1CAB386E70083C6360001
:10110400054693F5F6066390C504E206E18663CCD2
:1011140006023385E7008347150003470500A2074D
:1011240093F70770D98F139707014183937607408C
:1011340099C6136707802398E1A20145828023980A
:10114400F1A2E5BF05458280938681A38C42368552
:10115400972600009386465C984593170701C18340
:10116400137817203E86630408041377072079C395
:1011740003C726001367170017280000230FE85839
:1011840013070019B8D1130700F897250000238727
:10119400E558138781A20C4337080010D855719B7A
:1011A40013672700D8D598413367070198C113778F
:1011B400261005C31376061059CE03C7060013671D
:1011C4001700172600002309E654172700002319E7
:1011D400075483C6460093C7F7FFC207E206E186B9
:1011E400C183184163D106029396170163DE060694
:1011F40030538D4663E9C600854617260000230F49
:10120400D6503453FDFE97260000938626398386F4
:10121400460163DD060093960701C18663DC06047C
:101224007053894663E4C6007453FDFE1447F58F7A
:101234001CC7828003C71600136717009725000098
:10124400A38CE54C17270000230A074C172700003E
:101254002318074CA9BF03C73600136717001726C6
:101264000000A30CE64A95B785461726000023071D
:10127400D64A51BF54471396060163510602B70676
:101284001000FD1674D3972600009386E634944E1E
:10129400850617260000232DD63449BFA166D58FB5
:1012A40071B7397106DE16DC1ADA1ED82AD62ED4A6
:1012B40032D236D03ACE3ECC42CA46C872C676C482
:1012C4007AC27EC05135F250E2525253C253325563
:1012D400A255125682567247E2475248C248324ECD
:1012E400A24E124F824F2161730020301727000055
:1012F400130747448346B7019727000083C7D7469F
:10130400B69793F7F70FFD4663EAF6044C4B97261E
:101314000000A381F6429727000083C7B741054721
:101324003317F70097260000A380F6446D8F1DEF56
:101334009726000083C69643B3F6D702130500022E
:10134400814733D6F500058A13F8F70F09CE639960
:10135400E60097270000A38F073D828081177DB7A1
:1013640005071377F70F8507E39DA7FC8280938712
:1013740041A49843B75702009387279F8326070900
:1013840013965600635806008326070913966600D1
:1013940063440600FD17FDF3828051C9AA87014505
:1013A400C9C98D07C207C183F19BC207C183130753
:1013B4004003636BF702138741AD08431387C1AC45
:1013C40014436396A602172700001307271D185B12
:1013D400014525C34111C20706C60545DD8D0297A7
:1013E400B240014541018280138701ADF9B703572B
:1013F400650005EF035745006369F702B306F7403C
:1014040021466370D6021041938687001D8FAA96E9
:10141400611790C22392E6002393060014C123129D
:10142400F5002313B50021058280084159BF014509
:101434008280828001CD938741AD03A80700938702
:10144400C1AC8C430147C28763E3B70082809443F5
:10145400636FF50663EDA60613868700E368C5FE91
:1014640003D56700216605066317C50003C6819E80
:1014740005062384C19E2393070063840703138610
:1014840001AD1042630FF6000356670019EA83D7D3
:10149400470014C383564700B697A1072312F700E9
:1014A400BA879843E304B7FA938601AD9442E30FF5
:1014B400D7F883566700D9FA83D647000356470006
:1014C4001843A106B2962392D70098C382803E8720
:0414D400B6879DBF7B
:1014D800974100209381814C17710020130101B2BC
:1014E80013054000972500209385453117360020C5
:1014F8001306067E63FAC5008322050023A0550063
:1015080011059105E3EAC5FE17F501001305055F0E
:10151800973500209385C57B1386C18A63FAC50079
:101528008322050023A0550011059105E3EAC5FEB5
:101538001385C18A97650020938505B46377B50044
:10154800232005001105E36DB5FE9302800873A002
:101558000230972200209382622A93E2120073904D
:10156800523097320000938262AA7390123473004B
:1015780020303D432A876373C3029377F700BDEF9A
:10158800ADE5937606FF3D8ABA960CC34CC30CC7EB
:101598004CC74107E36BD7FE11E28280B306C34014
:1015A8008A069702000096966780A6002307B70070
:1015B800A306B7002306B700A305B7002305B700A5
:1015C800A304B7002304B700A303B7002303B7009D
:1015D800A302B7002302B700A301B7002301B70095
:1015E800A300B7002300B700828093F5F50F939608
:1015F8008500D58D93960501D58D61B79396270003
:101608009702000096968682E78086FA9680C11730
:101618001D8F3E96E374C3F8A5B71387C18AAA87BE
:10162800104339CD03C7018B930600027D5563EA49
:10163800E604B286B1E283C6B70190C323A60700C9
:10164800858A93E66601A38DD700BD462398D70007
:1016580023A6F18A83C7B7019386818B9442858B31
:10166800B397E70013051700D58F1375F50F23AC53
:10167800F18A2388A18A82806384F60094425DBF40
:101688007D558280797126D24AD04ECE52CC93872E
:10169800018B06D622D456CA5AC85EC662C466C230
:1016A80003C407001387C18A032907007D14137434
:1016B800F40F81443A8ABE896305090083274900EB
:1016C800A9EB9387818B9C4303240A00416ABD8C54
:1016D80093C4F4FF23AA918A83C4090001497D1A9F
:1016E800FD1493F4F40F8549938A418BA14B314C37
:1016F800C14C0D4B15E8B25022544A8592540259F8
:10170800F249624AD24A424BB24B224C924C456152
:1017180082804A858297331585007D14C98C0329F8
:1017280009001374F40F49BF8347B40113F7070E78
:1017380011CF0357C4000507420741832316E4006D
:1017480063164701035784012316E400184C758378
:10175800630037070DC389476306F7168347B4014B
:1017680093F7070E81C705091379F90FFD14004097
:1017780093F4F40F41B783A70A00339799007D8F3C
:101788008347B40115C3859BA30DF4001C4423268D
:10179800040099C3228582978347B401FD8B93E7A0
:1017A8000702A30DF4005DBF859B93E76701D5BFD2
:1017B80003A60A00B39699000357C400F18ED9CE48
:1017C8008356E4009DCE83570401E3F9E7F8B68712
:1017D8006373DB008D470347B401BD8B8607059B08
:1017E800D98FA30DF4001C4499C32285829783479F
:1017F800B40123260400FD8B93E70702A30DF40030
:10180800B1BF835684016361D702F98BE38897F5EA
:101818008347B401859B93E70701A30DF4001C449B
:1018280095DF228582971DBF83566401636BD700BD
:10183800F98BE38587F38347B401859B93E7C7005A
:10184800E9BF83564401E36BD7F0F98BE38877F15E
:101858008347B401859B93E78700C1B78357840109
:101868006361F7028347B401859B93E72701A30DC2
:10187800F4001C4499C3228582978347B401FD8BE9
:101888000DB7835764016368F7008347B401859BEC
:1018980093E7E700E9BF835744016368F70083478C
:1018A800B401859B93E7A700D9B78347B401FD8BA3
:1018B80093E70704A30DF4008357E4008507231773
:1018C800F40069BD03A70A00B3979900F98F99CB73
:1018D8008347B40123160400FD8B93E70702A30D89
:1018E800F400ADBD0357C40083570401E3F8E7E6ED
:1018F8008357E4006373FB008D470347B401BD8B36
:101908008607059BD98FA5B7B717004003C777058A
:101918001377E70FA38BE704130700F8A38DE704F9
:101928003D47238CE70413075003A38CE704828008
:10193800B717004003C7E704930670052380D70450
:101948000D89930680FA1377C70F498F2380D70430
:101958000F1000002387E704238007048280B7174D
:10196800004003D587005D715ED64205418186C679
:10197800A2C4A6C2CAC04EDE52DC56DA5AD862D415
:1019880066D26AD06ECE9377050C13070008814B98
:10199800638EE718130700046392E716B7240D8FC8
:1019A8007D8993840480B3D4A4029167938707E860
:1019B800BE94A167938707D0B3D4F402EFC0D115C2
:1019C80097E701009387073E9043D443EFB0F14E69
:1019D800EFC0316A2A8B939C040103D9C18B93DC35
:1019E8000C0163150900056913090980B717004040
:1019F800130770052380E704130780FA2380E704A0
:101A08000F1000000547371A0040939D0401096C28
:101A180085662389E704D14A814E8145130D0A045E
:101A280013087005130680FA894893DD0D01130C1D
:101A38000C712943FD1623000D012300CD000F1062
:101A4800000023162A0323000D0083472A05898BEB
:101A5800EDDF83570A0583472A05898BEDFF834706
:101A68002A05898BEDDF83570A05239E218BC20740
:101A7800C183338597419319050193D90941638639
:101A880009163387B9026350070E850EC20E93DE1E
:101A98000E0163EAD80D63DB050A3305B0409315E0
:101AA8000501C185C204C18063D9350BB717004051
:101AB800130770052380E704130780FA2380E704DF
:101AC8000F1000000965130505713385A5022396DB
:101AD8007703238007043345950242054181B640C8
:101AE800264496440649F259625AD25A425BB25B7E
:101AF800225C925C025DF24D61618280B1E3B77451
:101B080089097D8993840480B3C4A402916793876B
:101B180007E8BE94A167938707D0B3C4F402EFC067
:101B2800A17F97E701009387672879BD97E70100B0
:101B38009387C726856403AB07009384843861BD07
:101B4800130B0000954441BD3A89F5B5B387FC40B5
:101B58009399070193D90941B1B70965130505712F
:101B68003385A9028DBF3385B74163E4FC00338513
:101B7800FD40330585033344B503634583001315DE
:101B88000401A9BF4E8536C642C432C2EFC05137E0
:101B9800DA85EFC0D107EFC09130931E050193DEBF
:101BA8000E41B307D941C207C183056E3E8712466D
:101BB800224889482943B24663E3C701368742076A
:101BC8004183631A2701130719006344300113077F
:101BD800F9FF42074183FD1A93FAFA0FCA8BCE85A3
:101BE800E3940AF6239EE18A59BF0145CDBDB71794
:101BF800004003D587005D7186C642054181A2C4B5
:101C0800A6C2CAC04EDE52DC56DA5AD85ED662D4B4
:101C180066D26AD06ECE02C69377050C1307000809
:101C2800638FE714130700046393E712B7240D8F3B
:101C38007D8993840480B3D4A4029167938707E8CD
:101C4800BE94A167938707D0B3D4F402EFC0C16CE8
:101C580097E70100938707159043D443EFB0F12528
:101C6800EFC031412A89939A040103DBE18B93DAAF
:101C78000A0163150B00056B130B0B80B7170040A7
:101C8800130770052380E704130780FA2380E7040D
:101C98000F1000000547939B04018969056A238991
:101CA800E704D14D014D814C93DB0B0193890971F8
:101CB8007D1A5A8597200020E78000C0330C5541D3
:101CC800420C135C0C41239F618B63030C16B30712
:101CD8009C0363D3070E050D420D135D0D01894763
:101CE80063ECA70D63DD0C0A33059041931C0501D5
:101CF80093DC0C41C204C18063DA8C0BB717004037
:101D0800130770052380E704130780FA2380E7048C
:101D18000F1000000965130505713385AC023247C1
:101D28002396E70223800704334595024205418143
:101D3800B640264496440649F259625AD25A425B42
:101D4800B25B225C925C025DF24D61618280B1E31C
:101D5800B77489097D8993840480B3C4A402916708
:101D6800938707E8BE94A167938707D0B3C4F402AA
:101D7800EFC0815A97E7010093874703F1BD97E7C2
:101D880001009387A701856403A907009384843819
:101D9800D9BD130900009544F9B53E8B19BF3385A9
:101DA800AA40131C0501135C0C41A9B7096513056A
:101DB80005713305AC028DBF63FEAA00330575417A
:101DC80033053503A9473344750363C887001315E2
:101DD8000401B1BF3385AB40E5B76285EFC051124E
:101DE800CA85EFC0C162EFC0910B131D0501135DD9
:101DF8000D413307AB41420741838565BA87636369
:101E0800B700D287C207C183639A670193071B0093
:101E1800634480019307FBFFC207C183FD1D93FD47
:101E2800FD0F5AC6E28CE39A0DF6239FF18A45B757
:101E38000145FDBD41112A83014E930E407E130FCB
:101E48000019930F400663ED6E0A930800191303F7
:101E58004006B3781503854E0D4FA14F33736502C5
:101E68000D891335150063E7BE0C1308F6FF794694
:101E780072984208135808013307C70213D617008F
:101E8800BE0732976146B3F6C60213068070B38662
:101E9800C6023697A166F58F42075D8FB7170040D7
:101EA80083C6F70293F60608A307D1000346F1009C
:101EB80083C6F70293F60608E394C6FE8346F1004C
:101EC80093F6F60FF1DE930670052380D704930688
:101ED80080FA2380D7040F10000023AA070383C6C3
:101EE800170393E60608A388D702D8DB03C71703AE
:101EF80013670704A388E70223800704410182804F
:101F08007D133368E3039308E016630E0800336813
:101F1800F3039308D016630808009378330093B846
:101F280018009388D81633081E01131E0801135E83
:101F38000E0111BF6393E503054863860800014855
:101F4800630303002A8871087298FD15131E08019F
:101F5800C205135E0E01C18139B713F8150063F489
:101F6800BF007908D5B713381800E5BF4111B71776
:101F78000040985F3AC6945F3247E39CE6FE3245DC
:101F880041018280914763EEB70217E7010013070A
:101F980067E28A05BA959C41BA978287B7170040CD
:101FA80003A7470B1345F5FF698F23AAE70A03A781
:101FB800070B698F23A8E70A03A7070A798D23A0CF
:101FC800A70A8280B717004083A6470B1347F5FF7F
:101FD800F98E23AAD70A83A6070B558D23A8A70A2B
:101FE80083A6070A758F23A0E70A8280B7170040E7
:101FF80003A7470B498F23AAE70A03A7070B134533
:10200800F5FF45BFB717004083A6470B1347F5FFF9
:10201800758F23AAE70A03A7070A598D4DB7B71783
:10202800004003A7470B498FEDB7914763EEB7020E
:1020380017E70100130747D98A05BA959C41BA9753
:102048008287B717004003A7470D1345F5FF698F2F
:1020580023AAE70C03A7070D698F23A8E70C03A79A
:10206800070C798D23A0A70C8280B717004083A6A0
:10207800470D1347F5FFF98E23AAD70C83A6070D42
:10208800558D23A8A70C83A6070C758F23A0E70CF2
:102098008280B717004003A7470D498F23AAE70C92
:1020A80003A7070D1345F5FF45BFB717004083A6E3
:1020B800470D1347F5FF758F23AAE70C03A7070CF5
:1020C800598D4DB7B717004003A7470D498FEDB796
:1020D80099EAB757004003C707001345F5FF798D04
:1020E8002380A70082803757004005CE834717001A
:1020F800C98FA300F70037570040814711072146D1
:10210800B356F540858A89C6B386E7002380B600B2
:102118008507E397C7FEB757004003C70700598DE7
:10212800C1B7834617009347F5FFF58FD9B715E96F
:1021380037170040930770052300F704930780FAC8
:102148002300F7040F10000083570702C207C1835A
:1021580093F7F79FC207C1832310F70223000704F0
:1021680082800111B7F5070081463000B105194595
:1021780006CE97200020E780A0D4A2471397270116
:1021880063460702B7170040130770052380E7046A
:10219800130780FA2380E7040F10000003D7070213
:1021A800136707602390E70223800704F240056164
:1021B8008280B717004003D5870042054181937795
:1021C800050491EB9377F5013755E8011305058070
:1021D8003345F50282809377050C13070004639753
:1021E800E7009377F50137459C1CCDB721651305AA
:1021F80005D0828037E700E01C435443A183E20600
:10220800D58F1CC1FD572320F7182322F7180F106C
:102218000000828013178500B7E700E023A0E710CD
:10222800618123A2A7108280B7F700E0C8439C47CA
:102238008280814737370040A14663C4C700328592
:1022480082800345B740E38EA6FE3385F50003453B
:10225800050085072304A740CDB79737002093874B
:10226800E7F39C4317570020130707E13E95636E79
:10227800E50017670020130767B86368A7001737DA
:102288000020232DA7F03E858280FD57EDBF120563
:102298009A054D8D1365C5001375F50FB7270040D6
:1022A8002380A7408280411122C406C62A841137A0
:1022B8002947B307E502B2408D83B3D7870222448A
:1022C8009507B3D7E70237370040C207C183231603
:1022D800F74041018280716541111305052006C64A
:1022E800D937B7370040130770F82381E7400D4707
:1022F800A381E74013070004A380E740054723872D
:10230800E740B240410182809387C18C9C434111D0
:1023180006C691C382979387018D9C4391C3829788
:1023280003D761809307401563F7E70403D58180DD
:102338009306301563E4A6049386818C03A30600F4
:1023480063070300B24013054015410102830507E6
:10235800098F3385A740E5473305F50242074183D6
:1023680009839307F7FF3E953345E5021375F50F8B
:10237800B2404101828013054006DDBF0145CDBF53
:1023880003A84500411126C206C622C48347180087
:1023980003480800A944A207B3E70701C2070D686C
:1023A800C187130828906396070385473284EF6036
:1023B8003050AA8419ED9387418C9C4399CB0345EF
:1023C8001400034704002205598D1335150005052F
:1023D8008297B240224426859244410182802D454D
:1023E8003DE7D841411122C426C206C683471700DB
:1023F80003470700B684A207D98F0D67930697A1F4
:1024080032846396D702093783C741806374F50025
:102418002382A18085472390F40083C7418023004D
:10242800F4000145B24022449244410182801307DE
:1024380087902945E398E7FECC4589472390F40027
:102448000946228597200020E78040DDD9BF828099
:1024580083474500858BADC7011122CC2A840355DB
:102468002500938501AF06CEEF60503F058929C549
:1024780003552400014781460546ED45EF60407845
:102488002AC61DC9973700209387878483D7A70258
:1024980001462C002314F10085472315F10083C75A
:1024A80041802300F50003552400EF70101709C57B
:1024B800ED452800EF60B00CF2406244056182806F
:1024C800828041654111938501AF7D1506C6EF8075
:1024D800F005B2409736002093868684414695459C
:1024E800172500201305C57E41016F80607823A25F
:1024F800A18C8280411122C406C685470944631114
:10250800F5028347060001442380F18C03C741800C
:102518006378F700170500001305C5F3EFA07034C2
:102528002285B24022444101828085476301F50239
:1025380009C909476302E5020D476306E502094533
:10254800828083C741802380F5000145828093877C
:10255800018C83C70700C5BF9727002083D7E7777B
:102568002390F500DDB71387C18003570700239236
:10257800E500172700201307A7758356A7020357FE
:10258800A7032383F5002390D5002391E50075BFA9
:10259800411106C6953B83C74180637AF5002382C3
:1025A800A180170500001305E5EAEFA0902BB240C3
:1025B80001454101828041677917630CE5024111A9
:1025C80022C406C685472A84639AF50022852244D8
:1025D800B240938501AF41016F804075894763968A
:1025E800F5008545EFA0702275D1B2402244410123
:1025F80082808280CC41411106C6328503C615000F
:1026080083C5050022064D8E42068D6541861388D6
:1026180075A2630C060F6348C804138845A26306B5
:10262800060B634AC800938535A26309B606239052
:102638000600294679A0138855A26308060B9385DE
:1026480065A2E316B6FEC1451D4663ECE5064546A0
:10265800198E63F3C7003E862390C60097D5010004
:102668009385C57889A8138895A26300060F634EE1
:10267800060B1388A5A2630A060F938505A5E31820
:10268800B6FA99451D4663EEE502198E63F3C70055
:102698003E862390C6009385418131A89D451D46FD
:1026A80063E1E5022146198E63F3C7003E86239055
:1026B800C6009385418DBA9597200020E78000B623
:1026C8000146B240328541018280AD451D46E3EAAC
:1026D800E5FE3146198E63F3C7003E862390C60097
:1026E80097D5010093854574F9B7B1451D46E3EACE
:1026F800E5FC3546198E63F3C7003E862390C60075
:1027080097D50100938545737DB7C1451D46E3EA1A
:10271800E5FA4546198E63F3C7003E862390C60046
:1027280097D501009385C56D79B7C1451D46E3EA84
:10273800E5F84546198E63F3C7003E862390C60028
:1027480097D5010093854570BDB7C1451D46E3EA9D
:10275800E5F64546198E63F3C7003E862390C6000A
:1027680097D501009385056BB9B7B5451D46E3EAD2
:10277800E5F43946198E63F3C7003E862390C600F8
:1027880097D50100938585653DB7972600209386E8
:10279800E66C4146CD4517250020130525596F8065
:1027A800204D41654111938501B07D1506C622C4AF
:1027B80026C24AC0972400209384046BEF800057F8
:1027C800972600209386467C4146C9452685EF809A
:1027D800204ACC4C2A890945893B9387C18283D7F3
:1027E8000700138401B1138701832312F40083D7F0
:1027F800A40C03570700938501B22310F40083D774
:10280800A40D2316E40003D7A4102311F4000D45EA
:1028180085472303F4002314E4002307F400231559
:1028280004002133A2850D459526B24022444A85ED
:1028380092440249410182808D679387D7A401455C
:10284800631FF6008D472945639BF500854735458D
:102858006397F600834707000145238FF18C828038
:102868008D679387D7A4631EF6008D47639BF50099
:1028780083C7E18D2300F70085472390F6000145C3
:10288800828023900600E5BF82809387818F9C43D6
:1028980003C7C18E83C6318201E781473E858280A6
:1028A80003D607006316A60003C66700E308D6FE32
:1028B8007D171377F70FA107C5B7B2862E86AA85AD
:1028C80017D501001305855B6FC00124011193051D
:1028D80000030D4506CEEF40202593050005114560
:1028E800EF4080249305C0030545EF40E02385476A
:1028F8001306F100854513055030A307F100EF805A
:10290800E13EF240056182808547631AF500116651
:10291800130686A9894503C5D18E6F20E033894700
:102928006317F500894503C5D18E6F20A0498280C1
:1029380085476398F50019E22382B18E238EC18EF4
:10294800828009476398E50011E62382F18E03D55A
:10295800218E2DA382809387018F9C43011122CC65
:1029680006CE2E8481CB9C4791C78297F240624461
:10297800056182806C0013057040EF60514B324650
:1029880081452285EF70E10BD5B741119397050179
:1029980022C406C6C1872E8463DF070003C5D18E13
:1029A800EF10905919C1EF1090522165218DB24056
:1029B80022444101828093F7150091CF1726002009
:1029C8001306465D9385418303C5D18EEF80E105EB
:1029D80013451400E9BF93F725000145E9DB4D3E97
:1029E8001166130686A9894503C5D18EEF20C02636
:1029F800134524006DBF797126D24ECE06D622D457
:102A08004AD052CC9147AA84AE896314F50483D77F
:102A1800A5001306E1008545130550302391F18E7A
:102A2800230701002382018EEF80412C9387018FB9
:102A38009C4391C7DC4781C7CE8526858297B250D3
:102A4800225423A4918E02599254F249624A456154
:102A580082801387818E1843E31AF7FC854503D5D6
:102A6800218E913E854503D5218EBD21C16703DAAC
:102A7800218EF917631BFA0205449305E10013053B
:102A880050412382018EA381818223070100EF60D8
:102A9800113A8347E100B1E303C7C18F9147E317B8
:102AA800F7F82D35238E018E51B79387818F03A9AF
:102AB800070003C4C18E69D00355290011C99305C5
:102AC800E100EF60103E09C54C455285EF800026B5
:102AD8007D141374F40F2109F9BF9387418F9C4328
:102AE80083C74700898BCDDB9305000A0D45EF406E
:102AF800A0039305000A1145EF40000381450545F1
:102B0800EF4080021306E100854513055030230786
:102B18008100EF80A11D49B70111170500001305B9
:102B280005E706CE22CCEF20A04D1384D18E854731
:102B38001306F10085452300A40013054041A307AF
:102B4800F100EF7081177D55EF50F0547D55EF80FF
:102B5800C01A2539EFF0FF96CD2C17050000130594
:102B6800E5DAEFF0DF9817050000130525D22126D6
:102B7800034504008545EF10B07BF24062440561CF
:102B8800828023A8B18E23AAA18E828023ACB18E25
:102B98002386A18E8280C841011122CC06CE3284C0
:102BA80003461500034505002206498E19CB0D681A
:102BB8001308B8A42D4563090607F240624405616D
:102BC80082800D651308D5A463000603130825A2A7
:102BD800630C060175781308E85C329842081358AC
:102BE8000801854863EE080303D5A50036C632C43C
:102BF8006939B24615C19387018F9C4322468345A4
:102C0800550003A30700A2876244F240034545002C
:102C1800368785460561028323900600014571BF0A
:102C28001308B5A46317060303D681821D45E3760E
:102C3800C7F8198E63D3C7003E86CC452390C600DB
:102C480042064182BA95228597100020E780005DF0
:102C5800F1B79307A5A46318F60091472390F600EF
:102C68001146CC45CDB7930785906317F600894781
:102C78002390F6000946F5B79307E5A4631AF60012
:102C8800DC452390160183C707002300F40079B7B9
:102C980013057590E314A6F8D9BF011122CC06CE0E
:102CA80026CA4AC82317D1002D4429EBDC412E89B6
:102CB800B28403C4170083C7070022045D8C8D67A4
:102CC8009386D7A46306D400938627A3631FD402F0
:102CD8000355A9005D3E19E101440DA09387018FBA
:102CE8009C43834555000345450003A807002286F9
:102CF800A6871307E100814602982A842285F240BC
:102D08006244D2444249056182809386C7A4631411
:102D1800D4028357E10005473544E391E7FE0345B4
:102D2800060013040008E3EBA7FC9387018F9C437C
:102D3800DC43829755B793862790631AD40283564B
:102D4800E1008547EF60C0362A844DF99387818F6B
:102D58008356A9009C4303C7C18E3DDF03D62700D5
:102D68006302D6047D171377F70FA107FDB7938782
:102D7800E7A4E313F4F68357E10005473544E39FDE
:102D8800E7F60345060013040008E3E9A7F6DC4567
:102D98002380A7009387018F9C433335A000090542
:102DA800DC4341BF1387018F184303C5470083C520
:102DB800570083C714000328070003C70400A207AD
:102DC8008946D98FC207C18705476383E7008D46C7
:102DD8000D66A6871307E10013062690029839BFEF
:102DE8000145828025E303A84500AE888347180083
:102DF80003480800A207B3E707010D68930EF8A47B
:102E0800639AD70391473548639FF60203A5C80024
:102E18004111B285114606C697100020E780004090
:102E2800938781909C4305458297B240014842852B
:102E380041018280930828902948639617018547A5
:102E48006F6000272D484285828041654111938536
:102E580081B27D1506C6EF70706DB24097260020CE
:102E68009386061A414699451725002013054513F0
:102E780041016F70F05F23A4A190828001119385B6
:102E880081B222CC06CE2A84EF60401D058929C173
:102E9800014781460546ED452285EF5070562AC602
:102EA80005C9972700209387A70F83D7A705014651
:102EB8002C002314F10085472315F1002300050099
:102EC8002285EF60907509C5ED452800EF50306BFD
:102ED800F24062440561828041677917630CE5021C
:102EE800411122C406C685472A84639AF5002285C3
:102EF8002244B240938581B241016F7030638947A3
:102F08006396F5008545EFA0401075D1B240224484
:102F18004101828082807D15994763E2A70817D70F
:102F280001001307E7F70A053A951C41BA9782870B
:102F3800371700408327870A93E707022324F70AF5
:102F48008280371700408327870AA166D58FFDB78F
:102F5800371700408327870A9166CDBF371700408F
:102F68008327870A93E70710D1BF371700408327C5
:102F7800870A93E70720D9B7B716004083A7860AC0
:102F8800056713070780D98F23A4F60A82803717AD
:102F980000408327870C8966D58F2324F70C82800D
:102FA8007D15994763E3A70817D70100130707F1B1
:102FB8000A053A951C41BA9782873717004083273C
:102FC800870A93F7F7FD2324F70A8280B716004093
:102FD80083A7860A61777D17F98F23A4F60A828072
:102FE800B716004083A7860A7177F5B737170040F0
:102FF8008327870A93F7F7EFF9B737170040832736
:10300800870A93F7F7DFC1B7B71600407D7783A724
:10301800860A1307F77FC9B7B716004083A7860C3F
:1030280079777D17F98F23A4F60C8280B7170040B3
:1030380003A7070AA166130600641367070223A003
:10304800E70A03A7070A9145558F23A0E70A03A7B4
:10305800070A9166558F23A0E70A03A7070A856622
:10306800938606801367071023A0E70A03A7070AB9
:103078001367072023A0E70A03A7070A558F23A091
:10308800E70A03A7070C8966558F23A0E70C03C539
:1030980021916F10703C411122C4138401844AC0ED
:1030A8000329040006C626C24A85EFB0C17197D429
:1030B8000100938424E39040D440EFA0A15497D713
:1030C8000100938767E16340050297D70100938762
:1030D800E7E08C434A85EFB0212B6348050097D77A
:1030E80001009387E7DF9C431CC00840EFB0A16D47
:1030F8009040D440EFA0F12797D70100938707DFCE
:103108009043D443EF90D17497D70100938787DE1B
:103118009043D443EFA0615AEFB08119930740065A
:103128003385A740EFB0411F97D70100938707DD8C
:103138009043D443EFA06158EFB081172A84937568
:10314800F50F17D501001305E5DBEFB0F11BB72725
:10315800004003C707401377B70F2380E7401307E2
:10316800C0033304E40223A8874003C7074013675A
:1031780047002380E740B24022449244024941017B
:103188008280411106C685476318F5021D45093D31
:10319800294597100020E78080C0F53D2945971004
:1031A8000020E780C0BF1945BD33B2402945410121
:1031B800171300206700A3BE05E91945D533294533
:1031C80097100020E780A0BD81460546930540067C
:1031D8000545EFE0FFEF294597100020E78020BC68
:1031E800B2401D45410105BBB240410182804111F9
:1031F80006C68547631EF5000945313B13054006A1
:1032080097100020E780A0B90945B240410149BBA9
:1032180019E90D4509331305400697100020E7808A
:1032280000B80D45DDB7B240410182808280371772
:1032380000408327C70A411106C693E707402326A3
:10324800F70A8D4513050040EFE0DFD381450145BE
:10325800EFF0EF830567B72700401307077723A62A
:10326800E74003C707401377B70F2380E74023A839
:10327800074003C70740136747002380E740B24071
:1032880041018280011106CE2AC655373245F240E7
:103298009387018488C305450561E5B523A6019098
:1032A800B717004003A7070CFD76FD16758F23A0FE
:1032B800E70C03A7070D8566558F23A8E70C8280C6
:1032C80023A6A19013064006894503C521916F10D6
:1032D800B0189387C19003A3070063040300014556
:1032E8000283828041118D45056506C6EFE09FC9BE
:1032F8008D450965EFE01FC98D4537058000EFE072
:10330800DFD28D454145EFE05FD2B240238401B65C
:10331800410182809377150081CF85473717004098
:10332800639BF5068327C70A8566D58F2326F70A88
:103338009377250081CF8547371700406394F506BA
:103348008327C70A8966D58F2326F70A937745000E
:1033580089CF854737170040639DF5048327C70C3D
:10336800B7068000D58F2326F70C9377850013873F
:103378000191B1CF8547B71600406394F50483A740
:10338800C60C93E7070123A6F60C834707005D8D5B
:103398002388A19082808327870A8566D58F232476
:1033A800F70A79B78327870A8966D58F2324F70A0E
:1033B80071BF8327870CB7068000D58F2324F70CAD
:1033C8006DB783A7860C93E7070123A4F60CD5FDF8
:1033D800834707001345F5FF7D8D5DBF011122CCA2
:1033E80026CA4AC84EC652C406CEAE899374F500A2
:1033F800138981B30544214A89E8F2406244D244E2
:103408004249B249224A05618280B3F7840089CFD4
:10341800CE85639649018345090093C51500228529
:103428002300B900A18CFD3506041374F40F31098B
:10343800E1B7797122D406D626D24AD04ECE52CCE4
:1034480056CA5AC85EC662C42A845DC955CACDCA5E
:103458009307300663E9C708B68AB2892E8A1374BF
:10346800F500938481B30549138B1191938B0191D6
:10347800114C15E02254B25092540259F249624A52
:10348800D24A424BB24B224C03C521910146854595
:1034980045616F10607CB3772401A9C383C70B0013
:1034A80003470B0023800400B377F900D98FA38862
:1034B800F1902392540123813401A38044016314C1
:1034C8000A0023808401EF10E06583C7040088C4E4
:1034D8003344240193E727002380F4000609137975
:1034E800F90FB10479B785452254B2509254025964
:1034F800F249624AD24A424BB24B224C4561F9BD6D
:1035080081452285D5B7A14763EFB70297D6010059
:10351800938606A01397250036971C43411106C6CB
:10352800B69782879306803E154685451937B2407F
:103538000145410182809306803E1546930520038C
:10354800F5B7693DEDB70145828083C781B66393BE
:10355800071679714ECEC16922D426D24AD052CCF0
:1035680056CA5AC85EC662C406D666C26AC0138402
:1035780081B3014C3D498544138A1191930A400651
:10358800FD19130B4006930BF00FB3F72401E1C7A5
:1035980083470400898BD5CFEF10C0581C442A8D6F
:1035A8006366F50E83460400834C240093F71600E7
:1035B800BDCB33079B41F99A81452685937CF70F4C
:1035C8002300D400813B034604009377460099EF1B
:1035D80083461400638C7601FD1693F6F60FA3005C
:1035E800D40089E6134626002300C400834704005C
:1035F800898BB1C3035744003307970333575703E5
:1036080093170701337737016A97C18318C4630397
:103618000C08A1C33E876373FC006287131C070173
:10362800135C0C013DA093E6160085452685230012
:10363800D400CD3165BF83450A002685E58DB335B5
:10364800B000D13503470A0093C7F4FFF98FA38868
:10365800F19033C92401860493F4F40F3104E3167E
:1036680009F2630B0C022254B25092540259F249E7
:10367800624AD24A424BB24B924C024D6286224C6D
:1036880003C52191854545616F10005D898FC2078B
:10369800C183B5BF3E8C75BFB250225492540259B3
:1036A800F249624AD24A424BB24B224C924C024DEA
:1036B800456182808280411106C6EFE04FAABD476E
:1036C80063F4A700EFE0AFA9EFE06FD2BD4763F462
:1036D800A700EFE0CFD1B24083D5E18B03D5C18BF2
:1036E80041016F10A07F411193962500AA852D45B1
:1036F80006C697000020E780A07CB2400145410142
:103708008280411126C29394250022C44AC02A848B
:103718003289A686AA850146254506C69700002057
:10372800E780007AA6864A86A28529459700002068
:10373800E7800079B24022449244024901454101A0
:103748008280011122CC06CE3714004026CA4AC80E
:103758004EC652C483447405034AB405834984059C
:1037680003499405EFE04F9A8347A40593F4F40FB7
:10377800137AFA0F93E71700230DF40493F9F90F5E
:103788001379F90FB717004003C7A705058B6DFF1D
:1037980003D5C705A38D4705238C3705A38C2705BB
:1037A800A38B9704F2406244D2444249B249224A68
:1037B8000561828041119397050122C406C6C1871D
:1037C8002E8463DA0700EF00307719C1EF003070FC
:1037D8002165218D39A093F7150081CBBD331345A1
:1037E8001400B24022444101828093F7250081CF22
:1037F800CD3413060002894503C52191EF10C04559
:1038080013452400F9BF9397250163D00702EF20E1
:10381800910F553537F60200130606E0896503C592
:103828002191EF10604309656DB79397150163D136
:10383800070217C5010013056574EFB0813E130632
:103848000064916503C52191EF100041116551B7DE
:1038580093F745000145D1D7EFF05F9D130600644B
:10386800914503C52191EF10203F1345440095BFB2
:103878005D71494697C501009385C56B17D5010051
:10388800130505D486C6EF10002401E917C5010009
:103898001305856BEFB0E13801A037F700E0F95761
:1038A8005CC7FD571CCB8566B7E700E023A0D7109F
:1038B8001306701010C3B8434146B0C323A0D718ED
:1038C800B8C30F1000001306C00381454800EF106D
:1038D800601997270020938727C33EC2896793877B
:1038E80007802314F100A167938707E03EC6970776
:1038F8000000938787DF3EDC970700009387A7E0E7
:103908003EDEB5472300F10297F7FFFF9387079242
:103918003ED297070000938707E33ED6970700003B
:103928009387A7D93ED8ED47A309F100B707142D0F
:103938009387A7103ECA8547230CF100970700001C
:10394800938767113ED4580097D70100938747168D
:1039580097D601009386661503C65700FD1705071D
:10396800A30AC700E39AD7FE4800EF10E06CAA85C7
:1039780001C917C501001305655EEFB0E11801A084
:10398800B640616182804111170500001305C5E248
:1039980006C622C4EF10C066138421912300A40038
:1039A800B120992AEFF01F94EFF05F8FEFF00FE846
:1039B800034504002244B24037F60200130606E02D
:1039C800896541016F104029B7170040130770053A
:1039D8002380E704130780FA2380E7040F10000010
:1039E800C8DB23AA0190238007048280411122C4E6
:1039F80006C637140040930670052300D404130745
:103A080080FA2300E4040F1000008347F40293F7C0
:103A1800A70FA307F4022300D4042300E4040F1023
:103A280000008347F40293E72700A307F4026131FB
:103A38001305407E2300040481470147814605465B
:103A48008545EFE02FBF2244B240014541016F1088
:103A5800F00B011122CC2A84680006CE26CAEFE0BA
:103A68006FF9EFE0AFD0B307A4406376A400B707BF
:103A7800C0A8A297898F3737E2A181170117637B06
:103A8800F7003245EFE00FF90945F2406244D244AD
:103A98000561828022850D3F3245EFE0AFF7373769
:103AA80000408347574093F70704A9C7938441917F
:103AB8009C400D45F9FB694597000020E78040F5DB
:103AC8000545EFE0CFE69C408DC31305D402B70748
:103AD800C0A863F7A700370540571305D5022295FC
:103AE800E53597000020E78000E20545EFD05FE468
:103AF800014561BF010075B7B7170040130670058F
:103B08002380C704930680FA2380D7040F1000008F
:103B180003C7E700136787002387E7002380C704EC
:103B28002380D7040F10000003C717031367070289
:103B3800A388E7022380070437070010B7E700E0EF
:103B480023A0E710828082803A883E8789E68346F0
:103B580008006FE07FCE85476395F600C2866FE068
:103B68003FD08947639FF60041111306401F8945DE
:103B780003C5618506C6EF10200EB240014541011C
:103B880082800145828041119397050122C406C6AF
:103B9800C1872E8463DF070003C56185EF00D03934
:103BA80019C1EF00D0322165218DB2402244410174
:103BB800828093F7150013C51500E5FB93F74500C0
:103BC80099CF83C761851307401F81462146A145C8
:103BD80003D54185EF60D15E13454400F9B793F7EB
:103BE800250013C52500F1F393F7850099CF03D578
:103BF8004185EF7021361306803EA14503C56185D6
:103C0800EF108005134584004DB793F70501014572
:103C1800C9DFEF0030111306000AC14503C56185ED
:103C2800EF1080031345040149B77D15954763EBF1
:103C3800A72017C701001307A7340A053A951C41A6
:103C4800797122D406D626D24AD04ECEBA972E847F
:103C580082872C0013054030EF60917B2C000545CE
:103C6800EF40C04117C5010013058534EFA0D169A5
:103C7800A1461386819181452D4597000020E78054
:103C8800202401449389819117C9010013098933BC
:103C98009944B387890083C507004A850504EFA0C6
:103CA800B166E31894FE83C5E19117C501001305B9
:103CB800A531EFA0716503C7E1919307A00A631FBF
:103CC800F70017C5010013052531EFA0917517C539
:103CD80001001305E531EFA0D17435A817C501001F
:103CE80013054530EFA0F17385471306710085452C
:103CF80013050040A303F100EF50317C0D45EF00A0
:103D08002077F1B717C501001305852FEFA0717152
:103D18000145EF00E075B250225492540259F2491D
:103D28004561828003C7E1919307A00A17C5010086
:103D38001305852A630FF70017C501001305852AA7
:103D480093044400EFA0F16D9DE817C50100130529
:103D5800252CEFA0116D8357A4000D6613060620CD
:103D6800914503C56185239AF184EF00F06E17C56C
:103D780001001305652DEFA0D16A054559BF9307CA
:103D8800A0FA8566014681452545238FF190970065
:103D98000020E780E0129375F50F17C501001305A1
:103DA8002528EFA07156A68519461385819197009D
:103DB8000020E780A046A1461386819181452945C8
:103DC80097000020E780C00F9375F50F17C5010015
:103DD80013054526EFA05153BDBF17C501001305B4
:103DE800A527D5BD83C72500114717C501001305B1
:103DF80025286381E70419476397E70283C56500AF
:103E080017C5010013058528EFA011500945EF00DB
:103E18002066854730008545130550302304F1009E
:103E2800EF60D16CCDBD1547E395E7FE17C50100DE
:103E380013058527EFA0F15EE9BF17C5010013053B
:103E4800252851BD82800111170500001305E5D30F
:103E580006CE22CC26CA13846185EF10601A23008F
:103E6800A400854470008545130550302306910051
:103E7800EF60D167138641849D4513056030EF607C
:103E8800F1661716002013066619F1451305703000
:103E9800EF60D16517C6010013060610D545014528
:103EA800EF4090118D477000914513057040230530
:103EB800F100A305910002C623040100A304010038
:103EC800EF50B15F3000854513050040EF50F15EBB
:103ED80013069100854513051040EF50115E130637
:103EE800A100854513052040EF50315D1306B10050
:103EF800854513055040EF50515C99477000854542
:103F080005452306F100EFE0EFDEEFE09F89971506
:103F180000209385A50F1385C184EFE09FC6034554
:103F28000400A145EF00D04003450400C145EF005F
:103F38003040F2406244D24405618280411181459B
:103F480085660146254506C697000020E78040F7AC
:103F5800B240238F01909375F50F17C50100130523
:103F6800250C41016FA0513A411122C4138481915B
:103F780026C22286AA84A14681452D4506C69700F9
:103F88000020E780E0F38566014681452545A303C7
:103F9800940097000020E780A0F29375F50F17C5ED
:103FA80001001305E507EFA031362285194697D59C
:103FB80001009385E5AF97000020E7802026228640
:103FC8002244B2409244A146814529454101170344
:103FD80000206700E3EE03C7E1919307A00A631589
:103FE800F70003C5F19182804111A14613868191A2
:103FF80081452D4506C697000020E78060ECB24059
:1040080003C5F191410182804111054506C6EFE0E3
:104018000F921305800497000020E780C0BD8545F6
:104028007D55EFD03FF685457D55EFE00F8037177A
:1040380000408327870A8D451305002093E7072052
:104048002324F70AEFD01FF4EFE0EFA817C501000B
:1040580013050557EFA0F13CEFF09F81EFF0BF92F9
:10406800EF60916FEFE05FABF93B97000020E780CE
:10407800E0D66FD02FE1104D411197C7010093870B
:10408800271665823D8A13172600BA9722C406C6EA
:104098000357E50094438345A5012A8417C5010009
:1040A80013058502EFA051261C4C0347A40189463D
:1040B800E583BD8B6305D7040D46630CC7068546AB
:1040C800631BD70A9D466390D70217C501001305E5
:1040D8006502EFA011359D352244B2404101170316
:1040E80000206700C3C26398E70817C501001305DD
:1040F8002502EFA011332244B240410189A61D4791
:10410800639EE70017C5010013050502EFA0713192
:10411800854501452244B240410149A60547639CB3
:10412800E70417C501001305E501EFA0912F8145AC
:10413800CDB71D47639BE70017C50100130545026E
:10414800EFA0312E81450545F1B71547639AE70081
:1041580017C5010013058503EFA0B12C8545E5B708
:10416800639BD70017C501001305C504EFA0712B89
:104178008545094545B7B2402244410182808345BF
:10418800A5018D476387F50263E5B70099C5054525
:104198008280914701456385F502411117C50100E9
:1041A8001305450206C6EFA03116B2400545410188
:1041B8008280B717004003A5470C318105898280AA
:1041C8008280011122CC173400201304E4B31306B3
:1041D800C0088145228506CE26CA4AC84EC652C4A2
:1041E800EF0050085C58B70400FE45671307479C6A
:1041F800E58F3709FA00170A0000130A8AF89709A9
:104208000000938989E7D98F1309290317350020FE
:10421800130545B123204403232234032328240310
:104228005CD8EFD08FBFB7079600938727037CC46D
:104238003C48371702001307479CE58FD98F17357D
:1042480000201305E5AF232E4403232034053CC882
:10425800EFD0AFBC7C5417350020130525B0232CB4
:104268004405FD8CB71703009387479CDD8C232EEC
:1042780034052324240764D4EFD02FBA6244F240D3
:10428800D2444249B249224A170500001305A5DE67
:1042980005616FF0EF82411122C481452A842145CE
:1042A80006C6EFF04FA681451145EFF0CFA501E80E
:1042B800854521452244B24041016FF0CFA485478E
:1042C8006315F40085451145F5B789476317F40070
:1042D80085452145EFF02FA3F5B7B24022444101AF
:1042E80082809306007D130620039305F00F054591
:1042F8006FF02F949306401F130620039305F00FC9
:1043080005456FF00F93854505456FF0CF9F9306E0
:10431800803E130620039305F00F05456FF06F915B
:10432800896693860671130620039305F00F0545E9
:104338006FF02F909306401F130620039305F00F8C
:1043480009456FF00F8F9306007D13062003930530
:10435800F00F09456FF0EF8D896693860671130695
:1043680020039305F00F09456FF0AF8C854509458B
:104378006FF06F9981453D456FF0EF984111937744
:10438800F50022C406C6FD1711472A846362F702A6
:1043980017C70100130787FA8A07BA979C43BA9789
:1043A800828717C501001305A5FAEFA0E175153F2F
:1043B8009377040F13070002638DE706636DF70414
:1043C80041476384E706930700086316F40622440E
:1043D800B240410145B717C501001305A5F8EFA084
:1043E800A172093FF1B717C501001305E5F8EFA061
:1043F800A171113F75BF17C501001305E5F8EFA0BE
:10440800A170393F75B717C50100130525F9EFA04D
:10441800A16FF53D71BF13070003638AE700130717
:104428000004E392E7FA993779BF293769BF213F3A
:1044380059BF1D3749BFB240224441018280411112
:1044480022C4138441920C408D4717C501001305FF
:1044580025F68505B3E5F50206C60CC0EFA0C16ACE
:104468000840153D08402244B24041016FF0DFAFDB
:1044780023ACA1848280411122C42A862E8417C5C8
:1044880001001305A5F5B305B04006C6EFA0C16746
:10449800B24023808192224441018280411122C48A
:1044A80026C22E86AA842E84AA8517C50100130564
:1044B800E5F806C6EFA041658547638CF402094715
:1044C800638BE40499EC23A681926311F40283C7F9
:1044D800019389EF15455D3589679387F7C123AE49
:1044E800F184B240224492444101828023A6019281
:1044F800CDBF2285EFE0FFC82285EFE05FCF23889C
:104508008192114563049400130500022244B240CD
:1045180092444101A5B52244B24092440545410167
:104528006FE0FFCC411106C622C403C7019385473B
:104538006312F702854517C501001305E5ECEFA0E6
:10454800A15C8967938707C223AEF184B2402244F5
:10455800410182809387C1859C4329476345F702BF
:1045680023A60192FD1723AEF1849387C1929C4341
:10457800F1FF8967938707C223AEF1849307F00F91
:1045880023A0F186E1B70967130707C2E39CE7FC9C
:1045980013848185938701860C409C436389F508C1
:1045A80017C50100130505E8EFA001561C4089EB6B
:1045B8000945E9330145EFE0DFBC0145EFE03FC3C2
:1045C80018408547631BF702938741929C431397D2
:1045D800270097C701009387A7DFBA97138701922F
:1045E800030707009C4363DAE7020545413B05459D
:1045F800EFE03FB90545EFE09FBF184089476318D2
:10460800F7000145EFE0FFB70145EFE05FBE184056
:104618008D476314F700414595331840914763155A
:10462800F70013050003993B1C4023A0F1861C40AA
:1046380089CBE3CD07F00947E34AF7F023A40192B9
:1046480031B7938781929C431387170023A4E19283
:104658001307401FE39CE7EE13050008EFF01FD295
:10466800EFD0DF90B7570700938707303E95EFF0FC
:104678004FBE1305800497F0FF1FE780C057094518
:10468800EFF0DFCF0545EFD09FAA4DBF411106C619
:10469800EFF07F94AA8523A2A19217C50100130504
:1046A80065D5EFA06146B240094541016FF01FCDC5
:1046B80023AC05FE1C4191E7010001000CC182807A
:1046C800BA8703A787FF6DFF23ACB7FE82801DC1A1
:1046D8008346E5FF1307F00F9147639EE6004111FB
:1046E80006C697000020E780A054B24081473E8567
:1046F8004101828095473E85828001E9014582809B
:104708000145B240224441018280411122C42A84D9
:10471800210542059305D004418106C69700002073
:10472800E780604771DDFD572320050023128500CF
:104738002303F5002105F1B7138741931C43411169
:1047480022C426C24AC006C601440149BA8489E780
:10475800A1658D2D0DC401A803C7E7FF6318A70243
:104768001DC8A165F1269840832784FF6317E402DA
:1047780023AAF192FD57232C04FE230FF4FE228571
:10478800B2402244924402494101828011E03E89AC
:1047980083A787FF6DBF3E84E5BF232CF9FED9BFF1
:1047A800A9C9411122C406C62A849727002083C7B5
:1047B80037622E856368F400193F0D45B2402244E4
:1047C8004101828083A785FF99E703C7E5FF930727
:1047D800F00F6305F700E53D1545CDB7238F85FE3E
:1047E80013854193F13522852244B240A1654101E8
:1047F80081A61545828023AA019282809387C1945D
:104808009C4399E33E85828003D727006316B7004F
:1048180003C70700E308A7FEDC47E5B741119397F4
:1048280005014AC006C622C426C2C1872E8963DE96
:104838000700193711C1613D21653345A900B24010
:1048480022449244024941018280AA860145E5D961
:1048580001443D47B3578940858B95CB9387019495
:104868008443BD4791E28147A2978E070545BE94D0
:1048780033158500131405019C40C8404180829778
:1048880023A0040023A20400334524014DBF0504DE
:10489800E312E4FC0144CDBF972700209387874F9C
:1048A8009C53411122C406C61384418695C782973A
:1048B80023A2A1860840B74703009387D73F330553
:1048C800F502B7A72600938737ECB24022443E95FD
:1048D80023A2A18641018280972700209387474F12
:1048E80018409C4BBA9723A2F186E9B79387819326
:1048F80090439726002083C6B64D814713F7F70FDC
:104908006360D70A172700200347F760914763E0E1
:10491800E70A9727002083C7A764918BC9EB011189
:10492800680006CE22CC26CAEFC06043FD56630F4E
:10493800D50C32479727002083C7F74663F3E70C67
:10494800172700201307C7484047172700200347A9
:10495800A7456305D406058B21CF51473304E402EC
:1049680063F1870A97000020E78060B0B24763735D
:10497800F400A287172700200347F742998F3E9536
:1049880097270020938707418387470163CD070254
:10499800B707C0A86369F502B70740573E9525A039
:1049A80085071397170032970357E7FF21DB8280AB
:1049B800130790023304E40205805DB7620761873C
:1049C800635707001D8D19E93705C0A801A8E37BC7
:1049D800F5FE3707C0A8B307F7403E959727002094
:1049E8009387473BDC53829709ED972700209387ED
:1049F80027529C4F99C7EF10A126EF10B104EF1072
:104A0800811AF2406244D2440561828097270020CF
:104A18009387073CDC47E386A7FE17270020130788
:104A2800673783464701BA84858A9DC651443384D3
:104A380087029727002083C71737E3F487FC97007E
:104A48000020E780C0A29727002083C7D7351D8C98
:104A58002295838744011DBF130490023384870283
:104A68000580C1BF2A9609E582800505A30FB5FE1A
:104A7800E31DC5FED5BF81473307F50003070700CF
:104A880019E33E8582808507C5BF01112E8626CA97
:104A9800AA84131506019305F004418122CC06CEA1
:104AA80032C697000020E780000F2A8419C53246D5
:104AB800A68597F0FF1FE78060762285F240624462
:104AC800D2440561828081476314F60005458280DF
:104AD8003307F5008507B386F5000347070083C64B
:104AE800F6FFE383E6FE014582809307F6FFBE9555
:104AF8002A966313C5008280FD1583C71500050536
:104B0800A30FF5FEFDB7814711E901458280330700
:104B1800F50003470700E31AB7FE8507E319F6FE19
:104B280005458280972700209387872A884B8280B3
:104B38009727002083C7D729637FF50013878193C0
:104B48009317150008433E9583570500DD8D231004
:104B5800B500014582800D458280FD570111172758
:104B68000020232DF7269387C19422CC80434EC67C
:104B7800972900209389092226CA4AC852C456C2D6
:104B880006CE5AC02A8981444E8A972A0020938AE1
:104B98002A24184481476374E900B307274103A70F
:104BA80049021CC409CB03A7CA0063F6E70017270C
:104BB80000202325F722A9E78355240085ED5C44CE
:104BC800A9E823A6F194032BC400228597000020AE
:104BD800E78000065A8455FC83274A028DCF624439
:104BE800F240D2444249B249224A924A024B0561F4
:104BF8006FF0DFCF03450400253F5C4081CB1CC428
:104C080083572400CDDFA2844044F1B71C44C5DBA0
:104C1800C5BFDCC44DBFF2406244D2444249B249E8
:104C2800224A924A024B056182809727002083C757
:104C3800371A6371F5021387819393171500084398
:104C480093C5F5FF3E9583570500FD8D2310B500EC
:104C5800014582800D4582809727002083C757171A
:104C68006364F50001458280411122C426C24AC00E
:104C780006C62A842E89B284EFF05FB801C504C540
:104C880005452DA0936504F0C205C18141459700F3
:104C98000020E78040F00DE1972700209387870FD9
:104CA8009C5B81C7A285114582970145B240224489
:104CB80092440249410182809387C1949C438DE3C9
:104CC80023A6A19485472326050004C523112501A1
:104CD80023008500A300F5002322050055B7BA87F5
:104CE800D84775FFC8C7F9BF45C539715AD0138B66
:104CF800019422DC26DA4AD84ED652D45ECE66CA51
:104D08006AC86EC606DE56D262CC3689328AAE8949
:104D1800AA8401445A8DB94D854BF94C03270B00E1
:104D2800131C3400937AF40F62971C43A9EF13B550
:104D3800FA0013451500B3978B0063F65D019307DE
:104D480014FFB397FB0093950701C1815286293759
:104D58001DC983270D000145E29784C323A23701AB
:104D68006304090023005901F2506254D254425995
:104D7800B259225A925A025BF24B624CD24C424DC3
:104D8800B24D216182800504E31A94F92145E9BFF7
:104D980009458280411122C426C24AC006C6AA8497
:104DA8002E893284553DCA852685EFF03FA509C96D
:104DB80040C10145B24022449244024941018280E7
:104DC8002145CDBF411122C426C24AC006C6AA84C5
:104DD8002E89EFF0BFA22A8419C123110500972755
:104DE800002083C7E7FE6394970023922195CA8524
:104DF8002685253D014511E01945B24022449244DB
:104E08000249410182807547636BA70413870194A7
:104E18001443411126C293143500A696944222C425
:104E280006C6AA873A84094595C613B5F7003947D7
:104E3800134515006373F700C5178545B395F5004D
:104E4800C205C18141371C400145A69723A0070030
:104E580023A20700B24022449244410182800945BE
:104E68008280411106C6EFF07F9909C50845B24016
:104E7800410182800145E5BFF54763EEA7049387AA
:104E880001949C4313173500BA979843894729C75B
:104E9800011126CA06CE9334F50022CCB94793C433
:104EA800140063F3A700451505443314A400420415
:104EB80041802EC62685A2856D378947324611C5A1
:104EC800A2852685EFF05FD98147F2406244D2443B
:104ED8003E850561828089473E858280239EA19216
:104EE800239FB1928280411106C623A4A194029502
:104EF800B2409727002023A7A7EE014541018280F1
:104F0800994763E9B7008A0597270020938787EEBA
:104F1800BE9588C18280411106C6EF60E10A7146DC
:104F28008145172500201305E5ECEFF0BFB3130604
:104F38004002814517250020130585E9EFF09FB24F
:104F480023A6019423A401949727002083C747E64A
:104F580013D527008D8B3E958D473305F5029305B4
:104F6800101035051375F50F972700202383A7E642
:104F780099473305F5021305050F97000020E780D0
:104F880080C123A0A19435C999471726002003465C
:104F980046E43306F60281451306060FEFF09FAC90
:104FA800938701949C439387070F23A8F1941727AD
:104FB8000020034707E20A07BA9723ACF192EFF003
:104FC8009F8365269387019598439727002083C779
:104FD80037E093962700BA96170600001306468412
:104FE80090C293862700850793F7F70F8A079725BE
:104FF8000020A38FD5DCBA9790C3B24041018280CC
:105008009727002083C7D7DC17270020034767DCD2
:1050180063F1E70213870195184393861700172653
:105028000020A307D6DA93962700369708C33E8553
:1050380082809307F00FE5BF1C416382071A41770E
:105048007D8FB70600208947631CD7180357450092
:1050580063080718411122C419462A849305F00FE2
:10506800590506C6EFF03FAA05478D476304E516C4
:105078001C4481CB58589947630E0714185C630B7E
:1050880007141306C003814517250020130585D092
:10509800EFF05F9D1306C003A285172500201305B6
:1050A80065CF97F0FF1FE78060179727002083D709
:1050B80027CF972600209386E6CD99E7930700101F
:1050C80017270020231EF7CC9727002083C767CD1A
:1050D80091E78547172700202305F7CC972700205D
:1050E80083C737CC91E7ED4717270020A30BF7CAF2
:1050F8009727002083C707CB91E7954717270020FC
:105108002302F7CA9727002083C7D7C991E78547A5
:1051180017270020A308F7C89727002083C7D7C8F8
:1051280099E783C7060117270020A30FF7C697271B
:10513800002083C747C791E7D147172700202304DA
:10514800F7C69727002083C7C7C695E7172700200B
:10515800034787C51316870161869307C002634812
:1051680006009377170093B717009387D70217277E
:1051780000202300F7C49727002083C7D7C295E7EC
:1051880017270020034747C2131687016186930734
:10519800C002634806009377170093B717009387F8
:1051A800D70217270020A300F7C08347D40191E74F
:1051B800894717270020A30DF7BE9C5691C78297F1
:1051C800972700202399A7C0EFF0FFD4FD57A38CA1
:1051D800F1AA8147B24022443E8541018280894735
:1051E8003E858280011122CC06CE2A842EC6EFF09D
:1051F800AFEAB245F240818D33A5A50222956244FB
:105208001375F50F05618280011122CC06CE2A8420
:105218002EC6EFF06FE8B245F240818D33A5A502A6
:10522800229562444205418105618280011122CCA8
:1052380006CE2A842EC6EFF02FE6B245F240818DC5
:1052480033B5A50222956244056182809727002024
:10525800938747B4985725C3411122C426C206C66E
:10526800BE840297172700200357E7B62A8441C750
:10527800BA876373A700AA87C207C183BA86637314
:10528800E400A286C206C182958F51476355F7068E
:10529800DC5491C38297854717270020230EF7C651
:1052A800EF00716697270020239787B2B240224407
:1052B8009244410182809727002083C7E7C59DE774
:1052C800972700209387C7C483C79700850793F75C
:1052D800F70F17270020A301F7C4A18B9DC78547A7
:1052E80017270020231AF7C26F00D16797270020DD
:1052F800A38407C2D5BF9727002083C7E7C1DDD79E
:105308002244B24092444101C5B7828097270020C9
:10531800938747A8D857011122CC06CE3E8401C7EF
:105328002AC60297324511CD23AAA19417F5FF1F6B
:1053380013056515EFF03FBBF24062440145056176
:1053480082808307440163DD07009727002023AD8F
:1053580007A897F7FF1F9387A70D23AAF194F9B71A
:1053680097F7FF1F9387A710CDBF011122CC1724F1
:105378000020130424A2084406CE26CA4AC801E91C
:105388000545F2406244D2444249056182805C5836
:10539800E5DB185C75D77000854582971844B247DD
:1053A800E300F7FE9305E004172500200355459F09
:1053B80097F0FF1FE780207E172700202328A7A249
:1053C80061D1172600200356A69D9305F00FEFF034
:1053D8006FE98144172900201309899F9727002026
:1053E80083C7279C0326C90163C1F402328597004D
:1053F8000020E780E08301459727002023A8079E27
:105408009727002023A6079EADBF9725002083D5A8
:105418002599B38795020844185C898185043E95CF
:1054280008C2029765BF411122C417240020130443
:1054380064961C4426C206C64AC09724002093845A
:10544800249991EBC84C35E9B24022449244024970
:105458000145410182801C5CF5D7DC4C99EF93052E
:10546800E004172500200355A59397F0FF1FE78058
:1054780080729727002023ABA796C84C61D51726C2
:1054880000200356E6919305F00FEFF0AFDD0149D8
:105498009727002083C7E790D04CE355F9FA972562
:1054A800002083D5E58F338525031C4489810509B0
:1054B8003E951C5C08C28297E1BF97F0FF1FE7800A
:1054C80020779727002023A307929727002023A15E
:1054D80007929DBF011156C2972A0020938A8A8B92
:1054E80083A78A0022CC4AC84EC606CE26CA52C412
:1054F8005AC0AA892E8432896385072203A74A03E2
:10550800630707147D476366A714972400209384D4
:10551800248C03AAC40163170A0A9565938515E0CC
:10552800172500200355C58797F0FF1FE780A06661
:105538009727002023ACA78A2A86630A051083A729
:105548004A0303A58A009725002083D565858981AC
:10555800829783A78A0003AAC4011727002023295A
:10556800F7888947639CF908C1476312F40E9725A9
:10557800002083D5E582938505FC9147B3C5F502E4
:105588008A05D29503C705009307A005631DF70A8E
:1055980083C715006399370B4A852286910597F0D2
:1055A800FF1FE780A0C7DC4C528563934715014570
:1055B800F2406244D2444249B249224A924A024BDA
:1055C800056182809850E38EE7F89565938525E01C
:1055D800171500200355C57C97F0FF1FE780A05BD7
:1055E8002A8A35C52A8683A74A0303A58A00971500
:1055F800002083D5E57A89818297A5B78D47639D79
:10560800F900C1476315F4049715002083D545793F
:10561800938545FDF199B5B79147639AF9006318E9
:1056280034039715002083D5A577A115E5B7C147A1
:10563800639FF900A14763EC87009715002083D585
:105648002576C115C1BFDC4C52856397470D2945A6
:1056580085B71307F006568B6361A70A130A05FE80
:105668001947334AEA021717002003576773971A36
:105678000020938AEA75330AEA023E9A83A70A024F
:105688006395470183A4CA019DE49305E0041715B7
:1056980000200355E57097F0FF1FE780C04FAA84EC
:1056A8005DD583274B039715002083D5656F2A8620
:1056B80089815285829791451307A005898193971F
:1056C8002500A69783C607006393E60483C61700E0
:1056D800639C360385058A052286A6954A8597F038
:1056E800FF1FE780A0B383A7CA01E38297EC268552
:1056F80097F0FF1FE780C0535DBD1307E007E3681D
:10570800A7F4130A05F985B783D5270045BF83A7F2
:10571800CA01E38E97F2268597F0FF1FE780405174
:105728003DB7971700209387A76ACC4F8DD1914733
:105738009306A0058983139727002E970346070031
:10574800E317D6F003461700631C360185078A075E
:105758002286BE954A8597F0FF1FE78020AC81BD61
:1057680083572700C1BF971700209387A7629847E0
:1057780039C79C5FA9C705476313E504411122C4D3
:10578800171400201304C464504C06C60DC60850F4
:105798009715002083D5C56089818297484C97F07A
:1057A800FF1FE780E0489717002023A10764971799
:1057B800002023AF0762B2402244410182808280E8
:1057C8000111171700201307E75C4EC683298700CD
:1057D80022CC26CA4AC806CE52C456C2AA842E84EF
:1057E8003289638A09201C5FBA8A99EB2945F240FD
:1057F8006244D2444249B249224A924A05618280AF
:105808005C5BEDD7FD4763E9A70E971900209389E4
:10581800295C83A7C901B1CB03A58A0083A7090224
:105828006395A70689476393F408C147E310F4FC1E
:10583800171500200355C5569147130505FC334538
:10584800F5029317250003A5C9012286CA853E954E
:105858009307A0052300F500A3009500110597F014
:10586800FF1FE780A09B014559B79305E004171572
:1058780000200355E55297F0FF1FE780C0319717C6
:10588800002023A5A75649F995B783A74A0303A67D
:10589800C9019715002083D5A5508981829783A7D0
:1058A8008A00171700202325F754ADBF8D47639E44
:1058B800F400C147E31CF4F2171500200355454EC8
:1058C800130545FD9377C5FFBDBF9147639AF40063
:1058D800E31E94F0171500200355854C2115DDB7FC
:1058E800C147E395F4F0A147E3E287F017150020DC
:1058F8000355054B4115F9B79307F00663EAA70668
:10590800930705FE1947B3C7E70217170020035787
:105918002749171A0020130AAA4BB387E702BE9932
:105928008327CA01A9CF83270A02639A3707032569
:10593800CA0191461308A005FD5593D72600C20752
:10594800C183139727002A9703460700631D06079C
:10595800834817000356270063959806B306D64078
:1059680063CF860485078A072286CA853E95C5BD0A
:105978009307E007E3ECA7E6930705F979B79305E2
:10598800E004171500200355A54197F0FF1FE78095
:1059980080209717002023ABA74451F581BD83A72A
:1059A8004A030326CA019715002083D5653F8981DC
:1059B8004E8582979717002023AC37438DBFA300ED
:1059C800B700B2869DBFB385860017160020035620
:1059D800263D9105130606FCE3FAC5E013063400DC
:1059E8001376C60F1106B29623000701A30097008D
:1059F8002311D70085BF971700209387673DD44FA1
:105A0800BE89A1C203A5C90191461308A005FD5589
:105A180093D72600C207C183139727002A97034606
:105A28000700631606058348170003562700639886
:105A38009800B306D640E3D786F2A300B700B28633
:105A4800C1BF8357C7001715002003458535930547
:105A5800E0043305F5024205418197F0FF1FE78016
:105A680080139717002023A3A73849FD41B31716C1
:105A780000200356E6329715002083C58532B3858A
:105A8800C502338686001106E3E2C5D681BF01450B
:105A98008280011106CE2EC6EF70604601C9B2455C
:105AA800F2400355250005616FA02075F240494575
:105AB80005618280A38001982380019823A4019620
:105AC80023A6019623A8019623AA019623A201964C
