:040000006F10001E5F
:1000040000000000000000006F0080086F00202541
:1000140000000000000000000000000000000000DC
:1000240000000000000000000000000000000000CC
:100034006F004006000000006F00E00500000000B3
:100044006F0080056F0060056F0040056F0020059C
:100054006F0000056F00E0046F00C00400000000A2
:100064006F0060046F0040046F0020046F00000400
:100074006F00A0266F00C003000000006F00600343
:100084006F0040036F0020036F0000036F00E00265
:1000940001A001A001A001A001A001A001A001A054
:1000A40001A001A001A001A001A001A001A001A044
:1000B40001A001A001A001A001A001A0B717004068
:1000C400130770052380E704130780FA2380E704ED
:1000D4000F1000002396A70223800704371700405F
:1000E40083472705898BEDDF8357070537170040C2
:1000F40083472705898BEDFF371700408347270582
:10010400898BEDDF035507058280B71700409306FE
:1001140070052380D704130780FA2380E7040F10A7
:10012400000003C6B7041376F60DA385C704238025
:100134000704137605023DCA03C6A700118A1DE20F
:100144002380D7042380E7040F10000003C7A7000F
:10015400136747002385E7009307004B0100010064
:10016400FD17EDFFB7170040930670052380D704F1
:10017400130780FA2380E7040F1000007D8923947D
:10018400A70001000100010001002380070423806F
:10019400D7042380E7040F1000003727004093069C
:1001A4001005A303D78023800704828013760504F7
:1001B4006DDE03C6A700418A1DE22380D704238095
:1001C400E7040F10000003C7A70013670701238586
:1001D400E7009307007D01000100FD17EDFFB7174D
:1001E4000040930670052380D704130780FA238008
:1001F400E7040F1000007D89136505042394A7000C
:100204000100010001000100238007042380D704BA
:100214002380E7040F1000003727004093063005C1
:1002240049B74111814601468145114506C6792ADF
:10023400B7170040130770052380E704130780FAFB
:100244002380E7040F10000003C767041367170037
:100254002383E70423800704B2404101828081465E
:100264000146814511459D22B7170040930670054C
:100274002380D704130780FA2380E7040F100000BB
:100284007D562396C7022380D7042380E7040F10EA
:10029400000003C76704136717002383E704238060
:1002A400070401A0BD473305F50201007D1575FD66
:1002B4008280411122C426C206C6AA84014463175F
:1002C4009400B24022449244410182800504130503
:1002D400803E4204C13F4180DDB7B7170040130799
:1002E40000032388E702854723ACF18E7300203096
:1002F400411106C6970000E0E78080C99717000007
:1003040093874744884397F0FFDFE780A0FF99294C
:10031400FDBF2303048095472303F4802302A480B4
:10032400828083076480E3CE07FE230304808280F7
:1003340083076480E3CE07FE0345448082808307FD
:100344006480E3CE07FE2302A4808280411126C488
:100354004AC24EC006C61377F50BAD47AA892E894B
:1003640095446306F70019456D37653F8D444E8506
:100374004D37FD59FD1463983401B240A24412492B
:10038400824941018280135509011375F50F453FD8
:100394002209CDB7011126CC06CEB7040800513787
:1003A4001545853F713769372AC6A53F324593778E
:1003B400150089EB136515001375F50FF240E2443F
:1003C40005618280FD14E9FC0145CDBF397126DC4D
:1003D4004ADA4ED852D656D45AD25ED062CEB7E755
:1003E40000E006DE66CC6ACA414783AB070422C636
:1003F400B8C37D5703AB070083AA470023A0E718BF
:1004040023A2E718B7170040130770052380E704F9
:10041400130780FA2380E70483C74704130C75FF8E
:10042400B684E207137CFC0F85462A8A2E89B2899A
:1004340037240040E187015763FA86016308D50039
:100444008946130700026313D5000157D98F93F728
:10045400F70F371D00402302FD0411472303E480F6
:100464001305F00F7D35894C6D3D63EB8C11B70797
:1004740007003E99378707007955637EE902B30781
:100484009900636AF702A947631CFA0689E4814468
:10049400493D26850DA0CA8509454D3D850903C5FD
:1004A400F9FFFD140509613D81C49377F90FFDF748
:1004B400D53569FD7D55B7170040130770052380B6
:1004C400E704130780FA2380E70403C74704418B3A
:1004D4002382E704B7E700E023A07705F25023A0C6
:1004E400671123A25711E25432445259C259325A65
:1004F400A25A125B825B724CE24C524D21618280A3
:10050400A5476314FA0685699307F00FB38697002D
:10051400B374F900B69493C7F7FFFD8C33F9270140
:10052400416A056C9387F9FFB3F7270199E363FCEC
:10053400340193D94900C147E3E637FF89BF856792
:10054400C169FD17E1B71305800D638849011305DF
:1005540000026384890113051008CA85C53B1D3D4B
:1005640031D94E99B3843441D9B7CA852D45F93B65
:10057400CE94E38E99F08509653BA38FA9FED5BF80
:100584009307FAFF93F7F70F63ECFC0803475D0446
:10059400B70708001377070219E3B78707007955EF
:1005A400E37BF9F033079900E3E7E7F08947631049
:1005B400FA048980554AE38C04ECCA8509457933E9
:1005C400910903A7C9FF91472320E48003076480AE
:1005D400E34E07FE23034481FD17EDFBFD141109CF
:1005E40081C49377F90FE9FF753371F5E1B5854758
:1005F400E307FAF4CA852D45913B1389F4FFE38898
:1006040004E83D339377390091EB8326048003A7F4
:10061400090093874900E39DE6E6BE89CA84F1BFD9
:10062400B5476316FA001305900BE5318DB5B14754
:100634001305B00AE30BFAFE9947631EFA02CA8552
:100644002D45293381440D4C214ADD3163968401C3
:100654008327048023A0F9008504E39844FF8327BB
:10066400048013172901635507002392F90005B587
:1006740023A2F90029BD9D476319FA028145130598
:10068400B004E931BD4423A0090023A209007D5927
:10069400453193F77400CE9703C70700FD14398DD5
:1006A4002380A700E39624FFDDB3A1476312FA0475
:1006B400D5318144630D09008D479304C003630859
:1006C400F90093040005630499019304400413752D
:1006D400C507E30E95DA19452D39A13105451539BC
:1006E4002685B1390945A1397531E31205DAD9B343
:1006F40091476319FA001305600621391D3113056A
:10070400900925B7E3050AD8F15459B309CDB717B1
:100714000040130770052380E704130780FA238041
:10072400E7042396A702828019C1814799E9828050
:100734003387F500834607003307F5008507230058
:10074400D700E397C7FEE5B719C1FD5781E9828059
:10075400910503A7C5FF1105232EE5FE7D16E319B8
:10076400F6FEF5B7797122D4173400001304C4AD32
:100774001C4006D626D24AD04ECE91C782979737D0
:10078400000023A307AC5C4089CB03D5C190BD3FD7
:100794005C40829703D5E190953F1C40639907180C
:1007A4009737000083C757BC858B95C797370000E0
:1007B400A38C07BA17370000034737BB914763FC84
:1007C400E700792B9737000083C737BAF9178A07F0
:1007D400A2979C4382979737000083C7A7BD918B4C
:1007E40089C7971001E0E780C04C1C4491C38297ED
:1007F400938781909843173600000346B6A23E893A
:1008040097340000938404A29737000083C787A11C
:1008140093961700BA9683D606006380061097371E
:10082400000083C727A063F2C70886073E97835555
:1008340007002310070003D5C1902EC6239A019008
:10084400F135938701929C43173500000345859D3C
:1008540013172500BA979C43B2458297AA8903D5FA
:10086400E1906D359737000083C7C79B1397170036
:100874008327090003D541911345F5FFBA9703D7A0
:10088400070033753501598D2390A70083C70400F1
:10089400850793F7F70F173700002305F7981737E5
:1008A40000000347379863E6E70097370000238B7F
:1008B40007961C40ADEF9387819198433E8425CBE6
:1008C4009737000083C7B7AA91CB9737000083C737
:1008D400D7A989E7971001E0E78060EE1C40829772
:1008E4002A8431C59C48AA97173700002324F7941B
:1008F4009387C1919C4385CF03D5C190013D228547
:10090400970000E0E78020B42254B2509254025978
:10091400F24903D5E1904561D5BB850793F7F70FFD
:10092400973600002380F690E3E0C7EECDBDB250C9
:10093400225492540259F249456182809167B7C6A4
:1009440000409387373023A6F6200F100000973716
:1009540000009387278D884F938781A09C4331673C
:1009640013073730F053B7071000FD17918F9983A1
:100974003A0523A6E6205D8D82804111B717004019
:10098400985F3AC6945F3247E39CE6FE32454101E4
:100994008280411106C6D5379736000083C6068685
:1009A400858AB1C6930730333307F502B337F502AE
:1009B4003983CA07D98F173700001307A786584B06
:1009C40001456303F7023385E740636BF70037653E
:1009D4003D0889C637856F0813050590198D3E9526
:1009E40017370000232AF784B24041018280E5478B
:1009F4003307F502B337F5022583DE0765BF032706
:100A0400C50F8346B500973700009387A7959C4F81
:100A140058439386160295829043FD1693F6F60F7B
:100A240010C3D04350C3904710C7D04750C7904B12
:100A340010CBD04B50CB904F10CFD04F50CF91C64E
:100A44001307070293870702C1BF82808347E5012A
:100A540093F7E70FF1EF2A870345F50171E90346A0
:100A640007018346870009CA8345A7029727000028
:100A740083C7D77863E7F50093F70601C5CF8147AD
:100A840009CA8347871503467715C18AA207D18F00
:100A940081CA8346B7150347C7152207558FBA97EE
:100AA400D1CB17370000130767973847411122C489
:100AB40006C67D548326070863F3860036841843EC
:100AC40075FB172700000347677393168701E186B8
:100AD40063D906029387C71395831727000003473A
:100AE4008772BA9763D006041D8C938741929C4306
:100AF40082973335A400B2402244134515004101C6
:100B04008280058B9387C71209CB8A079387F703E3
:100B14001305D007B3D7A702C9B78607FD07130586
:100B2400D003CDBFE372F4FC3705C0A82A946DBF8F
:100B3400014582808280411122C41384819F184020
:100B44004AC006C61C5F26C21389419F9983858BC0
:100B5400C1C31C5F973400009384C48093F7F7F9F2
:100B64001CDF9727000083C7E77F93F707048DC333
:100B7400938741929C4382979727000023ACA77EDA
:100B840083C7040093F7F70B17270000230CF77CA7
:100B9400854717270000A309F77C83C7440093F710
:100BA400070481EF938781A09C43D844B8D393076B
:100BB40000FC172700002309F77A8387640063D9B0
:100BC4000700832709009C4317270000230FF778A9
:100BD40018401C5F8583858BC9CBF5571CDF01004A
:100BE40001000100010001000100010001000100F9
:100BF40001000100010001000100010001000100E9
:100C040001000100010001000100010001000100D8
:100C140001000100010001000100010001000100C8
:100C240001000100010001000100010001000100B8
:100C340001000100010001000100010001000100A8
:100C44000100010001000100010001000100010098
:100C5400010001000100010001000100010093876F
:100C640081A09C4313075004B8CB18401C5F9183A8
:100C7400858B89CFBD571CDF938781A09C4323A814
:100C840007048547172700002300F76E8327090010
:100C9400D8430583058B19C7D843759BD8C3D8435C
:100CA400799BD8C3B24022449244024941018280D4
:100CB400397106DE16DC1ADA1ED82AD62ED432D2C0
:100CC40036D03ACE3ECC42CA46C872C676C47AC240
:100CD4007EC09535F250E2525253C2533255A2555A
:100CE400125682567247E2475248C248324EA24ECA
:100CF400124F824F216173002030938781A0944367
:100D04001727000013070766BC5289CF83472700C3
:100D1400858B89EB83473700858BFDD797270000A8
:100D240023840764828037C700401306C0039306F8
:100D34002003972500009385E56283278720C183DC
:100D440093F7F7036369F60083278720C18393F73A
:100D5400F70363E6F60083C74500858BF9DF8280DD
:100D6400938781A09443172700001307A75FBC5201
:100D740089CB83470700858B91CB97270000238578
:100D8400075E97270000A381075E828083471700D0
:100D9400858BF1DFDDB7938781A0904337C700408F
:100DA400C145E54683278720C18393F7F70363FB97
:100DB400F50083278720C18393F7F70363E4F600E4
:100DC4003C52EDF382801387819F1843AA87185FF2
:100DD4001583058B25EF0345150015051377C51FEE
:100DE40019C6B386E70083C626002300D60095C53E
:100DF4009726000083C6665793F606040945A1CAE0
:100E0400B386E70083C63600054693F5F60663907D
:100E1400C504E206E18663CC06023385E700834716
:100E2400150003470500A20793F70770D98F13979E
:100E3400070141839376074099C61367078023907F
:100E4400E1A0014582802390F1A0E5BF05458280A1
:100E5400938681A08C42368597260000938686501F
:100E6400984593170701C183137817203E866304BE
:100E740008041377072079C303C7260013671700F4
:100E8400172800002301E84E13070019B8D11307EF
:100E940000F8972500002389E54C1387819F0C43B4
:100EA40037080010D855719B13672700D8D598418F
:100EB4003367070198C11377261005C3137606100C
:100EC40059CE03C706001367170017260000230B2B
:100ED400E64817270000231B074883C6460093C72C
:100EE400F7FFC207E206E186C183184163D1060217
:100EF4009396170163DE060630538D4663E9C600F8
:100F04008546172600002301D6463453FDFE972656
:100F140000009386662D8386460163DD0600939662
:100F24000701C18663DC06047053894663E4C60086
:100F34007453FDFE1447F58F1CC7828003C7160047
:100F44001367170097250000A38EE54017270000BC
:100F5400230C074017270000231A0740A9BF03C723
:100F640036001367170017260000A30EE63E95B758
:100F74008546172600002309D63E51BF54471396D1
:100F8400060163510602B7061000FD1674D39726B6
:100F9400000093862629944E850617260000232FE9
:100FA400D62849BFA166D58F71B7397106DE16DC24
:100FB4001ADA1ED82AD62ED432D236D03ACE3ECC25
:100FC40042CA46C872C676C47AC27EC05135F2504F
:100FD400E2525253C2533255A255125682567247A8
:100FE400E2475248C248324EA24E124F824F21610C
:100FF4007300203017270000130787388346B70192
:101004009727000083C7173BB69793F7F70FFD4662
:1010140063EAF6044C4B97260000A383F636972721
:10102400000083C7F73505473317F70097260000FC
:10103400A382F6386D8F1DEF9726000083C6D6373E
:10104400B3F6D70213050002814733D6F500058AAB
:1010540013F8F70F09CE6399E60097270000A381E0
:101064000733828081177DB705071377F70F85074C
:10107400E39DA7FC8280938741A19843B757020060
:101084009387279F83260709139656006358060003
:10109400832607091396660063440600FD17FDF3D3
:1010A400828051C9AA870145C9C98D07C207C18376
:1010B400F19BC207C18313074003636BF7021387D5
:1010C40041AA08431387C1A914436396A6021727AC
:1010D400000013076711185B014525C34111C207BE
:1010E40006C60545DD8D0297B24001454101828067
:1010F400138701AAF9B70357650005EF03574500A5
:101104006369F702B306F74021466370D6021041C3
:10111400938687001D8FAA96611790C22392E600DA
:101124002393060014C12312F5002313B5002105EF
:101134008280084159BF01458280828001CD938716
:1011440041AA03A807009387C1A98C430147C2871A
:1011540063E3B70082809443636FF50663EDA606EC
:1011640013868700E368C5FE03D56700216605067C
:101174006317C50003C6819B0506238CC19A23937C
:10118400070063840703138601AA1042630FF60065
:101194000356670019EA83D7470014C383564700F0
:1011A400B697A1072312F700BA879843E304B7FA66
:1011B400938601AA9442E30FD7F883566700D9FABD
:1011C40083D64700035647001843A106B2962392DC
:0C11D400D70098C382803E87B6879DBF7D
:1011E000974100209381814C17710020130181E108
:1011F00013054000972500209385C5601736002011
:101200001306067E63FAC5008322050023A055005D
:1012100011059105E3EAC5FE17E501001305856C8C
:10122000973500209385C57B1386C18963FAC50075
:101230008322050023A0550011059105E3EAC5FEB0
:101240001385C18997650020938545A86377B5000C
:10125000232005001105E36DB5FE9302800873A0FD
:101260000230972200209382E25993E21200739099
:101270005230972200009382C24973901234730057
:1012800020303D432A876373C3029377F700BDEF95
:10129000ADE5937606FF3D8ABA960CC34CC30CC7E6
:1012A0004CC74107E36BD7FE11E28280B306C3400F
:1012B0008A069702000096966780A6002307B7006B
:1012C000A306B7002306B700A305B7002305B700A0
:1012D000A304B7002304B700A303B7002303B70098
:1012E000A302B7002302B700A301B7002301B70090
:1012F000A300B7002300B700828093F5F50F939603
:101300008500D58D93960501D58D61B793962700FD
:101310009702000096968682E78086FA9680C1172B
:101320001D8F3E96E374C3F8A5B7B717004003C7F7
:1013300077051377E70FA38BE704130700F8A38D56
:10134000E7043D47238CE70413075003A38CE7040D
:101350008280B717004003D587005D715ED64205D5
:10136000418186C6A2C4A6C2CAC04EDE52DC56DA8D
:101370005AD862D466D26AD06ECE9377050C130722
:101380000008814B638EE718130700046392E71689
:10139000B7240D8F7D8993840480B3D4A402916710
:1013A000938707E8BE94A167938707D0B3D4F4026C
:1013B000EFC0E10997E701009387C7B19043D44399
:1013C000EFB0413DEFC0415E2A8B939C040103D9ED
:1013D000C18993DC0C0163150900056913090980B3
:1013E000B7170040130770052380E704130780FA3E
:1013F0002380E7040F1000000547371A0040939D33
:101400000401096C85662389E704D14A814E814530
:10141000130D0A0413087005130680FA894893DD3A
:101420000D01130C0C712943FD1623000D0123003F
:10143000CD000F10000023162A0323000D00834760
:101440002A05898BEDDF83570A0583472A05898B97
:10145000EDFF83472A05898BEDDF83570A05239E1D
:101460002189C207C183338597419319050193D917
:101470000941638609163387B9026350070E850E4A
:10148000C20E93DE0E0163EAD80D63DB050A330555
:10149000B04093150501C185C204C18063D9350BE5
:1014A000B7170040130770052380E704130780FA7D
:1014B0002380E7040F1000000965130505713385CB
:1014C000A50223967703238007043345950242053E
:1014D0004181B640264496440649F259625AD25A8E
:1014E000425BB25B225C925C025DF24D6161828084
:1014F000B1E3B77489097D8993840480B3C4A402DD
:101500009167938707E8BE94A167938707D0B3C418
:10151000F402EFB0D17397E701009387279C79BD60
:1015200097E701009387C79A856403AB070093840C
:10153000843861BD130B0000954441BD3A89F5B56F
:10154000B387FC409399070193D90941B1B7096565
:10155000130505713385A9028DBF3385B74163E457
:10156000FC003385FD40330585033344B5036345F3
:10157000830013150401A9BF4E8536C642C432C28A
:10158000EFC0612BDA85EFB0F17BEFC0A124931E91
:10159000050193DE0E41B307D941C207C183056E31
:1015A0003E871246224889482943B24663E3C70171
:1015B000368742074183631A2701130719006344E2
:1015C00030011307F9FF42074183FD1A93FAFA0F1E
:1015D000CA8BCE85E3940AF6239EE18859BF014564
:1015E000CDBDB717004003D587005D7186C64205A3
:1015F0004181A2C4A6C2CAC04EDE52DC56DA5AD815
:101600005ED662D466D26AD06ECE02C69377050CDF
:1016100013070008638FE714130700046393E712AE
:10162000B7240D8F7D8993840480B3D4A40291677D
:10163000938707E8BE94A167938707D0B3D4F402D9
:10164000EFB0F16097E701009387C7889043D443D8
:10165000EFB04114EFC041352A89939A040103DBAE
:10166000E18993DA0A0163150B00056B130B0B80FC
:10167000B7170040130770052380E704130780FAAB
:101680002380E7040F1000000547939B040189693C
:10169000056A2389E704D14D014D814C93DB0B0191
:1016A000938909717D1A5A8597200020E78040218F
:1016B000330C5541420C135C0C41239F6189630339
:1016C0000C16B3079C0363D3070E050D420D135D83
:1016D0000D01894763ECA70D63DD0C0A33059041CA
:1016E000931C050193DC0C41C204C18063DA8C0BAE
:1016F000B7170040130770052380E704130780FA2B
:101700002380E7040F100000096513050571338578
:10171000AC0232472396E702238007043345950243
:1017200042054181B640264496440649F259625A20
:10173000D25A425BB25B225C925C025DF24D616107
:101740008280B1E3B77489097D8993840480B3C42E
:10175000A4029167938707E8BE94A167938707D097
:10176000B3C4F402EFB0B14E97D701009387077767
:10177000F1BD97D701009387A775856403A907007A
:1017800093848438D9BD130900009544F9B53E8B84
:1017900019BF3385AA40131C0501135C0C41A9B77E
:1017A0000965130505713305AC028DBF63FEAA0000
:1017B0003305754133053503A9473344750363C8C1
:1017C000870013150401B1BF3385AB40E5B76285CF
:1017D000EFC06106CA85EFB0F156EFB0B17F131DBF
:1017E0000501135D0D413307AB4142074183856518
:1017F000BA876363B700D287C207C183639A670160
:1018000093071B00634480019307FBFFC207C1835A
:10181000FD1D93FDFD0F5AC6E28CE39A0DF6239F42
:10182000F18845B70145FDBD41112A83014E930E54
:10183000407E130F0019930F400663ED6E0A930864
:10184000001913034006B3781503854E0D4FA14FC1
:10185000337365020D891335150063E7BE0C130859
:10186000F6FF794672984208135808013307C702F9
:1018700013D61700BE0732976146B3F6C6021306A9
:101880008070B386C6023697A166F58F42075D8FDA
:10189000B717004083C6F70293F60608A307D100E6
:1018A0000346F10083C6F70293F60608E394C6FEEA
:1018B0008346F10093F6F60FF1DE93067005238060
:1018C000D704930680FA2380D7040F10000023AAC0
:1018D000070383C6170393E60608A388D702D8DB5D
:1018E00003C7170313670704A388E70223800704CD
:1018F000410182807D133368E3039308E016630E91
:1019000008003368F3039308D0166308080093783F
:10191000330093B818009388D81633081E01131E9D
:101920000801135E0E0111BF6393E503054863864A
:1019300008000148630303002A8871087298FD15A6
:10194000131E0801C205135E0E01C18139B713F8D9
:10195000150063F4BF007908D5B713381800E5BF48
:10196000914763EEB70217D701001307A7578A05FF
:10197000BA959C41BA978287B717004003A7470BD7
:101980001345F5FF698F23AAE70A03A7070B698FA1
:1019900023A8E70A03A7070A798D23A0A70A828054
:1019A000B717004083A6470B1347F5FFF98E23AA0C
:1019B000D70A83A6070B558D23A8A70A83A6070A73
:1019C000758F23A0E70A8280B717004003A7470B53
:1019D000498F23AAE70A03A7070B1345F5FF45BF65
:1019E000B717004083A6470B1347F5FF758F23AA4F
:1019F000E70A03A7070A598D4DB7B717004003A799
:101A0000470B498FEDB79D4763E3A70217D7010046
:101A10001307874E0A053A951C41BA97375700407D
:101A200082878347270093F7070F2301F7008280FF
:101A30008347270093F7070F93E71700FDB7834706
:101A4000270093F7070F93E74700C5B783472700A1
:101A500093F7070F93E75700C9BF8347270093F712
:101A6000070F93E78700D1B78347270093F7070F46
:101A700093E797005DBF8347270093F7070F93E72E
:101A8000C70065B78347270093F7070F93E7D70091
:101A900069BF99EAB757004003C707001345F5FF30
:101AA000798D2380A70082803757004005CE834779
:101AB0001700C98FA300F70037570040814711076F
:101AC0002146B356F540858A89C6B386E700238050
:101AD000B6008507E397C7FEB757004003C7070066
:101AE000598DC1B7834617009347F5FFF58FD9B7D6
:101AF000B717004003D5870042054181937705045D
:101B000091EB9377F5013755E801130505803345CF
:101B1000F50282809377050C130700046397E700B2
:101B20009377F50137459C1CCDB72165130505D08A
:101B30008280B7F700E0C8439C47828081473737EF
:101B40000040A14663C4C700328582800345B74088
:101B5000E38EA6FE3385F5000345050085072304C3
:101B6000A740CDB797370020938747349C4317573A
:101B700000201307A7153E95636EE5001767002048
:101B8000130747286368A700173700202320A732D0
:101B90003E858280FD57EDBF411122C406C62A84CE
:101BA000813F2947B307E502B2408D83B3D787024F
:101BB00022449507B3D7E70237370040C207C183F5
:101BC0002316F740410182807165411113050520FC
:101BD00006C6D937B7370040130770F82381E740AE
:101BE0000D47A381E74013070004A380E7400547A2
:101BF0002387E740B240410182809387C18A9C439A
:101C0000411106C691C382979387018B9C4391C370
:101C1000829703D761809307001963F7E70403D520
:101C200081809306F01863E4A6049386818A03A357
:101C3000060063070300B240130500194101028347
:101C40000507098F3385A740E5473305F5024207AD
:101C5000418309839307F7FF3E953345E5021375EA
:101C6000F50FB2404101828013054006DDBF0145FA
:101C7000CDBF03A84500411126C206C622C4834732
:101C8000180003480800A944A207B3E70701C207E8
:101C90000D68C1871308289063960703854732842F
:101CA000EF60A04EAA8419ED9387418A9C4399CB9B
:101CB00003451400034704002205598D1335150010
:101CC00005058297B24022442685924441018280D4
:101CD0002D453DE7D841411122C426C206C683479F
:101CE000170003470700B684A207D98F0D67930634
:101CF00097A132846396D702093783C74180637402
:101D0000F5002382A18085472390F40083C741809A
:101D10002300F4000145B2402244924441018280F4
:101D2000130787902945E398E7FECC458947239020
:101D3000F4000946228597200020E780201FD9BFA4
:101D4000828083474500858BADC7011122CC2A8450
:101D500003552500938501AC06CEEF60C03D058993
:101D600029C503552400014781460546ED45EF503E
:101D7000D0762AC61DC997370020938767C683D7B8
:101D8000A70201462C002314F10085472315F1001A
:101D900083C741802300F50003552400EF708015B0
:101DA00009C5ED452800EF60200BF2406244056153
:101DB0008280828041654111938501AC7D1506C604
:101DC000EF806004B24097360020938666C6414695
:101DD0009545173500201305A5C041016F70F076B9
:101DE00023A2A18A8280411122C406C685470944E4
:101DF0006311F5028347060001442380F18A03C77B
:101E000041806378F700170500001305C5F3EFA0C4
:101E1000E0322285B240224441018280854763013D
:101E2000F50209C909476302E5020D476306E502A9
:101E30000945828083C741802380F5000145828067
:101E40009387018A83C70700C5BF9737002083D7D0
:101E5000C7B92390F500DDB71387C180035707008A
:101E60002392E50017370020130787B78356A70290
:101E70000357A7032383F5002390D5002391E500A2
:101E800075BF411106C6953B83C74180637AF50053
:101E90002382A180170500001305E5EAEFA0002AC0
:101EA000B24001454101828041677917630CE50228
:101EB000411122C406C685472A84639AF50022850B
:101EC0002244B240938501AC41016F70D0738947C1
:101ED0006396F5008545EFA0E02075D1B24022441D
:101EE000410182808280CC41411106C6328503C601
:101EF000150083C5050022064D8E42068D6541867C
:101F0000138875A2630C060F6348C804138845A2A2
:101F10006306060B634AC800938535A26309B606BB
:101F200023900600294679A0138855A26308060B62
:101F3000938565A2E316B6FEC1451D4663ECE50632
:101F40004546198E63F3C7003E862390C60097D599
:101F50000100938565FD89A8138895A26300060F8B
:101F6000634E060B1388A5A2630A060F938505A589
:101F7000E318B6FA99451D4663EEE502198E63F340
:101F8000C7003E862390C6009385418131A89D45B8
:101F90001D4663E1E5022146198E63F3C7003E86C4
:101FA0002390C6009385418BBA9597200020E78047
:101FB000E0F70146B240328541018280AD451D46C1
:101FC000E3EAE5FE3146198E63F3C7003E862390AF
:101FD000C60097D501009385E5F8F9B7B1451D46D0
:101FE000E3EAE5FC3546198E63F3C7003E8623908D
:101FF000C60097D501009385E5F77DB7C1451D461D
:10200000E3EAE5FA4546198E63F3C7003E8623905E
:10201000C60097D50100938565F279B7C1451D4685
:10202000E3EAE5F84546198E63F3C7003E86239040
:10203000C60097D501009385E5F4BDB7C1451D469F
:10204000E3EAE5F64546198E63F3C7003E86239022
:10205000C60097D501009385A5EFB9B7B5451D46D4
:10206000E3EAE5F43946198E63F3C7003E86239010
:10207000C60097D50100938525EA3DB79736002025
:102080009386C6AE4146CD45173500201305059B06
:102090006F70B04B41654111938501AD7D1506C64A
:1020A00022C426C24AC0973400209384E4ACEF7067
:1020B000905597360020938626BE4146C945268511
:1020C000EF70B048CC4C2A890945893B9387C1827F
:1020D00083D70700138401AE138701832312F40012
:1020E00083D7A40C03570700938501AF2310F40096
:1020F00083D7A40D2316E40003D7A4102311F40002
:102100000D4585472303F4002314E4002307F4005E
:10211000231504002133A2850D459D2EB240224493
:102120004A8592440249410182808D679387D7A4F2
:102130000145631FF6008D472945639BF5008547E0
:1021400035456397F600834707000145238FF18AE1
:1021500082808D679387D7A4631EF6008D47639BAB
:10216000F50083C7E18B2300F70085472390F60035
:102170000145828023900600E5BF82809387818D90
:102180009C4303C7C18C83C6318201E781473E85EA
:10219000828003D607006316A60003C66700E30823
:1021A000D6FE7D171377F70FA107C5B7B2862E8627
:1021B000AA8517D50100130525E06FB051282A869E
:1021C000B305B04017D50100130545E16FB03127C5
:1021D0000111930500030D4506CEEF30F022930563
:1021E00000051145EF3050229305C0030545EF303F
:1021F000B02185471306F100854513055030A3072C
:10220000F100EF70513CF240056182808547631A0E
:10221000F5001166130686A9894503C5D18C6F1098
:10222000103289476317F500894503C5D18C6F10BB
:10223000D047828085476398F50019E22382B18CEC
:10224000238EC18C828009476398E50011E62382C2
:10225000F18C03D5218C2DA382809387018D9C4323
:10226000011122CC06CE2E8481CB9C4791C7829748
:10227000F2406244056182806C0013057040EF609B
:10228000A148324681452285EF605109D5B74111F9
:102290009397050122C406C6C1872E8463DF070019
:1022A00003C5D18CEF10C05719C1EF10C050216584
:1022B000218DB24022444101828093F7150091CFD5
:1022C000173600201306069E9385418303C5D18CE3
:1022D000EF70510313451400E9BF93F72500014542
:1022E000E9DB45361166130686A9894503C5D18CFD
:1022F000EF10F024134524006DBF797126D24ECE25
:1023000006D622D44AD052CC9147AA84AE8963140F
:10231000F50483D7A5001306E10085451305503069
:102320002391F18C230701002382018CEF70B129E6
:102330009387018D9C4391C7DC4781C7CE85268555
:102340008297B250225423A4918C02599254F2499C
:10235000624A456182801387818C1843E31AF7FC37
:10236000854503D5218C8936854503D5218CBD2132
:10237000C16703DA218CF917631BFA020544930540
:10238000E100130550412382018CA3818182230740
:102390000100EF6061378347E100B1E303C7C18DFE
:1023A0009147E317F7F82D35238E018C51B79387AA
:1023B000818D03A9070003C4C18C69D0035529008E
:1023C00011C99305E100EF60603B09C54C4552859A
:1023D000EF7070237D141374F40F2109F9BF9387F4
:1023E000418D9C4383C74700898BCDDB9305000A51
:1023F0000D45EF3070019305000A1145EF30D00014
:1024000081450545EF3050001306E1008545130571
:10241000503023078100EF70111B49B701111705D8
:102420000000130505E706CE22CCEF10B04B138455
:10243000D18C85471306F10085452300A4001305C0
:102440004041A307F100EF60F1147D55EF50405279
:102450007D55EF7030181D31EFF0DF95CD2C17054D
:1024600000001305E5DAEFF0BF971705000013052C
:1024700005D12126034504008545EF10E079F2409F
:1024800062440561828023A8B18C23AAA18C82803A
:1024900023ACB18C2386A18C8280C841011122CC4F
:1024A00006CE328403461500034505002206498EF8
:1024B00019CB0D681308B8A42D4563090607F2402F
:1024C0006244056182800D651308D5A4630006038C
:1024D000130825A2630C060175781308E85C32988E
:1024E000420813580801854863EE080303D5A50088
:1024F00036C632C46131B24615C19387018D9C4303
:1025000022468345550003A30700A2876244F24098
:102510000345450036878546056102832390060002
:10252000014571BF1308B5A46317060303D6818262
:102530001D45E376C7F8198E63D3C7003E86CC45A8
:102540002390C60042064182BA952285972000203A
:10255000E780C09DF1B79307A5A46318F6009147E3
:102560002390F6001146CC45CDB7930785906317AD
:10257000F60089472390F6000946F5B79307E5A4CE
:10258000631AF600DC452390160183C70700230079
:10259000F40079B713057590E314A6F8D9BF0111BB
:1025A00022CC06CE26CA4AC82317D1002D4429EBD7
:1025B000DC412E89B28403C4170083C707002204BC
:1025C0005D8C8D679386D7A46306D400938627A37A
:1025D000631FD4020355A900553619E101440DA02B
:1025E0009387018D9C43834555000345450003A80F
:1025F00007002286A6871307E100814602982A84F5
:102600002285F2406244D244424905618280938629
:10261000C7A46314D4028357E10005473544E3910E
:10262000E7FE0345060013040008E3EBA7FC9387CD
:10263000018D9C43DC43829755B793862790631A9C
:10264000D4028356E1008547EF5030342A844DF997
:102650009387818D8356A9009C4303C7C18C3DDFBE
:1026600003D627006302D6047D171377F70FA1075F
:10267000FDB79387E7A4E313F4F68357E10005471A
:102680003544E39FE7F60345060013040008E3E939
:10269000A7F6DC452380A7009387018D9C43333543
:1026A000A0000905DC4341BF1387018D184303C512
:1026B000470083C5570083C714000328070003C7DA
:1026C0000400A2078946D98FC207C18705476383E3
:1026D000E7008D460D66A6871307E10013062690D6
:1026E000029839BF0145828025E303A84500AE88E2
:1026F0008347180003480800A207B3E707010D68E5
:10270000930EF8A4639AD70391473548639FF60266
:1027100003A5C8004111B285114606C697200020C6
:10272000E780C0809387818E9C4305458297B240A5
:102730000148428541018280930828902948639688
:10274000170185476F5070242D484285828041656E
:102750004111938581AF7D1506C6EF70C06AB24006
:10276000972600209386C65A414699451725002092
:102770001305055441016F70405D23A4A18E828032
:102780000111938581AF22CC06CE2A84EF50B01A76
:10279000058929C1014781460546ED452285EF504F
:1027A000C0532AC605C9972700209387675083D74F
:1027B000A70501462C002314F10085472315F100DD
:1027C000230005002285EF60E07209C5ED45280071
:1027D000EF508068F240624405618280416779175A
:1027E000630CE502411122C406C685472A84639A18
:1027F000F50022852244B240938581AF41016F707C
:10280000806089476396F5008545EF90B00D75D1DE
:10281000B24022444101828082807D15994763E263
:10282000A70817C701001307E77C0A053A951C4162
:10283000BA978287371700408327870A93E70702F2
:102840002324F70A8280371700408327870AA1666E
:10285000D58FFDB7371700408327870A9166CDBF14
:10286000371700408327870A93E70710D1BF371730
:1028700000408327870A93E70720D9B7B71600409F
:1028800083A7860A056713070780D98F23A4F60A52
:102890008280371700408327870C8966D58F2324D1
:1028A000F70C82807D15994763E3A70817C70100DD
:1028B000130707760A053A951C41BA97828737179E
:1028C00000408327870A93F7F7FD2324F70A8280C5
:1028D000B716004083A7860A61777D17F98F23A476
:1028E000F60A8280B716004083A7860A7177F5B78B
:1028F000371700408327870A93F7F7EFF9B73717A1
:1029000000408327870A93F7F7DFC1B7B716004067
:102910007D7783A7860A1307F77FC9B7B7160040EC
:1029200083A7860C79777D17F98F23A4F60C828014
:10293000B717004003A7070A411106C6136707022D
:1029400023A0E70A03A7070AA16613060064558FB0
:1029500023A0E70A03A7070A91669145558F23A094
:10296000E70A03A7070A85669386068013670710A0
:1029700023A0E70A03A7070A1367072023A0E70A93
:1029800003A7070A558F23A0E70A03A7070C896648
:10299000558F23A0E70C03C5618FEF10403A130554
:1029A00000408D45EFE0DFFBB75700401147A381A2
:1029B000E700B240114541016FF0EF84411122C49C
:1029C000138401844AC00329040006C626C24A852E
:1029D000EFA0D17297C40100938444669040D44024
:1029E000EF90F14F97C7010093874764634005025A
:1029F00097C701009387C7638C434A85EFA0312CAA
:102A00006348050097C701009387C7629C431CC0B9
:102A10000840EFA0B16E9040D440EFA0212397C7AB
:102A20000100938727629043D443EF90017097C7CA
:102A300001009387A7619043D443EF90B155EFA075
:102A4000D114930740063385A740EFA0512097C7C4
:102A50000100938727609043D443EF90B153EFA0D8
:102A6000D112EFA0D11E97C701009387275F904333
:102A7000D443EF903152EFA0D1171374F50FA28514
:102A800017C501001305055EEFB0611BA285224446
:102A9000B2409244024985460546054541016FE032
:102AA0005FFF411106C685476318F5021D45DD3BF2
:102AB000294597100020E780000009372945971025
:102AC0000020E78040FF1945893BB240294541017C
:102AD00017130020670023FE05E11945E13317C7EE
:102AE00001001307E75418439387018498C3F9350D
:102AF000B2401D45410115B3B24041018280828040
:102B00009387018488C3054569BF2386018E23A866
:102B1000018EB717004003A7070CFD76FD16758FD1
:102B200023A0E70C03A7070D8566558F23A8E70CA4
:102B3000828023A8A18E13064006894503C5618FB4
:102B40006F10E01FB717004003A5470C83A7470C81
:102B50002981134515001397470105896344070030
:102B600013652500B717004083A7470C139737015B
:102B7000634407001365450083C7C18E638CA700BB
:102B80002386A18E01C99387018F03A307006303E6
:102B9000030002838280797122D426D24AD04ECE9D
:102BA00052CC56CA06D61379F500138481B08544F9
:102BB0009389518F138A418F914A631009022254DD
:102BC000B25092540259F249624AD24A03C5618F07
:102BD0000146854545616F108016B3779900A9C7F6
:102BE00083470A0003C7090023000400E58FD98F3B
:102BF000A38AF18E2312D4002301C400A300B400E1
:102C000099E12300540136C632C42EC2EF100000F1
:102C100083470400B2462246924593E7270008C442
:102C20002300F40033499900860493F4F40F31042F
:102C300069B79377150089CF8547639FF506B71667
:102C4000004083A7860A7D777D17F98F23A4F60AB3
:102C50009377250089CF85476399F506B71600401D
:102C600083A7860A79777D17F98F23A4F60A9377CD
:102C7000450091CF85476393F506B716004083A7BB
:102C8000860C370780FF7D17F98F23A4F60C937706
:102C900085001387418FBDC38547B71600406399F0
:102CA000F50483A7860CBD9B23A4F60C834707007D
:102CB0005D8D238AA18E8280371700408327870A83
:102CC0008566D58F2324F70A61B73717004083271D
:102CD000870A8966D58F2324F70A51BF371700402A
:102CE0008327870CB7068000D58F2324F70C45B7C0
:102CF00083A7860C93E7070123A4F60CC5F9834745
:102D000007001345F5FF7D8D6DB7011122CC26CA52
:102D10004AC84EC652C406CEAE899374F5001389D4
:102D200081B00544214A89E8F2406244D2444249D4
:102D3000B249224A05618280B3F7840089CFCE85EB
:102D4000639649018345090093C515002285230038
:102D5000B900A18CF93D06041374F40F3109E1B7F1
:102D6000AA8711C909CA81CA9307300663E3C7005D
:102D70001DB5854559BF81453E85EDBFA14763EF30
:102D8000B70297C601009386A62E139725003697A3
:102D90001C43411106C6B69782879306803E1546AE
:102DA00085457D3FB2400145410182809306803ECA
:102DB000154693052003F5B7893FEDB7014582809D
:102DC000B717004003A7070A411122C4056406C6CD
:102DD000418F23A0E70A03A7070A89668145558F1B
:102DE00023A0E70A03A7070CB70680003D45558FCF
:102DF00023A0E70C03A7070C1367070123A0E70C28
:102E00002937930604FA7946A9450545693393069F
:102E100004FA7946A9450945BD3B91451145B93F9D
:102E200085452145DD35B2402244238C01B2410164
:102E3000828083C781B36393071679714ECEC169CF
:102E400022D426D24AD052CC56CA5AC85EC662C4D0
:102E500006D666C26AC0138481B0014C3D498544E0
:102E6000138A518F930A4006FD19130B4006930BEA
:102E7000F00FB3F72401E1C783470400898BD5CF56
:102E8000EF00D0581C442A8D6366F50E834604007B
:102E9000834C240093F71600BDCB33079B41F99A6E
:102EA00081452685937CF70F2300D40059330346D0
:102EB00004009377460099EF83461400638C7601F3
:102EC000FD1693F6F60FA300D40089E613462600FC
:102ED0002300C40083470400898BB1C30357440017
:102EE0003307970333575703931707013377370196
:102EF0006A97C18318C463030C08A1C33E87637338
:102F0000FC006287131C0701135C0C013DA093E6D3
:102F10001600854526852300D400213B65BF8345E7
:102F20000A002685E58DB335B000893D03470A00C8
:102F300093C7F4FFF98FA38AF18E33C92401860465
:102F400093F4F40F3104E31609F2630B0C022254DC
:102F5000B25092540259F249624AD24A424BB24BA1
:102F6000924C024D6286224C03C5618F85454561B6
:102F70006F00F05C898FC207C183B5BF3E8C75BFFF
:102F8000B250225492540259F249624AD24A424BF8
:102F9000B24B224C924C024D45618280828041119D
:102FA00006C6EFE00FBBBD4763F4A700EFE06FBAC2
:102FB000EFE02FE3BD4763F4A700EFE08FE2B240FC
:102FC00083D5E18903D5C18941016F00707F41112B
:102FD00093962500AA852D4506C697100020E78008
:102FE00020BFB240014541018280411126C2939425
:102FF000250022C44AC02A843289A686AA850146B1
:10300000254506C697100020E78080BCA6864A8624
:10301000A285294597100020E78080BBB24022445A
:1030200092440249014541018280011122CC06CE21
:103030003714004026CA4AC84EC652C48344740599
:10304000034AB4058349840503499405EFE0EFADD5
:103050008347A40593F4F40F137AFA0F93E717004C
:10306000230DF40493F9F90F1379F90FB717004002
:1030700003C7A705058B6DFF03D5C705A38D4705BE
:10308000238C3705A38C2705A38B9704F240624459
:10309000D2444249B249224A056182804111939744
:1030A000050122C406C6C1872E8463DA0700EF003B
:1030B000207719C1EF0020702165218D39A093F789
:1030C000150081CBBD3313451400B24022444101A9
:1030D000828093F7250089CFEFF0DFA61306000A60
:1030E000894503C5618FEF00904513452400F1BF6A
:1030F0009397250163D00702EF20810E4D3537F6F7
:103100000200130606E0896503C5618FEF003043B6
:10311000096565B79397150163D1070217C50100CB
:103120001305C5FBEFA0514313060064916503C569
:10313000618FEF00D040116549B793F74500014515
:10314000C9D7EFF0DF9B13060064914503C5618F7B
:10315000EF00F03E134544008DBF1D71494697C5F1
:103160000100938525F317C501001305652486CE5C
:10317000EF00F02301E917C501001305E5F2EFA008
:10318000B13D01A037F700E0F9575CC7FD571CCBF4
:103190008566B7E700E023A0D7101306701010C3B0
:1031A000B8434146B0C323A0D718B8C30F100000DE
:1031B0001306C00381454808EF00501997270020E7
:1031C000938787023ECA896793870780231CF10093
:1031D000ED47A301F1029307A0102312F102D1479A
:1031E0002303F102A167938707E03ECE9707000013
:1031F000938727DEBEC497070000938747DFBEC6CC
:1032000085472304F102B5472308F10297F7FFFF32
:10321000938767923EDAB7F5070097070000938718
:1032200007E13EDE814697070000938787D770004D
:10323000E1051945BEC097100020E7806099580845
:103240008147994670003E960346060085070507AC
:10325000A30AC700E398D7FED24791C7035781015D
:1032600085676373F70001A04808EF00306BAA85FB
:1032700001C917C50100130565E4EFA0511C01A0A9
:10328000F64025618280411117050000130545E1D4
:1032900006C622C4EF0010651384618F2300A400CA
:1032A0001520393EEFF07F86EFF08FE803450400EC
:1032B0002244B24037F60200130606E08965410158
:1032C0006F00F027411122C406C637140040930650
:1032D00070052300D404130780FA2300E4040F10C0
:1032E00000008347F40293F7A70FA307F40223001B
:1032F000D4042300E4040F1000008347F40293E792
:103300002700A307F40261391305407E230004045B
:1033100081470147814605468545EFE0EFD02244CD
:10332000B240014541016F10800C82803A883E878F
:1033300089E6834608006FE05FDF85476395F60006
:10334000C2866FE01FE18947639FF60041111306B3
:10335000401F894503C5618506C6EF00501EB24077
:1033600001454101828001458280411117C501005C
:10337000130585D822C406C62E84EFA0510C9317DE
:103380000401C18763DD070003C56185512911C1AF
:103390001D212165218DB240224441018280937715
:1033A000140013451400E5FB9377440099CF83C7BD
:1033B00061851307401F81462146A14503D54185FC
:1033C000EF60A16D13454400F9B7937724001345CE
:1033D0002400F1F3937784000145D5DF03D54185BF
:1033E000EF60F1441306803EA14503C56185EF00FF
:1033F00010151345840045B77D15954763EDA71E4D
:1034000017C701001307C7CD0A053A951C4179710A
:1034100022D406D626D24AD04ECEBA972E848287A0
:103420002C0013054030EF60510C2C000545EF30A7
:10343000905217C50100130565CEEFA051009D46BF
:103440001386C18F81452D4597000020E780407885
:1034500001449389C18F17C90100130969CD9944AB
:10346000B387890083C507004A850504EFA0217D45
:10347000E31894FE83C5219017C50100130585CB81
:10348000EFA0E17B03C721909307A00A631FF70019
:1034900017C50100130505CBEFA0110C17C50100DE
:1034A0001305C5CBEFA0510B0DA217C501001305E5
:1034B00025CAEFA0710A85471306710085451305DB
:1034C0000040A303F100EF50F10CC9BF17C5010084
:1034D0001305C5C9C1BF03C721909307A00A17C52B
:1034E0000100130525C6630FF70017C5010013057A
:1034F00025C693044400EFA0310685E817C50100F6
:103500001305C5C7EFA051058357A4000D66130628
:103510000620914503C56185239AF184EF003002AE
:1035200017C50100130505C9B5BF9307A0FA856645
:103530000146814525452381F19097000020E780D1
:1035400020699375F50F17C50100130525C4EFA079
:10355000016FA68519461385C18F97100020E7805B
:10356000E09C9D461386C18F814529459700002028
:10357000E78000669375F50F17C50100130545C276
:10358000EFA0E16B51B717C501001305A5C319BF23
:1035900083C72500114717C50100130525C463849F
:1035A000E7041947639AE70283C5650017C5010060
:1035B000130585C4EFA0A168854730008545130534
:1035C00050302304F100EF601100B25022549254A5
:1035D0000259F249456182801547E39FE7FC17C510
:1035E0000100130525C3EFA02177F9B717C5010026
:1035F0001305C5C345BD82800111170500001305E1
:1036000005D706CE22CC26CA13846185EF00902D03
:103610002300A4008544700085451305503023061F
:103620009100EF60417A138641849D451305603017
:10363000EF606179171600201306466FF1451305F8
:103640007030EF60417817C601001306A6ABD54570
:103650000145EF4000248D477000914513057040EF
:103660002305F100A305910002C623040100A30471
:103670000100EF5021723000854513050040EF50E6
:10368000617113069100854513051040EF5081705C
:103690001306A100854513052040EF50A16F1306C6
:1036A000B100854513055040EF50C16E9947700039
:1036B000854505452306F100EFE0EFF2EFE09F9D21
:1036C00097150020938585651385C184EFE0BFDBE6
:1036D00003450400A1458923F2406244D2440561B8
:1036E00082804111814585660146254506C69700C1
:1036F0000020E780E04DB240238101909375F50FE3
:1037000017C50100130585A841016FA04153411160
:103710001305800406C697000020E780401F371776
:1037200000408327870A8D451305002093E7072073
:103730002324F70AEFE0CFA2EFE00FC917C501007D
:10374000130505C7EFA04161EFF03FA1EFF0BFB354
:10375000EF60310EEFE09FCC453597000020E78009
:103760006039411122C42A84AA85118817C5010035
:10377000130545AC06C6EFA0814C09C42244B240F3
:10378000410185B7B2402244410182801705000003
:10379000130565FD6FF0EFB923AC05FE1C4191E701
:1037A000010001000CC18280BA8703A787FF6DFF6B
:1037B00023ACB7FE82801DC18346E5FF1307F00FDF
:1037C0009147639EE600411106C697100020E780EE
:1037D0002017B24081473E854101828095473E8552
:1037E000828001E9014582800145B24022444101C5
:1037F0008280411122C42A84210542059305D00408
:10380000418106C697100020E780E00971DDFD5771
:1038100023200500231285002303F5002105F1B7BD
:10382000138741901C43411122C426C24AC006C6D8
:1038300001440149BA8489E7A165852D0DC401A819
:1038400003C7E7FF6318A7021DC8A165F1269840CA
:10385000832784FF6317E40223A2F190FD57232CF2
:1038600004FE230FF4FE2285B24022449244024912
:103870004101828011E03E8983A787FF6DBF3E84AE
:10388000E5BF232CF9FED9BFA9C9411122C406C640
:103890002A849737002083C7F7182E856368F400C1
:1038A000193F0D45B24022444101828083A785FF24
:1038B00099E703C7E5FF9307F00F6305F700E53DC0
:1038C0001545CDB7238F85FE13854190F1352285AF
:1038D0002244B240A165410181A61545828023A200
:1038E000019082809387C1919C4399E33E858280B9
:1038F00003D727006316B70003C70700E308A7FE36
:10390000DC47E5B74111939705014AC006C622C4BA
:1039100026C2C1872E8963DE0700193711C1613DB8
:1039200021653345A900B240224492440249410135
:103930008280AA860145E5D901443D47B3578940B5
:10394000858B95CB938701918443BD4791E2814755
:10395000A2978E070545BE94331585001314050103
:103960009C40C8404180829723A0040023A2040009
:10397000334524014DBF0504E312E4FC0144CDBFEF
:1039800097370020938747069C53411122C406C6EF
:103990001384818595C7829723ACA1840840B747DB
:1039A00003009387D73F3305F502B7A72600938717
:1039B00037ECB24022443E9523ACA1844101828081
:1039C000973700209387070618409C4BBA9723AC83
:1039D000F184E9B79387819090439736002083C69E
:1039E0007604814713F7F70F6360D70A1737002073
:1039F0000347B717914763E0E70A9737002083C76B
:103A0000671B918BC9EB0111680006CE22CC26CA38
:103A1000EFC08042FD56630FD50C32479737002028
:103A200083C7B7FD63F3E70C17370020130787FF41
:103A3000404717370020034767FC6305D406058B12
:103A400021CF51473304E40263F1870A9700002035
:103A5000E780E072B2476373F400A2871737002053
:103A60000347B7F9998F3E95973700209387C7F79B
:103A70008387470163CD0702B707C0A86369F502D2
:103A8000B70740573E9525A0850713971700329733
:103A90000357E7FF21DB8280130790023304E4021F
:103AA00005805DB762076187635707001D8D19E9BF
:103AB0003705C0A801A8E37BF5FE3707C0A8B30708
:103AC000F7403E9597370020938707F2DC538297A3
:103AD00009ED973700209387E7089C4F99C7EF10AF
:103AE000C125EF10D103EF10A119F2406244D24476
:103AF00005618280973700209387C7F2DC47E38611
:103B0000A7FE17370020130727EE83464701BA8424
:103B1000858A9DC65144338487029737002083C726
:103B2000D7EDE3F487FC97000020E78040659737E6
:103B3000002083C797EC1D8C2295838744011DBF0D
:103B400013049002338487020580C1BF2A9609E5D9
:103B500082800505A30FB5FEE31DC5FED5BF8147D5
:103B60003307F5000307070019E33E8582808507C8
:103B7000C5BF01112E8626CAAA8413150601930516
:103B8000F004418122CC06CE32C697100020E78097
:103B900080D12A8419C53246A68597000020E78087
:103BA000E0382285F2406244D24405618280814738
:103BB0006314F600054582803307F5008507B38658
:103BC000F5000347070083C6F6FFE383E6FE0145E1
:103BD00082809307F6FFBE952A966313C500828004
:103BE000FD1583C715000505A30FF5FEFDB7814739
:103BF00011E9014582803307F50003470700E31A06
:103C0000B7FE8507E319F6FE054582809737002049
:103C1000938747E1884B82809737002083C797E0DE
:103C2000637FF500138781909317150008433E9535
:103C300083570500DD8D2310B500014582800D45B9
:103C40008280FD570111173700202323F7DE938769
:103C5000C19122CC80434EC6973900209389C9D8A0
:103C600026CA4AC852C456C206CE5AC02A898144BE
:103C70004E8A973A0020938AEADA1844814763749F
:103C8000E900B307274103A749021CC409CB03A7D6
:103C9000CA0063F6E70017370020232BF7D8A1E707
:103CA000835524009DE95C44A1E823AEF190032BE9
:103CB000C400228597100020E78080C85A8455FCF4
:103CC00083274A0285CF6244F240D2444249B24936
:103CD000224A924A024B0561F5B9034504002D3F83
:103CE0005C4081CB1CC483572400D5DFA2844044B0
:103CF000F9B71C44CDDBC5BFDCC455BFF2406244FC
:103D0000D2444249B249224A924A024B056182801A
:103D10009737002083C717D16371F502138781900D
:103D200093171500084393C5F5FF3E95835705008B
:103D3000FD8D2310B500014582800D4582809737A7
:103D4000002083C737CE6364F500014582804111AE
:103D500022C426C24AC006C62A842E89B284EFF045
:103D60007FB801C504C505452DA0936504F0C205C3
:103D7000C181414597100020E780E0B20DE19737FF
:103D80000020938767C69C5B81C7A28511458297F7
:103D90000145B24022449244024941018280938706
:103DA000C1919C438DE323AEA19085472326050056
:103DB00004C52311250123008500A300F50023225B
:103DC000050055B7BA87D84775FFC8C7F9BF45C5BD
:103DD00039715AD0138B019122DC26DA4AD84ED69B
:103DE00052D45ECE66CA6AC86EC606DE56D262CCB1
:103DF0003689328AAE89AA8401445A8DB94D854BE1
:103E0000F94C03270B00131C3400937AF40F6297CC
:103E10001C43A9EF13B5FA0013451500B3978B00A7
:103E200063F65D01930714FFB397FB0093950701B9
:103E3000C181528629371DC983270D000145E297AC
:103E400084C323A237016304090023005901F250FF
:103E50006254D2544259B259225A925A025BF24BDE
:103E6000624CD24C424DB24D216182800504E31A6E
:103E700094F92145E9BF09458280411122C426C237
:103E80004AC006C6AA842E893284553DCA85268535
:103E9000EFF05FA509C940C10145B24022449244F8
:103EA0000249410182802145CDBF411122C426C271
:103EB0004AC006C6AA842E89EFF0DFA22A8419C15F
:103EC000231105009737002083C7C7B56394970077
:103ED000239A2191CA852685253D014511E0194582
:103EE000B240224492440249410182807547636B8B
:103EF000A704138701911443411126C2931435007E
:103F0000A696944222C406C6AA873A84094595C655
:103F100013B5F7003947134515006373F700C5174C
:103F20008545B395F500C205C18141371C40014567
:103F3000A69723A0070023A20700B2402244924480
:103F40004101828009458280411106C6EFF09F99A8
:103F500009C50845B240410182800145E5BFF547EA
:103F600063EDA704938701919C4313173500BA971B
:103F70009843894721C7011126CA06CE9334F5001C
:103F800022CCB94793C4140063F3A7004515054438
:103F90003314A400420441802EC62685A2856D37C5
:103FA0008947324609C5A2852685513B8147F240A3
:103FB0006244D2443E850561828089473E85828085
:103FC0002396A1902397B1908280411106C623AC1D
:103FD000A1900295B2409737002023AFA7A40145D6
:103FE00041018280994763E9B7008A05973700202D
:103FF000938787A5BE9588C18280411106C6EF6070
:10400000410A71468145173500201305E5A3EFF0FD
:10401000FFB313064002814517350020130585A024
:10402000EFF0DFB223AE019023AC01909737002070
:1040300083C7479D13D527008D8B3E958D4733054C
:10404000F5029305101035051375F50F973700200D
:10405000238BA79C99473305F5021305050F97108D
:104060000020E780408423A8A19035C999471736DE
:1040700000200346469B3306F60281451306060FD1
:10408000EFF0DFAC938701919C439387070F23A048
:10409000F19217370020034707990A07BA9723A41C
:1040A000F190EFF0DF835D26938701929843973775
:1040B000002083C7379793962700BA96170600000B
:1040C0001306868490C293862700850793F7F70F1F
:1040D0008A0797350020A387D594BA9790C3B2403A
:1040E000410182809737002083C7D793173700207C
:1040F0000347679363F1E70213870192184393869E
:10410000170017360020A30FD690939627003697F6
:1041100008C33E8582809307F00FE5BF1C41638191
:10412000071A41777D8FB70600208947631BD71890
:104130000357450063070718411122C419462A8412
:104140009305F00F590506C6EFF07FAA05478D4786
:104150006303E5161C4481CB58589947630D071437
:10416000185C630A07141306C00381451735002045
:1041700013058587EFF09F9D1306C003A2851735B1
:1041800000201305658697000020E78020DA973726
:10419000002083D72786973600209386E68499E708
:1041A00093070010173700202316F7849737002055
:1041B00083C7678491E7854717370020230DF7826F
:1041C0009737002083C7378391E7ED4717370020E3
:1041D000A303F7829737002083C7078291E79547AB
:1041E00017370020230AF7809737002083C7D7802E
:1041F00091E7854717370020A300F7809727002015
:1042000083C7D77F99E783C7060117270020A30735
:10421000F77E9727002083C7477E91E7D14717276E
:104220000020230CF77C9727002083C7C77D95E7E4
:10423000172700200347877C1316870161869307A1
:10424000C002634806009377170093B7170093875F
:10425000D702172700202308F77A9727002083C763
:10426000D77995E717270020034747791316870169
:1042700061869307C002634806009377170093B7DF
:1042800017009387D70217270020A308F7768347E4
:10429000D40191E7894717270020A305F7769C569C
:1042A00091C78297972700202391A778B933FD57AC
:1042B000A384F1A88147B24022443E854101828017
:1042C00089473E858280011122CC06CE2A842EC6E3
:1042D000EFF00FEBB245F240818D33A5A502229598
:1042E00062441375F50F05618280011122CC06CE60
:1042F0002A842EC6EFF0CFE8B245F240818D33A577
:10430000A502229562444205418105618280011126
:1043100022CC06CE2A842EC6EFF08FE6B245F240BC
:10432000818D33B5A502229562440561828097276D
:1043300000209387676B985725C3411122C426C27A
:1043400006C6BE840297172700200357076E2A84EB
:1043500041C7BA876373A700AA87C207C183BA8619
:104360006373E400A286C206C182958F51476355EC
:10437000F706DC5491C3829785471727002023074F
:10438000F77EEF00F165972700202390876AB240FF
:1043900022449244410182809727002083C7077DF1
:1043A0009DE7972700209387E77B83C797008507C2
:1043B00093F7F70F17270020A30AF77AA18B9DC761
:1043C0008547172700202313F77A6F005167972737
:1043D0000020A38D0778D5BF9727002083C70779D2
:1043E000DDD72244B24092444101C5B7828097276D
:1043F00000209387675FD857011122CC06CE3E84F8
:1044000001C72AC60297324511CD23A2A1921705F2
:104410000020130545D8EFF05FBBF2406244014530
:10442000056182808307440163DD07009727002030
:1044300023A6076097070020938787D023A2F192D5
:10444000F9B797070020938787D3CDBF011122CCFE
:104450001724002013044459084406CE26CA4AC82B
:1044600001E90545F2406244D24442490561828037
:104470005C58E5DB185C75D7700085458297184459
:10448000B247E300F7FE9305E0041725002003552B
:10449000655697000020E780004117270020232160
:1044A000A75A61D1172600200356C6549305F00F72
:1044B000EFF0CFE98144172900201309A956972767
:1044C000002083C747530326C90163C1F402328524
:1044D00097000020E780C04601459727002023A1D0
:1044E00007569727002023AF0754ADBF972500201C
:1044F00083D54550B38795020844185C89818504AB
:104500003E9508C2029765BF411122C417240020BE
:104510001304844D1C4426C206C64AC097240020BA
:104520009384445091EBC84C35E9B2402244924404
:1045300002490145410182801C5CF5D7DC4C99EFB2
:104540009305E004172500200355C54A9700002075
:10455000E78060359727002023A4A74EC84C61D57B
:1045600017260020035606499305F00FEFF00FDEE3
:1045700001499727002083C70748D04CE355F9FA33
:104580009725002083D50547338525031C44898161
:1045900005093E951C5C08C28297E1BF9700002088
:1045A000E780003A9727002023AC07489727002090
:1045B00023AA07489DBF011156C2972A0020938A5B
:1045C000AA4283A78A0022CC4AC84EC606CE26CA73
:1045D00052C45AC0AA892E8432896385072203A750
:1045E0004A03630707147D476366A71497240020D6
:1045F0009384444303AAC40163170A0A956593850B
:1046000015E0172500200355E53E97000020E780C0
:1046100080299727002023A5A7422A86630A051030
:1046200083A74A0303A58A009725002083D5853CEC
:104630008981829783A78A0003AAC40117270020D3
:104640002322F7408947639CF908C1476312F40E9F
:104650009725002083D5053A938505FC9147B3C57E
:10466000F5028A05D29503C705009307A005631DCF
:10467000F70A83C715006399370B4A85228691058F
:1046800097000020E780808ADC4C528563934715B1
:104690000145F2406244D2444249B249224A924A18
:1046A000024B056182809850E38EE7F8956593850B
:1046B00025E0172500200355E53397000020E7800B
:1046C000801E2A8A35C52A8683A74A0303A58A0045
:1046D0009725002083D5053289818297A5B78D471C
:1046E000639DF900C1476315F4049725002083D525
:1046F0006530938545FDF199B5B79147639AF90007
:10470000631834039725002083D5C52EA115E5B77E
:10471000C147639FF900A14763EC870097250020FC
:1047200083D5452DC115C1BFDC4C52856397470D1C
:10473000294585B71307F006568B6361A70A130A4C
:1047400005FE1947334AEA02172700200357872A34
:10475000972A0020938A0A2D330AEA023E9A83A7F9
:104760000A026395470183A4CA019DE49305E0040E
:10477000172500200355052897000020E780A01288
:10478000AA845DD583274B039725002083D58526F2
:104790002A8689815285829791451307A0058981D0
:1047A00093972500A69783C607006393E60483C604
:1047B0001700639C360385058A052286A6954A85DF
:1047C00097F0FF1FE780807683A7CA01E38297EC0A
:1047D000268597000020E780A0165DBD1307E0073F
:1047E000E368A7F4130A05F985B783D5270045BF09
:1047F00083A7CA01E38E97F2268597000020E78001
:1048000020143DB7972700209387C721CC4F8DD127
:1048100091479306A0058983139727002E97034697
:104820000700E317D6F003461700631C360185071F
:104830008A072286BE954A8597F0FF1FE780006FA2
:1048400081BD83572700C1BF972700209387C719D1
:10485000984739C79C5FA9C705476313E504411111
:1048600022C4172400201304E41B504C06C60DC6B6
:1048700008509725002083D5E51789818297484CF9
:1048800097000020E780C00B9727002023AA071A73
:104890009727002023A8071AB240224441018280B2
:1048A0008280011117270020130707144EC68329A1
:1048B000870022CC26CA4AC806CE52C456C2AA8451
:1048C0002E843289638A09201C5FBA8A99EB2945B4
:1048D000F2406244D2444249B249224A924A0561B6
:1048E00082805C5BEDD7FD4763E9A70E9729002026
:1048F0009389491383A7C901B1CB03A58A0083A774
:1049000009026395A70689476393F408C147E3103A
:10491000F4FC172500200355E50D9147130505FC10
:104920003345F5029317250003A5C9012286CA85E0
:104930003E959307A0052300F500A30095001105FF
:1049400097F0FF1FE780805E014559B79305E004AB
:10495000172500200355050A97000020E780A0F4E2
:104960009727002023AEA70C49F995B783A74A03E0
:1049700003A6C9019725002083D5C50789818297A1
:1049800083A78A0017270020232EF70AADBF8D4783
:10499000639EF400C147E31CF4F217250020035581
:1049A0006505130545FD9377C5FFBDBF9147639A24
:1049B000F400E31E94F0172500200355A5032115EC
:1049C000DDB7C147E395F4F0A147E3E287F017258F
:1049D0000020035525024115F9B79307F00663EA55
:1049E000A706930705FE1947B3C7E702172700205C
:1049F00003574700172A0020130ACA02B387E702A9
:104A0000BE998327CA01A9CF83270A02639A370771
:104A10000325CA0191461308A005FD5593D726002A
:104A2000C207C183139727002A9703460700631D17
:104A30000607834817000356270063959806B306B8
:104A4000D64063CF860485078A072286CA853E95AD
:104A5000C5BD9307E007E3ECA7E6930705F979B72F
:104A60009305E004172500200355C5F897000020A2
:104A7000E78060E39727002023A4A7FC51F581BDC0
:104A800083A74A030326CA019725002083D585F60C
:104A900089814E8582979727002023A537FB8DBFFC
:104AA000A300B700B2869DBFB385860017260020FD
:104AB000035646F49105130606FCE3FAC5E0130617
:104AC00034001376C60F1106B29623000701A30027
:104AD00097002311D70085BF97270020938787F47D
:104AE000D44FBE89A1C203A5C90191461308A005F0
:104AF000FD5593D72600C207C183139727002A9735
:104B0000034607006316060583481700035627006F
:104B100063989800B306D640E3D786F2A300B700A7
:104B2000B286C1BF8357C700172500200345A5ECF7
:104B30009305E0043305F50242054181970000200A
:104B4000E78060D69727002023ACA7EE49FD41B34C
:104B500017260020035606EA9725002083C5A5E9FD
:104B6000B385C502338686001106E3E2C5D681BF50
:104B700001458280011106CE2EC6EF70E04501C9C5
:104B8000B245F2400355250005616FA0A074F240C4
:104B9000494505618280A38801942388019423AC50
:104BA000019223AE019223A0019423A2019423AA8F
:104BB000019223A80192972700209387A7EA37073D
:104BC000B40098C33747A000D8C337071000930636
:104BD000070A94C7B7065000C106D4C79306070555
:104BE0004107D8CB3707D007410798CF3707840351
:104BF00098D337C70700130707B8D8D3416794CBBA
:104C000093060701130717F8D8D7370781FF98DBFA
:104C10007D5723AE070094D7239AE70282800111C3
:104C200026CAAA84214522CC06CE2E8432C636C49A
:104C30003AC2EFE01FBB1DC9A24612473246930796
:104C400000FD2300F5009947A30095002301F5001E
:104C50002303D500A303E5002312C500AA852285FE
:104C60006244F240D24405616FE01FC2F2406244E8
:104C7000D2440561828023ACA192828023AEA192AE
:104C8000828023A0A194828023A2A194828001111A
:104C900022CC4AC806CE26CA2A890144B304890018
:104CA0006368B400F2406244D244424905618280A4
:104CB0002EC6EFE0FFCC93170501C183A183B24557
:104CC0002380F4009307140093F7F70F850463F92A
:104CD000B700CA9709042380A7001374F40F7DBF9F
:104CE0003E847DBFC16717250020035585DBFD1776
:104CF0006302F502411103C6C19D9385819406C6E6
:104D0000EF70C00EB240FD5717270020231BF7D8C5
:104D100041018280828009C925151375F50F13356D
:104D2000850E134515008280014582802380050091
:104D3000F94763E2C708797122D426D24ECE56CA0B
:104D40005AC806D64AD052CC5EC63684B289AE8ADC
:104D50002A8B814463FF3405B307940003CA07001C
:104D6000138914001379F90F63050A04B3072A01A4
:104D700063C1F904B307240183CB07005E85613F5B
:104D80000DC99307FAFF2380FA0063906B031305A4
:104D900019002295B250225492540259F249624AA3
:104DA000D24A424BB24B45618280D29493F4F40FC5
:104DB00055B70145C5B701458280411126C2AE8471
:104DC00022C49727002023A5C7CE9727002023AF12
:104DD000B7CC9727002023A9A7CC2A844146930566
:104DE000F00F26854AC006C60549EFE05FE0631E66
:104DF000250397270020938767CA884BC145413D0B
:104E000041469305F00F2285EFE07FDE854463166F
:104E10009502224497270020938747C8B2409244C6
:104E20000249C847C14541019DB541468145268596
:104E3000EFE0FFDBE31625FD6DBF4146814522858E
:104E4000EFE0FFDAE30795FCB240224492440249C6
:104E500041018280411122C426C22E84AA841306F5
:104E60000002814517250020130545C306C6EFE063
:104E7000FFCD97270020A38497C2A38F819CEFA02A
:104E8000E046854719C181474945B240224417276A
:104E900000202305F7C0924441018280814781CDE3
:104EA00019C98547631BF50083C7550093E707FCC5
:104EB000A382F50085473E85828089476317F50008
:104EC00083C7550093F7F703E5B70D478547E3140C
:104ED000E5FE03C755001377F70313670704A382A2
:104EE000E500D1BF81478DC105C103C755009306B9
:104EF000000C85471377070C6308D700930600045E
:104F00008D476303D70089473E858280411122C4C3
:104F1000005D06C626C21DC8AA84085009C59700B0
:104F20000020E780E0A1485009C597000020E780F5
:104F300020A1085409C597000020E78060A02285C1
:104F400097000020E780C09F23AC0402B2402244B7
:104F500092444101828009ED9727002083C727B43E
:104F600017250020130505B581CB1385819282801A
:104F700017250020130505B482801725002003455E
:104F800005B2828097270020938747B1C847828067
:104F900097270020938787B0884B8280972700202F
:104FA0009387C7AFDC4B8843828097270020938785
:104FB000E7AED84B1C4385071CC3172500200345CB
:104FC00015AE9307F00F6305F50091656FE0DFC440
:104FD0008280011122CC06CE2E8432C6EF70000FE3
:104FE0009147B245631FF500938741949C438DC35D
:104FF00003A30700630E030022856244F2400561AB
:1050000002839387C1939C4381C703A34700DDB705
:10501000F2406244054505618280011122CC2A8458
:105020000355450006CE26CA4AC84EC6EF60F06A50
:1050300035C52A89834405008349C500C13D4A8599
:10504000EF70506203554400EF70C00383C70195B1
:10505000B1CB6399970483C511952685EFF09FB175
:1050600019E12388019403554400EF70200691470D
:10507000631FF500035744009727002083D767A2DA
:105080006317F700FD5717270020231CF7A0F240F5
:105090006244D2444249B249056182808149930405
:1050A000F00F6DB79307F00FE38FF4FA83466400B7
:1050B00003564400034524004E87A685EFF03FB613
:1050C0005DB779715EC6AA8B2E8552CC56CA5AC876
:1050D00006D622D426D24AD04ECEAE8A328B368A1B
:1050E000EF60B05F6DC1045D2A89F1CC9C506145D1
:1050F00099C3130540039C5481C751054205418162
:1051000063050A00710542054181DC5081C75905DC
:1051100042054181EFE0EFEC2A8455C561468145A7
:10512000EFE0DFA29729002083C9C99663940900A4
:1051300083490900930700FD2300F400A947A30059
:1051400074012301F400230364018C5023125401E1
:105150001305840191C908C47146930A440397F06A
:10516000FF1FE780A0DC56858C5491C948C4514686
:10517000930A450197F0FF1FE78040DB5685630CDB
:105180000A0008C87146D285930AC50197F0FF1F2F
:10519000E780C0D95685CC5099C548C8594697F084
:1051A000FF1FE780A0D8A2854E85EFE0EFED2254E7
:1051B000B2509254F249624AD24A424BB24B4A85AB
:1051C00002594561A1B3B250225492540259F24996
:1051D000624AD24A424BB24B4561828001114EC6AF
:1051E000AA892E854AC806CE22CC26CA2E89EF600F
:1051F000D04E31C59724002083C4C48999E08344EC
:1052000005001945EFE0EFDD2A8415C981451946EF
:10521000EFE0DF93930700FD2300F400B947A300FC
:1052200034012301F40023122401A2856244F240D8
:105230004249B2492685D24405616FE0EFE4F2406D
:105240006244D2444249B2490561828039715ECEDE
:10525000AA8B2E8526DA4ED652D456D25AD006DEE6
:1052600022DC4AD8AE84328BB68A3A8ABE8942C6DC
:10527000EF60B04631C92A894145EFE08FD62A84D4
:1052800021C541468145EFE07F8C1725002003456D
:10529000658019E103450900930700FD2300F40030
:1052A000BD472301F400B247A30074012312940008
:1052B00023046401A304540123054401A30534011C
:1052C0005CC4A285EFE04FDCF2506254D2544259E4
:1052D000B259225A925A025BF24B21618280797153
:1052E00026D2AA8439454AD04ECE06D622D42EC61E
:1052F000B2893689EFE0EFCE21C1B2459307000DA8
:105300002310F500B1472A842312B5002301F500CC
:10531000CE851905194697F0FF1FE78020C12306A7
:105320002401A2852254B2500259F24913F5F40F18
:10533000925445616FE04FD5B250225492540259B5
:10534000F24945618280171700200347577593077C
:10535000F00F630DF706411126C2AA84394522C415
:1053600006C64AC0EFE0EFC72A8439C9930700FD9B
:105370002300F500A30095002301050097150020E8
:10538000938545730D05194697F0FF1FE78000BA16
:10539000171900201309897083578900A2851715F2
:1053A00000200345D56F2315F40083471900230619
:1053B000F4002244B2409244024941016FE0CFCC54
:1053C000B24022449244024941018280828001110C
:1053D00056C2AA8A314526CA4AC84EC652C406CE0B
:1053E00022CCAE84328AB6893A89EFE08FBF29C9D0
:1053F0002A842685EF60702E1DCD03450500930796
:1054000000FD2300F4009D47A30054012301F40094
:10541000231294002313440123143401231524017F
:10542000A2856244F240D2444249B249224A924A99
:1054300005616FE06FC51715002003455566C1B7BC
:10544000F2406244D2444249B249224A924A05613A
:105450008280397162CC2A8C594526DA4AD84ED6D8
:1054600052D456D25AD05ECE06DE22DCAE8432C68C
:1054700036C4BA8B3E8BC28A468A835901040349DB
:105480004104EFE00FB635C53246930700FDA24652
:105490002300F5009547A301C500A3008501230162
:1054A000F5002A8419461105A9C2B68597F0FF1F99
:1054B000E780C0A723066401230A24012315740191
:1054C000231754012318440123193401A28562547F
:1054D000F2504259B259225A925A025BF24B624C34
:1054E0002685D25421616FE02FBA8145EFE00FE6A7
:1054F000D1B7F2506254D2544259B259225A925AF8
:10550000025BF24B624C216182809717002083C7B7
:1055100007598DCB4111AA8519461385819206C67C
:1055200097F0FF1FE78080A09385819217150020D8
:105530000345E556EFF09F96B240138581924101F5
:105540006F90905B01458280171700200347375505
:105550009307F00F6305F708411126C2AA84294575
:1055600022C406C6EFE0EFA72A8429C1930700FDF5
:105570002300F500A1472301F500A300950097172C
:1055800000209387A75183C7270093858192110537
:10559000A30FF5FE194697F0FF1FE7802099A2851B
:1055A000171500200345B54FEFE00FAE1717002089
:1055B0000347E74E8D47631FF700938701949C4391
:1055C00091CB03A38700630703002244B2409244B7
:1055D00041010283B2402244924441018280171764
:1055E00000200347C74B8D47631AF7009387019448
:1055F0009C4389C703A38700E31D03FC8280797164
:1056000022D406D626D24AD04ECE52CC094445C921
:105610002A89035505002E8A5144EF60100CAA8494
:1056200059CD83C7F19DFD1793F7F70F05474944FF
:105630006377F7080347C500A1476314F7006310B9
:105640000A089C5C4544A5EF916593854571130557
:10565000C00297F0FF1FE780002588DCAA894D442F
:1056600039CD1306C0028145EFE04FCE83570900C4
:105670009386490036852391F900714693054900C8
:1056800036C697F0FF1FE780608A89472380F900BC
:1056900003C5C400B24603560900611583C5C19D08
:1056A00013351500EF90201A2A8463060A00D2856C
:1056B0002685EF70502601C42685EFF03F852285B0
:1056C000B250225492540259F249624A4561828092
:1056D00083C7F19DFD1793F7F70F05476378F70828
:1056E000894751C6011122CC26CA4AC84EC652C4A7
:1056F00006CEAA89368AB2842E89EF60007E2A847B
:10570000D14729C9485509C597F0FF1FE7804023B5
:10571000F1452685EFE0EFC548D4CD4705CD83465A
:10572000C40021478147639FE600630D0A000347D9
:10573000A5010356050193062501AA854E85EF7044
:105740006015AA8703474400630F090013676700C9
:105750002302E400F2406244D2444249B249224A60
:105760003E850561828013674700DDB7C9473E85E6
:105770008280E54763EBA700971700209387872E69
:1057800006053E9503550500828041657D158280A2
:10579000011122CC2A842E8526CA06CEAE84EF6063
:1057A000C0730DCDB7470F009387F723094563E218
:1057B000870281450A854146EFE04FB9A68523104F
:1057C00081000A85418023018100A3010100EF804F
:1057D000F069F2406244D244056182804945D5BFF8
:1057E000A38EA19C82806F80D07E797152CC2A8A50
:1057F000328522D426D24AD04ECE56CA5AC85EC668
:1058000006D662C4AE8BB28A368BBA843E89C28910
:105810004684EF60806C15C92A8C63140A021377E2
:105820004B008347450015CF93E727012302FC0077
:105830008DEC631C0902639A090205E8ED9B2302C3
:10584000FC00832B8C03639F0B06B25022549254AE
:105850000259F249624AD24A424BB24B224C45614C
:105860008280F59B93E70701D1B793E747002302B6
:10587000FC0001CC1C484146A2852324FC021305F0
:105880008C0197E0FF1FE780606A63910B02D5D817
:105890000325CC0209C597F0FF1FE780600AF14598
:1058A0002685EFE00FAD2326AC0261BFE30B09F8BC
:1058B0000325CC0209C597F0FF1FE7806008F1457A
:1058C0004A85C5B79DC483A70B0299EB9165938563
:1058D0003571714597F0FF1FE780E0FC23A0AB0214
:1058E00003A50B0219C57146A68597E0FF1FE78047
:1058F000E0636388090283A74B0299EB9165938566
:105900002571594597F0FF1FE780E0F923A2AB020C
:1059100003A54B0219C55946CE8597E0FF1FE780C6
:10592000E0601DC483A78B0299EB91659385157187
:10593000514597F0FF1FE78000F723A4AB0203A5B2
:105940008B0219C55146A28597E0FF1FE780005ED4
:105950002254B2509254F249B24B224CCA865A8613
:105960000259424BD6855285D24A624A45616FF050
:105970004FF5011126CA52C406CE22CC4AC84EC6E3
:105980002A8AAE84EF60605525C5AA893945EFD0D3
:105990005FE52A8431CD171900200349A90F63144C
:1059A000090003C909009307000D2310F400AD4757
:1059B0002301F4009385690013053400194697E02C
:1059C000FF1FE780A05693F7140085808588230683
:1059D000F400A306940023154401A2856244F2401A
:1059E000D244B249224A4A85424905616FD0DFE973
:1059F000F2406244D2444249B249224A056182805F
:105A000093870193884301CD411106C697F0FF1F8C
:105A1000E78000F3B24023A8019241018280828096
:105A2000011106CE22CC26CA4AC82EC6EF60E04A33
:105A300039CDB245171900200349C905AA840CD5F0
:105A400063140900034905004145EFD09FD92A841A
:105A50001DCD9307000D2310F500A5472301F50088
:105A600083C75400938564001105A30FF5FE194602
:105A700097E0FF1FE780804B9C54A285F2405CC4F6
:105A80006244D2444A85424905616FD0FFDFF2404B
:105A90006244D244424905618280797122D406D69B
:105AA0002A842EC6EF6060430DCD8346C5001147A2
:105AB000AA8749456393E6029C5FB24599C383C5B3
:105AC00067010808EF70206E978600009386A6F69F
:105AD000100889452285EF60B060B25022544561BC
