:040000006F10001D60
:1000040000000000000000006F0080086F00202541
:1000140000000000000000000000000000000000DC
:1000240000000000000000000000000000000000CC
:100034006F004006000000006F00E00500000000B3
:100044006F0080056F0060056F0040056F0020059C
:100054006F0000056F00E0046F00C00400000000A2
:100064006F0060046F0040046F0020046F00000400
:100074006F00A0266F00C003000000006F00600343
:100084006F0040036F0020036F0000036F00E00265
:1000940001A001A001A001A001A001A001A001A054
:1000A40001A001A001A001A001A001A001A001A044
:1000B40001A001A001A001A001A001A0B717004068
:1000C400130770052380E704130780FA2380E704ED
:1000D4000F1000002396A70223800704371700405F
:1000E40083472705898BEDDF8357070537170040C2
:1000F40083472705898BEDFF371700408347270582
:10010400898BEDDF035507058280B71700409306FE
:1001140070052380D704130780FA2380E7040F10A7
:10012400000003C6B7041376F60DA385C704238025
:100134000704137605023DCA03C6A700118A1DE20F
:100144002380D7042380E7040F10000003C7A7000F
:10015400136747002385E7009307004B0100010064
:10016400FD17EDFFB7170040930670052380D704F1
:10017400130780FA2380E7040F1000007D8923947D
:10018400A70001000100010001002380070423806F
:10019400D7042380E7040F1000003727004093069C
:1001A4001005A303D78023800704828013760504F7
:1001B4006DDE03C6A700418A1DE22380D704238095
:1001C400E7040F10000003C7A70013670701238586
:1001D400E7009307007D01000100FD17EDFFB7174D
:1001E4000040930670052380D704130780FA238008
:1001F400E7040F1000007D89136505042394A7000C
:100204000100010001000100238007042380D704BA
:100214002380E7040F1000003727004093063005C1
:1002240049B74111814601468145114506C67122EF
:10023400B7170040130770052380E704130780FAFB
:100244002380E7040F10000003C767041367170037
:100254002383E70423800704B2404101828081465E
:10026400014681451145912AB71700409306700550
:100274002380D704130780FA2380E7040F100000BB
:100284007D562396C7022380D7042380E7040F10EA
:10029400000003C76704136717002383E704238060
:1002A400070401A0BD473305F50201007D1575FD66
:1002B4008280411122C426C206C6AA84014463175F
:1002C4009400B24022449244410182800504130503
:1002D400803E4204C13F4180DDB7B7170040130799
:1002E40000032388E702854723AAF18E7300203098
:1002F400411106C6970000E0E780A0889929FDBF58
:100304002303048095472303F4802302A48082807E
:1003140083076480E3CE07FE23030480828083077F
:100324006480E3CE07FE03454480828083076480B3
:10033400E3CE07FE2302A4808280411126C44AC270
:100344004EC006C61377F50BAD47AA892E8995448E
:100354006306F70019456D37653F8D444E854D376B
:10036400FD59FD1463983401B240A24412498249F4
:1003740041018280135509011375F50F453F220988
:10038400CDB7011126CC06CEB70408005137154568
:10039400853F713769372AC6A53F324593771500E3
:1003A40089EB136515001375F50FF240E2440561FE
:1003B4008280FD14E9FC0145CDBF397126DC4ADA9F
:1003C4004ED852D656D45AD25ED062CEB7E700E0A9
:1003D40006DE66CC6ACA414783AB070422C6B8C3AB
:1003E4007D5703AB070083AA470023A0E71823A285
:1003F400E718B7170040130770052380E7041307B5
:1004040080FA2380E70483C74704130C75FFB6847E
:10041400E207137CFC0F85462A8A2E89B289372489
:100424000040E187015763FA86016308D5008946D5
:10043400130700026313D5000157D98F93F7F70F01
:10044400371D00402302FD0411472303E4801305F4
:10045400F00F7D35894C6D3D63EB8C11B7070700B8
:100464003E99378707007955637EE902B3079900FF
:10047400636AF702A947631CFA0689E48144493D8B
:1004840026850DA0CA8509454D3D850903C5F9FF9B
:10049400FD140509613D81C49377F90FFDF7D53546
:1004A40069FD7D55B7170040130770052380E704E5
:1004B400130780FA2380E70403C74704418B238290
:1004C400E704B7E700E023A07705F25023A0671103
:1004D40023A25711E25432445259C259325AA25AF1
:1004E400125B825B724CE24C524D21618280A547C3
:1004F4006314FA0685699307F00FB3869700B37403
:10050400F900B69493C7F7FFFD8C33F92701416ACC
:10051400056C9387F9FFB3F7270199E363FC340172
:1005240093D94900C147E3E637FF89BF8567C169AD
:10053400FD17E1B71305800D638849011305000217
:100544006384890113051008CA85C53B1D3D31D953
:100554004E99B3843441D9B7CA852D45F93BCE941D
:10056400E38E99F08509653BA38FA9FED5BF930758
:10057400FAFF93F7F70F63ECFC0803475D04B70732
:1005840008001377070219E3B78707007955E37B5F
:10059400F9F033079900E3E7E7F089476310FA04B9
:1005A4008980554AE38C04ECCA850945793391095D
:1005B40003A7C9FF91472320E48003076480E34E27
:1005C40007FE23034481FD17EDFBFD14110981C4CB
:1005D4009377F90FE9FF753371F5E1B58547E307C3
:1005E400FAF4CA852D45913B1389F4FFE38804E8A6
:1005F4003D339377390091EB8326048003A70900E8
:1006040093874900E39DE6E6BE89CA84F1BFB547F6
:100614006316FA001305900BE5318DB5B147130548
:10062400B00AE30BFAFE9947631EFA02CA852D4508
:10063400293381440D4C214ADD316396840183279B
:10064400048023A0F9008504E39844FF83270480F1
:1006540013172901635507002392F90005B523A256
:10066400F90029BD9D476319FA0281451305B004B9
:10067400E931BD4423A0090023A209007D59453175
:1006840093F77400CE9703C70700FD14398D2380B8
:10069400A700E39624FFDDB3A1476312FA04D53122
:1006A4008144630D09008D479304C0036308F90076
:1006B4009304000563049901930440041375C5076A
:1006C400E30E95DA19452D39A131054515392685ED
:1006D400B1390945A1397531E31205DAD9B3914726
:1006E4006319FA001305600621391D3113059009B9
:1006F40025B7E3050AD8F15459B309CDB71700401B
:10070400130770052380E704130780FA2380E704A6
:100714002396A702828019C1814799E98280338791
:10072400F500834607003307F50085072300D7004B
:10073400E397C7FEE5B719C1FD5781E982809105AA
:1007440003A7C5FF1105232EE5FE7D16E319F6FE6A
:10075400F5B7797122D4173400001304A4AD1C40FA
:1007640006D626D24AD04ECE91C78297973700003C
:1007740023A207AC5C4089CB03D58190BD3F5C408C
:10078400829703D5A190953F1C406399071897372A
:10079400000083C737BC858B95C797370000A38BB0
:1007A40007BA17370000034717BB914763FCE700FC
:1007B400792B9737000083C717BAF9178A07A297CE
:1007C4009C4382979737000083C787BD918B89C765
:1007D400971001E0E780E00C1C4491C38297938753
:1007E4004190984317360000034696A23E899734F9
:1007F40000009384E4A19737000083C767A1939610
:100804001700BA9683D60600638006109737000057
:1008140083C707A063F2C70886073E97835507007E
:100824002310070003D581902EC623980190F1353B
:100834009387C1919C43173500000345659D1317A9
:100844002500BA979C43B2458297AA8903D5A19003
:100854006D359737000083C7A79B1397170083272D
:10086400090003D501911345F5FFBA9703D7070093
:1008740033753501598D2390A70083C7040085077C
:1008840093F7F70F173700002304F7981737000082
:100894000347179863E6E70097370000238A079613
:1008A4001C40ADEF9387419198433E8425CB973705
:1008B400000083C797AA91CB9737000083C7B7A9D5
:1008C40089E7971001E0E78080AE1C4082972A8474
:1008D40031C59C48AA97173700002323F7949387C0
:1008E40081919C4385CF03D58190013D228597F06A
:1008F400FFDFE78060742254B25092540259F249E7
:1009040003D5A1904561D5BB850793F7F70F9736BB
:100914000000238FF68EE3E0C7EECDBDB250225423
:1009240092540259F249456182809167B7C60040EA
:100934009387373023A6F6200F1000009737000066
:100944009387078D884F938741A09C433167130792
:100954003730F053B7071000FD17918F99833A058C
:1009640023A6E6205D8D82804111B7170040985F71
:100974003AC6945F3247E39CE6FE324541018280E9
:10098400411106C6D5379736000083C6E685858AA9
:10099400B1C6930730333307F502B337F502398311
:1009A400CA07D98F1737000013078786584B0145AC
:1009B4006303F7023385E740636BF70037653D084F
:1009C40089C637856F0813050590198D3E9517372D
:1009D40000002329F784B24041018280E5473307B0
:1009E400F502B337F5022583DE0765BF0327C50F7C
:1009F4008346B50097370000938787959C4F5843EB
:100A04009386160295829043FD1693F6F60F10C353
:100A1400D04350C3904710C7D04750C7904B10CB1A
:100A2400D04B50CB904F10CFD04F50CF91C613071F
:100A3400070293870702C1BF82808347E50193F7CA
:100A4400E70FF1EF2A870345F50171E90346070132
:100A54008346870009CA8345A7029727000083C7F6
:100A6400B77863E7F50093F70601C5CF814709CA54
:100A74008347871503467715C18AA207D18F81CA98
:100A84008346B7150347C7152207558FBA97D1CBAD
:100A940017370000130747973847411122C406C689
:100AA4007D548326070863F386003684184375FB58
:100AB400172700000347477393168701E18663D91C
:100AC40006029387C71395831727000003476772AD
:100AD400BA9763D006041D8C938701929C43829736
:100AE4003335A400B24022441345150041018280ED
:100AF400058B9387C71209CB8A079387F7031305DE
:100B0400D007B3D7A702C9B78607FD071305D003DB
:100B1400CDBFE372F4FC3705C0A82A946DBF01452C
:100B240082808280411122C41384419F18404AC0AC
:100B340006C61C5F26C21389019F9983858BC1C396
:100B44001C5F973400009384A48093F7F7F91CDFAB
:100B54009727000083C7C77F93F707048DC3938744
:100B640001929C4382979727000023ABA77E83C7FB
:100B7400040093F7F70B17270000230BF77C854736
:100B840017270000A308F77C83C7440093F70704E2
:100B940081EF938741A09C43D844B8D3930700FCCA
:100BA400172700002308F77A8387640063D90700B6
:100BB400832709009C4317270000230EF778184069
:100BC4001C5F8583858BC9CBF5571CDF01000100B1
:100BD4000100010001000100010001000100010009
:100BE40001000100010001000100010001000100F9
:100BF40001000100010001000100010001000100E9
:100C040001000100010001000100010001000100D8
:100C140001000100010001000100010001000100C8
:100C240001000100010001000100010001000100B8
:100C340001000100010001000100010001000100A8
:100C4400010001000100010001000100938741A09F
:100C54009C4313075004B8CB18401C5F9183858BC9
:100C640089CFBD571CDF938741A09C4323A8070469
:100C7400854717270000230FF76C83270900D84303
:100C84000583058B19C7D843759BD8C3D843799B73
:100C9400D8C3B2402244924402494101828039714E
:100CA40006DE16DC1ADA1ED82AD62ED432D236D074
:100CB4003ACE3ECC42CA46C872C676C47AC27EC018
:100CC4009535F250E2525253C2533255A255125640
:100CD40082567247E2475248C248324EA24E124FE1
:100CE400824F216173002030938741A094431727DA
:100CF40000001307E765BC5289CF83472700858B23
:100D040089EB83473700858BFDD797270000238322
:100D14000764828037C700401306C003930620038C
:100D2400972500009385C56283278720C18393F7A5
:100D3400F7036369F60083278720C18393F7F703DA
:100D440063E6F60083C74500858BF9DF82809387CD
:100D540041A09443172700001307875FBC5289CB37
:100D640083470700858B91CB972700002384075E78
:100D740097270000A380075E828083471700858B36
:100D8400F1DFDDB7938741A0904337C70040C145E9
:100D9400E54683278720C18393F7F70363FBF500B8
:100DA40083278720C18393F7F70363E4F6003C525B
:100DB400EDF382801387419F1843AA87185F158338
:100DC400058B25EF0345150015051377C51F19C6B7
:100DD400B386E70083C626002300D60095C5972670
:100DE400000083C6465793F606040945A1CAB38694
:100DF400E70083C63600054693F5F6066390C504FE
:100E0400E206E18663CC06023385E70083471500DA
:100E140003470500A20793F70770D98F13970701BB
:100E240041839376074099C613670780239EE19E0A
:100E340001458280239EF19EE5BF0545828093860D
:100E440041A08C42368597260000938666509845CB
:100E540093170701C183137817203E86630408049F
:100E64001377072079C303C72600136717001728D1
:100E740000002300E84E13070019B8D1130700F847
:100E8400972500002388E54C1387419F0C433708BE
:100E94000010D855719B13672700D8D59841336744
:100EA400070198C11377261005C31376061059CE8F
:100EB40003C706001367170017260000230AE64835
:100EC40017270000231A074883C6460093C7F7FF75
:100ED400C207E206E186C183184163D106029396F4
:100EE400170163DE060630538D4663E9C600854666
:100EF400172600002300D6463453FDFE9726000033
:100F04009386462D8386460163DD0600939607018A
:100F1400C18663DC06047053894663E4C6007453D7
:100F2400FDFE1447F58F1CC7828003C716001367A4
:100F3400170097250000A38DE54017270000230B19
:100F440007401727000023190740A9BF03C736002D
:100F54001367170017260000A30DE63E95B78546D4
:100F6400172600002308D63E51BF544713960601A6
:100F740063510602B7061000FD1674D397260000CD
:100F840093860629944E850617260000232ED6281C
:100F940049BFA166D58F71B7397106DE16DC1ADA3E
:100FA4001ED82AD62ED432D236D03ACE3ECC42CA1D
:100FB40046C872C676C47AC27EC05135F250E25237
:100FC4005253C2533255A255125682567247E247C3
:100FD4005248C248324EA24E124F824F21617300D2
:100FE400203017270000130767388346B701972777
:100FF400000083C7F73AB69793F7F70FFD4663EA05
:10100400F6044C4B97260000A382F636972700007F
:1010140083C7D73505473317F70097260000A38108
:10102400F6386D8F1DEF9726000083C6B637B3F6EA
:10103400D70213050002814733D6F500058A13F859
:10104400F70F09CE6399E60097270000A3800733C2
:10105400828081177DB705071377F70F8507E39D16
:10106400A7FC8280938701A19843B7570200938716
:10107400279F832607091396560063580600832684
:1010840007091396660063440600FD17FDF382808A
:1010940051C9AA870145C9C98D07C207C183F19BFC
:1010A400C207C18313074003636BF702138701AAC6
:1010B4000843138781A914436396A60217270000E7
:1010C40013074711185B014525C34111C20706C622
:1010D4000545DD8D0297B2400145410182801387A9
:1010E400C1A9F9B70357650005EF035745006369C4
:1010F400F702B306F74021466370D6021041938687
:1011040087001D8FAA96611790C22392E60023934D
:10111400060014C12312F5002313B50021058280B3
:10112400084159BF01458280828001CD938701AA7D
:1011340003A80700938781A98C430147C28763E30F
:10114400B70082809443636FF50663EDA6061386A9
:101154008700E368C5FE03D56700216605066317AB
:10116400C50003C6419B0506238AC19A2393070041
:10117400638407031386C1A91042630FF600035664
:10118400670019EA83D7470014C383564700B6970C
:10119400A1072312F700BA879843E304B7FA9386AA
:1011A400C1A99442E30FD7F883566700D9FA83D6CE
:1011B4004700035647001843A106B2962392D7006E
:0C11C40098C382803E87B6879DBF000064
:1011D000974100209381814C17710020130181E217
:1011E00013054000972500209385C5611736002020
:1011F0001306067E63FAC5008322050023A055006E
:1012000011059105E3EAC5FE17D501001305C524B4
:10121000973500209385C57B1386818963FAC500C5
:101220008322050023A0550011059105E3EAC5FEC0
:101230001385818997650020938505A86377B5009C
:10124000232005001105E36DB5FE9302800873A00D
:101250000230972200209382E25A93E212007390A8
:101260005230972200009382E20973901234730087
:1012700020303D432A876373C3029377F700BDEFA5
:10128000ADE5937606FF3D8ABA960CC34CC30CC7F6
:101290004CC74107E36BD7FE11E28280B306C3401F
:1012A0008A069702000096966780A6002307B7007B
:1012B000A306B7002306B700A305B7002305B700B0
:1012C000A304B7002304B700A303B7002303B700A8
:1012D000A302B7002302B700A301B7002301B700A0
:1012E000A300B7002300B700828093F5F50F939613
:1012F0008500D58D93960501D58D61B7939627000E
:101300009702000096968682E78086FA9680C1173B
:101310001D8F3E96E374C3F8A5B7B717004003C707
:1013200077051377E70FA38BE704130700F8A38D66
:10133000E7043D47238CE70413075003A38CE7041D
:101340008280B717004003D587005D715ED64205E5
:10135000418186C6A2C4A6C2CAC04EDE52DC56DA9D
:101360005AD862D466D26AD06ECE9377050C130732
:101370000008814B638EE718130700046392E71699
:10138000B7240D8F7D8993840480B3D4A402916720
:10139000938707E8BE94A167938707D0B3D4F4027C
:1013A000EFA0F16297C701009387C7779043D443BA
:1013B000EFA0B116EFB021242A8B939C040103D92E
:1013C000818993DC0C016315090005691309098003
:1013D000B7170040130770052380E704130780FA4E
:1013E0002380E7040F1000000547371A0040939D43
:1013F0000401096C85662389E704D14A814E814541
:10140000130D0A0413087005130680FA894893DD4A
:101410000D01130C0C712943FD1623000D0123004F
:10142000CD000F10000023162A0323000D00834770
:101430002A05898BEDDF83570A0583472A05898BA7
:10144000EDFF83472A05898BEDDF83570A05239C2F
:101450002189C207C183338597419319050193D927
:101460000941638609163387B9026350070E850E5A
:10147000C20E93DE0E0163EAD80D63DB050A330565
:10148000B04093150501C185C204C18063D9350BF5
:10149000B7170040130770052380E704130780FA8D
:1014A0002380E7040F1000000965130505713385DB
:1014B000A50223967703238007043345950242054E
:1014C0004181B640264496440649F259625AD25A9E
:1014D000425BB25B225C925C025DF24D6161828094
:1014E000B1E3B77489097D8993840480B3C4A402ED
:1014F0009167938707E8BE94A167938707D0B3C429
:10150000F402EFA0D14C97C701009387276279BD01
:1015100097C701009387C760856403AB0700938476
:10152000843861BD130B0000954441BD3A89F5B57F
:10153000B387FC409399070193D90941B1B7096575
:10154000130505713385A9028DBF3385B74163E467
:10155000FC003385FD40330585033344B503634503
:10156000830013150401A9BF4E8536C642C432C29A
:10157000EFA0117CDA85EFA0914CEFA05175931E7E
:10158000050193DE0E41B307D941C207C183056E41
:101590003E871246224889482943B24663E3C70181
:1015A000368742074183631A2701130719006344F2
:1015B00030011307F9FF42074183FD1A93FAFA0F2E
:1015C000CA8BCE85E3940AF6239CE18859BF014576
:1015D000CDBDB717004003D587005D7186C64205B3
:1015E0004181A2C4A6C2CAC04EDE52DC56DA5AD825
:1015F0005ED662D466D26AD06ECE02C69377050CF0
:1016000013070008638FE714130700046393E712BE
:10161000B7240D8F7D8993840480B3D4A40291678D
:10162000938707E8BE94A167938707D0B3D4F402E9
:10163000EFA0F13997C701009387C74E9043D44379
:10164000EFA0A16DEFA0317B2A89939A040103DBFF
:10165000A18993DA0A0163150B00056B130B0B804C
:10166000B7170040130770052380E704130780FABB
:101670002380E7040F1000000547939B040189694C
:10168000056A2389E704D14D014D814C93DB0B01A1
:10169000938909717D1A5A8597200020E78040229E
:1016A000330C5541420C135C0C41239D618963034B
:1016B0000C16B3079C0363D3070E050D420D135D93
:1016C0000D01894763ECA70D63DD0C0A33059041DA
:1016D000931C050193DC0C41C204C18063DA8C0BBE
:1016E000B7170040130770052380E704130780FA3B
:1016F0002380E7040F100000096513050571338589
:10170000AC0232472396E702238007043345950253
:1017100042054181B640264496440649F259625A30
:10172000D25A425BB25B225C925C025DF24D616117
:101730008280B1E3B77489097D8993840480B3C43E
:10174000A4029167938707E8BE94A167938707D0A7
:10175000B3C4F402EFA0B12797C701009387073DF8
:10176000F1BD97C701009387A73B856403A90700D4
:1017700093848438D9BD130900009544F9B53E8B94
:1017800019BF3385AA40131C0501135C0C41A9B78E
:101790000965130505713305AC028DBF63FEAA0010
:1017A0003305754133053503A9473344750363C8D1
:1017B000870013150401B1BF3385AB40E5B76285DF
:1017C000EFA01157CA85EFA09127EFA05150131D2C
:1017D0000501135D0D413307AB4142074183856528
:1017E000BA876363B700D287C207C183639A670170
:1017F00093071B00634480019307FBFFC207C1836B
:10180000FD1D93FDFD0F5AC6E28CE39A0DF6239D54
:10181000F18845B70145FDBD41112A83014E930E64
:10182000407E130F0019930F400663ED6E0A930874
:10183000001913034006B3781503854E0D4FA14FD1
:10184000337365020D891335150063E7BE0C130869
:10185000F6FF794672984208135808013307C70209
:1018600013D61700BE0732976146B3F6C6021306B9
:101870008070B386C6023697A166F58F42075D8FEA
:10188000B717004083C6F70293F60608A307D100F6
:101890000346F10083C6F70293F60608E394C6FEFA
:1018A0008346F10093F6F60FF1DE93067005238070
:1018B000D704930680FA2380D7040F10000023AAD0
:1018C000070383C6170393E60608A388D702D8DB6D
:1018D00003C7170313670704A388E70223800704DD
:1018E000410182807D133368E3039308E016630EA1
:1018F00008003368F3039308D01663080800937850
:10190000330093B818009388D81633081E01131EAD
:101910000801135E0E0111BF6393E503054863865A
:1019200008000148630303002A8871087298FD15B6
:10193000131E0801C205135E0E01C18139B713F8E9
:10194000150063F4BF007908D5B713381800E5BF58
:10195000914763EEB70217C701001307A71D8A0559
:10196000BA959C41BA978287B717004003A7470BE7
:101970001345F5FF698F23AAE70A03A7070B698FB1
:1019800023A8E70A03A7070A798D23A0A70A828064
:10199000B717004083A6470B1347F5FFF98E23AA1C
:1019A000D70A83A6070B558D23A8A70A83A6070A83
:1019B000758F23A0E70A8280B717004003A7470B63
:1019C000498F23AAE70A03A7070B1345F5FF45BF75
:1019D000B717004083A6470B1347F5FF758F23AA5F
:1019E000E70A03A7070A598D4DB7B717004003A7A9
:1019F000470B498FEDB7B717004003D58700420565
:101A000041819377050491EB9377F5013755E80110
:101A1000130505803345F50282809377050C130783
:101A200000046397E7009377F50137459C1CCDB719
:101A30002165130505D08280B7F700E0C8439C47B5
:101A40008280814737370040A14663C4C700328592
:101A500082800345B740E38EA6FE3385F50003453B
:101A6000050085072304A740CDB79737002093874B
:101A7000E7429C4317570020130707243E95636EE7
:101A8000E500176700201307E7376368A7001737DB
:101A900000202325A7403E858280FD57EDBF4111E0
:101AA00022C406C62A84813F2947B307E502B24013
:101AB0008D83B3D7870222449507B3D7E702373720
:101AC0000040C207C1832316F7404101828071653F
:101AD00041111305052006C6D937B7370040130753
:101AE00070F82381E7400D47A381E7401307000406
:101AF000A380E74005472387E740B2404101828049
:101B00009387818A9C43411106C691C3829793872C
:101B1000C18A9C4391C3829703D7618093070019C0
:101B200063F7E70403D581809306F01863E4A60405
:101B30009386418A03A3060063070300B24013059E
:101B40000019410102830507098F3385A740E54746
:101B50003305F5024207418309839307F7FF3E955A
:101B60003345E5021375F50FB2404101828013053C
:101B70004006DDBF0145CDBF03A84500411126C287
:101B800006C622C48347180003480800A944A207D8
:101B9000B3E70701C2070D68C18713082890639651
:101BA000070385473284EF60401DAA8419ED9387AF
:101BB000018A9C4399CB0345140003470400220586
:101BC000598D1335150005058297B24022442685AC
:101BD0009244410182802D453DE7D841411122C404
:101BE00026C206C68347170003470700B684A2072C
:101BF000D98F0D67930697A132846396D702093770
:101C000083C741806374F5002382A18085472390B8
:101C1000F40083C741802300F4000145B240224410
:101C2000924441018280130787902945E398E7FE9B
:101C3000CC4589472390F40009462285972000204F
:101C4000E780A02DD9BF828083474500858BADC733
:101C5000011122CC2A84035525009385C1AB06CE01
:101C6000EF60600C058929C50355240001478146B2
:101C70000546ED45EF5070452AC61DC9973700202F
:101C8000938707D583D7A70201462C002314F100C0
:101C900085472315F10083C741802300F5000355D4
:101CA0002400EF60306409C5ED452800EF50D0599D
:101CB000F2406244056182808280416541119385D2
:101CC000C1AB7D1506C6EF701053B24097360020A9
:101CD000938606D54146954517350020130545CF17
:101CE00041016F70904523A0A18A8280411122C4D6
:101CF00006C6854709446311F5028347060001447F
:101D0000238EF18803C741806378F7001705000030
:101D10001305C5F3EFA080012285B24022444101A2
:101D2000828085476301F50209C909476302E5021C
:101D30000D476306E5020945828083C74180238001
:101D4000F500014582809387C18983C70700C5BF1D
:101D50009737002083D767C82390F500DDB7138736
:101D6000C180035707002392E500173700201307AF
:101D700027C68356A7020357A7032383F5002390A2
:101D8000D5002391E50075BF411106C6953B83C779
:101D90004180637AF5002382A180170500001305B6
:101DA000E5EAEF90B078B240014541018280416799
:101DB0007917630CE502411122C406C685472A84BF
:101DC000639AF50022852244B2409385C1AB41015C
:101DD0006F70704289476396F5008545EF90906F6C
:101DE00075D1B2402244410182808280CC414111B0
:101DF00006C6328503C6150083C5050022064D8E32
:101E000042068D654186138875A2630C060F6348F0
:101E1000C804138845A26306060B634AC80093856D
:101E200035A26309B60623900600294679A01388D7
:101E300055A26308060B938565A2E316B6FEC1455D
:101E40001D4663ECE5064546198E63F3C7003E86E2
:101E50002390C60097C50100938505D089A81388F3
:101E600095A26300060F634E060B1388A5A2630AB2
:101E7000060F938505A5E318B6FA99451D4663EE4E
:101E8000E502198E63F3C7003E862390C600938552
:101E9000418131A89D451D4663E1E5022146198E29
:101EA00063F3C7003E862390C6009385018BBA95E5
:101EB00097200020E78060060146B240328541014C
:101EC0008280AD451D46E3EAE5FE3146198E63F397
:101ED000C7003E862390C60097C50100938585CB39
:101EE000F9B7B1451D46E3EAE5FC3546198E63F3C3
:101EF000C7003E862390C60097C50100938585CA1A
:101F00007DB7C1451D46E3EAE5FA4546198E63F300
:101F1000C7003E862390C60097C50100938505C57E
:101F200079B7C1451D46E3EAE5F84546198E63F3E6
:101F3000C7003E862390C60097C50100938585C7DC
:101F4000BDB7C1451D46E3EAE5F64546198E63F384
:101F5000C7003E862390C60097C50100938545C201
:101F6000B9B7B5451D46E3EAE5F43946198E63F382
:101F7000C7003E862390C60097C501009385C5BC67
:101F80003DB797360020938666BD4146CD4517354F
:101F900000201305A5A96F70501A41654111938562
:101FA000C1AC7D1506C622C426C24AC097340020A3
:101FB000938484BBEF703024973600209386C6CC80
:101FC0004146C9452685EF705017CC4C2A890945F2
:101FD000893B9387C18283D707001384C1AD1387E0
:101FE00001832312F40083D7A40C035707009385C1
:101FF000C1AE2310F40083D7A40D2316E40003D749
:10200000A4102311F4000D4585472303F400231485
:10201000E4002307F400231504002133A2850D45B5
:102020009D2EB24022444A85924402494101828059
:102030008D679387D7A40145631FF6008D47294517
:10204000639BF500854735456397F6008347070096
:102050000145238DF18A82808D679387D7A4631E03
:10206000F6008D47639BF50083C7A18B2300F70023
:1020700085472390F6000145828023900600E5BF46
:1020800082809387418D9C4303C7818C83C63182B4
:1020900001E781473E85828003D607006316A600CC
:1020A00003C66700E308D6FE7D171377F70FA10775
:1020B000C5B7B2862E86AA8517C501001305C5B21D
:1020C0006FA0C17C2A86B305B04017C50100130577
:1020D000E5B36FA0A17B0111930500030D4506CE6A
:1020E000EF30A071930500051145EF3000719305A5
:1020F000C0030545EF30607085471306F100854544
:1021000013055030A307F100EF70F10AF2400561AA
:1021100082808547631AF5001166130686A98945F2
:1021200003C5918C6F10D00089476317F50089456E
:1021300003C5918C6F109016828085476398F500D7
:1021400019E22380B18C238CC18C8280094763986B
:10215000E50011E62380F18C03D5E18B2DA382806D
:102160009387C18C9C43011122CC06CE2E8481CB57
:102170009C4791C78297F2406244056182806C005F
:1021800013057040EF604117324681452285EF60AC
:10219000E157D5B741119397050122C406C6C187FF
:1021A0002E8463DF070003C5918CEF10802619C1D0
:1021B000EF10801F2165218DB240224441018280B1
:1021C00093F7150091CF173600201306A6AC938520
:1021D000418303C5918CEF70E15113451400E9BFB1
:1021E00093F725000145E9DB45361166130686A9FC
:1021F000894503C5918CEF10A073134524006DBF72
:10220000797126D24ECE06D622D44AD052CC9147EE
:10221000AA84AE896314F50483D7A5001306E100F0
:10222000854513055030239FF18A23070100238041
:10223000018CEF7041789387C18C9C4391C7DC4738
:1022400081C7CE8526858297B250225423A2918CD5
:1022500002599254F249624A456182801387418C47
:102260001843E31AF7FC854503D5E18B893685458C
:1022700003D5E18BBD21C16703DAE18BF917631B3D
:10228000FA0205449305E100130550412380018CB7
:10229000A381818223070100EF6001068347E100EB
:1022A000B1E303C7818D9147E317F7F82D35238CF0
:1022B000018C51B79387418D03A9070003C4818C1A
:1022C00069D00355290011C99305E100EF60000AA8
:1022D00009C54C455285EF7000727D141374F40FDC
:1022E0002109F9BF9387018D9C4383C74700898BE0
:1022F000CDDB9305000A0D45EF3020509305000A11
:102300001145EF30804F81450545EF30004F1306F2
:10231000E10085451305503023078100EF70A16966
:1023200049B7011117050000130505E706CE22CCB9
:10233000EF10701A1384918C85471306F1008545C0
:102340002300A40013054041A307F100EF6081635F
:102350007D55EF50E0207D55EF70C0661D31EFF0E8
:10236000DF95CD2C170500001305E5DAEFF0BF97D8
:1023700017050000130505D12126034504008545F6
:10238000EF10A048F24062440561828023A6B18C20
:1023900023A8A18C828023AAB18C2384A18C828063
:1023A000C841011122CC06CE3284034615000345F4
:1023B00005002206498E19CB0D681308B8A42D45D7
:1023C00063090607F2406244056182800D651308C7
:1023D000D5A463000603130825A2630C06017578D3
:1023E0001308E85C3298420813580801854863EEE8
:1023F000080303D5A50036C632C46131B24615C103
:102400009387C18C9C4322468345550003A3070054
:10241000A2876244F2400345450036878546056140
:10242000028323900600014571BF1308B5A463170A
:10243000060303D681821D45E376C7F8198E63D360
:10244000C7003E86CC452390C60042064182BA951D
:10245000228597200020E78040ACF1B79307A5A420
:102460006318F60091472390F6001146CC45CDB78E
:10247000930785906317F60089472390F600094675
:10248000F5B79307E5A4631AF600DC45239016011F
:1024900083C707002300F40079B713057590E31490
:1024A000A6F8D9BF011122CC06CE26CA4AC82317E6
:1024B000D1002D4429EBDC412E89B28403C41700DE
:1024C00083C7070022045D8C8D679386D7A46306BB
:1024D000D400938627A3631FD4020355A900553661
:1024E00019E101440DA09387C18C9C43834555009D
:1024F0000345450003A807002286A6871307E100CD
:10250000814602982A842285F2406244D24442499C
:10251000056182809386C7A46314D4028357E100C7
:1025200005473544E391E7FE034506001304000820
:10253000E3EBA7FC9387C18C9C43DC43829755B7A0
:1025400093862790631AD4028356E1008547EF50A3
:10255000D0022A844DF99387418D8356A9009C436C
:1025600003C7818C3DDF03D627006302D6047D17A5
:102570001377F70FA107FDB79387E7A4E313F4F6EA
:102580008357E10005473544E39FE7F6034506001E
:1025900013040008E3E9A7F6DC452380A70093872E
:1025A000C18C9C433335A0000905DC4341BF138730
:1025B000C18C184303C5470083C5570083C7140067
:1025C0000328070003C70400A2078946D98FC20762
:1025D000C18705476383E7008D460D66A68713070D
:1025E000E10013062690029839BF0145828025E359
:1025F00003A84500AE888347180003480800A207D7
:10260000B3E707010D68930EF8A4639AD7039147C7
:102610003548639FF60203A5C8004111B2851146F3
:1026200006C697200020E780408F9387418E9C4309
:1026300005458297B2400148428541018280930856
:10264000289029486396170185476F5000732D48DD
:102650004285828041654111938541AF7D1506C653
:10266000EF706039B2409726002093866669414634
:102670009945172500201305A56241016F70E02BD5
:1026800023A2A18E82800111938541AF22CC06CE78
:102690002A84EF504069058929C1014781460546D2
:1026A000ED452285EF5060222AC605C997270020F4
:1026B0009387075F83D7A70501462C002314F100F9
:1026C00085472315F100230005002285EF60804136
:1026D00009C5ED452800EF502037F24062440561FE
:1026E000828041677917630CE502411122C406C656
:1026F00085472A84639AF50022852244B240938557
:1027000041AF41016F70202F89476396F5008545E1
:10271000EF90405C75D1B2402244410182808280BA
:102720002384018E23A6018EB717004003A7070C50
:10273000FD76FD16758F23A0E70C03A7070D8566B0
:10274000558F23A8E70C828023A6A18E130640068E
:10275000894503C5218F6F10A01DB717004003A541
:10276000470C83A7470C2981134515001397470190
:1027700005896344070013652500B717004083A748
:10278000470C13973701634407001365450083C75F
:10279000818E638CA7002384A18E01C99387C18E8B
:1027A00003A307006303030002838280797122D4AC
:1027B00026D24AD04ECE52CC56CA06D61379F50050
:1027C000138441B085449389118F138A018F914AF4
:1027D000631009022254B25092540259F249624ADB
:1027E000D24A03C5218F0146854545616F104014CB
:1027F000B3779900A9C783470A0003C709002300DC
:102800000400E58FD98FA388F18E2312D400230111
:10281000C400A300B40099E12300540136C632C4B9
:102820002EC2EF00D07D83470400B2462246924577
:1028300093E7270008C42300F40033499900860475
:1028400093F4F40F310469B79377150089CF854766
:10285000639FF506B716004083A7860A7D777D172C
:10286000F98F23A4F60A9377250089CF85476399CA
:10287000F506B716004083A7860A79777D17F98F8A
:1028800023A4F60A9377450091CF85476393F50615
:10289000B716004083A7860C370780FF7D17F98F96
:1028A00023A4F60C937785001387018FBDC385475A
:1028B000B71600406399F50483A7860CBD9B23A43B
:1028C000F60C834707005D8D2388A18E8280371721
:1028D00000408327870A8566D58F2324F70A61B7CE
:1028E000371700408327870A8966D58F2324F70A84
:1028F00051BF371700408327870CB7068000D58F5C
:102900002324F70C45B783A7860C93E7070123A47C
:10291000F60CC5F9834707001345F5FF7D8D6DB7AC
:10292000011122CC26CA4AC84EC652C406CEAE8970
:102930009374F500138941B00544214A89E8F240B7
:102940006244D2444249B249224A05618280B3F7C7
:10295000840089CFCE85639649018345090093C5DC
:10296000150022852300B900A18CF93D06041374DB
:10297000F40F3109E1B7AA8711C909CA81CA9307BF
:10298000300663E3C7001DB5854559BF81453E85C7
:10299000EDBFA14763EFB70297B601009386862883
:1029A0001397250036971C43411106C6B6978287B8
:1029B0009306803E154685457D3FB2400145410165
:1029C00082809306803E154693052003F5B7893F24
:1029D000EDB701458280B717004003A7070A4111F0
:1029E00022C4056406C6418F23A0E70A03A7070A8D
:1029F00089668145558F23A0E70A03A7070CB70610
:102A000080003D45558F23A0E70C03A7070C1367F3
:102A1000070123A0E70C2937930604FA7946A94554
:102A200005456933930604FA7946A9450945BD3B36
:102A300091451145B93F85452145DD35B2402244D8
:102A4000238A01B24101828083C741B36393071691
:102A500079714ECEC16922D426D24AD052CC56CA00
:102A60005AC85EC662C406D666C26AC0138441B044
:102A7000014C3D498544138A118F930A4006FD1984
:102A8000130B4006930BF00FB3F72401E1C7834704
:102A90000400898BD5CFEF0090561C442A8D6366C5
:102AA000F50E83460400834C240093F71600BDCB3B
:102AB00033079B41F99A81452685937CF70F2300C4
:102AC000D4005933034604009377460099EF8346B8
:102AD0001400638C7601FD1693F6F60FA300D40064
:102AE00089E6134626002300C40083470400898B2F
:102AF000B1C3035744003307970333575703931762
:102B00000701337737016A97C18318C463030C0840
:102B1000A1C33E876373FC006287131C0701135C2B
:102B20000C013DA093E61600854526852300D400C0
:102B3000213B65BF83450A002685E58DB335B0008E
:102B4000893D03470A0093C7F4FFF98FA388F18EEC
:102B500033C92401860493F4F40F3104E31609F217
:102B6000630B0C022254B25092540259F249624A49
:102B7000D24A424BB24B924C024D6286224C03C564
:102B8000218F854545616F00B05A898FC207C18387
:102B9000B5BF3E8C75BFB250225492540259F249CF
:102BA000624AD24A424BB24B224C924C024D456192
:102BB00082808280411106C6EFE0AFF8BD4763F422
:102BC000A700EFE00FF8EFE0DFA0BD4763F4A70038
:102BD000EFE03FA0B24083D5A18903D581894101AF
:102BE0006F00307D411193962500AA852D4506C6BC
:102BF00097100020E780A0FCB2400145410182808F
:102C0000411126C29394250022C44AC02A843289E5
:102C1000A686AA850146254506C697100020E780AE
:102C200000FAA6864A86A285294597100020E780EB
:102C300000F9B24022449244024901454101828098
:102C4000011122CC06CE3714004026CA4AC84EC60F
:102C500052C483447405034AB40583498405034977
:102C60009405EFE08FEB8347A40593F4F40F137AF8
:102C7000FA0F93E71700230DF40493F9F90F137972
:102C8000F90FB717004003C7A705058B6DFF03D5E4
:102C9000C705A38D4705238C3705A38C2705A38B78
:102CA0009704F2406244D2444249B249224A056143
:102CB000828041119397050122C406C6C1872E84E4
:102CC00063DA0700EF00E07419C1EF00E06D2165E1
:102CD000218D39A093F7150081CBBD331345140026
:102CE000B24022444101828093F7250081CFB53460
:102CF0001306000A894503C5218FEF007043134571
:102D00002400F9BF9397250163D00702EF20410CFF
:102D1000553537F60200130606E0896503C5218F95
:102D2000EF00104109656DB7939715010145E3D98F
:102D300007FA17B501001305A5F5EF90D146130664
:102D40000064916503C5218FEF00903E116549B77E
:102D50001D71494697B50100938505EF17B5010030
:102D60001305452086CEEF00B02301E917B5010019
:102D70001305C5EEEF90314301A037F700E0F95796
:102D80005CC7FD571CCB8566B7E700E023A0D710D2
:102D90001306701010C3B8434146B0C323A0D71820
:102DA000B8C30F1000001306C00381454808EF00A8
:102DB0001019972700209387E7413ECA89679387B8
:102DC0000780231CF100ED47A301F1029307A01037
:102DD0002312F102D1472303F102A167938707E091
:102DE0003ECE97070000938727E0BEC497070000F8
:102DF000938747E1BEC685472304F102B547230800
:102E0000F10297F7FFFF938767C33EDAB7F5070034
:102E100097070000938707E33EDE8146970700008F
:102E2000938787D97000E1051945BEC0971000202F
:102E3000E780E0D858088147994670003E960346DF
:102E4000060085070507A30AC700E398D7FED24707
:102E500091C70357810185676373F70001A0480894
:102E6000EF00F06AAA8501C917B50100130545E016
:102E7000EF90D12101A0F640256182804111170514
:102E80000000130545E306C622C4EF00D064138496
:102E9000218F2300A40005203D3EEFF07F880345ED
:102EA00004002244B24037F60200130606E08965AA
:102EB00041016F00F027411122C406C637140040BB
:102EC000930670052300D404130780FA2300E4045A
:102ED0000F1000008347F40293F7A70FA307F40233
:102EE0002300D4042300E4040F1000008347F402FD
:102EF00093E72700A307F40275391305407E2300EA
:102F0000040481470147814605468545EFE0DF908F
:102F10002244B240014541016F10800C82803A8802
:102F20003E8789E6834608006FF08F90854763955A
:102F3000F600C2866FF04F928947639FF6004111F9
:102F40001306401F894503C5218506C6EF00501EA4
:102F5000B24001454101828001458280411117B58F
:102F600001001305A5D422C406C62E84EF901112C9
:102F700093170401C18763DD070003C5218551292B
:102F800011C11D212165218DB24022444101828061
:102F90009377140013451400E5FB9377440099CF11
:102FA00083C721851307401F81462146A14503D5CC
:102FB0000185EF60816D13454400F9B793772400D4
:102FC00013452400F1F3937784000145D5DF03D541
:102FD0000185EF60D1441306803EA14503C52185DC
:102FE000EF0010151345840045B77D15954763ED37
:102FF000A71E17B701001307E7C90A053A951C4138
:10300000797122D406D626D24AD04ECEBA972E84D3
:1030100082872C0013054030EF60310C2C000545F1
:10302000EF30705217B50100130585CAEF901106F5
:103030009D461386818F81452D4597100020E7809E
:1030400000B801449389818F17B90100130989C918
:103050009944B387890083C507004A850504EF902A
:10306000F102E31894FE83C5E18F17B50100130543
:10307000A5C7EF90B10103C7E18F9307A00A631FB3
:10308000F70017B50100130525C7EF90D11117B54B
:1030900001001305E5C7EF9011110DA217B501004E
:1030A000130545C6EF90311085471306710085451D
:1030B00013050040A303F100EF50D10CC9BF17B5B1
:1030C00001001305E5C5C1BF03C7E18F9307A00A3F
:1030D00017B50100130545C2630FF70017B50100CE
:1030E000130545C293044400EF90F10B85E817B532
:1030F00001001305E5C3EF90110B8357A4000D6683
:1031000013060620914503C521852398F184EF001D
:10311000300217B50100130525C5B5BF9307A0FA06
:103120008566014681452545238FF18E9710002045
:10313000E780E0A89375F50F17B50100130545C0AA
:10314000EF90C174A68519461385818F97100020D2
:10315000E780A0DC9D461386818F81452945971025
:103160000020E780C0A59375F50F17B50100130582
:1031700065BEEF90A17151B717B501001305C5BF2A
:1031800019BF83C72500114717B50100130545C0B6
:103190006384E7041947639AE70283C5650017B59E
:1031A00001001305A5C0EF90616E8547300085458D
:1031B000130550302304F100EF60E17FB250225438
:1031C00092540259F249456182801547E39FE7FC1A
:1031D00017B50100130545BFEF90E17CF9B717B5AE
:1031E00001001305E5BF45BD8280011117050000F0
:1031F000130505D706CE22CC26CA13842185EF00FD
:10320000902D2300A400854470008545130550309F
:1032100023069100EF60217A138601849D451305F2
:103220006030EF60417917260020130626AFF14584
:1032300013057030EF60217817B601001306C6A79A
:10324000D5450145EF40E0238D47700091451305BA
:1032500070402305F100A305910002C6230401007C
:10326000A3040100EF5001723000854513050040B2
:10327000EF50417113069100854513051040EF5042
:1032800061701306A100854513052040EF50816F42
:103290001306B100854513055040EF50A16E9947C4
:1032A0007000854505452306F100EFE03FA4EFE0FF
:1032B000DFCE97250020938565A513858184EFF0E7
:1032C000EF8C03450400A1458923F2406244D244B7
:1032D000056182804111814585660146254506C606
:1032E00097100020E780A08DB240238F018E937548
:1032F000F50F17B501001305A5A441016F90015901
:1033000041111305800406C697000020E780206065
:10331000371700408327870A8D451305002093E760
:1033200007202324F70AEFE0AFE2EFE04FFA17B5EA
:103330000100130525C3EF900167EFF07FA1EFF0C7
:10334000FFB3EF60110EEFE0DFFD45359700002081
:10335000E780407A411122C42A84AA85118817B5D2
:103360000100130565A806C6EF90415209C4224426
:10337000B240410185B7B240224441018280170525
:103380000000130565FD6FF02FBC23AC05FE1C414A
:1033900091E7010001000CC18280BA8703A787FF73
:1033A0006DFF23ACB7FE82801DC18346E5FF130786
:1033B000F00F9147639EE600411106C6971000206A
:1033C000E780E056B24081473E85410182809547C3
:1033D0003E85828001E9014582800145B240224458
:1033E00041018280411122C42A84210542059305AE
:1033F000D004418106C697100020E780A04971DD06
:10340000FD5723200500231285002303F500210525
:10341000F1B7138701901C43411122C426C24AC050
:1034200006C601440149BA8489E7A165852D0DC40A
:1034300001A803C7E7FF6318A7021DC8A165F1260D
:103440009840832784FF6317E40223A0F190FD577F
:10345000232C04FE230FF4FE2285B2402244924422
:1034600002494101828011E03E8983A787FF6DBF39
:103470003E84E5BF232CF9FED9BFA9C9411122C45E
:1034800006C62A849737002083C797582E8563681D
:10349000F400193F0D45B24022444101828083A7C8
:1034A00085FF99E703C7E5FF9307F00F6305F70072
:1034B000E53D1545CDB7238F85FE13850190F13588
:1034C00022852244B240A165410181A61545828032
:1034D00023A001908280938781919C4399E33E854C
:1034E000828003D727006316B70003C70700E308ED
:1034F000A7FEDC47E5B74111939705014AC006C610
:1035000022C426C2C1872E8963DE0700193711C184
:10351000613D21653345A900B240224492440249ED
:1035200041018280AA860145E5D901443D47B35750
:103530008940858B95CB9387C1908443BD4791E2A9
:103540008147A2978E070545BE9433158500131455
:1035500005019C40C8404180829723A0040023A21B
:103560000400334524014DBF0504E312E4FC01448B
:10357000CDBF973700209387E7459C53411122C464
:1035800006C61384418595C7829723AAA184084063
:10359000B74703009387D73F3305F502B7A7260047
:1035A000938737ECB24022443E9523AAA18441017F
:1035B0008280973700209387A74518409C4BBA9785
:1035C00023AAF184E9B7938741909043973600206E
:1035D00083C61644814713F7F70F6360D70A17377E
:1035E000002003475757914763E0E70A97370020C9
:1035F00083C7075B918BC9EB0111680006CE22CC13
:1036000026CAEFC06042FD56630FD50C324797378C
:10361000002083C7573D63F3E70C173700201307DB
:10362000273F4047173700200347073C6305D40670
:10363000058B21CF51473304E40263F1870A9710C9
:103640000020E780A0B2B2476373F400A287173767
:10365000002003475739998F3E959737002093876D
:1036600067378387470163CD0702B707C0A863693F
:10367000F502B70740573E9525A085071397170019
:1036800032970357E7FF21DB828013079002330450
:10369000E40205805DB762076187635707001D8DEF
:1036A00019E93705C0A801A8E37BF5FE3707C0A8D4
:1036B000B307F7403E95973700209387A731DC5337
:1036C000829709ED97370020938787489C4F99C7C9
:1036D000EF10A125EF10B103EF108119F240624401
:1036E000D244056182809737002093876732DC4798
:1036F000E386A7FE173700201307C72D834647012F
:10370000BA84858A9DC65144338487029737002046
:1037100083C7772DE3F487FC97100020E78000A58E
:103720009737002083C7372C1D8C2295838744014F
:103730001DBF13049002338487020580C1BF2A96FF
:1037400009E582800505A30FB5FEE31DC5FED5BFC3
:1037500081473307F5000307070019E33E858280A0
:103760008507C5BF01112E8626CAAA841315060136
:103770009305F004418122CC06CE32C6971000207A
:10378000E78040112A8419C53246A685970000209B
:10379000E780A0782285F2406244D24405618280AD
:1037A00081476314F600054582803307F5008507DD
:1037B000B386F5000347070083C6F6FFE383E6FE02
:1037C000014582809307F6FFBE952A966313C500D4
:1037D0008280FD1583C715000505A30FF5FEFDB713
:1037E000814711E9014582803307F500034707004F
:1037F000E31AB7FE8507E319F6FE05458280973781
:1038000000209387E720884B82809737002083C76A
:103810003720637FF5001387419093171500084305
:103820003E9583570500DD8D2310B500014582804C
:103830000D458280FD570111173700202320F71E08
:103840009387819122CC80434EC69739002093897B
:10385000691826CA4AC852C456C206CE5AC02A8916
:1038600081444E8A973A0020938A8A1A18448147E5
:103870006374E900B307274103A749021CC409CBBD
:1038800003A7CA0063F6E700173700202328F718BC
:10389000A1E7835524009DE95C44A1E823ACF190A5
:1038A000032BC400228597100020E78040085A842B
:1038B00055FC83274A0285CF6244F240D2444249F4
:1038C000B249224A924A024B0561F5B90345040008
:1038D0002D3F5C4081CB1CC483572400D5DFA284DC
:1038E0004044F9B71C44CDDBC5BFDCC455BFF24032
:1038F0006244D2444249B249224A924A024B05618B
:1039000082809737002083C7B7106371F502138751
:10391000419093171500084393C5F5FF3E958357D3
:103920000500FD8D2310B500014582800D45828084
:103930009737002083C7D70D6364F5000145828067
:10394000411122C426C24AC006C62A842E89B284E6
:10395000EFF07FB801C504C505452DA0936504F0BF
:10396000C205C181414597100020E780A0F20DE11A
:1039700097370020938707069C5B81C7A285114576
:1039800082970145B240224492440249410182801B
:10399000938781919C438DE323ACA1908547232697
:1039A000050004C52311250123008500A300F500AF
:1039B0002322050055B7BA87D84775FFC8C7F9BF96
:1039C00045C539715AD0138BC19022DC26DA4AD80A
:1039D0004ED652D45ECE66CA6AC86EC606DE56D2CF
:1039E00062CC3689328AAE89AA8401445A8DB94D97
:1039F000854BF94C03270B00131C3400937AF40F0A
:103A000062971C43A9EF13B5FA0013451500B3974D
:103A10008B0063F65D01930714FFB397FB0093954A
:103A20000701C181528629371DC983270D00014531
:103A3000E29784C323A237016304090023005901DC
:103A4000F2506254D2544259B259225A925A025BED
:103A5000F24B624CD24C424DB24D21618280050442
:103A6000E31A94F92145E9BF09458280411122C436
:103A700026C24AC006C6AA842E893284553DCA850C
:103A80002685EFF05FA509C940C10145B240224437
:103A900092440249410182802145CDBF411122C497
:103AA00026C24AC006C6AA842E89EFF0DFA22A8465
:103AB00019C1231105009737002083C767F5639468
:103AC000970023982191CA852685253D014511E05F
:103AD0001945B2402244924402494101828075470F
:103AE000636BA7041387C1901443411126C293143A
:103AF0003500A696944222C406C6AA873A84094590
:103B000095C613B5F7003947134515006373F700E1
:103B1000C5178545B395F500C205C18141371C40E5
:103B20000145A69723A0070023A20700B240224424
:103B300092444101828009458280411106C6EFF01E
:103B40009F9909C50845B240410182800145E5BF02
:103B5000F54763EDA7049387C1909C431317350085
:103B6000BA979843894721C7011126CA06CE9334D4
:103B7000F50022CCB94793C4140063F3A7004515A0
:103B800005443314A400420441802EC62685A28534
:103B90006D378947324609C5A2852685513B814745
:103BA000F2406244D2443E850561828089473E8569
:103BB00082802394A1902395B1908280411106C602
:103BC00023AAA1900295B2409737002023ACA7E426
:103BD000014541018280994763E9B7008A0597371B
:103BE0000020938727E5BE9588C18280411106C6D3
:103BF000EF60210A7146814517350020130585E3E2
:103C0000EFF0FFB31306400281451735002013057E
:103C100025E0EFF0DFB223AC019023AA01909737A3
:103C2000002083C7E7DC13D527008D8B3E958D4799
:103C30003305F5029305101035051375F50F973709
:103C400000202388A7DC99473305F5021305050FEB
:103C500097100020E78000C423A6A19035C999479A
:103C6000173600200346E6DA3306F60281451306CE
:103C7000060FEFF0DFAC9387C1909C439387070F4B
:103C800023AEF190173700200347A7D80A07BA9749
:103C900023A2F190EFF0DF835D269387C1919843D3
:103CA0009737002083C7D7D693962700BA96170672
:103CB00000001306868490C293862700850793F739
:103CC000F70F8A0797350020A384D5D4BA9790C3FD
:103CD000B240410182809737002083C777D31737DE
:103CE0000020034707D363F1E7021387C19118430C
:103CF0009386170017360020A30CD6D09396270082
:103D0000369708C33E8582809307F00FE5BF1C41BC
:103D10006381071A41777D8FB70600208947631BAF
:103D2000D7180357450063070718411122C41946E5
:103D30002A849305F00F590506C6EFF07FAA0547C0
:103D40008D476303E5161C4481CB58589947630D92
:103D50000714185C630A07141306C003814517355E
:103D60000020130525C7EFF09F9D1306C003A28511
:103D700017350020130505C697000020E780E019DD
:103D80009737002083D7C7C597360020938686C40F
:103D900099E793070010173700202313F7C49737CC
:103DA000002083C707C491E7854717370020230AFF
:103DB000F7C29737002083C7D7C291E7ED4717377F
:103DC0000020A300F7C29737002083C7A7C191E75F
:103DD0009547173700202307F7C09737002083C780
:103DE00077C091E7854717370020A30DF7BE9737B7
:103DF000002083C777BF99E783C7060117370020E4
:103E0000A304F7BE9737002083C7E7BD91E7D147EA
:103E1000173700202309F7BC9737002083C767BDF9
:103E200095E717370020034727BC131687016186E3
:103E30009307C002634806009377170093B71700F3
:103E40009387D702173700202305F7BA973700204A
:103E500083C777B995E7173700200347E7B81316EC
:103E6000870161869307C0026348060093771700B5
:103E700093B717009387D70217370020A305F7B62B
:103E80008347D40191E7894717370020A302F7B68B
:103E90009C5691C7829797370020239EA7B6B933C7
:103EA000FD57A382F1A88147B24022443E854101DB
:103EB000828089473E858280011122CC06CE2A84E9
:103EC0002EC6EFF00FEBB245F240818D33A5A5026F
:103ED000229562441375F50F05618280011122CC91
:103EE00006CE2A842EC6EFF0CFE8B245F240818D8F
:103EF00033A5A50222956244420541810561828075
:103F0000011122CC06CE2A842EC6EFF08FE6B245F0
:103F1000F240818D33B5A50222956244056182800D
:103F200097370020938707AB985725C3411122C4C8
:103F300026C206C6BE840297173700200357A7ADD6
:103F40002A8441C7BA876373A700AA87C207C183BF
:103F5000BA866373E400A286C206C182958F514778
:103F60006355F706DC5491C38297854717370020C5
:103F70002304F7BEEF00D16597370020239D87A863
:103F8000B24022449244410182809737002083C787
:103F9000A7BC9DE797370020938787BB83C797000F
:103FA000850793F7F70F17370020A307F7BAA18B00
:103FB0009DC78547173700202310F7BA6F00316778
:103FC00097370020A38A07B8D5BF9737002083C74B
:103FD000A7B8DDD72244B24092444101C5B78280E0
:103FE000973700209387079FD857011122CC06CE20
:103FF0003E8401C72AC60297324511CD23A0A19263
:104000001705002013050518EFF05FBBF24062446E
:104010000145056182808307440163DD070097370E
:10402000002023A307A0970700209387471023A011
:10403000F192F9B79707002093874713CDBF01117D
:1040400022CC173400201304E498084406CE26CA74
:104050004AC801E90545F2406244D244424905613B
:1040600082805C58E5DB185C75D7700085458297C7
:104070001844B247E300F7FE9305E004173500202B
:104080000355059697100020E780C0801737002061
:10409000232EA79861D11736002003566694930506
:1040A000F00FEFF0CFE9814417390020130949964A
:1040B0009737002083C7E7920326C90163C1F40242
:1040C000328597100020E7808086014597370020D1
:1040D00023AE07949737002023AC0794ADBF9735E4
:1040E000002083D5E58FB38795020844185C898149
:1040F00085043E9508C2029765BF411122C417345A
:1041000000201304248D1C4426C206C64AC09734DE
:1041100000209384E48F91EBC84C35E9B2402244EF
:10412000924402490145410182801C5CF5D7DC4C78
:1041300099EF9305E004173500200355658A970031
:104140000020E78020759737002023A1A78EC84C58
:1041500061D5173600200356A6889305F00FEFF0BF
:104160000FDE01499737002083C7A787D04CE3555E
:10417000F9FA9735002083D5A586338525031C449D
:10418000898105093E951C5C08C28297E1BF9700B2
:104190000020E780C0799737002023A90788973748
:1041A000002023A707889DBF011156C2973A00201F
:1041B000938A4A8283A78A0022CC4AC84EC606CE7A
:1041C00026CA52C45AC0AA892E843289638507221E
:1041D00003A74A03630707147D476366A714973450
:1041E00000209384E48203AAC40163170A0A956538
:1041F000938515E0172500200355857E9700002044
:10420000E78040699737002023A2A7822A86630AA5
:10421000051083A74A0303A58A009725002083D5AC
:10422000257C8981829783A78A0003AAC401172766
:104230000020232FF77E8947639CF908C14763124A
:10424000F40E9725002083D5A579938505FC914729
:10425000B3C5F5028A05D29503C705009307A005EB
:10426000631DF70A83C715006399370B4A852286B9
:10427000910597000020E78040CADC4C528563938B
:1042800047150145F2406244D2444249B249224AAC
:10429000924A024B056182809850E38EE7F895655B
:1042A000938525E01725002003558573970000208E
:1042B000E780405E2A8A35C52A8683A74A0303A57C
:1042C0008A009725002083D5A57189818297A5B79B
:1042D0008D47639DF900C1476315F40497250020BD
:1042E00083D50570938545FDF199B5B79147639ADC
:1042F000F900631834039725002083D5656EA11556
:10430000E5B7C147639FF900A14763EC8700972594
:10431000002083D5E56CC115C1BFDC4C5285639785
:10432000470D294585B71307F006568B6361A70A29
:10433000130A05FE1947334AEA02172700200357DC
:10434000276A972A0020938AAA6C330AEA023E9AC7
:1043500083A70A026395470183A4CA019DE49305DC
:10436000E004172500200355A56797000020E7808B
:104370006052AA845DD583274B039725002083D5FF
:1043800025662A8689815285829791451307A00563
:10439000898193972500A69783C607006393E60457
:1043A00083C61700639C360385058A052286A69579
:1043B0004A8597000020E78040B683A7CA01E382C0
:1043C00097EC268597000020E78060565DBD1307B7
:1043D000E007E368A7F4130A05F985B783D527003A
:1043E00045BF83A7CA01E38E97F226859700002078
:1043F000E780E0533DB79727002093876761CC4F54
:104400008DD191479306A0058983139727002E9796
:1044100003460700E317D6F003461700631C360176
:1044200085078A072286BE954A8597000020E78087
:10443000C0AE81BD83572700C1BF97270020938757
:104440006759984739C79C5FA9C705476313E504B7
:10445000411122C4172400201304845B504C06C66B
:104460000DC608509725002083D5855789818297EE
:10447000484C97000020E780804B9727002023A717
:10448000075A9727002023A5075AB240224441012A
:10449000828082800111172700201307A7534EC680
:1044A0008329870022CC26CA4AC806CE52C456C2E7
:1044B000AA842E843289638A09201C5FBA8A99EB08
:1044C0002945F2406244D2444249B249224A924AC2
:1044D000056182805C5BEDD7FD4763E9A70E9729F4
:1044E00000209389E95283A7C901B1CB03A58A00B3
:1044F00083A709026395A70689476393F408C14718
:10450000E310F4FC172500200355854D9147130552
:1045100005FC3345F5029317250003A5C901228642
:10452000CA853E959307A0052300F500A3009500DA
:10453000110597000020E780409E014559B793057B
:10454000E004172500200355A54997000020E780C7
:1045500060349727002023ABA74C49F995B783A770
:104560004A0303A6C9019725002083D565478981A1
:10457000829783A78A0017270020232BF74AADBF15
:104580008D47639EF400C147E31CF4F21725002019
:1045900003550545130545FD9377C5FFBDBF9147FD
:1045A000639AF400E31E94F0172500200355454359
:1045B0002115DDB7C147E395F4F0A147E3E287F0A9
:1045C000172500200355C5414115F9B79307F0069B
:1045D00063EAA706930705FE1947B3C7E702172743
:1045E00000200357E73F172A0020130A6A42B387C7
:1045F000E702BE998327CA01A9CF83270A02639ADB
:1046000037070325CA0191461308A005FD5593D726
:104610002600C207C183139727002A970346070085
:10462000631D060783481700035627006395980605
:10463000B306D64063CF860485078A072286CA85DB
:104640003E95C5BD9307E007E3ECA7E6930705F9A0
:1046500079B79305E00417250020035565389700C6
:104660000020E78020239727002023A1A73C51F5B5
:1046700081BD83A74A030326CA019725002083D55D
:10468000253689814E8582979727002023A2373BC4
:104690008DBFA300B700B2869DBFB38586001726E5
:1046A00000200356E6339105130606FCE3FAC5E045
:1046B000130634001376C60F1106B29623000701C5
:1046C000A30097002311D70085BF97270020938769
:1046D0002734D44FBE89A1C203A5C901914613084E
:1046E000A005FD5593D72600C207C1831397270065
:1046F0002A970346070063160605834817000356EA
:10470000270063989800B306D640E3D786F2A3004B
:10471000B700B286C1BF8357C700172500200345E5
:10472000452C9305E0043305F502420541819700CD
:104730000020E78020169727002023A9A72E49FDF7
:1047400041B3172600200356A6299725002083C5CC
:104750004529B385C502338686001106E3E2C5D636
:1047600081BF01458280011106CE2EC6EF70C04583
:1047700001C9B245F2400355250005616FA0807460
:10478000F240494505618280A38601942386019405
:1047900023AA019223AC019223AE019223A001949B
:1047A00023A8019223A60192972700209387472AE6
:1047B0003707B40098C33747A000D8C337071000A5
:1047C0009306070A94C7B7065000C106D4C79306DC
:1047D00007054107D8CB3707D007410798CF3707E0
:1047E000840398D337C70700130707B8D8D34167A6
:1047F00094CB93060701130717F8D8D7370781FF23
:1048000098DB7D5723AE070094D7239AE702828076
:10481000011126CAAA84214522CC06CE2E8432C696
:1048200036C43AC2EFE01FBB1DC9A246124732464A
:10483000930700FD2300F5009947A300950023018D
:10484000F5002303D500A303E5002312C500AA85C4
:1048500022856244F240D24405616FE01FC2F240FB
:104860006244D2440561828023AAA192828023AC53
:10487000A192828023AEA192828023A0A194828003
:10488000011122CC4AC806CE26CA2A890144B304A3
:1048900089006368B400F2406244D2444249056131
:1048A00082802EC6EFE0FFCC93170501C183A18360
:1048B000B2452380F4009307140093F7F70F8504A3
:1048C00063F9B700CA9709042380A7001374F40F93
:1048D0007DBF3E847DBFC167172500200355251B82
:1048E000FD176302F502411103C6819D9385419432
:1048F00006C6EF70A00EB240FD5717270020231800
:10490000F71841018280828009C925151375F50FBA
:104910001335850E13451500828001458280238062
:104920000500F94763E2C708797122D426D24ECE3A
:1049300056CA5AC806D64AD052CC5EC63684B28908
:10494000AE8A2A8B814463FF3405B307940003CAFF
:104950000700138914001379F90F63050A04B307DC
:104960002A0163C1F904B307240183CB07005E85E4
:10497000613F0DC99307FAFF2380FA0063906B0330
:10498000130519002295B250225492540259F2494B
:10499000624AD24A424BB24B45618280D29493F430
:1049A000F40F55B70145C5B701458280411126C2B4
:1049B000AE8422C49727002023A2C70E9727002089
:1049C00023ACB70C9727002023A6A70C2A844146C6
:1049D0009305F00F26854AC006C60549EFE05FE063
:1049E000631E2503972700209387070A884BC1453C
:1049F000413D41469305F00F2285EFE07FDE85447F
:104A0000631695022244972700209387E707B24058
:104A100092440249C847C14541019DB5414681457F
:104A20002685EFE0FFDBE31625FD6DBF414681459E
:104A30002285EFE0FFDAE30795FCB240224492447E
:104A4000024941018280411122C426C22E84AA84D7
:104A5000130600028145172500201305E50206C64E
:104A6000EFE0FFCD97270020A3819702A38D819CC3
:104A7000EFA0C046854719C181474945B24022444D
:104A8000172700202302F7009244410182808147CA
:104A900081CD19C98547631BF50083C7550093E78E
:104AA00007FCA382F50085473E858280894763170E
:104AB000F50083C7550093F7F703E5B70D47854722
:104AC000E314E5FE03C755001377F70313670704E4
:104AD000A382E500D1BF81478DC105C103C7550041
:104AE0009306000C85471377070C6308D7009306DD
:104AF00000048D476303D70089473E8582804111BA
:104B000022C4005D06C626C21DC8AA84085009C575
:104B100097000020E780A0E1485009C597000020D9
:104B2000E780E0E0085409C597000020E78020E016
:104B3000228597000020E78080DF23AC0402B2408A
:104B4000224492444101828009ED9727002083C7C7
:104B5000C7F3172500201305A5F481CB13854192D7
:104B60008280172500201305A5F3828017250020D9
:104B70000345A5F18280972700209387E7F0C84777
:104B8000828097270020938727F0884B8280972781
:104B90000020938767EFDC4B8843828097270020B3
:104BA000938787EED84B1C4385071CC3172500202D
:104BB0000345B5ED9307F00F6305F50091656FE0D0
:104BC000DFC48280011122CC06CE2E8432C6EF7063
:104BD000E00E9147B245631FF500938701949C4313
:104BE0008DC303A30700630E030022856244F240D5
:104BF00005610283938781939C4381C703A3470088
:104C0000DDB7F2406244054505618280011122CC86
:104C10002A840355450006CE26CA4AC84EC6EF6010
:104C2000D06A35C52A89834405008349C500C13D42
:104C30004A85EF70306203554400EF70A00383C7CC
:104C4000C194B1CB6399970483C5D1942685EFF0C5
:104C50009FB119E12386019403554400EF700006CB
:104C60009147631FF500035744009727002083D71F
:104C700007E26317F700FD57172700202319F7E015
:104C8000F2406244D2444249B2490561828081497E
:104C90009304F00F6DB79307F00FE38FF4FA834698
:104CA000640003564400034524004E87A685EFF0B8
:104CB0003FB65DB779715EC6AA8B2E8552CC56CAB7
:104CC0005AC806D622D426D24AD04ECEAE8A328BCD
:104CD000368AEF60905F6DC1045D2A89F1CC9C50EB
:104CE000614599C3130540039C5481C75105420592
:104CF000418163050A00710542054181DC5081C78D
:104D0000590542054181EFE0EFEC2A8455C5614623
:104D10008145EFE0DFA29729002083C969D663941B
:104D2000090083490900930700FD2300F400A94707
:104D3000A30074012301F400230364018C502312A7
:104D400054011305840191C908C47146930A4403B0
:104D500097F0FF1FE780601C56858C5491C948C4AA
:104D60005146930A450197F0FF1FE780001B5685C7
:104D7000630C0A0008C87146D285930AC50197F0F2
:104D8000FF1FE78080195685CC5099C548C8594601
:104D900097F0FF1FE7806018A2854E85EFE0EFEDEA
:104DA0002254B2509254F249624AD24A424BB24B18
:104DB0004A8502594561A1B3B25022549254025916
:104DC000F249624AD24A424BB24B4561828001119C
:104DD0004EC6AA892E854AC806CE22CC26CA2E895E
:104DE000EF60B04E31C59724002083C464C999E0B8
:104DF000834405001945EFE0EFDD2A8415C981459C
:104E00001946EFE0DF93930700FD2300F400B94754
:104E1000A30034012301F40023122401A28562447B
:104E2000F2404249B2492685D24405616FE0EFE481
:104E3000F2406244D2444249B249056182803971EC
:104E40005ECEAA8B2E8526DA4ED652D456D25AD0B2
:104E500006DE22DC4AD8AE84328BB68A3A8ABE8914
:104E600042C6EF60904631C92A894145EFE08FD6AE
:104E70002A8421C541468145EFE07F8C172500201B
:104E8000034505C019E103450900930700FD230010
:104E9000F400BD472301F400B247A30074012312BC
:104EA000940023046401A304540123054401A305D1
:104EB00034015CC4A285EFE04FDCF2506254D2545E
:104EC0004259B259225A925A025BF24B21618280B6
:104ED000797126D2AA8439454AD04ECE06D622D43C
:104EE0002EC6B2893689EFE0EFCE21C1B2459307D5
:104EF000000D2310F500B1472A842312B5002301C9
:104F0000F500CE851905194697F0FF1FE780E000F0
:104F100023062401A2852254B2500259F24913F506
:104F2000F40F925445616FE04FD5B2502254925421
:104F30000259F24945618280172700200347F7B4E0
:104F40009307F00F630DF706411126C2AA84394575
:104F500022C406C64AC0EFE0EFC72A8439C99307C6
:104F600000FD2300F500A30095002301050097250F
:104F700000209385E5B20D05194697F0FF1FE780E5
:104F8000C0F917290020130929B083578900A28589
:104F900017250020034575AF2315F400834719003A
:104FA0002306F4002244B2409244024941016FE0DA
:104FB000CFCCB24022449244024941018280828097
:104FC000011156C2AA8A314526CA4AC84EC652C4E1
:104FD00006CE22CCAE84328AB6893A89EFE08FBF02
:104FE00029C92A842685EF60502E1DCD0345050072
:104FF000930700FD2300F4009D47A3005401230103
:10500000F4002312940023134401231434012315C4
:105010002401A2856244F240D2444249B249224A64
:10502000924A05616FE06FC5172500200345F5A57D
:10503000C1B7F2406244D2444249B249224A924A3C
:1050400005618280397162CC2A8C594526DA4AD8AA
:105050004ED652D456D25AD05ECE06DE22DCAE8474
:1050600032C636C4BA8B3E8BC28A468A8359010443
:1050700003494104EFE00FB635C53246930700FD02
:10508000A2462300F5009547A301C500A3008501B2
:105090002301F5002A8419461105A9C2B68597F0A7
:1050A000FF1FE78080E723066401230A24012315FC
:1050B0007401231754012318440123193401A285D4
:1050C0006254F2504259B259225A925A025BF24B40
:1050D000624C2685D25421616FE02FBA8145EFE002
:1050E0000FE6D1B7F2506254D2544259B259225A03
:1050F000925A025BF24B624C21618280972700201A
:1051000083C7A7988DCB4111AA8519461385419273
:1051100006C697F0FF1FE78040E093854192172570
:10512000002003458596EFF09F96B240138541928B
:1051300041016F90705B0145828017270020034773
:10514000D7949307F00F6305F708411126C2AA848C
:10515000294522C406C6EFE0EFA72A8429C1930798
:1051600000FD2300F500A1472301F500A3009500F1
:10517000972700209387479183C727009385419203
:105180001105A30FF5FE194697F0FF1FE780E0D841
:10519000A285172500200345558FEFE00FAE172796
:1051A00000200347878E8D47631FF7009387C193C5
:1051B0009C4391CB03A38700630703002244B240C2
:1051C000924441010283B2402244924441018280D0
:1051D000172700200347678B8D47631AF7009387D3
:1051E000C1939C4389C703A38700E31D03FC82800E
:1051F000797122D406D626D24AD04ECE52CC09445A
:1052000045C92A89035505002E8A5144EF60F00BE9
:10521000AA8459CD83C7B19DFD1793F7F70F0547B2
:1052200049446377F7080347C500A1476314F700B3
:1052300063100A089C5C4544A5EF91659385457110
:105240001305C00297F0FF1FE780C06488DCAA89BD
:105250004D4439CD1306C0028145EFE04FCE835750
:1052600009009386490036852391F900714693051C
:10527000490036C697F0FF1FE78020CA8947238080
:10528000F90003C5C400B24603560900611583C581
:10529000819D13351500EF90001A2A8463060A00D9
:1052A000D2852685EF70302601C42685EFF03F8534
:1052B0002285B250225492540259F249624A456101
:1052C000828083C7B19DFD1793F7F70F0547637879
:1052D000F708894751C6011122CC26CA4AC84EC6D2
:1052E00052C406CEAA89368AB2842E89EF60E07D48
:1052F0002A84D14729C9485509C597F0FF1FE7807F
:105300000063F1452685EFE0EFC548D4CD4705CDD4
:105310008346C40021478147639FE600630D0A006E
:105320000347A5010356050193062501AA854E856D
:10533000EF704015AA8703474400630F0900136705
:1053400067002302E400F2406244D2444249B24979
:10535000224A3E850561828013674700DDB7C94751
:105360003E858280E54763EBA7009717002093876F
:10537000276E06053E9503550500828041657D1523
:105380008280011122CC2A842E8526CA06CEAE84C4
:10539000EF60A0730DCDB7470F009387F723094542
:1053A00063E2870281450A854146EFE04FB9A68551
:1053B000231081000A85418023018100A30101009F
:1053C000EF80D069F2406244D24405618280494551
:1053D000D5BFA38CA19C82806F80B07E797152CCA6
:1053E0002A8A328522D426D24AD04ECE56CA5AC8EC
:1053F0005EC606D662C4AE8BB28A368BBA843E894C
:10540000C2894684EF60606C15C92A8C63140A0255
:1054100013774B008347450015CF93E727012302FD
:10542000FC008DEC631C0902639A090205E8ED9B00
:105430002302FC00832B8C03639F0B06B250225483
:1054400092540259F249624AD24A424BB24B224C20
:1054500045618280F59B93E70701D1B793E7470049
:105460002302FC0001CC1C484146A2852324FC02F7
:1054700013058C0197F0FF1FE78020AA63910B02B0
:10548000D5D80325CC0209C597F0FF1FE780204A35
:10549000F1452685EFE00FAD2326AC0261BFE30B9B
:1054A00009F80325CC0209C597F0FF1FE7802048C3
:1054B000F1454A85C5B79DC483A70B0299EB916559
:1054C00093853571714597F0FF1FE780A03C23A0BD
:1054D000AB0203A50B0219C57146A68597F0FF1F05
:1054E000E780A0A36388090283A74B0299EB91652B
:1054F00093852571594597F0FF1FE780A03923A2B6
:10550000AB0203A54B0219C55946CE8597F0FF1F84
:10551000E780A0A01DC483A78B0299EB91659385BA
:105520001571514597F0FF1FE780C03623A4AB02E9
:1055300003A58B0219C55146A28597F0FF1FE7808E
:10554000C09D2254B2509254F249B24B224CCA86AA
:105550005A860259424BD6855285D24A624A4561E3
:105560006FF04FF5011126CA52C406CE22CC4AC8AC
:105570004EC62A8AAE84EF60405525C5AA893945B2
:10558000EFD05FE52A8431CD171900200349494F38
:105590006314090003C909009307000D2310F400E8
:1055A000AD472301F40093856900130534001946C3
:1055B00097F0FF1FE780609693F714008580858839
:1055C0002306F400A306940023154401A285624437
:1055D000F240D244B249224A4A85424905616FD01D
:1055E000DFE9F2406244D2444249B249224A0561AD
:1055F00082809387C192884301CD411106C697F0FE
:10560000FF1FE780C032B24023A601924101828091
:105610008280011106CE22CC26CA4AC82EC6EF606F
:10562000C04A39CDB2451719002003496945AA84FB
:105630000CD563140900034905004145EFD09FD9FB
:105640002A841DCD9307000D2310F500A5472301E3
:10565000F50083C75400938564001105A30FF5FE80
:10566000194697F0FF1FE780408B9C54A285F240BB
:105670005CC46244D2444A85424905616FD0FFDF71
:10568000F2406244D244424905618280797122D459
:1056900006D62A842EC6EF6040430DCD8346C50052
:1056A0001147AA8749456393E6029C5FB24599C3B7
:1056B00083C567010808EF70006E97860000938627
:1056C00086F6100889452285EF609060B25022541A
:1056D000456182805145DDBF83C7B19DFD1793F7BA
:1056E000F70F0547637AF704894721CA411122C49D
:1056F00026C24AC006C6B2842E89EF60003D2A84C5
:10570000D14705C5630809008347450093E7270093
:105710002302F5004146A6851305840197E0FF1F8B
:10572000E780A07F9C481CD48147B2402244924429
:1057300002493E8541018280C9473E858280797158
:1057400022D406D62A842EC6EF60203801CDB24579
:105750002285230EB1006C08EF706057B2502254BE
:10576000456182805145DDBF6F60004BC167138783
:10577000E7FF6394E502938781939C4391EB49454E
:1057800082804945B24022449244024941018280CC
:1057900003A30700E30503FE0283411122C426C2CE
:1057A0004AC006C6FD172A892E84B2846395F50285
:1057B000938781939C4391CB9C4381CB829711E546
:1057C00023862195A386919475BFA6854A85EFE02F
:1057D0009FF94DF9F5B72E85EF60202F5DD18347F6
:1057E00005000D45E39027FB22852244B240024983
:1057F000A685924441016F90E06C65476362A704FF
:105800004111416722C406C626C27D172A84094574
:105810006383E502C547AE846315F4002E85EF90DF
:105820002072931714001714002013046422A29707
:10583000239097000145B240224492444101828066
:1058400009458280011106CE2AC6EFE0FFF3EF1072
:105850008003EF00E075EF30117E3245971700208E
:1058600093878722130700F02391E7002382070024
:105870007D579387819DA380E7002380A700F24096
:10588000954505616F4030401D7193970501CAC869
:1058900086CEA2CCA6CACEC6D2C4D6C2DAC05EDE3E
:1058A00062DC66DA6AD8C1872E8963D0074C03C5EB
:1058B000819DEFD01FB68964416A856A797B2A840D
:1058C000938BD4007D1AA50A691B15E02165334529
:1058D000A900F6406644D6444649B649264A964A47
:1058E000064BF25B625CD25C425D2561828083473D
:1058F00004001307200A639DE70003552400171CCA
:105900000020034C9C182286D285EFF0AFAB3DAA55
:105910001307100903CC919D6397E7168347140082
:105920001547639EE7002285EFF04FAE2285EFD04A
:10593000BFA703C5819DEFD0DFAD2A8479B7394772
:105940006399E71603554400631B55050C4483C94E
:105950000500639D0900850591C9194617150020AA
:105960001305051497E0FF1FE780205B1717002041
:105970000347871185476318F710638A0900971753
:105980000020238307104E85EFF00FDB45B78947D2
:1059900017170020230AF70EEF90C05441BF9387DA
:1059A0002400631AF50683298400638E090C83C7DB
:1059B00009008DE383C7290003C71900A207D98F07
:1059C000171700202316F70C83C73900171700207C
:1059D000A30CF70A171700200347070B8947631426
:1059E000F70A83C7090081CB97170020238E070889
:1059F00003C5090051BF8D479715002083C5D50801
:105A0000171500200355C50817170020230EF706A9
:105A1000EF40702AF1BF938754006318F5001C44CF
:105A200003C50700EFF06FF111B7B3076501C207B7
:105A3000C1831147636FF7009387C1939C43E3874A
:105A400007EE9C43E38407EE22858297E31005EE80
:105A50001DA89387B400631FF500938741939C436F
:105A6000E38607EC9C43E38307ECA2851385B4002F
:105A70008297E9BF9387C4006310F5021C4483C773
:105A80000700E38507EA9307F00FE301FCEAA2852C
:105A90006285EFD09F9E71BD9387E400E315F5FE0C
:105AA000938781939C43E38307E8DC43A285E9F372
:105AB000B5BD3D476397E70403554400E30275FF16
:105AC00093879401E30EF5FC93873401E31DF5FA07
:105AD0009717002083D7A7FB639E47019387819385
