:040000006F10801EDF
:1000040000000000000000006F0080086F00202541
:1000140000000000000000000000000000000000DC
:1000240000000000000000000000000000000000CC
:100034006F004006000000006F00E00500000000B3
:100044006F0080056F0060056F0040056F0020059C
:100054006F0000056F00E0046F00C00400000000A2
:100064006F0060046F0040046F0020046F00000400
:100074006F00A0266F00C003000000006F00600343
:100084006F0040036F0020036F0000036F00E00265
:1000940001A001A001A001A001A001A001A001A054
:1000A40001A001A001A001A001A001A001A001A044
:1000B40001A001A001A001A001A001A0B717004068
:1000C400130770052380E704130780FA2380E704ED
:1000D4000F1000002396A70223800704371700405F
:1000E40083472705898BEDDF8357070537170040C2
:1000F40083472705898BEDFF371700408347270582
:10010400898BEDDF035507058280B71700409306FE
:1001140070052380D704130780FA2380E7040F10A7
:10012400000003C6B7041376F60DA385C704238025
:100134000704137605023DCA03C6A700118A1DE20F
:100144002380D7042380E7040F10000003C7A7000F
:10015400136747002385E7009307004B0100010064
:10016400FD17EDFFB7170040930670052380D704F1
:10017400130780FA2380E7040F1000007D8923947D
:10018400A70001000100010001002380070423806F
:10019400D7042380E7040F1000003727004093069C
:1001A4001005A303D78023800704828013760504F7
:1001B4006DDE03C6A700418A1DE22380D704238095
:1001C400E7040F10000003C7A70013670701238586
:1001D400E7009307007D01000100FD17EDFFB7174D
:1001E4000040930670052380D704130780FA238008
:1001F400E7040F1000007D89136505042394A7000C
:100204000100010001000100238007042380D704BA
:100214002380E7040F1000003727004093063005C1
:1002240049B74111814601468145114506C65D2203
:10023400B7170040130770052380E704130780FAFB
:100244002380E7040F10000003C767041367170037
:100254002383E70423800704B2404101828081465E
:10026400014681451145BD22B7170040930670052C
:100274002380D704130780FA2380E7040F100000BB
:100284007D562396C7022380D7042380E7040F10EA
:10029400000003C76704136717002383E704238060
:1002A400070401A0BD473305F50201007D1575FD66
:1002B4008280411122C426C206C6AA84014463175F
:1002C4009400B24022449244410182800504130503
:1002D400803E4204C13F4180DDB7B7170040130799
:1002E40000032388E702854723A6F190730020309A
:1002F400411106C6970000E0E780E006970000E0A1
:10030400E7802030971700009387C744884397F00D
:10031400FFDFE780802E9929FDBF230304809547E2
:100324002303F4802302A480828083076480E3CEC5
:1003340007FE23030480828083076480E3CE07FEE4
:1003440003454480828083076480E3CE07FE230252
:10035400A4808280411126C44AC24EC006C61377C7
:10036400F50BAD47AA892E8995446306F700194514
:100374006D37653F8D444E854D37FD59FD146398A7
:100384003401B240A244124982494101828013558A
:1003940009011375F50F453F2209CDB7011126CC8C
:1003A40006CEB704080051371545853F71376937C4
:1003B4002AC6A53F32459377150089EB13651500CE
:1003C4001375F50FF240E24405618280FD14E9FCE7
:1003D4000145CDBF397126DC4ADA4ED852D656D4FF
:1003E4005AD25ED062CEB7E700E006DE66CC6ACAB7
:1003F400414783AB070422C6B8C37D5703AB07004C
:1004040083AA470023A0E71823A2E718B7170040E0
:10041400130770052380E704130780FA2380E70499
:1004240083C74704130C75FFB684E207137CFC0FE3
:1004340085462A8A2E89B28937240040E1870157EC
:1004440063FA86016308D500894613070002631323
:10045400D5000157D98F93F7F70F371D00402302BA
:10046400FD0411472303E4801305F00F7D35894C07
:100474006D3D63EB8C11B70707003E993787070082
:100484007955637EE902B3079900636AF702A947C5
:10049400631CFA0689E48144493D26850DA0CA857A
:1004A40009454D3D850903C5F9FFFD140509613D65
:1004B40081C49377F90FFDF7D53569FD7D55B717DD
:1004C4000040130770052380E704130780FA238094
:1004D400E70403C74704418B2382E704B7E700E03E
:1004E40023A07705F25023A0671123A25711E254E9
:1004F40032445259C259325AA25A125B825B724C2C
:10050400E24C524D21618280A5476314FA06856945
:100514009307F00FB3869700B374F900B69493C7AA
:10052400F7FFFD8C33F92701416A056C9387F9FFC6
:10053400B3F7270199E363FC340193D94900C14718
:10054400E3E637FF89BF8567C169FD17E1B7130586
:10055400800D638849011305000263848901130532
:100564001008CA85C53B1D3D31D94E99B384344129
:10057400D9B7CA852D45F93BCE94E38E99F0850908
:10058400653BA38FA9FED5BF9307FAFF93F7F70F37
:1005940063ECFC0803475D04B70708001377070200
:1005A40019E3B78707007955E37BF9F0330799001E
:1005B400E3E7E7F089476310FA048980554AE38C3E
:1005C40004ECCA8509457933910903A7C9FF91470A
:1005D4002320E48003076480E34E07FE2303448161
:1005E400FD17EDFBFD14110981C49377F90FE9FFA1
:1005F400753371F5E1B58547E307FAF4CA852D45EE
:10060400913B1389F4FFE38804E83D339377390081
:1006140091EB8326048003A7090093874900E39D97
:10062400E6E6BE89CA84F1BFB5476316FA0013052E
:10063400900BE5318DB5B1471305B00AE30BFAFE13
:100644009947631EFA02CA852D45293381440D4C0E
:10065400214ADD31639684018327048023A0F900B5
:100664008504E39844FF8327048013172901635505
:1006740007002392F90005B523A2F90029BD9D477F
:100684006319FA0281451305B004E931BD4423A07E
:10069400090023A209007D59453193F77400CE97D0
:1006A40003C70700FD14398D2380A700E39624FFB8
:1006B400DDB3A1476312FA04D5318144630D090007
:1006C4008D479304C0036308F90093040005630491
:1006D4009901930440041375C507E30E95DA19458F
:1006E4002D39A131054515392685B1390945A13979
:1006F4007531E31205DAD9B391476319FA0013058A
:10070400600621391D311305900925B7E3050AD880
:10071400F15459B309CDB71700401307700523806E
:10072400E704130780FA2380E7042396A702828054
:1007340019C1814799E982803387F5008346070010
:100744003307F50085072300D700E397C7FEE5B715
:1007540019C1FD5781E98280910503A7C5FF1105E1
:10076400232EE5FE7D16E319F6FEF5B7797122D442
:1007740017340000130484B81C4006D626D24AD08D
:100784004ECE91C782979737000023A907B65C40E5
:1007940089CB03D5C192BD3F5C40829703D5E192DA
:1007A400953F1C40639907189737000083C717C704
:1007B400858B95C797370000A38207C617370000BB
:1007C4000347F7C5914763FCE700792B973700008F
:1007D40083C7F7C4F9178A07A2979C438297973770
:1007E400000083C767C8918B89C7972001E0E78021
:1007F40040B31C4491C382979387819298431736E0
:100804000000034676AD3E89973400009384C4AC5F
:100814009737000083C747AC93961700BA9683D6E0
:100824000600638006109737000083C7E7AA63F2C7
:10083400C70886073E97835507002310070003D592
:10084400C1922EC6239A0192F135938701949C4359
:1008540017350000034545A813172500BA979C4394
:10086400B2458297AA8903D5E1926D359737000086
:1008740083C787A6139717008327090003D54193DD
:100884001345F5FFBA9703D7070033753501598D22
:100894002390A70083C70400850793F7F70F173742
:1008A4000000230BF7A2173700000347F7A263E603
:1008B400E70097370000238107A21C40ADEF938720
:1008C400819398433E8425CB9737000083C777B53F
:1008D40091CB9737000083C797B489E7971001E05D
:1008E400E780E0541C4082972A8431C59C48AA972B
:1008F40017370000232AF79E9387C1939C4385CF23
:1009040003D5C192013D2285970000E0E780401A9B
:100914002254B25092540259F24903D5E1924561EE
:10092400D5BB850793F7F70F973600002386F69A11
:10093400E3E0C7EECDBDB250225492540259F249BD
:10094400456182809167B7C600409387373023A6FC
:10095400F6200F100000973700009387E797884F21
:10096400938781A29C43316713073730F053B7074D
:100974001000FD17918F99833A0523A6E6205D8D1B
:1009840082804111B7170040985F3AC6945F32479E
:10099400E39CE6FE324541018280411106C6D5370B
:1009A4009736000083C6C690858AB1C69307303354
:1009B4003307F502B337F5023983CA07D98F1737DE
:1009C400000013076791584B01456303F702338511
:1009D400E740636BF70037653D0889C637856F08C4
:1009E40013050590198D3E95173700002320F790C5
:1009F400B24041018280E5473307F502B337F5027F
:100A04002583DE0765BF0327C50F8346B5009737E7
:100A14000000938767A09C4F5843938616029582E3
:100A24009043FD1693F6F60F10C3D04350C390477E
:100A340010C7D04750C7904B10CBD04B50CB904FE2
:100A440010CFD04F50CF91C61307070293870702E8
:100A5400C1BF82808347E50193F7E70FF1EF2A874F
:100A64000345F50171E9034607018346870009CA76
:100A74008345A7029737000083C7978363E7F50090
:100A840093F70601C5CF814709CA834787150346F3
:100A94007715C18AA207D18F81CA8346B715034748
:100AA400C7152207558FBA97D1CB17370000130704
:100AB40027A23847411122C406C67D54832607085D
:100AC40063F386003684184375FB17270000034739
:100AD400277E93168701E18663D906029387C7139D
:100AE4009583172700000347477DBA9763D0060410
:100AF4001D8C938741949C4382973335A400B24064
:100B040022441345150041018280058B9387C71247
:100B140009CB8A079387F7031305D007B3D7A70236
:100B2400C9B78607FD071305D003CDBFE372F4FCF4
:100B34003705C0A82A946DBF014582808280411187
:100B440022C4138481A118404AC006C61C5F26C271
:100B5400138941A19983858BC1C31C5F973400001D
:100B64009384848B93F7F7F91CDF9737000083C7CE
:100B7400A78A93F707048DC3938741949C43829774
:100B84009737000023A2A78A83C7040093F7F70BC3
:100B9400173700002302F788854717370000A30F93
:100BA400F78683C7440093F7070481EF938781A2F4
:100BB4009C43D844B8D3930700FC17370000230F95
:100BC400F7848387640063D90700832709009C4363
:100BD400173700002305F78418401C5F8583858B35
:100BE400C9CBF5571CDF0100010001000100010021
:100BF40001000100010001000100010001000100E9
:100C040001000100010001000100010001000100D8
:100C140001000100010001000100010001000100C8
:100C240001000100010001000100010001000100B8
:100C340001000100010001000100010001000100A8
:100C44000100010001000100010001000100010098
:100C54000100010001000100010001000100010088
:100C6400010001000100938781A29C4313075004F3
:100C7400B8CB18401C5F9183858B89CFBD571CDF8F
:100C8400938781A29C4323A8070485471727000064
:100C94002306F77883270900D8430583058B19C7F2
:100CA400D843759BD8C3D843799BD8C3B240224458
:100CB4009244024941018280397106DE16DC1ADA57
:100CC4001ED82AD62ED432D236D03ACE3ECC42CA00
:100CD40046C872C676C47AC27EC09535F250E252D6
:100CE4005253C2533255A255125682567247E247A6
:100CF4005248C248324EA24E124F824F21617300B5
:100D04002030938781A29443172700001307C770EC
:100D1400BC5289CF83472700858B89EB83473700F3
:100D2400858BFDD797270000238A076E828037C7FB
:100D340000401306C0039306200397250000938503
:100D4400A56D83278720C18393F7F7036369F600B2
:100D540083278720C18393F7F70363E6F60083C7ED
:100D64004500858BF9DF8280938781A294431727FE
:100D740000001307676ABC5289CB83470700858B41
:100D840091CB97270000238B076897270000A38740
:100D94000768828083471700858BF1DFDDB793876F
:100DA40081A2904337C70040C145E5468327872089
:100DB400C18393F7F70363FBF50083278720C1837F
:100DC40093F7F70363E4F6003C52EDF38280138754
:100DD40081A11843AA87185F1583058B25EF034566
:100DE400150015051377C51F19C6B386E70083C61A
:100DF40026002300D60095C59726000083C62662E8
:100E040093F606040945A1CAB386E70083C63600F3
:100E1400054693F5F6066390C504E206E18663CCC5
:100E240006023385E7008347150003470500A20740
:100E340093F70770D98F139707014183937607407F
:100E440099C6136707802390E1A20145828023900D
:100E5400F1A2E5BF05458280938681A28C42368546
:100E6400972600009386465B984593170701C18334
:100E7400137817203E86630408041377072079C388
:100E840003C7260013671700172800002307E85834
:100E940013070019B8D1130700F897250000238F12
:100EA400E556138781A10C4337080010D855719B70
:100EB40013672700D8D598413367070198C1137782
:100EC400261005C31376061059CE03C70600136710
:100ED4001700172600002301E654172700002311EA
:100EE400075483C6460093C7F7FFC207E206E186AC
:100EF400C183184163D106029396170163DE060687
:100F040030538D4663E9C600854617260000230743
:100F1400D6503453FDFE97260000938626388386E8
:100F2400460163DD060093960701C18663DC06046F
:100F34007053894663E4C6007453FDFE1447F58F6D
:100F44001CC7828003C7160013671700972500008B
:100F5400A384E54C172700002302074C1727000041
:100F64002310074CA9BF03C73600136717001726C1
:100F74000000A304E64A95B7854617260000230F10
:100F8400D64851BF54471396060163510602B7066B
:100F94001000FD1674D3972600009386E633944E12
:100FA4008506172600002325D63449BFA166D58FB0
:100FB40071B7397106DE16DC1ADA1ED82AD62ED499
:100FC40032D236D03ACE3ECC42CA46C872C676C475
:100FD4007AC27EC05135F250E2525253C253325556
:100FE400A255125682567247E2475248C248324EC0
:100FF400A24E124F824F2161730020301727000048
:10100400130747438346B7019727000083C7D74593
:10101400B69793F7F70FFD4663EAF6044C4B972611
:101024000000A389F6409727000083C7B74005470F
:101034003317F70097260000A388F6426D8F1DEF43
:101044009726000083C69642B3F6D7021305000222
:10105400814733D6F500058A13F8F70F09CE639953
:10106400E60097270000A387073D828081177DB79C
:1010740005071377F70F8507E39DA7FC8280938705
:1010840041A39843B75702009387279F83260709F4
:1010940013965600635806008326070913966600C4
:1010A40063440600FD17FDF3828051C9AA870145F8
:1010B400C9C98D07C207C183F19BC207C183130746
:1010C4004003636BF702138741AC08431387C1AB3A
:1010D40014436396A602172700001307271C185B06
:1010E400014525C34111C20706C60545DD8D02979A
:1010F400B240014541018280138701ACF9B703571F
:10110400650005EF035745006369F702B306F7402E
:1011140021466370D6021041938687001D8FAA96DC
:10112400611790C22392E6002393060014C1231290
:10113400F5002313B50021058280084159BF0145FC
:101144008280828001CD938741AC03A807009387F6
:10115400C1AB8C430147C28763E3B70082809443E9
:10116400636FF50663EDA60613868700E368C5FE84
:1011740003D56700216605066317C50003C6819D74
:101184000506238CC19C23930700638407031386FD
:1011940001AC1042630FF6000356670019EA83D7C7
:1011A400470014C383564700B697A1072312F700DC
:1011B400BA879843E304B7FA938601AC9442E30FE9
:1011C400D7F883566700D9FA83D6470003564700F9
:1011D4001843A106B2962392D70098C382803E8713
:0411E400B6879DBF6E
:1011E800974100209381814C17710020130101E180
:1011F8001305400097250020938545601736002089
:101208001306067E63FAC5008322050023A0550055
:1012180011059105E3EAC5FE17F50100130505FF61
:10122800973500209385C57B1386418A63FAC500EC
:101238008322050023A0550011059105E3EAC5FEA8
:101248001385418A97650020938505B36377B500B8
:10125800232005001105E36DB5FE9302800873A0F5
:101268000230972200209382625993E21200739011
:101278005230972200009382E27673901234730002
:1012880020303D432A876373C3029377F700BDEF8D
:10129800ADE5937606FF3D8ABA960CC34CC30CC7DE
:1012A8004CC74107E36BD7FE11E28280B306C34007
:1012B8008A069702000096966780A6002307B70063
:1012C800A306B7002306B700A305B7002305B70098
:1012D800A304B7002304B700A303B7002303B70090
:1012E800A302B7002302B700A301B7002301B70088
:1012F800A300B7002300B700828093F5F50F9396FB
:101308008500D58D93960501D58D61B793962700F5
:101318009702000096968682E78086FA9680C11723
:101328001D8F3E96E374C3F8A5B71387418AAA8731
:10133800104339CD03C7818A930600027D5563EABD
:10134800E604B286B1E283C6B70190C323A60700BC
:10135800858A93E66601A38DD700BD462398D700FA
:1013680023A2F18A83C7B7019386018B9442858BA8
:10137800B397E70013051700D58F1375F50F23A84A
:10138800F18A2384A18A82806384F60094425DBF37
:101398007D558280797126D24AD04ECE52CC938721
:1013A800818A06D622D456CA5AC85EC662C466C2A4
:1013B80003C407001387418A032907007D141374A7
:1013C800F40F81443A8ABE896305090083274900DE
:1013D800A9EB9387018B9C4303240A00416ABD8CC7
:1013E80093C4F4FF23A6918A83C4090001497D1A96
:1013F800FD1493F4F40F8549938AC18AA14B314CAB
:10140800C14C0D4B15E8B25022544A8592540259EA
:10141800F249624AD24A424BB24B224C924C456145
:1014280082804A858297331585007D14C98C0329EB
:1014380009001374F40F49BF8347B40113F7070E6B
:1014480011CF0357C4000507420741832316E40060
:1014580063164701035784012316E400184C75836B
:10146800630037070DC389476306F7168347B4013E
:1014780093F7070E81C705091379F90FFD1400408A
:1014880093F4F40F41B783A70A00339799007D8F2F
:101498008347B40115C3859BA30DF4001C44232680
:1014A800040099C3228582978347B401FD8B93E793
:1014B8000702A30DF4005DBF859B93E76701D5BFC5
:1014C80003A60A00B39699000357C400F18ED9CE3B
:1014D8008356E4009DCE83570401E3F9E7F8B68705
:1014E8006373DB008D470347B401BD8B8607059BFB
:1014F800D98FA30DF4001C4499C322858297834792
:10150800B40123260400FD8B93E70702A30DF40022
:10151800B1BF835684016361D702F98BE38897F5DD
:101528008347B401859B93E70701A30DF4001C448E
:1015380095DF228582971DBF83566401636BD700B0
:10154800F98BE38587F38347B401859B93E7C7004D
:10155800E9BF83564401E36BD7F0F98BE38877F151
:101568008347B401859B93E78700C1B783578401FC
:101578006361F7028347B401859B93E72701A30DB5
:10158800F4001C4499C3228582978347B401FD8BDC
:101598000DB7835764016368F7008347B401859BDF
:1015A80093E7E700E9BF835744016368F70083477F
:1015B800B401859B93E7A700D9B78347B401FD8B96
:1015C80093E70704A30DF4008357E4008507231766
:1015D800F40069BD03A70A00B3979900F98F99CB66
:1015E8008347B40123160400FD8B93E70702A30D7C
:1015F800F400ADBD0357C40083570401E3F8E7E6E0
:101608008357E4006373FB008D470347B401BD8B28
:101618008607059BD98FA5B7B717004003C777057D
:101628001377E70FA38BE704130700F8A38DE704EC
:101638003D47238CE70413075003A38CE7048280FB
:10164800B717004003D587005D715ED6420541811A
:1016580086C6A2C4A6C2CAC04EDE52DC56DA5AD822
:1016680062D466D26AD06ECE9377050C1307000851
:10167800814B638EE718130700046392E716B724BB
:101688000D8F7D8993840480B3D4A40291679387D6
:1016980007E8BE94A167938707D0B3D4F402EFC0DC
:1016A800814197E70100938767E99043D443EFB0FE
:1016B800E174EFC0F1152A8B939C040103D9418B87
:1016C80093DC0C0163150900056913090980B71734
:1016D8000040130770052380E704130780FA23806E
:1016E800E7040F1000000547371A0040939D0401D6
:1016F800096C85662389E704D14A814E8145130D1B
:101708000A0413087005130680FA894893DD0D0151
:10171800130C0C712943FD1623000D012300CD0085
:101728000F10000023162A0323000D0083472A0503
:10173800898BEDDF83570A0583472A05898BEDFFDF
:1017480083472A05898BEDDF83570A05239A218B66
:10175800C207C183338597419319050193D909417C
:10176800638609163387B9026350070E850EC20EC9
:1017780093DE0E0163EAD80D63DB050A3305B0403A
:1017880093150501C185C204C18063D9350BB7170C
:101798000040130770052380E704130780FA2380AD
:1017A800E7040F1000000965130505713385A502CC
:1017B8002396770323800704334595024205418128
:1017C800B640264496440649F259625AD25A425BB8
:1017D800B25B225C925C025DF24D61618280B1E392
:1017E800B77489097D8993840480B3C4A40291677E
:1017F800938707E8BE94A167938707D0B3C4F40220
:10180800EFC0612B97E701009387C7D379BD97E7AE
:101818000100938767D2856403AB070093848438FB
:1018280061BD130B0000954441BD3A89F5B5B387F6
:10183800FC409399070193D90941B1B7096513058C
:1018480005713385A9028DBF3385B74163E4FC0078
:101858003385FD40330585033344B5036345830071
:1018680013150401A9BF4E8536C642C432C2EFC063
:101878000163DA85EFC08133EFC0415C931E050137
:1018880093DE0E41B307D941C207C183056E3E8777
:101898001246224889482943B24663E3C70136877E
:1018A80042074183631A2701130719006344300173
:1018B8001307F9FF42074183FD1A93FAFA0FCA8BFF
:1018C800CE85E3940AF6239AE18A59BF0145CDBD36
:1018D800B717004003D587005D7186C64205418170
:1018E800A2C4A6C2CAC04EDE52DC56DA5AD85ED6A8
:1018F80062D466D26AD06ECE02C69377050C1307FF
:101908000008638FE714130700046393E712B724F2
:101918000D8F7D8993840480B3D4A4029167938743
:1019280007E8BE94A167938707D0B3D4F402EFC049
:10193800811897E70100938767C09043D443EFB0BD
:10194800E14BEFC0E16C2A89939A040103DB618BB8
:1019580093DA0A0163150B00056B130B0B80B7179D
:101968000040130770052380E704130780FA2380DB
:10197800E7040F1000000547939B04018969056A75
:101988002389E704D14D014D814C93DB0B019389E9
:1019980009717D1A5A8597200020E780E0F1330C01
:1019A8005541420C135C0C41239B618B63030C165D
:1019B800B3079C0363D3070E050D420D135D0D019C
:1019C800894763ECA70D63DD0C0A33059041931C2E
:1019D800050193DC0C41C204C18063DA8C0BB71794
:1019E8000040130770052380E704130780FA23805B
:1019F800E7040F1000000965130505713385AC0273
:101A080032472396E70223800704334595024205AF
:101A18004181B640264496440649F259625AD25A40
:101A2800425BB25B225C925C025DF24D6161828036
:101A3800B1E3B77489097D8993840480B3C4A4028F
:101A48009167938707E8BE94A167938707D0B3C4CB
:101A5800F402EFC0410697E701009387A7AEF1BDF6
:101A680097E70100938747AD856403A9070093842E
:101A78008438D9BD130900009544F9B53E8B19BFC8
:101A88003385AA40131C0501135C0C41A9B70965ED
:101A9800130505713305AC028DBF63FEAA0033053B
:101AA800754133053503A9473344750363C8870077
:101AB80013150401B1BF3385AB40E5B76285EFC0AC
:101AC800013ECA85EFC0810EEFC04137131D0501E5
:101AD800135D0D413307AB41420741838565BA87E2
:101AE8006363B700D287C207C183639A670193070C
:101AF8001B00634480019307FBFFC207C183FD1DE0
:101B080093FDFD0F5AC6E28CE39A0DF6239BF18AEA
:101B180045B70145FDBD41112A83014E930E407E14
:101B2800130F0019930F400663ED6E0A930800190E
:101B380013034006B3781503854E0D4FA14F337339
:101B480065020D891335150063E7BE0C1308F6FF0F
:101B5800794672984208135808013307C70213D60A
:101B68001700BE0732976146B3F6C60213068070A7
:101B7800B386C6023697A166F58F42075D8FB71701
:101B8800004083C6F70293F60608A307D100034670
:101B9800F10083C6F70293F60608E394C6FE83466F
:101BA800F10093F6F60FF1DE930670052380D70453
:101BB800930680FA2380D7040F10000023AA070396
:101BC80083C6170393E60608A388D702D8DB03C7A2
:101BD800170313670704A388E7022380070441015A
:101BE80082807D133368E3039308E016630E0800D0
:101BF8003368F3039308D01663080800937833001A
:101C080093B818009388D81633081E01131E0801CC
:101C1800135E0E0111BF6393E50305486386080050
:101C28000148630303002A8871087298FD15131E82
:101C38000801C205135E0E01C18139B713F81500FA
:101C480063F4BF007908D5B713381800E5BF91478A
:101C580063EEB70217E701001307478F8A05BA95A5
:101C68009C41BA978287B717004003A7470B1345D3
:101C7800F5FF698F23AAE70A03A7070B698F23A833
:101C8800E70A03A7070A798D23A0A70A8280B71756
:101C9800004083A6470B1347F5FFF98E23AAD70AFE
:101CA80083A6070B558D23A8A70A83A6070A758F55
:101CB80023A0E70A8280B717004003A7470B498F84
:101CC80023AAE70A03A7070B1345F5FF45BFB71774
:101CD800004083A6470B1347F5FF758F23AAE70A31
:101CE80003A7070A598D4DB7B717004003A7470B3D
:101CF800498FEDB79D4763E3A70217E70100130774
:101D080027860A053A951C41BA97375700408287BB
:101D18008347270093F7070F2301F7008280834743
:101D2800270093F7070F93E71700FDB783472700AE
:101D380093F7070F93E74700C5B78347270093F743
:101D4800070F93E75700C9BF8347270093F7070F8B
:101D580093E78700D1B78347270093F7070F93E7E7
:101D680097005DBF8347270093F7070F93E7C700E6
:101D780065B78347270093F7070F93E7D70069BF35
:101D880099EAB757004003C707001345F5FF798D57
:101D98002380A70082803757004005CE834717006D
:101DA800C98FA300F7003757004081471107214624
:101DB800B356F540858A89C6B386E7002380B60006
:101DC8008507E397C7FEB757004003C70700598D3B
:101DD800C1B7834617009347F5FFF58FD9B7B717F3
:101DE800004003D58700420541819377050491EBB4
:101DF8009377F5013755E801130505803345F5025A
:101E080082809377050C130700046397E7009377A4
:101E1800F50137459C1CCDB72165130505D0828097
:101E2800B7F700E0C8439C478280814737370040B6
:101E3800A14663C4C700328582800345B740E38E5C
:101E4800A6FE3385F5000345050085072304A74052
:101E5800CDB797370020938767059C431757002015
:101E6800130787F13E95636EE50017670020130797
:101E7800E7F86368A700173700202329A7023E85E3
:101E88008280FD57EDBF411122C406C62A84813FD6
:101E98002947B307E502B2408D83B3D787022244AE
:101EA8009507B3D7E70237370040C207C183231627
:101EB800F74041018280716541111305052006C66E
:101EC800D937B7370040130770F82381E7400D472B
:101ED800A381E74013070004A380E7400547238751
:101EE800E740B240410182809387418C9C43411175
:101EF80006C691C382979387818C9C4391C382972E
:101F080003D761809307001963F7E70403D581803D
:101F18009306F01863E4A6049386018C03A30600D5
:101F280063070300B2401305001941010283050746
:101F3800098F3385A740E5473305F50242074183FA
:101F480009839307F7FF3E953345E5021375F50FAF
:101F5800B2404101828013054006DDBF0145CDBF77
:101F680003A84500411126C206C622C483471800AB
:101F780003480800A944A207B3E70701C2070D6890
:101F8800C187130828906396070385473284EF605A
:101F98005006AA8419ED9387C18B9C4399CB0345BE
:101FA8001400034704002205598D13351500050553
:101FB8008297B240224426859244410182802D4571
:101FC8003DE7D841411122C426C206C683471700FF
:101FD80003470700B684A207D98F0D67930697A118
:101FE80032846396D702093783C741806374F5004A
:101FF8002382A18085472390F40083C74180230072
:10200800F4000145B2402244924441018280130702
:1020180087902945E398E7FECC4589472390F4004B
:102028000946228597200020E78040F0D9BF8280AA
:1020380083474500858BADC7011122CC2A840355FF
:102048002500938501AE06CEEF606075058929C528
:1020580003552400014781460546ED45EF60602E93
:102068002AC61DC9973700209387879783D7A70269
:1020780001462C002314F10085472315F10083C77E
:1020880041802300F50003552400EF70204D09C559
:10209800ED452800EF60C042F2406244056182804D
:1020A800828041654111938501AE7D1506C6EF809A
:1020B800003CB24097360020938686974146954566
:1020C800173500201305C59141016F80802E23AE7E
:1020D800A18A8280411122C406C68547094463113A
:1020E800F502834706000144238CF18A03C7418027
:1020F8006378F700170500001305C5F3EFA0806AA1
:102108002285B24022444101828085476301F5025D
:1021180009C909476302E5020D476306E502094557
:10212800828083C741802380F500014582809387A0
:10213800818B83C70700C5BF9737002083D7E78AFD
:102148002390F500DDB71387C1800357070023925A
:10215800E500173700201307A7888356A7020357FF
:10216800A7032383F5002390D5002391E50075BFCD
:10217800411106C6953B83C74180637AF5002382E7
:10218800A180170500001305E5EAEFA0A061B240A1
:1021980001454101828041677917630CE5024111CD
:1021A80022C406C685472A84639AF50022852244FC
:1021B800B240938501AE41016F80602B89476396D9
:1021C800F5008545EFA0805875D1B2402244410101
:1021D80082808280CC41411106C6328503C6150033
:1021E80083C5050022064D8E42068D6541861388FB
:1021F80075A2630C060F6348C804138845A26306DA
:10220800060B634AC800938535A26309B606239076
:102218000600294679A0138855A26308060B938502
:1022280065A2E316B6FEC1451D4663ECE5064546C4
:10223800198E63F3C7003E862390C60097D5010028
:102248009385053589A8138895A26300060F634E08
:10225800060B1388A5A2630A060F938505A5E31844
:10226800B6FA99451D4663EEE502198E63F3C70079
:102278003E862390C6009385418131A89D451D4621
:1022880063E1E5022146198E63F3C7003E86239079
:10229800C6009385C18CBA9597200020E78000C9B5
:1022A8000146B240328541018280AD451D46E3EAD0
:1022B800E5FE3146198E63F3C7003E862390C600BB
:1022C80097D5010093858530F9B7B1451D46E3EAF6
:1022D800E5FC3546198E63F3C7003E862390C60099
:1022E80097D501009385852F7DB7C1451D46E3EA43
:1022F800E5FA4546198E63F3C7003E862390C6006B
:1023080097D501009385052A79B7C1451D46E3EAAB
:10231800E5F84546198E63F3C7003E862390C6004C
:1023280097D501009385852CBDB7C1451D46E3EAC5
:10233800E5F64546198E63F3C7003E862390C6002E
:1023480097D5010093854527B9B7B5451D46E3EAFA
:10235800E5F43946198E63F3C7003E862390C6001C
:1023680097D501009385C5213DB797260020938610
:10237800E67F4146CD45172500201305256C6F8063
:10238800400341654111938501AF7D1506C622C4FE
:1023980026C24AC0972400209384047EEF80200D33
:1023A800973600209386468F4146C9452685EF809B
:1023B8004000CC4C2A890945893B9387C18283D741
:1023C8000700138401B0138701832312F40083D715
:1023D800A40C03570700938501B12310F40083D799
:1023E800A40D2316E40003D7A4102311F4000D450F
:1023F80085472303F4002314E4002307F40023157E
:1024080004002133A2850D459D2EB24022444A8501
:1024180092440249410182808D679387D7A4014580
:10242800631FF6008D472945639BF50085473545B1
:102438006397F600834707000145238BF18C828060
:102448008D679387D7A4631EF6008D47639BF500BD
:1024580083C7618D2300F70085472390F600014567
:10246800828023900600E5BF82809387018F9C437A
:1024780003C7418E83C6318201E781473E8582804A
:1024880003D607006316A60003C66700E308D6FE56
:102498007D171377F70FA107C5B7B2862E86AA85D1
:1024A80017D501001305C5176FB0F15F2A86B3056C
:1024B800B04017D501001305E5186FB0D15E0111C2
:1024C800930500030D4506CEEF30505A93050005DD
:1024D8001145EF30B0599305C0030545EF30105949
:1024E80085471306F100854513055030A307F10011
:1024F800EF70F173F240056182808547631AF50039
:102508001166130686A9894503C5518E6F10506957
:1025180089476317F500894503C5518E6F10107FF1
:10252800828085476398F50019E2238EB18C238A4F
:10253800C18E828009476398E50011E6238EF18CED
:1025480003D5A18D2DA382809387818E9C43011191
:1025580022CC06CE2E8481CB9C4791C78297F2402D
:102568006244056182806C0013057040EF60510081
:10257800324681452285EF60F140D5B741119397E6
:10258800050122C406C6C1872E8463DF070003C580
:10259800518EEF10100F19C1EF1010082165218D11
:1025A800B24022444101828093F7150091CF17264B
:1025B80000201306266F9385418303C5518EEF7063
:1025C800F13A13451400E9BF93F725000145E9DB0B
:1025D80045361166130686A9894503C5518EEF1045
:1025E800305C134524006DBF797126D24ECE06D6D5
:1025F80022D44AD052CC9147AA84AE896314F504F8
:1026080083D7A5001306E100854513055030239DA7
:10261800F18C23070100238E018CEF7051619387A1
:10262800818E9C4391C7DC4781C7CE8526858297DA
:10263800B250225423A0918E02599254F249624A10
:10264800456182801387018E1843E31AF7FC85459C
:1026580003D5A18D8936854503D5A18DBD21C167D7
:1026680003DAA18DF917631BFA0205449305E1000B
:1026780013055041238E018CA38181822307010019
:10268800EF60016F8347E100B1E303C7418F9147D2
:10269800E317F7F82D35238A018E51B79387018FF9
:1026A80003A9070003C4418E69D00355290011C945
:1026B8009305E100EF60007309C54C455285EF7042
:1026C800105B7D141374F40F2109F9BF9387C18E31
:1026D8009C4383C74700898BCDDB9305000A0D45D2
:1026E800EF30D0389305000A1145EF303038814576
:1026F8000545EF30B0371306E10085451305503026
:1027080023078100EF70B15249B701111705000086
:10271800130505E706CE22CCEF20E0021384518E84
:1027280085471306F10085452300A40013054041A1
:10273800A307F100EF60914C7D55EF50F0097D55EE
:10274800EF70D04F1D31EFF0DF95CD2C170500004D
:102758001305E5DAEFF0BF9717050000130505D15B
:102768002126034504008545EF103031F2406244CC
:102778000561828023A4B18E23A6A18E828023A81E
:10278800B18E2382A18E8280C841011122CC06CE4F
:10279800328403461500034505002206498E19CBED
:1027A8000D681308B8A42D4563090607F240624472
:1027B800056182800D651308D5A46300060313081C
:1027C80025A2630C060175781308E85C3298420864
:1027D80013580801854863EE080303D5A50036C6DB
:1027E80032C46131B24615C19387818E9C4322461B
:1027F8008345550003A30700A2876244F2400345BE
:102808004500368785460561028323900600014509
:1028180071BF1308B5A46317060303D681821D454B
:10282800E376C7F8198E63D3C7003E86CC4523905C
:10283800C60042064182BA95228597100020E7809B
:10284800E06EF1B79307A5A46318F60091472390AB
:10285800F6001146CC45CDB7930785906317F6006F
:1028680089472390F6000946F5B79307E5A4631A4C
:10287800F600DC452390160183C707002300F40007
:1028880079B713057590E314A6F8D9BF011122CCC6
:1028980006CE26CA4AC82317D1002D4429EBDC41AD
:1028A8002E89B28403C4170083C7070022045D8CF5
:1028B8008D679386D7A46306D400938627A3631FE6
:1028C800D4020355A900553619E101440DA0938798
:1028D800818E9C43834555000345450003A80700A6
:1028E8002286A6871307E100814602982A8422855A
:1028F800F2406244D2444249056182809386C7A46B
:102908006314D4028357E10005473544E391E7FE99
:102918000345060013040008E3EBA7FC9387818EA8
:102928009C43DC43829755B793862790631AD40259
:102938008356E1008547EF50D06B2A844DF9938781
:10294800018F8356A9009C4303C7418E3DDF03D600
:1029580027006302D6047D171377F70FA107FDB789
:102968009387E7A4E313F4F68357E100054735445A
:10297800E39FE7F60345060013040008E3E9A7F61A
:10298800DC452380A7009387818E9C433335A000C4
:102998000905DC4341BF1387818E184303C54700EF
:1029A80083C5570083C714000328070003C7040022
:1029B800A2078946D98FC207C18705476383E70005
:1029C8008D460D66A6871307E10013062690029828
:1029D80039BF0145828025E303A84500AE888347B7
:1029E800180003480800A207B3E707010D68930E13
:1029F800F8A4639AD70391473548639FF60203A565
:102A0800C8004111B285114606C697100020E7801C
:102A1800E051938701909C4305458297B240014855
:102A280042854101828093082890294863961701BE
:102A380085476F50105C2D48428582804165411161
:102A4800938581B17D1506C6EF707022B240972636
:102A580000209386E62B414699451725002013054B
:102A6800252541016F70F01423A0A19082800111E7
:102A7800938581B122CC06CE2A84EF505052058925
:102A880029C1014781460546ED452285EF50700B67
:102A98002AC605C9972700209387872183D7A705CA
:102AA80001462C002314F10085472315F10023006B
:102AB80005002285EF60902A09C5ED452800EF50F2
:102AC8003020F24062440561828041677917630CC7
:102AD800E502411122C406C685472A84639AF50097
:102AE80022852244B240938581B141016F7030182C
:102AF80089476396F5008545EF90504575D1B240FA
:102B080022444101828082807D15994763E2A708AB
:102B180017D70100130787B40A053A951C41BA97DD
:102B28008287371700408327870A93E70702232401
:102B3800F70A8280371700408327870AA166D58F56
:102B4800FDB7371700408327870A9166CDBF37172F
:102B580000408327870A93E70710D1BF3717004043
:102B68008327870A93E70720D9B7B716004083A7BA
:102B7800860A056713070780D98F23A4F60A82807F
:102B8800371700408327870C8966D58F2324F70CD5
:102B980082807D15994763E3A70817D701001307BB
:102BA800A7AD0A053A951C41BA97828737170040A6
:102BB8008327870A93F7F7FD2324F70A8280B7163D
:102BC800004083A7860A61777D17F98F23A4F60A48
:102BD8008280B716004083A7860A7177F5B7371742
:102BE80000408327870A93F7F7EFF9B737170040B4
:102BF8008327870A93F7F7DFC1B7B71600407D77B9
:102C080083A7860A1307F77FC9B7B716004083A7BB
:102C1800860C79777D17F98F23A4F60C8280B71775
:102C2800004003A7070A411106C61367070223A03D
:102C3800E70A03A7070AA16613060064558F23A0B5
:102C4800E70A03A7070A91669145558F23A0E70A6B
:102C580003A7070A8566938606801367071023A0D3
:102C6800E70A03A7070A1367072023A0E70A03A7B1
:102C7800070A558F23A0E70A03A7070C8966558F13
:102C880023A0E70C03C5A190EF1080711305004045
:102C98008D45EFE0DFFBB75700401147A381E70000
:102CA800B240114541016FF0EF84411122C41384F1
:102CB80001844AC00329040006C626C24A85EFB02B
:102CC800612A97D401009384E49D9040D440EFA0FA
:102CD800810797D701009387E79B6340050297D741
:102CE80001009387679B8C434A85EFA0D1636348B3
:102CF800050097D701009387679A9C431CC008403A
:102D0800EFB041269040D440EFA0C15A97D70100B8
:102D18009387C7999043D443EF90B12797D7010081
:102D2800938747999043D443EFA0410DEFA0714C8E
:102D3800930740063385A740EFA0F15797D70100C6
:102D48009387C7979043D443EFA0410BEFA0714AF4
:102D5800EFA0715697D701009387C7969043D44345
:102D6800EFA0C109EFA0714F1374F50FA28517D515
:102D780001001305A595EFB00153A2852244B24086
:102D88009244024985460546054541016FE05FFFCB
:102D9800411106C685476318F5021D45DD3B2945E7
:102DA80097100020E780A0D0093729459710002008
:102DB800E780E0CF1945893BB24029454101171307
:102DC80000206700C3CE05E11945E13317D701009C
:102DD8001307878C18439387018498C3F935B24049
:102DE8001D45410115B3B24041018280828093871D
:102DF800018488C3054569BF23A20190B717004025
:102E080003A7070CFD76FD16758F23A0E70C03A713
:102E1800070D8566558F23A8E70C828023A2A19011
:102E280013064006894503C5A1906F106057938724
:102E3800419003A3070063040300014502838280D5
:102E48009377150089CF8547639FF506B71600402D
:102E580083A7860A7D777D17D98F23A4F60A9377EF
:102E6800250089CF85476399F506B716004083A7E3
:102E7800860A79777D17D98F23A4F60A93774500B8
:102E880091CF85476393F506B716004083A7860C54
:102E9800370780FF7D17F98F23A4F60C93778500F9
:102EA80013878190BDC38547B71600406399F50421
:102EB80083A7860CBD9B23A4F60C834707005D8D72
:102EC8002384A1908280371700408327870A85666C
:102ED800F58F2324F70A61B7371700408327870A3D
:102EE8008966F58F2324F70A51BF371700408327D7
:102EF800870CB7068000D58F2324F70C45B783A726
:102F0800860C93E7070123A4F60CC5F9834707004D
:102F18001345F5FF7D8D6DB7011122CC26CA4AC82D
:102F28004EC652C406CEAE899374F500138981B299
:102F38000544214A89E8F2406244D2444249B249F0
:102F4800224A05618280B3F7840089CFCE856396D3
:102F580049018345090093C5150022852300B9005E
:102F6800A18CF93D06041374F40F3109E1B7B717C2
:102F7800004003A7070A4111856606C6558F23A09E
:102F8800E70A03A7070A89668145558F23A0E70A40
:102F980003A7070CB70680003D45558F23A0E70C13
:102FA80003A7070C1367070123A0E70CB537B24046
:102FB800238C01B441018280797122D406D626D2AD
:102FC8004AD04ECE52CC56CA5AC85EC662C42A846B
:102FD8005DC955CACDCA9307300663E9C708B68AE2
:102FE800B2892E8A1374F500938481B20549138B34
:102FF8009190938B8190114C15E02254B2509254C9
:103008000259F249624AD24A424BB24B224C03C59A
:10301800A1900146854545616F108038B37724013A
:10302800A9C383C70B0003470B0023800400B377B1
:10303800F900D98FA384F19023925401238134019C
:10304800A380440163140A0023808401EF10202226
:1030580083C7040088C43344240193E727002380EE
:10306800F40006091379F90FB10479B7854522549C
:10307800B25092540259F249624AD24A424BB24B78
:10308800224C456151BD81452285D5B7A14763EFE3
:10309800B70297C6010093862664139725003697D2
:1030A8001C43411106C6B69782879306803E154693
:1030B80085451937B2400145410182809306803E1B
:1030C800154693052003F5B7813DEDB7014582808C
:1030D80083C781B56393071679714ECEC16922D42F
:1030E80026D24AD052CC56CA5AC85EC662C406D640
:1030F80066C26AC0138481B2014C3D498544138A73
:103108009190930A4006FD19130B4006930BF00F9C
:10311800B3F72401E1C783470400898BD5CFEF10AB
:1031280000151C442A8D6366F50E83460400834C03
:10313800240093F71600BDCB33079B41F99A8145CC
:103148002685937CF70F2300D400DD39034604005D
:103158009377460099EF83461400638C7601FD1639
:1031680093F6F60FA300D40089E613462600230041
:10317800C40083470400898BB1C303574400330755
:1031880097033357570393170701337737016A9724
:10319800C18318C463030C08A1C33E876373FC0092
:1031A8006287131C0701135C0C013DA093E616000F
:1031B800854526852300D400613165BF83450A0013
:1031C8002685E58DB335B000D13503470A0093C78E
:1031D800F4FFF98FA384F19033C92401860493F492
:1031E800F40F3104E31609F2630B0C022254B250B7
:1031F80092540259F249624AD24A424BB24B924C1B
:10320800024D6286224C03C5A190854545616F1029
:103218002019898FC207C183B5BF3E8C75BFB250D4
:10322800225492540259F249624AD24A424BB24B52
:10323800224C924C024D456182808280411106C623
:10324800EFE00FC0BD4763F4A700EFE06FBFEFE00A
:103258002FE8BD4763F4A700EFE08FE7B24083D5BE
:10326800618B03D5418B41016F10A03B41119396AF
:103278002500AA852D4506C697100020E7804095B1
:10328800B240014541018280411126C29394250034
:1032980022C44AC02A843289A686AA8501462545C1
:1032A80006C697100020E780A092A6864A86A285C7
:1032B800294597100020E780A091B240224492440B
:1032C8000249014541018280011122CC06CE371402
:1032D800004026CA4AC84EC652C483447405034AED
:1032E800B4058349840503499405EFE0EFB28347A9
:1032F800A40593F4F40F137AFA0F93E71700230D3C
:10330800F40493F9F90F1379F90FB717004003C7BD
:10331800A705058B6DFF03D5C705A38D4705238C2E
:103328003705A38C2705A38B9704F2406244D24447
:103338004249B249224A05618280411193970501A9
:1033480022C406C6C1872E8463DA0700EF007033F3
:1033580019C1EF00702C2165218D39A093F7150054
:1033680081CBBD3313451400B24022444101828011
:1033780093F7250081CF653C13060002894503C5F4
:10338800A190EF10E00113452400F9BF93972501A0
:1033980063D00702EF20414B553537F6020013067C
:1033A80006E0896503C5A190EF00907F09656DB7B8
:1033B8009397150163D1070217C5010013058538D6
:1033C800EFB0010013060064916503C5A190EF00FA
:1033D800307D116551B793F745000145D1D7EFF01E
:1033E800FFA013060064914503C5A190EF00507B30
:1033F8001345440095BF1D71494697C50100938543
:10340800E52F17D501001305258D86CEEF005060F6
:1034180001E917C501001305A52FEFA0717A01A0D6
:1034280037F700E0F9575CC7FD571CCB8566B7E74F
:1034380000E023A0D7101306701010C3B84341460C
:10344800B0C323A0D718B8C30F1000001306C003D9
:1034580081454808EF00B055972700209387C7DAC1
:103468003ECA896793870780231CF100ED47A301B3
:10347800F1029307A0102312F102D1472303F102AE
:10348800A167938707E03ECE97070000938747DE42
:10349800BEC497070000938767DFBEC6854723042D
:1034A800F102B5472308F10297F7FFFF9387879743
:1034B8003EDAB7F5070097070000938727E13EDE5D
:1034C8008146970700009387A7D77000E105194543
:1034D800BEC097000020E780A06F58088147994632
:1034E80070003E960346060085070507A30AC70035
:1034F800E398D7FED24791C7035781018567637365
:10350800F70001A04808EF108027AA8501C917C550
:10351800010013052521EFA0115901A0F6402561EE
:103528008280411117050000130565E106C622C413
:10353800EF1060211384A1902300A4001D20EFF058
:103548001FA3EFF07F8BEFF08FED034504002244BB
:10355800B24037F60200130606E0896541016F00A4
:103568003064411122C406C6371400409306700522
:103578002300D404130780FA2300E4040F1000008A
:103588008347F40293F7A70FA307F4022300D40498
:103598002300E4040F1000008347F40293E7270098
:1035A800A307F40261391305407E23000404814710
:1035B8000147814605468545EFE0EFD52244B240F4
:1035C800014541016F10C04882803A883E8789E6EC
:1035D800834608006FE05FE485476395F600C2867E
:1035E8006FE01FE68947639FF60041111306401FED
:1035F800894503C5618506C6EF00905AB24001456A
:10360800410182800145828041119397050122C4BE
:1036180006C6C1872E8463DF070003C56185EF00F6
:10362800500619C1EF00407F2165218DB240224428
:103638004101828093F7150013C51500E5FB93F748
:10364800450099CF83C761851307401F81462146EE
:10365800A14503D54185EF60D12A13454400F9B748
:1036680093F7250013C52500F1F393F7850099CF4B
:1036780003D54185EF7021021306803EA14503C59D
:103688006185EF00F051134584004DB793F70501AC
:103698000145C9DFEF00006F1306000AC14503C5E5
:1036A8006185EF00F04F1345040149B77D15954733
:1036B80063E6A72017C70100130707090A053A950B
:1036C8001C41797122D406D626D24AD04ECEBA975A
:1036D8002E8482872C0013054030EF6091472C0020
:1036E8000545EF40C00D17C501001305E508EFA01B
:1036F800913B9D461386019181452D4597000020F9
:10370800E780004D01449389019117C9010013090D
:10371800E9079944B387890083C507004A850504EA
:10372800EFA07138E31894FE83C5619117C50100B5
:1037380013050506EFA0313703C761919307A00A67
:10374800631FF70017C5010013058505EFA0514752
:1037580017C5010013054506EFA0914615A817C522
:1037680001001305A504EFA0B145854713067100B4
:10377800854513050040A303F100EF503148C9BF48
:1037880017C5010013054504EFA091430145C52B5A
:10379800B250225492540259F2494561828003C7BB
:1037A80061919307A00A17C50100130565FF630F10
:1037B800F70017C50100130565FF93044400EFA047
:1037C80031409DE817C5010013050501EFA0513FE1
:1037D8008357A4000D6613060620914503C561852D
:1037E800239AF184EF00D03B17C501001305450269
:1037F800EFA0113D054561BF9307A0FA8566014614
:1038080081452545238BF19097000020E780403CB7
:103818009375F50F17C50100130505FDEFA0B12835
:10382800A68519461385019197000020E78000704E
:103838009D46138601918145294597000020E78020
:1038480020399375F50F17C50100130525FBEFA067
:103858009125BDBF17C50100130585FCF5BD83C7BC
:103868002500114717C50100130505FD6380E7040E
:1038780019476396E70283C5650017C5010013055C
:1038880065FDEFA051220945DD29854730008545B2
:10389800130550302304F100EF607139D5BD154789
:1038A800E395E7FE17C50100130585FCEFA051312C
:1038B800E9BF17C50100130525FD79BD82800111F7
:1038C80017050000130585D406CE22CC26CA13841A
:1038D8006185EF0050672300A4008544700085458A
:1038E8001305503023069100EF607134138641842C
:1038F8009D4513056030EF609133171600201306BD
:10390800E642F14513057030EF60713217C60100C9
:10391800130606E5D5450145EF40205E8D4770004A
:103928009145130570402305F100A305910002C6D7
:1039380023040100A3040100EF50512C30008545F9
:1039480013050040EF50912B130691008545130590
:103958001040EF50B12A1306A100854513052040F9
:10396800EF50D1291306B100854513055040EF509B
:10397800F12899477000854505452306F100EFE0D9
:103988006FF5EFE01FA09715002093852539138563
:10399800C184EFE03FDE03450400A145EF00F00DD0
:1039A80003450400C145EF00500DF2406244D24483
:1039B800056182804111814585660146254506C617
:1039C80097000020E780C020B240238B01909375B8
:1039D800F50F17C50100130525E141016FA0B10CD2
:1039E80041111305800406C697000020E780A0F166
:1039F800371700408327870A8D451305002093E772
:103A080007202324F70AEFE08FA4EFE0CFCA17C5F9
:103A180001001305652CEFA0B11AEFF0DF9DEFF060
:103A28005FB0EF609147EFE05FCE513D9700002017
:103A3800E780C00B6FD01F96104D411197C701004A
:103A4800938747F665823D8A13172600BA9722C4E2
:103A580006C60357E50094438345A5012A8417C584
:103A680001001305E5E2EFA011041C4C0347A40173
:103A78008946E583BD8B6305D7040D466304C706F5
:103A88008546631DD7049D466390D70217C501007C
:103A98001305C5E2EFA0D112313F2244B2404101E3
:103AA800170300206700A3F7639AE70217C5010010
:103AB800130545E2EFA0D1102244B240410151ACB8
:103AC8001D4717C50100130565E26381E704054733
:103AD80017C50100130545E3638AE702B240224493
:103AE800410182801D4717C501001305A5E3638FB7
:103AF800E700154717C50100130585E56388E7004A
:103B0800E39ED7FC17C50100130505E72244B24020
:103B180041016FA0F10A8345A5018D476387F5022E
:103B280063E5B70099C505458280914701456385DE
:103B3800F502411117C50100130505E506C6EFA0FA
:103B48008176B240054541018280B717004003A540
:103B5800470C3181058982808280011122CC17347B
:103B68000020130464EA1306C0088145228506CEA6
:103B780026CA4AC84EC652C41D2D5C58B70400FE5A
:103B880045671307479CE58F3709FA00170A0000B5
:103B9800130AAAF897090000938949EAD98F1309EB
:103BA8002903173500201305E5E7232044032322C2
:103BB8003403232824035CD8EFD02FF7B7079600E7
:103BC800938727037CC43C48371702001307479C98
:103BD800E58FD98F17350020130585E6232E44037A
:103BE800232034053CC8EFD04FF47C54173500200F
:103BF8001305C5E6232C4405FD8CB71703009387EE
:103C0800479CDD8C232E34052324240764D4EFD06D
:103C1800CFF16244F240D2444249B249224A1705E0
:103C28000000130565E105616FF04F9F411122C443
:103C380081452A84214506C6EFF04FC581451145C7
:103C4800EFF0CFC401E8854521452244B240410147
:103C58006FF0CFC385476315F40085451145F5B767
:103C680089476317F40085452145EFF02FC2F5B762
:103C7800B2402244410182809306007D130620034E
:103C88009305400605456FF02FB39306401F1306B2
:103C980020039305400605456FF00FB2854505459D
:103CA8006FF0CFBE9306007D1306200381450945BA
:103CB8006FF08FB09306C0121306200381450945A3
:103CC8006FF08FAF854509456FF04FBC411122C495
:103CD80006C69377F50009472A846380E7041147ED
:103CE8006385E70405476399E70017C501001305D5
:103CF80025E1EFA0415B49371375040F93070002D4
:103D0800630DF50293070004630DF502C147631EB6
:103D1800F5022244B240410171B717C501001305ED
:103D280065DFEFA041589537C1BF17C501001305DE
:103D380025DFEFA041579D37C1B72244B24041016A
:103D480095BF2244B2404101B5BFB240224441016F
:103D58008280411122C41384C1910C408D4717C53C
:103D680001001305E5DC8505B3E5F50206C60CC0C0
:103D7800EFA0615308402244B240410145BD23AC45
:103D8800A1908280411122C493870192138481916A
:103D98000C409C4306C66383F50417C50100130550
:103DA80025DBEFA04150184085476314F70005450F
:103DB800313F184089476314F7000945013F1C400B
:103DC80099E3094521371C402244B24023A0F192CF
:103DD8009307400623ACF1844101A5BF93878185F1
:103DE8009C431387F7FF23ACE184E358F0FAB24011
:103DF8002244410182800945D1BD23AC05FE1C4106
:103E080091E7010001000CC18280BA8703A787FFF0
:103E18006DFF23ACB7FE82801DC18346E5FF130703
:103E2800F00F9147639EE600411106C697100020E7
:103E3800E78000B1B24081473E85410182809547C5
:103E48003E85828001E9014582800145B2402244D5
:103E580041018280411122C42A842105420593052B
:103E6800D004418106C697100020E780C0A371DD09
:103E7800FD5723200500231285002303F5002105A3
:103E8800F1B7138741921C43411122C426C24AC08C
:103E980006C601440149BA8489E7A165852D0DC488
:103EA80001A803C7E7FF6318A7021DC8A165F1268B
:103EB8009840832784FF6317E40223A2F192FD57F9
:103EC800232C04FE230FF4FE2285B24022449244A0
:103ED80002494101828011E03E8983A787FF6DBFB7
:103EE8003E84E5BF232CF9FED9BFA9C9411122C4DC
:103EF80006C62A849737002083C797BD2E85636836
:103F0800F400193F0D45B24022444101828083A745
:103F180085FF99E703C7E5FF9307F00F6305F700EF
:103F2800E53D1545CDB7238F85FE13854192F135C3
:103F380022852244B240A165410181A615458280AF
:103F480023A2019282809387C1939C4399E33E8583
:103F5800828003D727006316B70003C70700E3086A
:103F6800A7FEDC47E5B74111939705014AC006C68D
:103F780022C426C2C1872E8963DE0700193711C102
:103F8800613D21653345A900B2402244924402496B
:103F980041018280AA860145E5D901443D47B357CE
:103FA8008940858B95CB938701938443BD4791E2E4
:103FB8008147A2978E070545BE94331585001314D3
:103FC80005019C40C8404180829723A0040023A299
:103FD8000400334524014DBF0504E312E4FC014409
:103FE800CDBF973700209387E7AA9C53411122C47D
:103FF80006C61384C18595C7829723AEA18408405D
:10400800B74703009387D73F3305F502B7A72600C4
:10401800938737ECB24022443E9523AEA1844101F8
:104028008280973700209387A7AA18409C4BBA979D
:1040380023AEF184E9B793878192904397360020A5
:1040480083C616A9814713F7F70F6360D70A173796
:104058000020034757BC914763E0E70A97370020E1
:1040680083C707C0918BC9EB0111680006CE22CC2B
:1040780026CAEFC0E042FD56630FD50C324797378A
:10408800002083C757A263F3E70C173700201307F4
:1040980027A4404717370020034707A16305D40624
:1040A800058B21CF51473304E40263F1870A970057
:1040B8000020E780C00CB2476373F400A28717376B
:1040C80000200347579E998F3E9597370020938786
:1040D800679C8387470163CD0702B707C0A8636958
:1040E800F502B70740573E9525A085071397170097
:1040F80032970357E7FF21DB8280130790023304CE
:10410800E40205805DB762076187635707001D8D6C
:1041180019E93705C0A801A8E37BF5FE3707C0A851
:10412800B307F7403E95973700209387A796DC534F
:10413800829709ED97370020938787AD9C4F99C7E1
:10414800EF102126EF103104EF10011AF2406244FB
:10415800D244056182809737002093876797DC47B0
:10416800E386A7FE173700201307C7928346470147
:10417800BA84858A9DC651443384870297370020C4
:1041880083C77792E3F487FC97000020E78020FF3D
:104198009737002083C737911D8C22958387440168
:1041A8001DBF13049002338487020580C1BF2A967D
:1041B80009E582800505A30FB5FEE31DC5FED5BF41
:1041C80081473307F5000307070019E33E8582801E
:1041D8008507C5BF01112E8626CAAA8413150601B4
:1041E8009305F004418122CC06CE32C69700002008
:1041F800E780606B2A8419C53246A685970000209F
:10420800E780C0D22285F2406244D24405618280B0
:1042180081476314F600054582803307F50085075A
:10422800B386F5000347070083C6F6FFE383E6FE7F
:10423800014582809307F6FFBE952A966313C50051
:104248008280FD1583C715000505A30FF5FEFDB790
:10425800814711E9014582803307F50003470700CC
:10426800E31AB7FE8507E319F6FE054582809737FE
:1042780000209387E785884B82809737002083C783
:104288003785637FF50013878192931715000843DC
:104298003E9583570500DD8D2310B50001458280CA
:1042A8000D458280FD570111173700202328F7821A
:1042B8009387C19322CC80434EC6972900209389C7
:1042C800697D26CA4AC852C456C206CE5AC02A892F
:1042D80081444E8A972A0020938A8A7F184481470E
:1042E8006374E900B307274103A749021CC409CB3B
:1042F80003A7CA0063F6E700172700202320F77EEC
:10430800A1E7835524009DE95C44A1E823AEF1921E
:10431800032BC400228597000020E78060625A843E
:1043280055FC83274A0285CF6244F240D244424971
:10433800B249224A924A024B0561F5B90345040085
:104348002D3F5C4081CB1CC483572400D5DFA28459
:104358004044F9B71C44CDDBC5BFDCC455BFF240AF
:104368006244D2444249B249224A924A024B056108
:1043780082809727002083C7B7756371F50213877A
:10438800819293171500084393C5F5FF3E9583570F
:104398000500FD8D2310B500014582800D45828002
:1043A8009727002083C7D7726364F5000145828090
:1043B800411122C426C24AC006C62A842E89B28464
:1043C800EFF07FB801C504C505452DA0936504F03D
:1043D800C205C181414597000020E780C04C0DE12E
:1043E800972700209387076B9C5B81C7A28511459F
:1043F80082970145B2402244924402494101828099
:104408009387C1939C438DE323AEA19285472326CE
:10441800050004C52311250123008500A300F5002C
:104428002322050055B7BA87D84775FFC8C7F9BF13
:1044380045C539715AD0138B019322DC26DA4AD844
:104448004ED652D45ECE66CA6AC86EC606DE56D24C
:1044580062CC3689328AAE89AA8401445A8DB94D14
:10446800854BF94C03270B00131C3400937AF40F87
:1044780062971C43A9EF13B5FA0013451500B397CB
:104488008B0063F65D01930714FFB397FB009395C8
:104498000701C181528629371DC983270D000145AF
:1044A800E29784C323A2370163040900230059015A
:1044B800F2506254D2544259B259225A925A025B6B
:1044C800F24B624CD24C424DB24D216182800504C0
:1044D800E31A94F92145E9BF09458280411122C4B4
:1044E80026C24AC006C6AA842E893284553DCA858A
:1044F8002685EFF05FA509C940C10145B2402244B5
:1045080092440249410182802145CDBF411122C414
:1045180026C24AC006C6AA842E89EFF0DFA22A84E2
:1045280019C1231105009727002083C7675A639490
:104538009700239A2193CA852685253D014511E0D8
:104548001945B2402244924402494101828075478C
:10455800636BA704138701931443411126C2931474
:104568003500A696944222C406C6AA873A8409450D
:1045780095C613B5F7003947134515006373F7005F
:10458800C5178545B395F500C205C18141371C4063
:104598000145A69723A0070023A20700B2402244A2
:1045A80092444101828009458280411106C6EFF09C
:1045B8009F9909C50845B240410182800145E5BF80
:1045C800F54763EDA704938701939C4313173500C0
:1045D800BA979843894721C7011126CA06CE933452
:1045E800F50022CCB94793C4140063F3A70045151E
:1045F80005443314A400420441802EC62685A285B2
:104608006D378947324609C5A2852685513B8147C2
:10461800F2406244D2443E850561828089473E85E6
:1046280082802396A1922397B1928280411106C677
:1046380023ACA1920295B2409727002023A4A74A51
:10464800014541018280994763E9B7008A059727A8
:1046580000209387274ABE9588C18280411106C6EB
:10466800EF60A10A7146814517250020130585488A
:10467800EFF0FFB31306400281451725002013050C
:104688002545EFF0DFB223AE019223AC01929727C4
:10469800002083C7E74113D527008D8B3E958D47B2
:1046A8003305F5029305101035051375F50F972797
:1046B80000202380A74299473305F5021305050F0B
:1046C80097000020E780201E23A8A19235C99947AA
:1046D800172600200346E63F3306F60281451306F7
:1046E800060FEFF0DFAC938701939C439387070F86
:1046F80023A0F194172700200347A73D0A07BA977C
:1047080023A4F192EFF0DF835D2693870194984309
:104718009727002083C7D73B93962700BA9617069A
:1047280000001306868490C293862700850793F7B6
:10473800F70F8A0797250020A38CD538BA9790C31E
:10474800B240410182809727002083C77738172716
:1047580000200347073863F1E702138701941843E1
:104768009386170017260020A304D63693962700B1
:10477800369708C33E8582809307F00FE5BF1C413A
:104788006381071A41777D8FB70600208947631B2D
:10479800D7180357450063070718411122C4194663
:1047A8002A849305F00F590506C6EFF07FAA05473E
:1047B8008D476303E5161C4481CB58589947630D10
:1047C8000714185C630A07141306C00381451725EC
:1047D80000201305252CEFF09F9D1306C003A2852A
:1047E800172500201305052B97F0FF1FE78000749D
:1047F8009727002083D7C72A9726002093868629E3
:1048080099E79307001017270020231BF7289727FD
:10481800002083C7072991E785471727002023022F
:10482800F7289727002083C7D72791E7ED47172751
:104838000020A308F7269727002083C7A72691E71B
:10484800954717270020230FF7249727002083C7B1
:10485800772591E7854717270020A305F724972791
:10486800002083C7772499E783C70601172700200C
:10487800A30CF7229727002083C7E72291E7D147A7
:10488800172700202301F7229727002083C76722D4
:1048980095E717270020034727211316870161860C
:1048A8009307C002634806009377170093B7170071
:1048B8009387D70217270020230DF71E972700207C
:1048C80083C7771E95E7172700200347E71D1316B0
:1048D800870161869307C002634806009377170033
:1048E80093B717009387D70217270020A30DF71A4D
:1048F8008347D40191E7894717270020A30AF71AAD
:104908009C5691C78297972700202396A71CB933F6
:10491800FD57A384F1AA8147B24022443E85410154
:10492800828089473E858280011122CC06CE2A8466
:104938002EC6EFF00FEBB245F240818D33A5A502EC
:10494800229562441375F50F05618280011122CC0E
:1049580006CE2A842EC6EFF0CFE8B245F240818D0C
:1049680033A5A502229562444205418105618280F2
:10497800011122CC06CE2A842EC6EFF08FE6B2456E
:10498800F240818D33B5A50222956244056182808B
:104998009727002093870710985725C3411122C4F1
:1049A80026C206C6BE840297172700200357A712FF
:1049B8002A8441C7BA876373A700AA87C207C1833D
:1049C800BA866373E400A286C206C182958F5147F6
:1049D8006355F706DC5491C3829785471727002053
:1049E800230CF722EF005166972700202395870EA6
:1049F800B24022449244410182809727002083C715
:104A0800A7219DE7972700209387872083C79700D2
:104A1800850793F7F70F17270020A30FF71EA18B21
:104A28009DC78547172700202318F71E6F00B16719
:104A380097270020A382071ED5BF9727002083C78A
:104A4800A71DDDD72244B24092444101C5B78280F8
:104A58009727002093870704D857011122CC06CE48
:104A68003E8401C72AC60297324511CD23A2A194DC
:104A780017F5FF1F13052572EFF05FBBF240624484
:104A88000145056182808307440163DD070097279C
:104A9800002023AB070497F7FF1F9387676A23A2B9
:104AA800F194F9B797F7FF1F9387676DCDBF011191
:104AB80022CC172400201304E4FD084406CE26CA9D
:104AC8004AC801E90545F2406244D24442490561B9
:104AD80082805C58E5DB185C75D770008545829745
:104AE8001844B247E300F7FE9305E00417250020B9
:104AF800035505FB97000020E780E0DA1727002020
:104B08002326A7FE61D117260020035666F99305D0
:104B1800F00FEFF0CFE9814417290020130949FB72
:104B28009727002083C7E7F70326C90163C1F4026A
:104B3800328597000020E780A0E0014597270020F4
:104B480023A607FA9727002023A407FAADBF9725C5
:104B5800002083D5E5F4B38795020844185C898161
:104B680085043E9508C2029765BF411122C41724E7
:104B78000020130424F21C4426C206C64AC0972407
:104B880000209384E4F491EBC84C35E9B240224408
:104B9800924402490145410182801C5CF5D7DC4CF6
:104BA80099EF9305E00417250020035565EF97005A
:104BB8000020E78040CF9727002023A9A7F2C84C00
:104BC80061D5172600200356A6ED9305F00FEFF0E8
:104BD8000FDE01499727002083C7A7ECD04CE35587
:104BE800F9FA9725002083D5A5EB338525031C44C6
:104BF800898105093E951C5C08C28297E1BF970030
:104C08000020E780E0D39727002023A107EE97270D
:104C1800002023AF07EC9DBF011156C2972A002040
:104C2800938A4AE783A78A0022CC4AC84EC606CE92
:104C380026CA52C45AC0AA892E843289638507229B
:104C480003A74A03630707147D476366A7149724DD
:104C580000209384E4E703AAC40163170A0A956550
:104C6800938515E017250020035585E3970000205C
:104C7800E78060C39727002023AAA7E62A86630A4D
:104C8800051083A74A0303A58A009725002083D52A
:104C980025E18981829783A78A0003AAC40117277F
:104CA80000202327F7E48947639CF908C14763126A
:104CB800F40E9725002083D5A5DE938505FC914742
:104CC800B3C5F5028A05D29503C705009307A00569
:104CD800631DF70A83C715006399370B4A85228637
:104CE800910597F0FF1FE7806024DC4C52856393A1
:104CF80047150145F2406244D2444249B249224A2A
:104D0800924A024B056182809850E38EE7F89565D8
:104D1800938525E017250020035585D897000020A6
:104D2800E78060B82A8A35C52A8683A74A0303A57F
:104D38008A009725002083D5A5D689818297A5B7B3
:104D48008D47639DF900C1476315F404972500203A
:104D580083D505D5938545FDF199B5B79147639AF4
:104D6800F900631834039725002083D565D3A1156E
:104D7800E5B7C147639FF900A14763EC8700972512
:104D8800002083D5E5D1C115C1BFDC4C528563979E
:104D9800470D294585B71307F006568B6361A70AA7
:104DA800130A05FE1947334AEA021727002003575A
:104DB80027CF972A0020938AAAD1330AEA023E9A7B
:104DC80083A70A026395470183A4CA019DE493055A
:104DD800E004172500200355A5CC97000020E780A4
:104DE80080ACAA845DD583274B039725002083D503
:104DF80025CB2A8689815285829791451307A0057C
:104E0800898193972500A69783C607006393E604D4
:104E180083C61700639C360385058A052286A695F6
:104E28004A8597F0FF1FE780601083A7CA01E382D5
:104E380097EC268597000020E78080B05DBD1307BA
:104E4800E007E368A7F4130A05F985B783D52700B7
:104E580045BF83A7CA01E38E97F2268597000020F5
:104E6800E78000AE3DB797270020938767C6CC4FF1
:104E78008DD191479306A0058983139727002E9714
:104E880003460700E317D6F003461700631C3601F4
:104E980085078A072286BE954A8597F0FF1FE78017
:104EA800E00881BD83572700C1BF9727002093875B
:104EB80067BE984739C79C5FA9C705476313E504D0
:104EC800411122C417240020130484C0504C06C684
:104ED8000DC608509725002083D585BC8981829707
:104EE800484C97000020E780A0A59727002023AF13
:104EF80007BE9727002023AD07BEB24022444101D8
:104F0800828082800111172700201307A7B84EC698
:104F18008329870022CC26CA4AC806CE52C456C264
:104F2800AA842E843289638A09201C5FBA8A99EB85
:104F38002945F2406244D2444249B249224A924A3F
:104F4800056182805C5BEDD7FD4763E9A70E972971
:104F580000209389E9B783A7C901B1CB03A58A00CB
:104F680083A709026395A70689476393F408C14795
:104F7800E310F4FC17250020035585B2914713056B
:104F880005FC3345F5029317250003A5C9012286C0
:104F9800CA853E959307A0052300F500A300950058
:104FA800110597F0FF1FE78060F8014559B7930591
:104FB800E004172500200355A5AE97000020E780E0
:104FC800808E9727002023A3A7B249F995B783A716
:104FD8004A0303A6C9019725002083D565AC8981BA
:104FE800829783A78A00172700202323F7B0ADBF35
:104FF8008D47639EF400C147E31CF4F21725002097
:10500800035505AA130545FD9377C5FFBDBF914715
:10501800639AF400E31E94F017250020035545A871
:105028002115DDB7C147E395F4F0A147E3E287F026
:10503800172500200355C5A64115F9B79307F006B3
:1050480063EAA706930705FE1947B3C7E7021727C0
:1050580000200357E7A4172A0020130A6AA7B3877A
:10506800E702BE998327CA01A9CF83270A02639A58
:1050780037070325CA0191461308A005FD5593D7A4
:105088002600C207C183139727002A970346070003
:10509800631D060783481700035627006395980683
:1050A800B306D64063CF860485078A072286CA8559
:1050B8003E95C5BD9307E007E3ECA7E6930705F91E
:1050C80079B79305E004172500200355659D97F0EF
:1050D800FF1FE780407D9727002023A9A7A051F54F
:1050E80081BD83A74A030326CA019725002083D5DB
:1050F800259B89814E8582979727002023AA379F71
:105108008DBFA300B700B2869DBFB3858600172662
:1051180000200356E6989105130606FCE3FAC5E05D
:10512800130634001376C60F1106B2962300070142
:10513800A30097002311D70085BF972700209387E6
:105148002799D44FBE89A1C203A5C9019146130866
:10515800A005FD5593D72600C207C18313972700E2
:105168002A97034607006316060583481700035667
:10517800270063989800B306D640E3D786F2A300C9
:10518800B700B286C1BF8357C70017250020034563
:1051980045919305E0043305F5024205418197F0F6
:1051A800FF1FE78040709727002023A1A79449FD9F
:1051B80041B3172600200356A68E9725002083C5E5
:1051C800458EB385C502338686001106E3E2C5D64F
:1051D80081BF01458280011106CE2EC6EF70404680
:1051E80001C9B245F2400355250005616FA000755D
:1051F800F240494505618280A3880196238801967B
:1052080023AC019423AE019423A0019623A2019616
:1052180023AA019423A80194972700209387478FF6
:105228003707B40098C33747A000D8C33707100022
:105238009306070A94C7B7065000C106D4C7930659
:1052480007054107D8CB3707D007410798CF37075D
:10525800840398D337C70700130707B8D8D3416723
:1052680094CB93060701130717F8D8D7370781FFA0
:1052780098DB7D5723AE070094D7239AE7028280F4
:10528800011126CAAA84214522CC06CE2E8432C614
:1052980036C43AC2EFE01FBB1DC9A24612473246C8
:1052A800930700FD2300F5009947A300950023010B
:1052B800F5002303D500A303E5002312C500AA8542
:1052C80022856244F240D24405616FE01FC2F24079
:1052D8006244D2440561828023ACA194828023AECB
:1052E800A194828023A0A196828023A2A196828085
:1052F800011122CC4AC806CE26CA2A890144B30421
:1053080089006368B400F2406244D24442490561AE
:1053180082802EC6EFE0FFCC93170501C183A183DD
:10532800B2452380F4009307140093F7F70F850420
:1053380063F9B700CA9709042380A7001374F40F10
:105348007DBF3E847DBFC16717250020035525809A
:10535800FD176302F502411103C6C19F938581962B
:1053680006C6EF70200FB240FD5717170020231014
:10537800F77E41018280828009C925151375F50FD2
:105388001335850E134515008280014582802380E0
:105398000500F94763E2C708797122D426D24ECEB8
:1053A80056CA5AC806D64AD052CC5EC63684B28986
:1053B800AE8A2A8B814463FF3405B307940003CA7D
:1053C8000700138914001379F90F63050A04B3075A
:1053D8002A0163C1F904B307240183CB07005E8562
:1053E800613F0DC99307FAFF2380FA0063906B03AE
:1053F800130519002295B250225492540259F249C9
:10540800624AD24A424BB24B45618280D29493F4AD
:10541800F40F55B70145C5B701458280411126C231
:10542800AE8422C49717002023AAC77297170020BA
:1054380023A4B7729717002023AEA7702A84414689
:105448009305F00F26854AC006C60549EFE05FE0E0
:10545800631E2503971700209387076F884BC14564
:10546800413D41469305F00F2285EFE07FDE8544FC
:10547800631695022244971700209387E76CB24081
:1054880092440249C847C14541019DB541468145FD
:105498002685EFE0FFDBE31625FD6DBF414681451C
:1054A8002285EFE0FFDAE30795FCB24022449244FC
:1054B800024941018280411122C426C22E84AA8455
:1054C800130600028145171500201305E56706C677
:1054D800EFE0FFCD97170020A3899766A38F819EE1
:1054E800EFA04047854719C181474945B24022444A
:1054F80017170020230AF7649244410182808147EC
:1055080081CD19C98547631BF50083C7550093E70B
:1055180007FCA382F50085473E858280894763178B
:10552800F50083C7550093F7F703E5B70D4785479F
:10553800E314E5FE03C755001377F7031367070461
:10554800A382E500D1BF81478DC105C103C75500BE
:105558009306000C85471377070C6308D70093065A
:1055680000048D476303D70089473E858280411137
:1055780022C4005D06C626C21DC8AA84085009C5F3
:1055880097F0FF1FE780C03B485009C597F0FF1F01
:10559800E780003B085409C597F0FF1FE780403AB1
:1055A800228597F0FF1FE780A03923AC0402B240A0
:1055B800224492444101828009ED9717002083C755
:1055C800C758171500201305A55981CB1385819459
:1055D8008280171500201305A55882801715002012
:1055E8000345A5568280971700209387E755C8473B
:1055F80082809717002093872755884B82809717BA
:10560800002093876754DC4B8843828097170020DB
:1056180093878753D84B1C4385071CC31715002055
:105628000345B5529307F00F6305F50091656FE0E8
:10563800DFC48280011122CC06CE2E8432C6EF70E0
:10564800600F9147B245631FF500938741969C43CD
:105658008DC303A30700630E030022856244F24052
:10566800056102839387C1959C4381C703A34700C3
:10567800DDB7F2406244054505618280011122CC04
:105688002A840355450006CE26CA4AC84EC6EF608E
:10569800506B35C52A89834405008349C500C13D3F
:1056A8004A85EF70B06203554400EF70200483C749
:1056B8000197B1CB6399970483C511972685EFF0BD
:1056C8009FB119E12388019603554400EF708006C5
:1056D8009147631FF500035744009717002083D7AD
:1056E80007476317F700FD57171700202311F746E0
:1056F800F2406244D2444249B249056182808149FC
:105708009304F00F6DB79307F00FE38FF4FA834615
:10571800640003564400034524004E87A685EFF035
:105728003FB65DB779715EC6AA8B2E8552CC56CA34
:105738005AC806D622D426D24AD04ECEAE8A328B4A
:10574800368AEF60106075C1045D2A89F9CC9C50D7
:10575800614599C3130540039C5481C7510542050F
:10576800418163050A00710542054181DC5081C70A
:10577800590542054181EFE0EFEC2A845DC5614699
:105788008145EFE0DFA29719002083C9693B639444
:10579800090083490900930700FD2300F400A94785
:1057A800A30074012301F400230364018C50231225
:1057B80054011305840191C908C47146930A44032E
:1057C80097E0FF1FE780807656858C5491C948C4BE
:1057D8005146930A450197E0FF1FE78020755685DB
:1057E800630C0A0008C87146D285930AC50197E080
:1057F800FF1FE780A0735685CC5099C548C8594605
:1058080097E0FF1FE7808072A2854E85EFE0EFEDFD
:105818002254B2509254F249624AD24A424BB24B95
:105828004A85025945616FF09FD4B2502254925470
:105838000259F249624AD24A424BB24B45618280D0
:1058480001114EC6AA892E854AC806CE22CC26CA80
:105858002E89EF60104F31C59714002083C4442E61
:1058680099E0834405001945EFE0CFDD2A8415C986
:1058780081451946EFE0BF93930700FD2300F4002C
:10588800B947A30034012301F40023122401A2859F
:105898006244F2404249B2492685D24405616FE02C
:1058A800CFE4F2406244D2444249B2490561828061
:1058B80039715ECEAA8B2E8526DA4ED652D456D2B0
:1058C8005AD006DE22DC4AD8AE84328BB68A3A8AAF
:1058D800BE8942C6EF60F04631C92A894145EFE0EA
:1058E8006FD62A8421C541468145EFE05F8C1715A4
:1058F80000200345E52419E103450900930700FD4D
:105908002300F400BD472301F400B247A30074014B
:105918002312940023046401A304540123054401C1
:10592800A30534015CC4A285EFE02FDCF250625479
:10593800D2544259B259225A925A025BF24B21610F
:105948008280797126D2AA8439454AD04ECE06D6AD
:1059580022D42EC6B2893689EFE0CFCE21C1B24516
:105968009307000D2310F500B1472A842312B500D0
:105978002301F500CE851905194697E0FF1FE7803A
:10598800E05A23062401A2852254B2500259F24952
:1059980013F5F40F925445616FE02FD5B25022549D
:1059A80092540259F2494561828017170020034733
:1059B800D7199307F00F630DF706411126C2AA8481
:1059C800394522C406C64AC0EFE0CFC72A8439C980
:1059D800930700FD2300F500A300950023010500AF
:1059E800971500209385C5170D05194697E0FF1FE9
:1059F800E780C05317190020130909158357890038
:105A0800A28517150020034555142315F400834774
:105A180019002306F4002244B2409244024941018D
:105A28006FE0AFCCB24022449244024941018280E7
:105A38008280011156C2AA8A314526CA4AC84EC672
:105A480052C406CE22CCAE84328AB6893A89EFE0B7
:105A58006FBF29C92A842685EF60B02E1DCD034566
:105A68000500930700FD2300F4009D47A30054019F
:105A78002301F40023129400231344012314340156
:105A880023152401A2856244F240D2444249B24916
:105A9800224A924A05616FE04FC517150020034559
:105AA800D50AC1B7F2406244D2444249B249224AB7
:105AB800924A05618280397162CC2A8C594526DA6E
:105AC8004AD84ED652D456D25AD05ECE06DE22DC02
